:100000000C94E5000C940D010C940D010C940D0161
:100010000C940D010C940D010C940D010C940D0128
:100020000C940D010C940D010C940D010C940D0118
:100030000C9400050C940D010C940D010C940D0111
:100040000C940D010C940D010C940D010C940D01F8
:100050000C94E2130C9425140C940D010C940D01D6
:100060000C940D010C940D010C940D010C940D01D8
:100070000C940D010C940D010C940D010C940D01C8
:100080000C9458020C940D010C940D016E616E00DD
:10009000696E660000407A10F35A00A0724E18098B
:1000A0000010A5D4E80000E87648170000E40B54DF
:1000B000020000CA9A3B000000E1F50500008096AE
:1000C0009800000040420F000000A08601000000E0
:1000D000102700000000E80300000000640000009A
:1000E00000000A00000000000100000000002C7663
:1000F000D888DC674F0823DFC1DFAE59E1B1B7967E
:10010000E5E3E453C63AE651997696E8E6C28426DA
:10011000EB898C9B62ED407C6FFCEFBC9C9F40F2B6
:10012000BAA56FA5F490055A2AF75C936B6CF96732
:100130006DC11BFCE0E40D47FEF520E6B500D0EDF7
:10014000902E0300943577050080841E080000205F
:100150004E0A000000C80C333333330F986E1283FD
:100160001141EF8D2114893BE65516CFFEE6DB18D1
:10017000D1844B381BF77C1D901DA4BBE424203296
:1001800084725E228100C9F124ECA1E53D27494E2D
:1001900046494E4954594E414ECDCCCC3D0AD72309
:1001A0003C17B7D13877CC2B329595E6241FB14F49
:1001B0000A000020410000C84200401C4620BCBE8E
:1001C0004CCA1B0E5AAEC59D740011241FBECFEF42
:1001D000D0E4DEBFCDBF14BE88E10FB6F8948093A3
:1001E0006000109260000FBE12E0A0E0B1E0E0EF0E
:1001F000F7E400E00BBF02C007900D92AA36B107EA
:10020000D9F715E0AAE6B2E001C01D92AA3DB107F8
:10021000E1F70E948E0C0C94F6230C9400000895D4
:1002200008950895DF93CF930F92CDB7DEB78FB7C0
:100230008983F8942091AD023091AE0289818FBFFD
:10024000C9010F90CF91DF910895DF93CF930F9263
:10025000CDB7DEB7AC01009719F4FB01099530C0AA
:100260008FB78983F894ACE6B2E0E0E08D919C9181
:100270001197892B09F52E2F30E0F901EE0FFF1FA2
:10028000EE0FFF1FE20FF31FE459FD4FCA014115A6
:10029000510511F481E090E091838083F901EE0F24
:1002A000FF1FEE0FFF1FE20FF31FE459FD4F748392
:1002B000638390916A0234C0EF5F1596EA30B1F61D
:1002C00090E03DC091E0EEE6F2E041E080818917E8
:1002D00009F440E0359682E0E03AF807B9F78091FA
:1002E000A002891709F440E08091A502891709F45A
:1002F00040E08091AA02891799F0442389F09093F5
:100300006A02F901EE0FFF1FEE0FFF1FE20FF31F4E
:10031000E459FD4F928380916B02882321F00DC038
:100320009F5F89F6CFCF109295001092940082E0E3
:100330008093710081E080936B0289818FBF892F48
:100340000F90CF91DF910895DF93CF930F92CDB7A8
:10035000DEB7AC01009719F4FB01099516C0809136
:100360009E0290919F02892B11F4E0E011C08091D0
:10037000A3029091A402892B11F4E1E009C08091BD
:10038000A8029091A902892B11F090E050C0E2E000
:100390002E2F30E0F901EE0FFF1FEE0FFF1FE20FCF
:1003A000F31FE256FD4F5183408374836383909122
:1003B0006A029F5F09F491E0EEE6F2E041E080819D
:1003C000891709F440E0359682E0E03AF807B9F77A
:1003D0008091A002891709F440E08091A502891755
:1003E00009F440E08091AA02891719F3442309F324
:1003F00090936A02F901EE0FFF1FEE0FFF1FE20F4D
:10040000F31FE256FD4F92838FB78983F894809152
:100410006B02882351F4109295001092940082E0B0
:100420008093710081E080936B0289818FBF892F57
:100430000F90CF91DF910895982FEEE6F2E020E043
:1004400030E08081891769F4F901EE0FFF1FEE0F8C
:10045000FF1FE20FF31FE459FD4F11821082128239
:1004600008952F5F3F4F35962A30310551F780911F
:10047000A002891719F480E090E00DC08091A502D8
:10048000891719F481E090E006C08091AA028917CB
:1004900071F482E090E0FC01EE0FFF1FEE0FFF1FF2
:1004A000E80FF91FE256FD4F118210821282089563
:1004B0001F920F920FB60F920BB60F921124DF927C
:1004C000EF92FF920F931F932F933F934F935F935E
:1004D0006F937F938F939F93AF93BF93EF93FF930C
:1004E000DF93CF9300D00F92CDB7DEB78091AD02EE
:1004F0009091AE0201969093AE028093AD028091EE
:1005000000019091010101979093010180930001F6
:10051000892B49F00CE612E066E1D62E7E010894A4
:10052000E11CF11C27C088EE93E0909301018093B9
:1005300000010EE912E056E1D52E7E010894E11C7F
:10054000F11CF80180819181009769F001979183F6
:100550008083892B41F4D982838194819B838A8310
:10056000C7010E947E080B5F1F4FF2E00D3A1F0784
:1005700041F7D0CFF80180819181009769F0019710
:1005800091838083892B41F4D982838194819B83D9
:100590008A83C7010E947E080B5F1F4FF2E00E396D
:1005A0001F0741F70F900F900F90CF91DF91FF91B0
:1005B000EF91BF91AF919F918F917F916F915F91DB
:1005C0004F913F912F911F910F91FF90EF90DF90EE
:1005D0000F900BBE0F900FBE0F901F901895E1E982
:1005E000F0E080818A60808388EE93E090939900A8
:1005F0008093980080919400909195000E94A11F93
:1006000008959C01F999FECF32BD21BDF89A80B5BD
:1006100008959C01F999FECF1FBA32BD21BD60BD7E
:100620000FB6F894FA9AF99A0FBE089584B1806AC9
:1006300084B92F9A249A2C9A80E58CBD81E08DBDD7
:100640000895239A219A84B1806A84B92F9A249AB2
:100650002C9A80E58CBD81E08DBDEFE6F0E08081D5
:100660008062808383E480938100B59A0895DF934C
:10067000CF930F92CDB7DEB780689FB79983F89478
:100680002C988EBD0DB407FEFDCF8EB58EBD0DB47A
:1006900007FEFDCF8EB52C9A99819FBF0F90CF9109
:1006A000DF910895DF93CF930F92CDB7DEB7982FE8
:1006B000906C8FB78983F8942C989EBD0DB407FE7B
:1006C000FDCF8EB56EBD0DB407FEFDCF8EB52C9A55
:1006D00089818FBF9F73923059F46F71663011F02A
:1006E000663121F481E08093C60502C01092C605F0
:1006F0000F90CF91DF910895FF920F931F93062FD4
:10070000F42E0E943703082310E002C015950795C8
:10071000FA94E2F7802F1F910F91FF900895DF92D6
:10072000EF92FF920F931F93D82EF62EE42E022FF6
:100730000E9437036F2D6095682310E002C0000F00
:10074000111FEA94E2F7F0226F298D2D0E945203C7
:100750001F910F91FF90EF90DF900895DF93CF935B
:100760000F92CDB7DEB78FB78983F8942C9880E2CB
:100770008EBD0DB407FEFDCF8EB58EBD0DB407FE48
:10078000FDCF9EB5892F83508D37A8F490937304C5
:100790009EBD0DB407FEFDCFE4E7F4E08EB51EBCB0
:1007A00081930DB407FEFDCF9150C1F78EB58093B4
:1007B000F3042C9A07C02C9A109273041092F3043D
:1007C0001092F40489818FBF0F90CF91DF9108952B
:1007D000DF93CF930F92CDB7DEB7FC016F778FB762
:1007E0008983F8942B9A2B982C9880E68EBD0DB4B3
:1007F00007FEFDCF8EB56EBD0DB407FEFDCF8EB5E5
:1008000081918EBD61500DB407FEFDCF8EB566237C
:10081000B9F72C9A89818FBF0F90CF91DF910895FE
:10082000DF93CF930F92CDB7DEB7982FFA018FB732
:100830008983F8942C981EBC0DB407FEFDCF8EB5AD
:100840009EBD0DB407FEFDCF8EB51EBC0DB407FED8
:10085000FDCF8EB58083615011F03196F6CF2C9A82
:1008600089818FBF0F90CF91DF910895DF93CF9350
:100870000F92CDB7DEB7982FFA018FB78983F8941E
:100880002C9880E48EBD0DB407FEFDCF8EB59EBDC5
:100890000DB407FEFDCF8EB581918EBD0DB407FE60
:1008A000FDCF8EB56150C1F72C9A89818FBF0F9013
:1008B000CF91DF9108950895DF93CF930F92CDB735
:1008C000DEB7E62FBA012FB72983F89429E033E089
:1008D0004E2F50E00E94C92089818FBF0F90CF9189
:1008E000DF910895DF93CF930F92CDB7DEB7FC0170
:1008F000CA012FB72983F89421E033E0462F50E056
:10090000BF010E94AD2089818FBF0F90CF91DF91F1
:100910000895DF92EF92FF920F931F93DF93CF938F
:1009200000D0CDB7DEB78091AF02882311F011E07F
:100930005CC081E08093AF02D0906600F89461E0E3
:100940000E94490DE090B100F0908100009180007C
:100950001092B100109281001092800020E030E0EF
:1009600063E056E04FEF6093B10050938100109226
:10097000B200109285001092840046BB47BBB89B22
:10098000FECF80918400909185009A838983109294
:1009900081001092B10089819A818A5F934020F48E
:1009A0008091660081500AC089819A818650944066
:1009B00010F411E00CC0809166008F5F8093660098
:1009C0002F5F3F4F83E0283E380769F610E060E074
:1009D00081E00E94490DE092B100F0928100009305
:1009E0008000112311F4D0926600812F0F900F9098
:1009F000CF91DF911F910F91FF90EF90DF900895BD
:100A00001F920F920FB60F920BB60F9211240F93F5
:100A10001F932F933F934F935F936F937F938F9386
:100A20009F93AF93BF93EF93FF938FE00E943703A1
:100A3000082F182F83FF02C00E94A90E14FF02C0C6
:100A40000E94A80B12FF10C02C9880E28EBD0DB43E
:100A500007FEFDCF8EB51EBC0DB407FEFDCF8EB5D3
:100A60002C9A0E94EA0C0AC007FF08C08EE00E9480
:100A700037038F77682F8EE00E945203FF91EF912A
:100A8000BF91AF919F918F917F916F915F914F91A6
:100A90003F912F911F910F910F900BBE0F900FBEA2
:100AA0000F901F90189580938B050E94880D0895D4
:100AB0001F93182F8FEF9FEF9093830580938205EC
:100AC000909385058093840510927F059093870508
:100AD00080938605909389058093880510928A05F6
:100AE00010928E0581E080938F050E94540F109321
:100AF0008B051F3F19F0812F0E94880D81E00E9415
:100B0000FE0D88E00E94160E0E94AE0C21E042E02D
:100B100064E087E10E948F0386E10E94160E47E79A
:100B200055E068E080E090E00E94720480E00E945E
:100B30001C0D8FEF9FEF0E94040D8FEF9FEF0E941F
:100B4000100D22E044E060EF8CE20E948F0387E703
:100B500095E00E94F40C0E94FE051F9108950895EF
:100B600080E090E0089580E008958FEF9FEF089572
:100B70009C01009771F0E3EBF2E080819181821794
:100B8000930711F481E00895339683E0E934F80780
:100B9000A1F780E0089580E00895AC01E3EBF2E076
:100BA00020E030E0808191818417950751F4F901AC
:100BB000EE0FFF1FE20FF31FED54FD4F1182108265
:100BC00008952F5F3F4F33962233310559F708952B
:100BD00080E090E0089580E090E0089580E090E06B
:100BE000089580E090E0089508950895089580E0C4
:100BF00090E00895089580E090E0089508950895A4
:100C00000895FC0185858F77858708951092B2023B
:100C10001092B102E3EBF2E020E030E00EC0808100
:100C20009181A9014F5F5F4F3396892B29F0309353
:100C3000B2022093B1020AC09A012233310578F33F
:100C40003093B2022093B10220E030E0C901089550
:100C50002091B1023091B202F901EE0FFF1FE20FB5
:100C6000F31FED54FD4F0EC080819181A9014F5FAC
:100C70005F4F3396892B29F03093B2022093B10253
:100C80000AC09A012233310578F33093B2022093DF
:100C9000B10220E030E0C901089521E0880F991FDA
:100CA000FC0133E0EE0FFF1F3A95E1F7E81BF90B6B
:100CB000EF54FD4F8081882331F081859285009724
:100CC00019F02F5FEBCF20E0822F0895AC01A3EB4A
:100CD000B2E0FD0120E030E080819181841795072A
:100CE00059F4F901EE0FFF1FE20FF31FEB54FD4F14
:100CF00080818C7F808308952F5F3F4F339622330E
:100D0000310551F720E030E08D919C911197892BAE
:100D1000A1F4F901EE0FFF1FE20FF31FDF01AD5445
:100D2000BD4F4D935C93EB54FD4F80818C7F80834E
:100D3000822F90E00E94971408952F5F3F4F1396E3
:100D40002233310509F708958091B0020E941C02F8
:100D500080917F0591E089270E944F150895CF93D8
:100D6000DF93EC01862F0E94530583E698EC909365
:100D7000F7048093F604809181058093F8048F5FD7
:100D80008093810580918205909183059093FA0468
:100D90008093F904D093FC04C093FB04ADEFB4E05E
:100DA000E7E7F5E088E001900D928150E1F781E0FE
:100DB00080930505D0930705C093060582E08093D4
:100DC000080566EF74E083E10E94820E64EA76E033
:100DD00088EE93E00E9425018093B002DF91CF91CD
:100DE000089580E090E89093F7048093F604809152
:100DF00080058093F8048F5F809380058091820541
:100E0000909183059093FA048093F904809184056E
:100E1000909185059093FC048093FB048FEF90E004
:100E20009093FE048093FD0486E08093FF048091FC
:100E30008A058093000566EF74E08BE00E94820EC5
:100E40000895089508950895DF93CF93CDB7DEB741
:100E500060970FB6F894DEBF0FBECDBF81E698E86D
:100E60009A838983809181058B838F5F809381052D
:100E700080918205909183059D838C838091840568
:100E800090918505998788879D878C8780914903F4
:100E900090914A039B878A8780914B038E870E949B
:100EA0009E0C8F870E94A10C888B80918605909163
:100EB00087059F838E83BE016F5F7F4F80E10E9415
:100EC000820E60960FB6F894DEBF0FBECDBFCF91F5
:100ED000DF910895282F80918405909185056817EA
:100EE000790789F080917F05882369F070934A0320
:100EF0006093490320934B0310924C030E942407F4
:100F000081E080938E05089566EF74E08091F5048A
:100F10000E94820E08958091810490E08F779070F6
:100F20008330910559F18430910534F48130910575
:100F300049F0029781F51BC08430910531F1069785
:100F400051F503C00E947A150895409182042091C2
:100F50007B0430917C048091860590918705281749
:100F60003907C9F4842F90E00E94FF05089580910D
:100F70007F04909180040E943115089580917F0430
:100F8000909180040E941815089580918204909198
:100F900083040E94CD050895EF92FF920F931F9353
:100FA000CF93DF93EC01062F7A01122F2091840555
:100FB000309185058217930709F46CC08FEFCF3FFE
:100FC000D80709F467C080917F05882309F462C0BF
:100FD00081E698E89093F7048093F6048091810568
:100FE0008093F8048F5F80938105809182059091B2
:100FF00083059093FA048093F9043093FE042093C0
:10100000FD04D0930005C093FF04309302052093A4
:101010000105CE010E948B09163029F4D093FC04FF
:10102000C093FB0408C0809186059091870590933A
:10103000FC048093FB041093030590E009C0E92FA2
:10104000F0E0EA50FB4FD7018D917D0186879F5FCD
:101050009017A8F32091FB043091FC048091840543
:101060009091850528173907A9F02F5F3F4F91F020
:10107000025F0093F5041650123018F087E090E0FC
:1010800002C080E090E064E877E00E94250181E002
:1010900080938E05DF91CF911F910F91FF90EF907C
:1010A0000895DC010D900020E9F7A81B27E0AC01B2
:1010B0006A2F80E090E00E94CC070895DF93CF93E1
:1010C00000D0CDB7DEB77A83698326E0AE014F5FEB
:1010D0005F4F62E00E94CC070F900F90CF91DF919D
:1010E000089521E00E94CC07089590919005809189
:1010F000910520E0981321E0822F08950F931F930C
:10110000182F092F809190052091910590E001966C
:101110006AE070E00E941D2330E082179307D9F047
:1011200040919005842F90E0FC01EE0FFF1FE80F27
:10113000F91FEE56FA4F212F302FC901DC0183E051
:101140000D9001928150E1F7842F8F5F8A3008F073
:1011500080E0809390051F910F910895DF93CF93C6
:101160000F92CDB7DEB780919105898399818981EE
:101170008F5F898389818A3008F019828981809301
:10118000910523E0929F900111242E563A4FC901F8
:101190000F90CF91DF9108950F931F93DF93CF931B
:1011A0000F92CDB7DEB703E011E0A7C080919105A3
:1011B00089838981809FF0011124EE56FA4F89813D
:1011C0008F5F898389818A3008F0198289818093B1
:1011D00091058081843119F1853180F4813109F4E0
:1011E0008AC0823120F4803109F087C025C0823165
:1011F00009F47EC0833109F080C077C0873109F4DB
:1012000041C0883130F4853189F1863109F075C0EB
:101210000EC08831F1F1893109F06FC05FC0809153
:101220007F05882309F069C00E94FD0B66C001801C
:10123000F281E02D099561C080917F05882309F432
:101240005CC084E794E00E94010620917D04309107
:101250007E0480918405909185052817390719F43B
:101260000E948B074AC00E948D0947C080917F056C
:10127000882309F442C061EF76E081E090E00E94AB
:1012800025013BC080917F058823B9F10E94040AA3
:1012900034C0809174049091750483569C48B9F4CD
:1012A00010937F058091810490918204909387052B
:1012B00080938605809184049091850490938505A0
:1012C000809384050E94040D0E94A40616C080919C
:1012D0007F05882391F00E940B0B0FC080917F0542
:1012E000882359F00E94B80A08C00E94971505C0CB
:1012F0000E949A1502C00E94DE159091900580917F
:101300009105981709F052CF0F90CF91DF911F915F
:101310000F910895089580E00895A5EFB4E0E3E704
:10132000F4E082E801900D928150E1F76EE574E1FE
:101330008AE090E00E9425018091FF0490910005D1
:101340000E94B805882319F1809181058093F804E3
:101350008F5F809381052091FF04309100053093C9
:10136000FC042093FB048091840590918505909363
:10137000FE048093FD042F5F3F4F09F444C0809129
:10138000F50466EF74E082500E94820E0895209169
:101390008605309187058091FD049091FE048217A7
:1013A000930781F4809181058093F8048F5F809387
:1013B000810580918805909189059093FC04809324
:1013C000FB040BC0809181058093F8048F5F8093AC
:1013D00081053093FC042093FB0480918405909157
:1013E00085059093FE048093FD048091FB04909109
:1013F000FC048F5F9F4F39F08091F50466EF74E035
:1014000082500E94820E0895DF93CF93CDB7DEB74E
:1014100065970FB6F894DEBF0FBECDBF80917504FF
:10142000883C09F043C083E698E89A8389838091D9
:1014300081058B838F5F80938105809182059091D8
:1014400083059D838C8380918605909187059F837A
:101450008E8380918405909185059987888781E0A6
:101460008A8780918404909185049C878B878091E2
:101470007B048D8780917C048E8780917D048F878B
:1014800080917E04888B80917F04898B8091800479
:101490008A8B809181048B8B809182048C8B8091CC
:1014A00086048D8BBE016F5F7F4F56C083E698E840
:1014B0009093F6048093F504809181058093F7045E
:1014C0008F5F809381058091820590918305909331
:1014D000F9048093F8048091860590918705909394
:1014E000FB048093FA048091840590918505909384
:1014F000FD048093FC0481E08093FE0480917E04CF
:1015000090917F04909300058093FF048091800464
:10151000809301058091810480930205809182046B
:101520008093030580918304809304058091840453
:10153000809305058091850480930605809186043B
:101540008093070580918704809308058091880423
:101550008093090565EF74E085E10E94820E65962F
:101560000FB6F894DEBF0FBECDBFCF91DF910895C7
:1015700090917304A5EFB4E0E3E7F4E082E8019012
:101580000D928150E1F780917F05882309F442C0D4
:10159000292F2C502695E1E0F0E0E21BF109EE0F37
:1015A000FF1FF095E195FF4FE050FB4F8081918147
:1015B0009093890580938805223060F183E698E84E
:1015C0009093F7048093F604809181058093F8044A
:1015D0008F5F809381052150822F90E0FC01EE0FF8
:1015E000FF1FE050FB4F208131813093FC0420939A
:1015F000FB0420918405309185053093FE042093EF
:10160000FD042BEB2093FF04059666EF74E0880F32
:101610000E94820E08950F931F93CF93DF938091C2
:101620007F05882309F486C020917E0430917F04D1
:10163000809184059091850505EF14E028173907FE
:1016400009F049C083E69CE89093F6048093F50482
:10165000809181058093F7048F5F8093810580914D
:101660008205909183059093F9048093F80480910A
:1016700080048093FA04809181048093FB0480911C
:1016800082048093FC04809183048093FD04809104
:1016900084048093FE04809185048093FF048091EC
:1016A0008604809300058091870480930105309320
:1016B00003052093020582E080930405809188044D
:1016C0009091890490930605809305050E94660613
:1016D000B80182E12DC0E8012196D801E3E7F4E0EA
:1016E00082E801900D928150E1F7809181058A8313
:1016F0008F5F8093810580918805909189059E83F5
:101700008D83809184059091850598878F83809142
:101710000005909101050E94B805882331F0809161
:101720000005909101059E838D8366EF74E086E14C
:101730000E94820EDF91CF911F910F9108958091A9
:101740004D03089580930201089580910201089548
:10175000089508951F9310E08091B5058F3FE1F043
:1017600011E08091B1059091B2059093830580932B
:1017700082052091B3053091B405309387052093FD
:1017800086050E94100D8091B5050E945305809139
:10179000B9058F5F80938A05812F0E9489141F915C
:1017A00008952091F304809175048295869586951D
:1017B00083708093B0058091770490917804909322
:1017C000B2058093B1058091790490917A04909349
:1017D000B4058093B30580917E048093B905809110
:1017E0008B0581508093B5051092B6052093BA05FC
:1017F0000E949E0C8093BB0508951F934091F304B3
:1018000080914D03882359F12091B7053091B80597
:1018100080917B0490917C049093B8058093B705E8
:101820008091B80587FF05C03093B8052093B705B0
:1018300016C08091BA05841780F0841781F49091C6
:10184000B90580917E04891740F0981741F41091F2
:10185000BB050E949E0C181710F40E94D10B1F911B
:10186000089590918B059F3FA9F481E080934D03EB
:1018700086E1E0EBF5E0DF011D928A95E9F79093B0
:10188000B5058BE080938B0580910201803811F0C3
:1018900080938B0540918B054B3148F4242F30E029
:1018A0008091020190E001962817390741F41092C7
:1018B0004D038FEF80938B050E94AA0B0895842F10
:1018C0000E94530583E098E09093F7048093F60418
:1018D000809180058093F8048F5F809380058FEF5F
:1018E0009FEF9093FA048093F9049093FC04809303
:1018F000FB0487E08093FD0466EF74E088E00E94BB
:10190000820E80918B058F5F80938B0561E37CE075
:1019100084E190E00E942501089508950E945B04EF
:1019200080E090E00E9415120E94EF020E946F1565
:1019300078940E9467140E94CC08FACF80914F03DC
:1019400008958091F304089529982B988DE090E0F4
:101950000197F1F7299A089508950895089540E0B0
:101960006FE181E00E947C03089540E06FE181E037
:101970000E947C03282F8151823058F0223049F098
:10198000213039F080E090E02E3129F481E090E0C0
:10199000089581E090E00895CF93DF93EC0140E05B
:1019A0006FE181E00E947C03863021F0813011F0EC
:1019B00084E407C040E06FE186E00E947C038883F6
:1019C00080E4DF91CF91089540E06FE188E00E94CC
:1019D0007C03089540E06FE186E00E947C038093E1
:1019E0004F0310928E0508951F93CF93DF93EC0160
:1019F00014E26991812F0E9452031F5F1C32C9F7C4
:101A0000DF91CF911F9108951F93192F682F80E2C6
:101A10000E945203612F81E20E9452031F91089598
:101A20001F93192F682F82E20E945203612F83E2D5
:101A30000E9452031F910895282F43E068E08EE230
:101A40000E948F0308952B988DE090E00197F1F7A5
:101A500023E040E06FE182E00E948F0383E090E0AA
:101A60000197F1F708951B9B02C080E408950E943E
:101A7000230D8BE490E00197F1F740E06FE181E006
:101A80000E947C03883011F083E408952B9A80E44F
:101A900008951F93162F663010F082E411C088233A
:101AA00011F421E001C020E043E068E083E00E94FF
:101AB0008F03212F40E067E083E00E948F0380E4E2
:101AC0001F9108951B9902C080E408952B9881EE20
:101AD00096E00197F1F760E081E00E94490D40E057
:101AE0006FE181E00E947C03883071F383E4089504
:101AF000282F803110F082E408951B9B02C084E4FB
:101B0000089540E06FE085E00E948F0380E408952F
:101B10001F93182F8B50803110F082E428C01B9B3C
:101B200002C084E424C040E06FE188E00E947C03AE
:101B30008117E1F0212F40E06FE188E00E948F03E0
:101B400040E06FE181E00E947C03863011F0893033
:101B500021F48DE291E00197F1F740E06FE188E038
:101B60000E947C03811711F083E401C080E41F917F
:101B7000089580914E03882329F48CE10E94370355
:101B800080934E0380914E0308950F931F93DF932C
:101B9000CF9300D0CDB7DEB7082F198240E06FE1B8
:101BA00081E00E947C03182F0E94B90D833021F040
:101BB0000E94B90D8730C9F4163019F4069510E06B
:101BC00010C0163191F4FACF45E060E686E00E943D
:101BD0007C038A8389819A81880F880F892B898366
:101BE0001F5F101788F3898102C00E949C1F0F900D
:101BF0000F90CF91DF911F910F9108951F93182F90
:101C00000E94B90D823031F4212F47E060E885E071
:101C10000E948F030E94B90D833031F4212F45E0DB
:101C200060E284E00E948F031F9108950F931F9339
:101C3000182F883051F0863041F0893031F08631EC
:101C400021F0893111F082E45AC01B9B02C084E468
:101C500056C00E94B50C8823E1F70E94B90D82306E
:101C600039F40E949F0B882319F0163109F416E00D
:101C700040E06FE181E00E947C03082F181709F40F
:101C80003DC0183019F40E94230D2FC0193159F4AA
:101C90008930E1F029E040E06FE182E00E948F03AB
:101CA000063181F40CC0163189F4893079F029E0CD
:101CB00040E06FE182E00E948F03093119F483E074
:101CC00090E002C089E691E00197F1F7212F40E012
:101CD0006FE182E00E948F03083019F489E691E0F9
:101CE00002C083E090E00197F1F740E06FE181E00E
:101CF0000E947C03811711F083E401C080E41F91EE
:101D00000F9108951F93CF93DF93182FEB0187FF57
:101D100002C082E41AC00E94B50C8823E1F789E171
:101D20000E94160E40E06FE181E00E947C03893141
:101D3000B1F78D819E8190938D0580938C051E5FF8
:101D4000612FCE010E94E80380E4DF91CF911F91C3
:101D50000895DF93CF9300D000D00F92CDB7DEB7B8
:101D600040E06FE181E00E947C038A838A818131B7
:101D700051F08A81863039F08A81813021F08A8160
:101D8000863109F057C00E94AE039091750480E03F
:101D900020917404AC01420F511D9A018091790485
:101DA0008F3F41F480917A048F3F21F4842F807F0C
:101DB00009F072C01B821D821C8258E8213635074B
:101DC00021F188E82236380740F448E02330340710
:101DD00081F02050304849F512C08CE8233638078E
:101DE00001F148EC23363407D1F023563848E9F4A2
:101DF0000EC080917F058823C1F085E115C00E9447
:101E00009F0B882391F084E10FC080E10DC0809189
:101E10007D04823031F08B3B31F0813031F487E149
:101E200003C088E101C089E18B83CE0103960E9443
:101E30007E0832C08A81823049F08A81823131F055
:101E40008A81893119F08A81893031F510928E05A5
:101E50001B821D821C8245E060EE82E00E947C03B2
:101E600089838981833051F0843018F4823050F4B2
:101E700003C0853039F404C081E103C083E101C0AF
:101E800082E18B838B81882321F0CE0103960E940F
:101E90007E0886E10E94160E0F900F900F900F9013
:101EA0000F90CF91DF910895FF920F931F93F82E1B
:101EB0000DEF13E0C8010197F1F70E942103299863
:101EC0002B988DE090E00197F1F7299A23E040E00C
:101ED0006FE182E00E948F03C8010197F1F76CE087
:101EE0008EE00E94520327E040E06FE089E00E940C
:101EF0008F03FF2011F00E94890480E41F910F914D
:101F0000FF9008958BEC95E0089580916403089507
:101F10000895089508950895089510926503089509
:101F200080916503882371F01092650380916603A8
:101F30000E941C0265E571E182E390E00E942501A8
:101F40008093660308958091C9059091CA05892BF5
:101F500021F0809166030E941C0265E571E184E630
:101F600090E00E94250180936603089588E00E9416
:101F7000C50D992787FD9095A92FB92FBC01CD01DB
:101F80000E94D81C20E030E04AE754E40E942E1C56
:101F90002091D3053091D4054091D5055091D605B7
:101FA0000E94071B9B01AC012093D3053093D405FD
:101FB0004093D5055093D60508956F927F928F92E6
:101FC0009F92AF92BF92CF92DF92EF92FF920F93C8
:101FD0001F93DF93CF93CDB7DEB72C970FB6F8944E
:101FE000DEBF0FBECDBFFC018081853099F1863008
:101FF00038F4823009F401C1833009F006C107C00A
:10200000873009F43FC0893009F0FFC057C0818193
:1020100092819093CA058093C90549EC55E062E02E
:1020200080E190E00E945C048091C9059091CA050E
:10203000892B19F081E080938F05809166030E94BF
:102040001C0265E571E18AE090E00E942501809321
:102050006603DBC0809184059091850526E02C8382
:1020600021E02D839F838E83DE011896E3E0F1E06B
:1020700085E001900D928150E1F7AE014C5F5F4F1A
:1020800069E017C088E089838091810590E02CE2A7
:1020900031E0AC01429FC001439F900D529F900DD3
:1020A0001124805090489B838A83AE014F5F5F4F1D
:1020B00063E080E090E00E947108A7C0B1800B2D22
:1020C00010E0CF0102960E94AC1F6B017C01000F53
:1020D000111F000F111F085A1C4FF801C082D18236
:1020E000E282F38280E090E0A0E0B0E080935403CD
:1020F00090935503A0935603B09357030E94B60FD5
:102100009B01AC01C701B6010E94D61A609354032B
:1021100070935503809356039093570340E553E023
:1021200068E088E090E00E945C04F8018081918181
:10213000A281B3818093D3059093D405A093D50554
:10214000B093D605BB2009F460C06090580370902E
:10215000590380905A0390905B0320915C03309167
:102160005D0340915E0350915F03C401B3010E947F
:10217000D61A7B018C01609160037091610380E04D
:1021800090E00E94361D5B016C01609162037091CA
:10219000630380E090E00E94361D9B01AC01C60104
:1021A000B5010E94D61A9B01AC01C801B7010E947B
:1021B0002E1C7B018C01A60195010E94341B9B0102
:1021C000AC01E0925003F09251030093520310933C
:1021D0005303C401B3010E94D61A60935403709351
:1021E0005503809356039093570340E553E068E00E
:1021F00088E090E00E945C0408C0319648E050E01E
:10220000BF018BEC95E00E9493202C960FB6F894BA
:10221000DEBF0FBECDBFCF91DF911F910F91FF9019
:10222000EF90DF90CF90BF90AF909F908F907F9076
:102230006F900895809165038823B1F11092650332
:102240008091C9059091CA05892B71F180918F0504
:10225000882351F1809166030E941C022091C905D8
:102260003091CA0542E02B38340788F465E571E106
:1022700084E690E0AC01249FC001259F900D349F1F
:10228000900D11240E942501809366030895C901D1
:1022900005966AE070E00E940923CB0165E571E1D3
:1022A0000E94A4018093660308950F931F93DF9308
:1022B000CF93CDB7DEB7AA970FB6F894DEBF0FBEA7
:1022C000CDBF80917F05882309F44BC02091840500
:1022D00030918505FE01759686E1DF011D928A9594
:1022E000E9F784E08D8B3F8B2E8BDE015E96E3E079
:1022F000F1E085E001900D928150E1F748E050E077
:102300006BEC75E0CE0183960E9493200E94B60F7D
:102310009F938F937F936F9388E091E09F938F9328
:102320008E010F5F1F4F1F930F930E94112146E0F4
:1023300050E0B801CE0148960E949320AE014B5E5A
:102340005F4F66E180E090E00E94710881E0809339
:1023500065038DB79EB708960FB6F8949EBF0FBE63
:102360008DBFAA960FB6F894DEBF0FBECDBFCF913A
:10237000DF911F910F91089549EC55E062E080E1F3
:1023800090E00E9472048091C9059091CA058F5F08
:102390009F4F21F41092CA051092C90586E10E9450
:1023A000160E88E00E94C50D992787FD9095A92FEC
:1023B000B92FBC01CD010E94D81C20E030E048ECD0
:1023C00052E40E942E1C20E030E04CE852E40E94CF
:1023D000071B6093D3057093D4058093D505909324
:1023E000D60586E10E94160E88E00E94C50D992749
:1023F00087FD9095A92FB92FBC01CD010E94D81C53
:1024000020E030E048EC52E40E942E1C20E030E056
:1024100040E052E40E94071B6093D3057093D405FB
:102420008093D5059093D60508951092EB032091E3
:10243000EB032093EA031092690320916903209330
:10244000680328E92093C10026E02093C20010927F
:10245000C5002CE02093C40090936D0480936C041D
:1024600008951092C1000895382F80916F04882339
:10247000D9F57894909168039F5F97FF05C090E02D
:1024800003C0222319F00EC020916E0480916903CD
:102490009817B9F3E0916803F0E0E859FC4F3283F4
:1024A000909368038091C10085FD1EC08091C0009B
:1024B00085FFFCCF90916903E92FF0E0E859FC4FCC
:1024C000228180916803981711F42FEF06C0E92F3D
:1024D000EF5FE7FDE0E0E09369032093C6008091A1
:1024E000C10080628093C1000895CF93DF93EC0117
:1024F00003C00E943412219688818823D1F7DF918E
:10250000CF9108958091EA039091EB03282F30E05A
:10251000291B310937FF02C020583F4F822F0895F1
:102520008091EA039091EB03282F30E0291B3109B9
:1025300037FF02C020583F4F822F089580916803D3
:1025400090916903282F30E0291B310937FF02C021
:1025500020583F4F822F089590916903E92FF0E0B2
:10256000E859FC4F228180916803981711F42FEFEE
:1025700006C0E92FEF5FE7FDE0E0E0936903822FFB
:1025800008958091EA039091EB03282F30E0291BF6
:10259000310937FF02C020583F4F222391F3909119
:1025A000EB03E92FF0E0E651FC4F22818091EA0332
:1025B000981711F42FEF06C0E92FEF5FE7FDE0E079
:1025C000E093EB03822F0895DF92EF92FF920F9337
:1025D0001F93CF93DF93EC01D42E00E0E62EFF246F
:1025E0000894E108F1088091EA039091EB03282F09
:1025F00030E0291B310937FF02C020583F4F22230A
:1026000091F39091EB03E92FF0E0E651FC4F12813A
:102610008091EA03981711F41FEF06C0E92FEF5FCE
:10262000E7FDE0E0E093EB03802F90E08E159F053F
:1026300024F01D3011F01830B1F6DD2019F0812F93
:102640000E943412183061F01D3089F41882802FF6
:10265000DF91CF911F910F91FF90EF90DF90089540
:10266000002309F4C0CF015018822197BCCF1993E1
:102670000F5FB9CF90E080916F04882309F491E057
:1026800090936F04089508958091EA039091EB036D
:10269000282F30E0291B310937FF02C020583F4F57
:1026A000222309F455C08091EA039091EB03282F6F
:1026B00030E0291B310937FF02C020583F4F222349
:1026C00091F39091EB03E92FF0E0E651FC4F22816A
:1026D0008091EA03981711F42FEF06C0E92FEF5FFE
:1026E000E7FDE0E0E093EB03809157018533E1F0F3
:1026F000863328F4833341F08433A1F509C086334F
:10270000C9F0873379F526C0213089F484E30FC0FE
:10271000822F2B3008F08AE080934B0185E3809371
:1027200057011092670314C020934C0186E38093F5
:1027300057010EC09091670380914B01981750F498
:10274000E92FF0E0E55BFE4F22839F5F90936703E4
:1027500080E0089583E38093570180E0243031F4D2
:1027600081E0089583E38093570180E00895EF921C
:10277000FF920F931F93CF93DF93082F162F7A01A9
:1027800081E00E943412812F0E943412802F0E9417
:10279000341200E0C12FD0E006C0EE0DFF1D808195
:1027A0000E9434120F5FE02FF0E0EC17FD07ACF34E
:1027B00084E00E943412DF91CF911F910F91FF901E
:1027C000EF9008951F920F920FB60F920BB60F92D3
:1027D00011242F933F934F935F936F937F938F9326
:1027E0009F93AF93BF93EF93FF932091C600909177
:1027F000EA039F5F97FD90E08091EB03981741F00B
:10280000E091EA03F0E0E651FC4F22839093EA0363
:1028100010926E04E0916C04F0916D04309711F009
:10282000822F0995FF91EF91BF91AF919F918F9169
:102830007F916F915F914F913F912F910F900BBEC0
:102840000F900FBE0F901F9018951F920F920FB60A
:102850000F920BB60F9211242F938F939F93EF93A8
:10286000FF9390916803809169039817B1F090915C
:102870006903E92FF0E0E859FC4F22818091680359
:10288000981711F42FEF06C0E92FEF5FE7FDE0E0A6
:10289000E09369032093C60005C08091C1008F7D3D
:1028A0008093C100FF91EF919F918F912F910F9095
:1028B0000BBE0F900FBE0F901F90189508950895AE
:1028C000089508950895089508950895089510921B
:1028D00070040E944413882349F080914C01813890
:1028E00029F460E070E082E00E946A07089560E0E9
:1028F0008FE20E94520360E070E082E00E946A076B
:1029000067E774E184EF91E00E94250180937104F0
:102910000895882329F068E075E18AE090E004C01A
:1029200069E675E188EE93E00E94250108956EE561
:1029300074E18AE090E00E94250108956EE574E15B
:1029400089E190E00E9425010895EF92FF920F9394
:102950001F93DF93CF93CDB7DEB728970FB6F894C8
:10296000DEBF0FBECDBF8E010F5F1F4FA80168E015
:1029700080E090E00E94720478019E01275F3F4F43
:10298000F80180818F3FB9F40F5F1F4F02171307C3
:10299000B9F72AC088E00E94C50DF70181937F0135
:1029A000E017F107B9F7AE014F5F5F4F68E080E0D5
:1029B00090E00E945C048E010F5F1F4FA80162E04F
:1029C00080E190E00E94720489819A818F5F9F4F1D
:1029D00091F484E190E09A838983A80162E080E128
:1029E00090E00E945C0407C080E00E94540F86E0E3
:1029F0000E94160ECFCF28960FB6F894DEBF0FBEFA
:102A0000CDBFCF91DF911F910F91FF90EF9008956F
:102A10006091B5058091B3059091B4050E94AF0611
:102A2000089540E050E060E081EC0E94B713089503
:102A3000DF93CF9300D0CDB7DEB79A838983AE0101
:102A40004F5F5F4F62E081EC0E94B7136EE574E167
:102A50008AE090E00E9425010F900F90CF91DF91C6
:102A60000895DF93CF9300D0CDB7DEB79A838983E3
:102A70006EE574E181E090E00E942501AE014F5FB8
:102A80005F4F62E081EC0E94B71369817A8183E035
:102A90000E946A070F900F90CF91DF9108958823CD
:102AA00089F46EE574E18AE090E00E94250140E03F
:102AB00050E060E083EC0E94B7130E94BC110E94BA
:102AC000A30F089569E675E188EE93E00E94250161
:102AD00008958FEF0E9458050E94310C08956EE50D
:102AE00074E189E190E00E9425010E94A5140E94F2
:102AF0006915089580918104813051F46EE574E187
:102B00008AE090E00E94250182E894E00E94DD0FB7
:102B1000089548E551E064E080E090E00E9471088B
:102B200069E875E188EE93E00E94250108950E940E
:102B3000900F08951F930E949F0B8823E9F58091C1
:102B400086059091870510E020918C0530918D05C8
:102B50002817390739F411E040E050E060E0C9017E
:102B60000E947108809172048F5F80937204883094
:102B700018F40E94900F20C0112381F010927F055D
:102B80000E948D0F88E00E94C50D9AE0899FC001C8
:102B9000112469E675E1C2960E94250180918C0599
:102BA00090918D050E94B805882331F080918C05A5
:102BB00090918D050E94CD051F91089520918C055F
:102BC00030918D05809186059091870528173907EA
:102BD00011F4109272040E941A110895A3E1B0E05A
:102BE000E4EFF5E10C9430233C01798B688B5A01BA
:102BF000FC0117821682838181FD03C06FEF7FEF96
:102C000084C37AE0472E9E012F5F3F4F3B8B2A8B78
:102C1000F3012381E889F98923FD859123FF8191BF
:102C2000F98BE88B882309F46DC3853251F4E88968
:102C3000F98923FD859123FF8191F98BE88B8532FA
:102C400029F4B30190E00E94E520E2CF982FDD2423
:102C500055249924FFE1FD15D0F09B3269F09C3298
:102C600028F4903259F0933291F40EC09D3249F01D
:102C7000903369F431E029C042E0D42A54E0D52AE7
:102C800028C088E0D82A25C090E1D92A22C0D7FCE4
:102C90002BC0892F80538A3070F4D6FE05C0949CD7
:102CA000902C1124980E15C0549C502C1124580EB1
:102CB000E0E2DE2A0EC09E3229F4D6FC23C3F0E403
:102CC000DF2A07C09C3619F430E8D32A02C09836B0
:102CD00059F4E889F98923FD959123FF9191F98BA6
:102CE000E88B992309F0B6CF892F8554833020F4DF
:102CF0008D2D8061905E07C0892F8556833008F046
:102D0000A9C18D2D8F7E86FD02C066E0962E5FE301
:102D1000F52EF822953619F4F0E4FF2A07C096360E
:102D200019F420E8F22A02C091109A94F7FE0BC021
:102D30003BE3391520F427E04CE3842E0EC0892CA8
:102D4000839427E00AC047E0491528F427E0882447
:102D500037E0932E02C0292D8824C50104969D8753
:102D60008C87F5016081718182819381082DAE018C
:102D70004F5F5F4F0E94B01F6C010981202F30E030
:102D80003F872E8700FF05C03E8533FD02C01DE250
:102D900009C0F1FE02C01BE205C0F2FC02C010E057
:102DA00001C010E28E859F858C709070892BC1F1D7
:102DB000112311F483E001C084E0851510F055243F
:102DC0000AC0581AF3FC07C0B30180E290E00E94E9
:102DD000E5205A94C9F7112329F0B301812F90E01F
:102DE0000E94E5204E8543FF03C00CE810E00EC0B2
:102DF00000E910E00BC0E114F10409F08052B301C6
:102E000090E00E94E5200F5F1F4F05C0EF2CFF24CC
:102E100050E1E522FF24F8018491882361F717C16E
:102E2000F7FE13C08C0CFE85F4FF04C08A81813349
:102E300009F48A9418141CF0882483942DC028E087
:102E4000281550F598E0892E27C0F6FC25C0892D5D
:102E500090E08C159D054CF03CEFC3163FEFD30678
:102E600024F040E8F42A01C09A94992049F0E2E065
:102E7000F0E0EC0FFD1FE90DF11D80818033A1F31F
:102E8000F7FE0AC0892C8394892D90E0C816D906D4
:102E900014F0992401C09C18F7FC03C025E030E031
:102EA00009C01C141D041CF021E030E003C0960191
:102EB0002F5F3F4F112311F02F5F3F4F992029F0D3
:102EC000892D90E00196280F391F852D90E0281755
:102ED000390714F0552401C0521AAF2CBB24C50188
:102EE00089709070892B39F008C0B30180E290E0BE
:102EF0000E94E5205A945520C1F7112329F0B3010F
:102F0000812F90E00E94E520A3FE07C008C0B30116
:102F100080E390E00E94E5205A945520C1F7F7FE27
:102F200048C08601D7FE02C000E010E07601089498
:102F3000E11CF11CE01AF10A81E090E08C0F9D1F6A
:102F4000E80EF91E160128183108892D90E0AA24F0
:102F5000BB24A81AB90A9FEF0F3F190729F4B30140
:102F60008EE290E00E94E520C016D10634F02016D3
:102F700031061CF4F701808101C080E3015010404C
:102F80000894E11CF11C0A151B052CF0B30190E01C
:102F90000E94E520E0CF0C151D0541F49A8196337F
:102FA00020F4953319F4FE85F4FF81E3B30190E03A
:102FB0004CC08A81813309F00F7EB30190E00E94FA
:102FC000E5209920A1F0B3018EE290E00E94E52077
:102FD00012E0E1E0F0E0EC0FFD1FE10FF11D1F5FDB
:102FE000B301808190E00E94E5209A9491F7A4FCBF
:102FF00003C085E690E002C085E490E0B3010E9442
:10300000E520D7FC05C0C114D10441F404FF06C07B
:10301000D094C194D108D3948DE201C08BE2B30166
:1030200090E00E94E52080E305C08F5F26EF3FEF30
:10303000C20ED31E3AE0C316D104BCF7B30190E030
:103040000E94E520B301C601C0960E94E520AC8431
:10305000BD8455C1933631F0933791F0933509F023
:1030600059C023C0F501808189837E010894E11C49
:10307000F11C22E030E0A20EB31E01E010E012C00D
:10308000F501E080F180D6FC03C06FEF7FEF02C056
:10309000692D70E022E030E0A20EB31EC7010E944D
:1030A000A2208C013FE7D32214C0F501E080F1801B
:1030B000D6FC03C06FEF7FEF02C0692D70E022E005
:1030C00030E0A20EB31EC7010E9488208C0130E8B8
:1030D000D32AD3FE07C01AC0B30180E290E00E9459
:1030E000E5205A94852D90E008171907A8F30EC023
:1030F000F701D7FC8591D7FE81917F01B30190E064
:103100000E94E52051105A940150104001151105FC
:1031100079F7F5C0943611F0993689F5D7FE08C0D5
:10312000F501E080F1800281138124E030E00AC0E3
:10313000F501808191817C010027F7FC0095102F1B
:1031400022E030E0A20EB31E3FE6D32217FF0AC0F2
:1031500010950095F094E094E11CF11C011D111DE7
:1031600040E8D42A2AE030E0AE014F5F5F4FC8014B
:10317000B7010E943421F82E5A89F51A43C09537B9
:1031800029F41D2D1F7E2AE030E01DC01D2D197F62
:103190009F3661F0903720F4983509F0B3C00FC026
:1031A000903739F0983709F0ADC004C028E030E01E
:1031B0000AC0106114FD146020E130E004C014FD69
:1031C000166020E132E017FF08C0F50160817181CF
:1031D0008281938144E050E008C0F50180819181B3
:1031E000BC0180E090E042E050E0A40EB51EAE01CC
:1031F0004F5F5F4F0E943421F82E5A89F51A8FE7EE
:10320000D82ED122D6FE0BC08EEFD822F91438F476
:10321000D4FE07C0D2FC05C09FEED92202C01F2DEC
:1032200001C0192DD4FE0DC0FE01EF0DF11D8081EE
:10323000803319F4E9EEDE2208C01F5FD2FE05C01C
:1032400003C08D2D867809F01F5F0D2DD3FC14C0AF
:10325000D0FE0FC0151510F09F2C0BC09F2C950CA5
:10326000911A152D06C0B30180E290E00E94E5207E
:103270001F5F1515C0F304C0151510F4511A01C0D5
:10328000552404FF10C0B30180E390E00E94E520C4
:1032900002FF1EC001FD03C088E790E002C088E580
:1032A00090E0B3010CC0802F867891F001FF02C03E
:1032B0008BE201C080E2D7FC8DE2B30190E00E9476
:1032C000E52006C0B30180E390E00E94E5209A94D7
:1032D000F914C0F3FA94E1E0F0E0EC0FFD1FEF0DFC
:1032E000F11DB301808190E00E94E520FF2091F75D
:1032F00006C0B30180E290E00E94E5205A94552078
:10330000C1F786CCF30166817781CB016396E2E158
:103310000C944C23A0E0B0E0E0E9F9E10C943023F8
:10332000DC012B01FA019C91923008F439C1EB01C8
:103330008881823008F433C1943069F4843009F014
:103340002FC111969C9111978981981709F428C172
:10335000ADE5B1E025C1843009F421C18230A9F482
:10336000923009F01DC19A01AD0188E0EA0109908F
:10337000AE01E90109929E018150C1F7E201898104
:1033800011969C918923818308C1923009F407C169
:1033900012962D903C901397EB018A819B81149695
:1033A000AD90BD90CD90DC901797EC80FD800E81A4
:1033B0001F819101281B390BB90137FF04C0662713
:1033C0007727621B730B603271050CF061C0121617
:1033D00013066CF537014801062E04C096948794B5
:1033E000779467940A94D2F721E030E040E050E00F
:1033F00004C0220F331F441F551F6A95D2F7215076
:103400003040404050402E213F2140235123211580
:1034100031054105510521F021E030E040E050E068
:1034200079018A01E628F728082919293CC0232BAD
:10343000D1F1260E371E35014601062E04C09694A2
:103440008794779467940A94D2F721E030E040E0C3
:1034500050E004C0220F331F441F551F6A95D2F756
:1034600021503040404050402A213B214C215D21D9
:10347000211531054105510521F021E030E040E002
:1034800050E059016A01A628B728C828D9280BC0DE
:10349000821593052CF01C01AA24BB24650103C0EE
:1034A000EE24FF24870111969C91D20111968C91F4
:1034B000981709F445C0992339F0A80197012A19F2
:1034C0003B094C095D0906C0A60195012E193F096B
:1034D000400B510B57FD08C0118233822282248396
:1034E0003583468357831DC081E0818333822282E6
:1034F00088279927DC01821B930BA40BB50B8483CF
:103500009583A683B7830DC0220F331F441F551F19
:1035100024833583468357838281938101979383E4
:1035200082832481358146815781DA01C90101975F
:10353000A109B1098F5F9F4FAF4FBF4328F30BC065
:10354000918333822282EA0CFB1C0C1D1D1DE48238
:10355000F5820683178383E0808324813581468149
:10356000578157FF1AC0C901AA2797FDA095BA2F06
:1035700081709070A070B0705695479537952795DB
:10358000822B932BA42BB52B84839583A683B7839F
:1035900082819381019693838283DF0101C0D201EE
:1035A000CD01CDB7DEB7E2E10C944C23A0E2B0E050
:1035B000ECEDFAE10C943C2369837A838B839C8342
:1035C0002D833E834F835887E9E0EE2EF12CEC0EDD
:1035D000FD1EB701CE0101960E94D31E8E010F5E23
:1035E0001F4FB801CE0105960E94D31E8A8991E033
:1035F00089278A8BAE01475E5F4FB801C7010E94E1
:103600008A190E94FE1DA096E6E00C945823A0E2C1
:10361000B0E0EDE0FBE10C943C2369837A838B837B
:103620009C832D833E834F835887F9E0EF2EF12C46
:10363000EC0EFD1EB701CE0101960E94D31E8E0135
:103640000F5E1F4FB801CE0105960E94D31EAE013A
:10365000475E5F4FB801C7010E948A190E94FE1D94
:10366000A096E6E00C945823A0E2B0E0EAE3FBE188
:103670000C94302369837A838B839C832D833E83D0
:103680004F835887BE01675F7F4FCE0101960E942E
:10369000D31EBE016F5E7F4FCE0105960E94D31EE2
:1036A0009985923088F089898230C8F0943019F475
:1036B000823051F404C0843029F4923081F48DE5D5
:1036C00091E0C6C0923049F420E09A858A89981327
:1036D00021E02A87CE010996BBC0823049F420E060
:1036E0009A858A89981321E02A8BCE014196B0C031
:1036F0002D843E844F8458886D887E888F88988C6E
:10370000EE24FF248701AA24BB24650140E050E099
:1037100060E070E0E0E0F0E0C10181709070892B22
:10372000E9F0E60CF71C081D191D9A01AB012A0DE2
:103730003B1D4C1D5D1D80E090E0A0E0B0E0E61474
:10374000F7040805190520F481E090E0A0E0B0E05E
:10375000BA01A901480F591F6A1F7B1FAA0CBB1C85
:10376000CC1CDD1C97FE08C081E090E0A0E0B0E03A
:10377000A82AB92ACA2ADB2A3196E032F10549F093
:10378000660C771C881C991C569447943794279490
:10379000C3CFFA85EA892B893C898B859C85280FC4
:1037A000391F2E5F3F4F17C0CA0181709070892B5F
:1037B00061F016950795F794E79480E090E0A0E01B
:1037C000B0E8E82AF92A0A2B1B2B769567955795BE
:1037D00047952F5F3F4F77FDE7CF0CC0440F551F34
:1037E000661F771F17FD4160EE0CFF1C001F111FA5
:1037F00021503040403090E0590790E0690790E454
:10380000790760F32B8F3C8FDB01CA018F779070B3
:10381000A070B07080349105A105B10561F447FD39
:103820000AC0E114F1040105110529F0405C5F4F65
:103830006F4F7F4F40781A8EFE1711F081E08A8F0C
:103840004D8F5E8F6F8F78A383E0898FCE0149966D
:103850000E94FE1DA096E2E10C944C23A8E1B0E08A
:10386000E4E3FCE10C94382369837A838B839C83A3
:103870002D833E834F835887B9E0EB2EF12CEC0E5D
:10388000FD1EB701CE0101960E94D31E8E010F5E70
:103890001F4FB801CE0105960E94D31E2985223004
:1038A00008F47CC03989323010F4B8017AC08A85B6
:1038B0009A8989278A87243011F0223031F423171E
:1038C00009F06CC06DE571E06CC0343039F41D86D0
:1038D0001E861F86188A1C861B8604C0323021F47F
:1038E00084E08987B7015DC02B853C858B899C89E5
:1038F000281B390B3C872B87ED84FE840F851889A4
:10390000AD88BE88CF88D88CEA14FB040C051D0551
:1039100040F4EE0CFF1C001F111F215030403C876B
:103920002B8720E030E040E050E080E090E0A0E035
:10393000B0E46FE170E0EA14FB040C051D0540F0F3
:10394000282B392B4A2B5B2BEA18FB080C091D0985
:10395000B695A79597958795EE0CFF1C001F111F34
:103960006150704041F7DA01C9018F779070A07003
:10397000B07080349105A105B10561F427FD0AC03E
:10398000E114F1040105110529F0205C3F4F4F4F70
:103990005F4F20782D873E874F87588BBE01675F2A
:1039A0007F4FCB010E94FE1D6896EAE00C945423E1
:1039B000A8E0B0E0EEEDFCE10C9439239B01AC01F2
:1039C00083E08983DA01C9018827B7FD83959927A8
:1039D000AA27BB27B82E211531054105510519F439
:1039E00082E089833AC08823A9F0203080E038073C
:1039F00080E0480780E8580729F460E070E080E044
:103A00009FEC30C0EE24FF248701E21AF30A040B76
:103A1000150B02C079018A018EE1C82ED12CDC82FF
:103A2000CB82ED82FE820F831887C801B7010E9406
:103A3000AF1D01971816190684F4082E04C0EE0C69
:103A4000FF1C001F111F0A94D2F7ED82FE820F8324
:103A50001887C81AD90ADC82CB82BA82CE010196B5
:103A60000E94FE1D2896E9E00C945523A8E0B0E0E2
:103A7000ECE3FDE10C943A237B018C0161157105A7
:103A80008105910519F482E0898360C083E0898310
:103A90008EE1C82ED12CDC82CB82ED82FE820F8398
:103AA0001887C801B7010E94AF1DBC01615070406A
:103AB00077FF39C0EE27FF27E61BF70B20E030E049
:103AC00040E050E081E090E0A0E0B0E00E2E04C0C5
:103AD000880F991FAA1FBB1F0A94D2F70197A1094B
:103AE000B1098E219F21A023B1230097A105B10523
:103AF00021F021E030E040E050E004C01695079549
:103B0000F794E794EA95D2F72E293F29402B512BC1
:103B10002D833E834F8358878EE190E0861B970B61
:103B20009C838B8313C06115710581F0062E04C040
:103B3000EE0CFF1C001F111F0A94D2F7ED82FE82CB
:103B40000F831887C61AD70ADC82CB821A82CE016D
:103B500001960E94FE1D2896E8E00C945623EF92F1
:103B6000FF920F931F937B018C0180E0E81680E0A9
:103B7000F80681E0080780E0180788F48FEFE81660
:103B8000F1040105110531F028F088E090E0A0E093
:103B9000B0E017C080E090E0A0E0B0E012C080E0AC
:103BA000E81680E0F80680E0080781E0180728F0B2
:103BB00088E190E0A0E0B0E004C080E190E0A0E007
:103BC000B0E020E230E040E050E0281B390B4A0B27
:103BD0005B0B04C016950795F794E7948A95D2F786
:103BE000F701EB59FE4F8081281B3109410951092A
:103BF000C9011F910F91FF90EF900895DF92EF920E
:103C0000FF920F931F93FC01E480F58006811781DA
:103C1000D1808081823048F480E090E0A0E1B0E083
:103C2000E82AF92A0A2B1B2BA5C0843009F49FC06F
:103C3000823021F4EE24FF24870105C0E114F10451
:103C40000105110519F4E0E0F0E096C0628173818E
:103C50009FEF623879070CF05BC022E83FEF261B2C
:103C6000370B2A3131052CF020E030E040E050E005
:103C70002AC0B801A701022E04C076956795579512
:103C800047950A94D2F781E090E0A0E0B0E004C04C
:103C9000880F991FAA1FBB1F2A95D2F70197A10968
:103CA000B1098E219F21A023B1230097A105B10561
:103CB00021F081E090E0A0E0B0E09A01AB01282B78
:103CC000392B4A2B5B2BDA01C9018F779070A070DA
:103CD000B07080349105A105B10539F427FF09C002
:103CE000205C3F4F4F4F5F4F04C0215C3F4F4F4F11
:103CF0005F4FE0E0F0E02030A0E03A07A0E04A07A4
:103D0000A0E45A0710F0E1E0F0E079018A0127C051
:103D10006038710564F5FB01E158FF4FD801C70118
:103D20008F779070A070B07080349105A105B105B7
:103D300039F4E7FE0DC080E490E0A0E0B0E004C0FC
:103D40008FE390E0A0E0B0E0E80EF91E0A1F1B1F11
:103D500017FF05C016950795F794E794319687E00D
:103D600016950795F794E7948A95D1F705C0EE2448
:103D7000FF248701EFEFF0E06E2F679566276795C8
:103D8000902F9F77D794DD24D7948E2F8695492F37
:103D9000462B582F5D29B701CA011F910F91FF9043
:103DA000EF90DF900895FC01DB0140815181228179
:103DB000622F6F7770E0221F2227221F9381892FA5
:103DC000880F822B282F30E0991F9927991F119671
:103DD0009C93119721153105A9F5411551056105F0
:103DE000710511F482E037C082E89FEF13969C932F
:103DF0008E9312979A01AB0167E0220F331F441F85
:103E0000551F6A95D1F783E08C930DC0220F331FA5
:103E1000441F551F12968D919C91139701971396ED
:103E20009C938E931297203080E0380780E04807FB
:103E300080E4580758F314962D933D934D935C936B
:103E4000179708952F3F310579F441155105610504
:103E5000710519F484E08C93089564FF03C081E038
:103E60008C9312C01C9210C02F57304013963C9375
:103E70002E93129783E08C9387E0440F551F661FA3
:103E8000771F8A95D1F7706414964D935D936D9367
:103E90007C9317970895A0E0B0E0E1E5FFE10C9472
:103EA0003823EC01A880B980CA80DB80A114B1045A
:103EB000C104D10441F484E2A82E89EDB82E8BE52B
:103EC000C82E87E0D82EC601B5012DE133EF41E0C1
:103ED00050E00E94B92327EA31E440E050E00E941C
:103EE0009A237B018C01C601B5012DE133EF41E03E
:103EF00050E00E94B923CA01B9012CEE34EF4FEF14
:103F00005FEF0E949A236E0D7F1D801F911F97FF08
:103F100004C06150704080409048688379838A83F0
:103F20009B839B013F77C901CDB7DEB7EAE00C94D4
:103F300054230E944B1F089585E692E00E944B1F78
:103F40000895A0E0B0E08093650290936602A0938C
:103F50006702B09368020895662777270C94922130
:103F6000283008F027E03327DA01990F311D87FD4B
:103F7000916000966105710539F432602E5F3D93C2
:103F800030E32A95E1F708959F3F30F080387105BE
:103F9000610509F03C5F3C5F3D93913008F080681B
:103FA000911DDF93CF931F930F93FF92EF92192FE1
:103FB000987F9695E92F96959695E90FFF27E25100
:103FC000FF4F99273327EE24FF24A701E70105902F
:103FD0000894079428F4360FE71EF81E491F511D58
:103FE000660F771F881F991F0694A1F70590079405
:103FF00028F4E70EF81E491F561FC11D770F881FB2
:10400000991F661F0694A1F70590079428F4F80EEF
:10401000491F561FC71FD11D880F991F661F771F85
:104020000694A1F70590079420F4490F561FC71F67
:10403000D81F990F661F771F881F0694A9F78491D0
:104040001095177041F0D695C79557954795F794F9
:10405000E7941A95C1F7E4E9F0E06894159015919A
:1040600035916591959105907FE27395E118F10A7C
:10407000430B560BC90BD009C0F7E10CF11E431FCF
:10408000561FC91FD01D7EF4703311F48A95E6CFF8
:10409000E894015030F0080F0AF40027021708F4E2
:1040A000202F2395022F7A3328F079E37D932A95E8
:1040B000E9F710C07D932A9589F606949795679540
:1040C000379517951794E118F10A430B560BC90B56
:1040D000D00998F023957E9173957A3308F070E3B8
:1040E0007C932013B8F77E9170617D9330F08395B7
:1040F00071E37D9370E32A95E1F71124EF90FF902F
:104100000F911F91CF91DF91992787FD9095089589
:10411000FC010590615070400110D8F78095909592
:104120008E0F9F1F0895FB01DC014150504048F065
:1041300001900D920020C9F701C01D9241505040DE
:10414000E0F70895FC016150704001900110D8F72C
:10415000809590958E0F9F1F0895A0E0B0E0E3EB4F
:10416000F0E20C943A237C01EB018A01690109C059
:10417000CE012196F6010995F70181937F01015047
:10418000104001151105A1F7CDB7DEB7E8E00C949A
:104190005623A0E0B0E0EFECF0E20C943A23EC01FF
:1041A0007B018A01690109C0F70161917F01CE019C
:1041B0002196F60109950150104001151105A1F74E
:1041C000CDB7DEB7E8E00C9456230F931F93CF933F
:1041D000DF938C01EB018B8181FF1BC082FF0DC03F
:1041E0002E813F818C819D812817390764F4E881F5
:1041F000F9810193F983E88306C0E885F985802F6A
:104200000995892B31F48E819F8101969F838E833E
:1042100002C00FEF1FEFC801DF91CF911F910F91E7
:104220000895AEE0B0E0E7E1F1E20C943E230D89A1
:104230001E8986E08C831A8309838FEF9FE79E8314
:104240008D83CE014996AC016F89788DCE010196A0
:104250000E94EE152F813885020F131FF80110827E
:104260002E96E4E00C945A23FA01AA27283051F143
:10427000203181F1E8946F936E7F6E5F7F4F8F4F97
:104280009F4FAF4FB1E03ED0B4E03CD0670F781FF6
:10429000891F9A1FA11D680F791F8A1F911DA11DDB
:1042A0006A0F711D811D911DA11D20D009F4689414
:1042B0003F912AE0269F11243019305D3193DEF6BC
:1042C000CF010895462F4770405D4193B3E00FD072
:1042D000C9F7F6CF462F4F70405D4A3318F0495D5D
:1042E00031FD4052419302D0A9F7EACFB4E0A69540
:1042F0009795879577956795BA95C9F70097610562
:10430000710508959B01AC010A2E069457954795B7
:1043100037952795BA95C9F7620F731F841F951FAC
:10432000A01D0895A0E0B0E0E8E9F1E20C94362386
:10433000EC015B016115710519F0FB01918380832C
:104340001991812F90E00E946723892BC9F71D32B4
:1043500021F41991FF24F39404C01B3209F419913C
:10436000FF246E010894C108D10843E050E06EE8D4
:1043700071E0C6010E94F122892B01F58E010E5FCA
:104380001F4F45E050E061E971E0C8010E94F12251
:10439000892B19F48E01095F1F4FA114B10419F084
:1043A000F50111830083F0FC04C070E090E080E828
:1043B00014C070E090E080E86FEF08C143E050E087
:1043C00066E971E0C6010E94F122892B69F4A1140B
:1043D000B10429F470E090E080EC6FE7F7C022961A
:1043E000F501D183C083F6CF8824992440E050E0C2
:1043F00060E070E0E12FE053EA30A0F5F2E0FF2A40
:104400008F2D90E09C0128703070F2FE06C0232BA7
:1044100079F50894811C911C2BC0232B19F008946A
:1044200081089108DB01CA0112E0880F991FAA1FB9
:10443000BB1F1A95D1F7480F591F6A1F7B1F440FE6
:10444000551F661F771F4E0F511D611D711D483985
:1044500029E9520729E9620729E1720748F084E057
:10446000F82A06C0EE3F31F4F3FC39C098E0F92A8F
:104470001991C0CFE53311F0E53189F529912D323D
:1044800019F4E0E1FE2A05C02B3219F081E090E03A
:1044900003C0299182E090E0E22FE053EA3018F067
:1044A000C81BD90B1CC020E030E0FCE020383F07DF
:1044B0005CF4C901880F991F880F991F280F391FB5
:1044C000220F331F2E0F311DE991E053EA3068F3BC
:1044D000F4FE03C0309521953F4F820E931ECF2CE2
:1044E000DD24F1FE07C0A114B10421F02197F501EC
:1044F000D183C083CB01BA010E94361D7B018C01A0
:10450000F3E0CF22DD2423E0C216D10421F417FB0F
:10451000109517F910955701680120E030E040E050
:1045200050E0C801B7010E946F23882309F44AC0F4
:1045300097FE0DC02DEAE22E21E0F22E9094819498
:1045400091089394C0E2D0E005E010E012C095EC31
:10455000E92E91E0F92EF6CFF7012591359145919D
:104560005491C601B5010E94341B5B016C018C1A89
:104570009D0A8C169D0684F7D595C79501151105E2
:1045800039F08CEF9FEFE80EF91E01501040F1CF8B
:10459000C501D6017C018D018C2D880F8D2D881FC2
:1045A0008F3F51F020E030E040E050E0C601B5011F
:1045B0000E946F23882331F482E290E09093D90522
:1045C0008093D8057E2D9F2D802F612F272F392F87
:1045D000482F562FB901CA01CDB7DEB7ECE00C94D5
:1045E0005223FB01DC014150504088F08D91813411
:1045F0001CF08B350CF4805E659161341CF06B35DA
:104600000CF4605E861B611171F3990B0895881B91
:10461000FCCFAA1BBB1B51E107C0AA1FBB1FA617DB
:10462000B70710F0A61BB70B881F991F5A95A9F75B
:1046300080959095BC01CD01089597FB092E072622
:104640000AD077FD04D0E5DF06D000201AF470957B
:1046500061957F4F0895F6F7909581959F4F089546
:104660002F923F924F925F926F927F928F929F9282
:10467000AF92BF92CF92DF92EF92FF920F931F9370
:10468000CF93DF93CDB7DEB7CA1BDB0B0FB6F89421
:10469000DEBF0FBECDBF09942A88398848885F8461
:1046A0006E847D848C849B84AA84B984C884DF80D2
:1046B000EE80FD800C811B81AA81B981CE0FD11DB6
:1046C0000FB6F894DEBF0FBECDBFED010895911176
:1046D0002EC0803219F089508550D0F7089503D04C
:1046E00008F481E00895990F0008550FAA0BE0E83F
:1046F000FEEF16161706E807F907C0F012161306A4
:10470000E407F50798F0621B730B840B950B39F4E3
:104710000A2661F0232B242B252B21F408950A2649
:1047200009F4A140A6958FEF811D811D0895992759
:1047300088270895629FD001739FF001829FE00D4A
:10474000F11D649FE00DF11D929FF00D839FF00D10
:10475000749FF00D659FF00D9927729FB00DE11DBC
:10476000F91F639FB00DE11DF91FBD01CF01112499
:10477000089597FB092E05260ED057FD04D014D0BE
:104780000AD0001C38F450954095309521953F4F44
:104790004F4F5F4F0895F6F790958095709561950E
:1047A0007F4F8F4F9F4F0895A1E21A2EAA1BBB1B6C
:1047B000FD010DC0AA1FBB1FEE1FFF1FA217B307ED
:1047C000E407F50720F0A21BB30BE40BF50B661F03
:1047D000771F881F991F1A9469F7609570958095C7
:1047E00090959B01AC01BD01CF010895F894FFCFD6
:1047F000E80380646567460025660048E17EC19A4B
:1048000099D94052B8B24148E10B42D7A338426629
:104810006662423D8A854200009A42AE47AF42D767
:1048200023C64233B3DF4214AEFD4266A611437B7A
:10483000142C4333335B43142E2D4400000000003E
:104840000000000000000033726F7574000000006B
:10485000000000000000010202030303030404043B
:1048600004040404040505050505050505050505FD
:1048700005050505050606060606060606060606DD
:1048800006060606060606060606060606060606C8
:1048900006060606060707070707070707070707AD
:1048A0000707070707070707070707070707070798
:1048B0000707070707070707070707070707070788
:1048C0000707070707070707070707070707070778
:1048D000070707070708080808080808080808085D
:1048E0000808080808080808080808080808080848
:1048F0000808080808080808080808080808080838
:104900000808080808080808080808080808080827
:104910000808080808080808080808080808080817
:104920000808080808080808080808080808080807
:1049300008080808080808080808080808080808F7
:1049400008080808080808080808080808080808E7
:0A4950000808080808010000000034
:00000001FF
