:100000000C94CD000C94F5000C94F5000C94F500C4
:100010000C94F5000C94F5000C94F5000C94F5008C
:100020000C94F5000C94F5000C94F5000C94F5007C
:100030000C943D110C94F5000C94F5000C94F50013
:100040000C94F5000C94F5000C94F5000C94F5005C
:100050000C94FF1E0C94421F0C94F5000C94F500B8
:100060000C94F5000C94F5000C94F5000C94F5003C
:100070000C94F5000C94F5000C94F5000C94F5002C
:100080000C94950E0C94F5000C94F5006E616E00C6
:10009000696E660000407A10F35A00A0724E18098B
:1000A0000010A5D4E80000E87648170000E40B54DF
:1000B000020000CA9A3B000000E1F50500008096AE
:1000C0009800000040420F000000A08601000000E0
:1000D000102700000000E80300000000640000009A
:1000E00000000A00000000000100000000002C7663
:1000F000D888DC674F0823DFC1DFAE59E1B1B7967E
:10010000E5E3E453C63AE651997696E8E6C28426DA
:10011000EB898C9B62ED407C6FFCEFBC9C9F40F2B6
:10012000BAA56FA5F490055A2AF75C936B6CF96732
:100130006DC11BFCE0E40D47FEF520E6B500D0EDF7
:10014000902E0300943577050080841E080000205F
:100150004E0A000000C80C333333330F986E1283FD
:100160001141EF8D2114893BE65516CFFEE6DB18D1
:10017000D1844B381BF77C1D901DA4BBE424203296
:1001800084725E228100C9F124ECA1E53D276364FD
:10019000696E6F70737578585B0011241FBECFEFC6
:1001A000D0E4DEBFCDBF14BE88E10FB6F8948093D3
:1001B0006000109260000FBE13E0A0E0B1E0E8EC38
:1001C000F1E600E00BBF02C007900D92AE31B1071F
:1001D000D9F719E0AEE1B3E001C01D92AB36B1072B
:1001E000E1F70E94381A0C94E2300C940000089554
:1001F00023E937E03093900720938F0793E09093A3
:1002000093079AE39093960790ED909394079093B9
:10021000950794E190939107F901749690E8909373
:10022000A7071382128211821092AB071092AC07BB
:100230001092AD078093AE07245E3F4F30932103A9
:10024000209320038CE180939207C9014897089579
:1002500083E997E09093900780938F07109225038E
:100260001092240323E02093930720EF2093940718
:1002700020ED2093950743969093210380932003CC
:1002800023E120939107209392074097089523E953
:1002900037E03093900720938F0790932503809346
:1002A00024032D5F3F4F309321032093200393E0DD
:1002B0009093930780EF809394078DED809395073B
:1002C000909391079093920708959C01805B904FC3
:1002D0000F97F0F480EF603B7807D0F080EF6F3B32
:1002E0007807B0F4E0912003F09121038BEF808335
:1002F000862F805B922F9295907F890F8183329613
:10030000F0932103E0932003809191078E5F12C048
:10031000E0912003F091210388EF808331832283D1
:10032000738364833596F0932103E09320038091D7
:1003300091078B5F80939107E0912003F091210357
:10034000F0932303E0932203CB01820F931F918349
:1003500080838217930718F08617970718F4019681
:10036000918380833296F0932103E0932003809160
:1003700091078E5F809391078093920708958091F3
:1003800020039091210308952091200330912103AF
:10039000280F311D30932103209320039091920761
:1003A000980F9093920708957F928F929F92AF92A9
:1003B000BF92CF92DF92EF92FF920F931F93CF9352
:1003C000DF93709091078090200390902103A0917B
:1003D0008F07B09190071396B0932103A093200349
:1003E00013971092910711968C911197682F70E0D6
:1003F00086FD10C087FD07C01796B0932103A09318
:10040000200317970FC01696B0932103A0932003E3
:10041000169708C087FD06C01496B0932103A093D9
:100420002003149765FF05C029E130E040E050E06B
:100430000DC0E0912003F09121038191282F30E03D
:1004400040E050E0F0932103E093200312968C915A
:10045000C82FD0E0809121099091220992605C011F
:10046000CC24DD24CE0180739070B4E095958795FF
:10047000BA95E1F7FC01EE0FFF1FE80FF91FE757F0
:10048000F84F808191817C0100E010E08091230988
:1004900090912409A0E0B0E0E80EF91E0A1F1B1F8E
:1004A0008FEF9EEFA0E0B0E0E80EF91E0A1F1B1FC1
:1004B000EA0CFB1C0C1D1D1DE20EF31E041F151F74
:1004C00068717070672B49F480912003909121032B
:1004D00001969093210380932003CE018C7090703D
:1004E0008430910509F45FC08530910524F4892B8F
:1004F00009F482C097C088309105D1F00C9709F0BB
:1005000091C0CE0183709070FC01EE0FFF1FE80FC9
:10051000F91FE757F84F80819181A0E0B0E081504A
:100520009140AF4FBF4F8A0D9B1DAC1DBD1D36C006
:10053000E0912003F09121034081218147FD20C0FB
:1005400030E0942F80E0282B392B442737FD40954D
:10055000542FCE0183709070FC01EE0FFF1FE80F47
:10056000F91FE757F84F80819181A0E0B0E0280F94
:10057000391F4A1F5B1FE20EF31E041F151F52C0D6
:10058000822F90E0A0E0B0E080509140AF4FBF4F8D
:1005900046954F70840F911DA11DB11DE80EF91EE7
:1005A0000A1F1B1F3FC0CE0183709070FC01EE0F2D
:1005B000FF1FE80FF91FE757F84F80819181A0E0F6
:1005C000B0E0E80EF91E0A1F1B1FE0912003F09116
:1005D000210340E0308120E08181D901A80FB11DC5
:1005E000CD01A0E0B0E0E80EF91E0A1F1B1F4E5F10
:1005F0003296483079F716C0E0912003F09121033C
:1006000040E0308120E08181B901680F711DCB018C
:10061000A0E0B0E0E80EF91E0A1F1B1F4E5F3296E5
:10062000403179F7909221038092200370929107D4
:100630008091920790E0871991099C01442737FD2A
:100640004095542F2E0D3F1D401F511F08C0CA0159
:10065000AA27BB27820F931F9C0140E050E0DA01DC
:10066000C901807090700097A105B10581F7C9019B
:10067000DF91CF911F910F91FF90EF90DF90CF907E
:10068000BF90AF909F908F907F9008959C014150B4
:100690005040460F571FFB010EC0708160E0818102
:1006A000DB01A80FB11D2A0F3B1F2A173B0710F4CF
:1006B0002F5F3F4F3296E417F50778F3E417F507FD
:1006C00049F4908180E0280F391F2817390710F46A
:1006D0002F5F3F4FC9010895FC0180818F3FB9F51D
:1006E00080919107282F30E02C5F3F4F8091920737
:1006F000A82FB0E04CE025C0FB01ED56F84F9181EA
:10070000992329F180818330C1F4BF01605F7F4F5D
:1007100040E150E080E090E00E9446039C0180911F
:100720008E078823A1F430938D0720938C0781E0F6
:1007300080938E07809300010895990F990F990F68
:10074000490FB901640F711D6A177B07ACF2089558
:100750000F931F9303E917E01093900700938F07FF
:1007600083E0809393078AE38093960788ED8093D4
:10077000940788EC8093950784EA8093970782E03A
:1007800080939807D8011696B0932103A093200375
:1007900086E08093910785E88093990711961C92D3
:1007A000119710929D0710929E0710929F0710922A
:1007B000A00786E180939207F8013E96F0931F030D
:1007C000E0931E0381E08093A10781838091240937
:1007D0008283809123098383148215821682178273
:1007E00013961C921E9212970E94D4012091910799
:1007F0004091920750E030E0421B530B60918F070D
:1008000070919007620F731F0E9446032091910719
:10081000F801E20FF11D382F292F209530953383F1
:1008200022830E94C51FA8016091920780E090E09A
:100830000E94E3151F910F910895DF92EF92FF92AE
:100840000F931F93CF93DF93809100018F3F19F493
:100850000E94A80356C00E94D401C0912203D091E7
:1008600023032881398140E050E0D09091076091C6
:100870009207E62FF0E0ED19F10938967F01002785
:10088000F7FC0095102F3897E20EF31E041F151F7A
:10089000A0E0B0E0E80EF91E0A1F1B1F08C0C80147
:1008A000AA27BB278E0D9F1D7C0100E010E0D80118
:1008B000C701807090700097A105B10581F7609124
:1008C0008F07709190076D0D711DAF01C7010E94D8
:1008D0004603382F292F2095309539832883232BE1
:1008E00021F48FEF9FEF998388830E94C51F43E90E
:1008F00057E06091920780912403909125030E9414
:10090000E315DF91CF911F910F91FF90EF90DF9052
:100910000895809100018F3F19F40E94A803089563
:100920000E94D401209191074091920750E030E05D
:10093000421B530B60918F0770919007620F731FDA
:100940000E94460320919107E22FF0E0ED56F84F08
:10095000382F292F2095309533832283232B21F4A0
:100960008FEF9FEF938382830E94C51F43E957E077
:100970006091920780E090E00E94E3150895CF9384
:10098000DF93FC0183E997E09093900780938F07B2
:1009900023E020939307109295072AE3209396076C
:1009A0000496909321038093200388ED809394070D
:1009B00086818295807F806C809395079481982BA7
:1009C000909395078581982B9093950792859093A6
:1009D0009107E92FF0E0EF01CD56D84F88E88883E2
:1009E0001982DF01A956B84F11961C9211971296E1
:1009F0001C92129713961C921397662319F080E4A9
:100A00008C9301C01C92905E90939207E555F84F2D
:100A1000F0931F03E0931E0382E0808381E08183D3
:100A20008091240982838091230983831482158213
:100A3000168217821B821A820E94D401209191078C
:100A40004091920750E030E0421B530B60918F07BA
:100A500070919007620F731F0E944603E091910707
:100A6000F0E0ED56F84F382F292F2095309533833D
:100A700022830E94C51F43E957E06091920780E0FE
:100A800090E00E94E315DF91CF910895CF92DF921D
:100A9000EF92FF920F93DF93CF93CDB7DEB72B97F3
:100AA0000FB6F894DEBF0FBECDBF23E937E0309319
:100AB000900720938F07109291072D5F3F4F30933F
:100AC00021032093200323503040809193078330EB
:100AD00009F0B1C1809195078C708C3009F0ABC1E1
:100AE00080919407982F86FD08C087FD03C0295F79
:100AF0003F4F07C02A5F3F4F04C087FD06C02C5FF1
:100B00003F4F309321032093200395FF03C081E1E1
:100B10008C830AC0E0912003F091210381918C83A2
:100B2000F0932103E09320032091200330912103CF
:100B30002A833B838091940790E08871907088307D
:100B4000910561F0893091051CF4892B71F014C076
:100B50008031910529F0489779F405C081E001C002
:100B600080E4898309C08FEFFCCFF90181918983EB
:100B7000F0932103E093200380919507282F2370A1
:100B80002D8390E09C01207C307074E03595279592
:100B90007A95E1F728878073907064E09595879542
:100BA0006A95E1F78F83E0912003F0912103FA87A2
:100BB000E987243051F0283019F0222341F00CC08D
:100BC000808187FD38C1329603C0389601C0709687
:100BD000F0932103E0932003E091200383E997E061
:100BE000E81BE0939107EB878C818A3309F06CC096
:100BF000F0E0ED56F84F80818038D1F56BE070E27F
:100C00008AE090E00E94620D10929107E0918F07B8
:100C1000F09190078181887111F480E48483809140
:100C20009107E0918F07F0919007E80FF11D9D81EA
:100C30009295907F906C92838F812885822B892B4F
:100C40008283EB85E0939107F0E0ED56F84F81E861
:100C50008083828193810197938382830E94C51F41
:100C600043E957E06091920780E090E00E94E3152D
:100C7000E0919107F0E0ED56F84F8081813839F42A
:100C8000E0912003F091210387810E94050DE091FE
:100C90009107F0E0ED56F84F8081863821F4CE01BF
:100CA00001960E946C03E0919107F0E0ED56F84F39
:100CB0008081873849F48F818D8388858E8361E0B8
:100CC000CE0101960E94BF048C81813109F0B3C02E
:100CD000E0902003F0902103F70180818B3F41F5E4
:100CE00097012F5F3F4F3093210320932003818191
:100CF000482F42954F70C42EDD2460EB70EFC60E76
:100D0000D71E90E0BC016F70707060557F4054E05A
:100D1000880F991F5A95E1F7482B41832F5F3F4F6A
:100D20003093210320932003809191078E5F21C08F
:100D3000883F09F080C0D7011196F701D180119644
:100D4000CC901197C70103967381FC016181F70173
:100D5000718311966C93D382FC01C18285E090E08F
:100D6000E80EF91EF0922103E09220038091910792
:100D70008B5F80939107E0912003F0912103F09322
:100D80002303E0932203CB018C0D9D1D918380836F
:100D90008C159D0518F08617970718F40196918316
:100DA0008083AF014E5F5F4F509321034093200338
:100DB000809191078E5F8093910701E7081B209136
:100DC0009207281B7E010894E11CF11CC6010E94B9
:100DD0007209382F882379F1809191078B871092BF
:100DE0009107E0918F07F09190079181892F887189
:100DF00029F4EA81FB8180E4808303C0977E9061BF
:100E0000918380919107E0918F07F0919007E80F0F
:100E1000F11D9D819295907F906C92838F812885A2
:100E2000822B892B82838B8580939107830F8093FC
:100E300092070E941D042B960FB6F894DEBF0FBEDA
:100E4000CDBFCF91DF910F91FF90EF90DF90CF90CA
:100E50000895FF920F931F938C01F62E0E94C51FD9
:100E600023E937E0025F1F4F4F2D50E0B801C90161
:100E70000E94082CF09292070E9446051F910F9144
:100E8000FF90089580E89EEF90938A0780938907EA
:100E900081E080938B070E94C21F089581E090E05B
:100EA000909306028093050208951F9310922703E2
:100EB00080912803813019F40E94280107C0809195
:100EC00029038F5F809329030E94F8009C01D901B8
:100ED000E6EBF1E080E101900D928150E1F7809125
:100EE00028038130C1F460EB70EF81EB90EF0E943A
:100EF000650110912A030E94BF012BEB33E0412FC3
:100F000050E0B9010E94082C80912A030E94C4017C
:100F10000E941D040EC00E944F0DA0E0B0E080931F
:100F20002B0390932C03A0932D03B0932E030E94C8
:100F300089041F9108956F927F928F929F92AF9232
:100F4000BF92CF92DF92EF92FF920F931F9386E1B1
:100F50000E94C01B88E00E946F1B992787FD909517
:100F6000A92FB92FBC01CD010E94712820E030E0EB
:100F70004AE754E40E94672720E030E04CE852E45E
:100F80000E943A276093E6017093E7018093E8019D
:100F90009093E90188E00E946F1B992787FD909547
:100FA000A92FB92FBC01CD010E94712820E030E0AB
:100FB0004AE754E40E94672720E030E048EE51E41D
:100FC0000E943A276093EA017093EB018093EC0151
:100FD0009093ED0188E00E946F1B992787FD909503
:100FE000A92FB92FBC01CD010E94712820E030E06B
:100FF0004AE754E40E94672720E030E047E853E4E2
:101000000E943A275B016C016093EE017093EF013F
:101010008093F0019093F101E090E601F090E701F8
:101020000091E8011091E90123E333E34CE852E435
:10103000C801B7010E94112818162CF483E393E32A
:10104000ACE8B2E40EC02DEC3CEC4BE852E4C80135
:10105000B7010E944128882364F48DEC9CECABE836
:10106000B2E48093E6019093E701A093E801B09386
:10107000E901E090EA01F090EB010091EC011091A0
:10108000ED0128E431EE48EE51E4C801B7010E94B9
:10109000112818162CF488E491EEA8EEB1E40EC0E5
:1010A0002AE939E947EE51E4C801B7010E94412815
:1010B000882364F48AE999E9A7EEB1E48093EA0110
:1010C0009093EB01A093EC01B093ED012DEC3CE08B
:1010D00047E853E4C601B5010E94112818162CF404
:1010E0008DEC9CE0A7E8B3E40EC023E333EF46E8C1
:1010F00053E4C601B5010E944128882364F483E3C8
:1011000093EFA6E8B3E48093EE019093EF01A093F0
:10111000F001B093F101109206040E942801DC0155
:10112000E6EDF1E080E101900D928150E1F760EB96
:1011300070EF81EB90EF0E946501E090EE01F0907E
:10114000EF010091F0011091F101A090EA01B0903F
:10115000EB01C090EC01D090ED016090E601709041
:10116000E7018090E8019090E9010E94BF011F9380
:101170000F93FF92EF92DF92CF92BF92AF929F9226
:101180008F927F926F9221E031E03F932F939F9354
:101190008F930E94872C0E94C4010E941D048DB76A
:1011A0009EB740960FB6F8949EBF0FBE8DBF1F919D
:1011B0000F91FF90EF90DF90CF90BF90AF909F90F6
:1011C0008F907F906F900895DF92EF92FF920F9330
:1011D0001F93FC01009789F480E090E0A1E0B0E06B
:1011E0008093B1039093B203A093B303B093B4037D
:1011F0001092B0031092AF036FC0E090B103F09073
:10120000B2030091B3031091B403DD24603411F0F4
:10121000DD24D3942091AF033091B003D901A15DB7
:10122000BC4F962F03C081918D9391509923D9F78C
:10123000C901860F911D9093B0038093AF0380384E
:10124000910518F4DD2009F447C0D801C701805882
:101250009F4FAF4FBF4F80509F4FA140B04020F5F0
:101260004FE253E0C801B7010E949EFE2091AF03F8
:101270003091B00340E050E08091B1039091B2030F
:10128000A091B303B091B403820F931FA41FB51FA5
:101290008093B1039093B203A093B303B093B403CC
:1012A0001092B0031092AF03DD20B1F08091B10332
:1012B0009091B203A091B303B091B40380936609F7
:1012C00090936709A0936809B093690960E07EEF85
:1012D00084E690E00E94620D1F910F91FF90EF90C5
:1012E000DF9008953F924F925F926F927F928F921C
:1012F0009F92AF92BF92CF92DF92EF92FF920F93A5
:101300001F93DF93CF93CDB7DEB7A8970FB6F894AE
:10131000DEBF0FBECDBF7A01722E40EF603B740777
:1013200009F0FDC0570100E04E010894811C911C9A
:1013300091E4392E66246A948AE1482E81E0582E81
:10134000E2C0D5012C91213409F487C0223438F44D
:101350002A3009F4BFC02D3009F0C2C0BBC02C3404
:1013600069F1243521F0283409F0BAC04FC0F401E6
:10137000E00FF11D2083102F1F5F8091E6019091F7
:10138000E701A091E801B091E901BF93AF939F936A
:101390008F935F924F92C401810F911D9F938F9302
:1013A0000E94872C012F080F6501EDB7FEB7389614
:1013B0000FB6F894FEBF0FBEEDBFA0C0F401E00F62
:1013C000F11D2083102F1F5F8091EE019091EF019E
:1013D000A091F001B091F101BF93AF939F938F93D0
:1013E0005F924F92C401810F911D9F938F930E9432
:1013F000872C012F080F65014DB75EB7485F5F4F1F
:101400000FB6F8945EBF0FBE4DBF78C0F401E00F79
:10141000F11D2083102F1F5F8091EA019091EB0155
:10142000A091EC01B091ED01BF93AF939F938F9387
:101430005F924F92C401810F911D9F938F930E94E1
:10144000872C012F080F65018DB79EB708960FB640
:10145000F8949EBF0FBE8DBF51C065010894C11C9A
:10146000D11CD50111968C918D3011F08A3061F428
:10147000F401E00FF11D3082902F9F5FF401E90F1E
:10148000F11D8091F20137C07A94813329F4809361
:10149000F20140E251E006C0803349F48093F2014A
:1014A00042E251E061E084EC0E94D41E27C0F401C6
:1014B000E00FF11D6082902F9F5FF401E90FF11D95
:1014C00020839F5FF401E90FF11DD6018C91808389
:1014D0000D5F14C0F401E00FF11D20830F5F0DC0FC
:1014E000F401E00FF11D6082902F9F5FF401E90F7E
:1014F000F11DD5018C9180830E5F65017A945601B0
:101500000894A11CB11C772009F01BCF402F50E09C
:10151000BE016F5F7F4FC7010E94082C5DC2B0EF14
:10152000613B7B07B9F42DEE33E0472D50E0B70166
:10153000C9010E94082C709227030E944F0DA0E061
:10154000B0E08093B5039093B603A093B703B09334
:10155000B80341C2E0EF623B7E0709F039C1D70111
:101560008C91873409F4E8C0883450F4833409F44A
:101570001AC1843409F453C0823409F022C1A6C0D0
:10158000833539F0873709F415C1883409F019C15A
:101590000DC1B7E2B21708F054C004EE11E01F937A
:1015A0000F93025010401F930F93025010401F934F
:1015B0000F93025010401F930F93025010401F933F
:1015C0000F93025010401F930F93025010401F932F
:1015D0000F93025010401F930F9383E391E09F936A
:1015E0008F930894E11CF11CFF92EF920894E1089C
:1015F000F1080E94AA2CF8014DB75EB74C5E5F4F10
:101600000FB6F8945EBF0FBE4DBF9181808181837C
:101610009083329651E0E63EF507B9F7F5C0D70161
:1016200011968C91833751F4A6EBB1E0E6EDF1E031
:1016300080E101900D928150E1F7E6C0B7E2B21768
:1016400018F064E271E0C2C104EC11E01F930F9343
:10165000025010401F930F93025010401F930F939E
:10166000025010401F930F93025010401F930F938E
:10167000025010401F930F93025010401F930F937E
:10168000025010401F930F9383E391E09F938F9339
:101690000894E11CF11CFF92EF920894E108F10814
:1016A0000E94AA2CF8014DB75EB74C5E5F4F0FB693
:1016B000F8945EBF0FBE4DBF91818081818390837E
:1016C000329651E0E63CF507B9F79EC0D701119676
:1016D0008C91803571F1833509F073C0422F4250EF
:1016E00040932A032BEB33E0C701029650E0BC0184
:1016F000C9010E94082CF701E70DF11D22913196D6
:101700002A3099F4329780818D3079F090912A03B4
:10171000E92FF0E0DF01A654BC4F8DE08C93E55437
:10172000FC4F20839F5F90932A0381E080932803DE
:101730006BC01092280368C080912703882331F47E
:101740006FE571E0C7010E94112C08C18091B503BB
:101750009091B603A091B703B091B803BF93AF9334
:101760009F938F938DE691E09F938F93FF92EF92DB
:101770000E94872C182F9701280F311D40912703B5
:101780008DEE93E050E0BC01C9010E94082C00914D
:101790002703010FEDB7FEB738960FB6F894FEBFDA
:1017A0000FBEEDBF19C1109227032EC081E08093B8
:1017B00026032AC065E771E0C7010E94112C0AE1E7
:1017C0000BC16DE471E0C7010E94112C01E104C15D
:1017D000F0EF633B7F07F1F4F70190E004C09F5FF7
:1017E00031969C3019F080818A30C9F7F701E90FF2
:1017F000F11D1082D7010D900020E9F7AE19A70165
:101800006A2F82EC0E94D41E60E971E0C7010E9439
:10181000112CC8C040EF643B740711F4022FDCC0E8
:101820006534710509F0D0C082E090E09093040225
:10183000809303021092060210920502D7018C9148
:10184000882309F0C8C011968C91823009F088C0B5
:1018500097012E5F3F4FD90101C0DF01FD0181914A
:101860008823D9F780818F3609F0B5C0818183360E
:1018700009F0B1C08281843709F0ADC0838185361B
:1018800009F0A9C08481843709F0A5C08581882327
:1018900009F0A1C0FD01379617968C91823609F0A8
:1018A0009AC081818C3609F096C082818B3609F00E
:1018B00092C01381133709F08EC07481793609F014
:1018C0008AC065816A3709F086C05681553609F0AD
:1018D00082C08781882309F07EC04085463309F0A5
:1018E0007AC09185943309F076C08285882309F007
:1018F00072C0F701108286E0818382E68283F9015B
:1019000031968CE6D90111968C93DF0111968BE606
:101910008183FD01319611961C93DF01119671832D
:10192000FD01319611966C93DF0111965183FD01F3
:10193000319611961C92DF011196418311969C936A
:10194000119712961C9260E080E090E00E94E408FB
:1019500081E090E09093BA038093B9030DE03CC01E
:101960008330C9F5F7012381928180E0AC01420FF9
:10197000511D8091B9039091BA0348175907A1F4FA
:1019800084E081838091B9039091BA03019690938A
:10199000BA038093B9035CEF750E672DC7010496F7
:1019A0000E94E40804E018C04817590728F484E0AE
:1019B000D70111968C93F6CF85E0F70181831282CF
:1019C0001382148205E008C065E971E0C7010E9436
:1019D000112C0EE001C000E0802FA8960FB6F894FD
:1019E000DEBF0FBECDBFCF91DF911F910F91FF9052
:1019F000EF90DF90CF90BF90AF909F908F907F90AF
:101A00006F905F904F903F9008950E944F0DA0E01F
:101A1000B0E08093B5039093B603A093B703B0935F
:101A2000B80320912B0330912C0340912D0350914A
:101A30002E03821B930BA40BB50BBF93AF939F9305
:101A40008F9384EA91E09F938F938DEE93E09F9321
:101A50008F930E94872C809327030E9447218DB784
:101A60009EB708960FB6F8949EBF0FBE8DBF08951F
:101A7000DF93CF930F92CDB7DEB79C01009711F49F
:101A800021E030E08FB78983F89430934B042093A2
:101A90004A0489818FBF0F90CF91DF910895DF9322
:101AA000CF930F92CDB7DEB78FB78983F89420918B
:101AB0004C0430914D0489818FBFC9010F90CF91A3
:101AC000DF910895DF93CF930F92CDB7DEB7AC01CE
:101AD000009719F4FB01099530C08FB78983F894FA
:101AE000A9E0B4E0E0E08D919C911197892B09F574
:101AF0002E2F30E0F901EE0FFF1FEE0FFF1FE20F58
:101B0000F31FE75FFB4FCA014115510511F481E056
:101B100090E091838083F901EE0FFF1FEE0FFF1F0E
:101B2000E20FF31FE75FFB4F748363839091070419
:101B300034C0EF5F1596EA30B1F690E03DC091E019
:101B4000EBE0F4E041E08081891709F440E035964C
:101B500084E0ED33F807B9F780913D04891709F463
:101B600040E080914204891709F440E080914704E5
:101B7000891799F0442389F090930704F901EE0F37
:101B8000FF1FEE0FFF1FE20FF31FE75FFB4F928374
:101B900080910804882321F00DC09F5F89F6CFCF84
:101BA000109295001092940082E08093710081E081
:101BB0008093080489818FBF892F0F90CF91DF9187
:101BC0000895DF93CF930F92CDB7DEB7AC010097A6
:101BD00019F4FB01099516C080913B0490913C04D7
:101BE000892B11F4E0E011C08091400490914104F0
:101BF000892B11F4E1E009C08091450490914604DD
:101C0000892B11F090E050C0E2E02E2F30E0F90176
:101C1000EE0FFF1FEE0FFF1FE20FF31FE55CFB4F00
:101C20005183408374836383909107049F5F09F419
:101C300091E0EBE0F4E041E08081891709F440E0B5
:101C4000359684E0ED33F807B9F780913D048917A4
:101C500009F440E080914204891709F440E0809142
:101C60004704891719F3442309F390930704F901F2
:101C7000EE0FFF1FEE0FFF1FE20FF31FE55CFB4FA0
:101C800092838FB78983F89480910804882351F454
:101C9000109295001092940082E08093710081E090
:101CA0008093080489818FBF892F0F90CF91DF9196
:101CB0000895982FEBE0F4E020E030E08081891770
:101CC00069F4F901EE0FFF1FEE0FFF1FE20FF31F84
:101CD000E75FFB4F11821082128208952F5F3F4F02
:101CE00035962A30310551F780913D04891719F452
:101CF00080E090E00DC080914204891719F481E0E2
:101D000090E006C080914704891771F482E090E06A
:101D1000FC01EE0FFF1FEE0FFF1FE80FF91FE55C40
:101D2000FB4F11821082128208951F920F920FB6FC
:101D30000F920BB60F921124DF92EF92FF920F9346
:101D40001F932F933F934F935F936F937F938F9343
:101D50009F93AF93BF93EF93FF93DF93CF9300D005
:101D60000F92CDB7DEB780914C0490914D0401964F
:101D700090934D0480934C048091F3019091F40171
:101D800001979093F4018093F301892B49F009E0C6
:101D900014E066E1D62E7E010894E11CF11C27C0F8
:101DA00088EE93E09093F4018093F3010BE314E049
:101DB00056E1D52E7E010894E11CF11CF8018081CA
:101DC0009181009769F0019791838083892B41F479
:101DD000D982838194819B838A83C7010E941416D0
:101DE0000B5F1F4FF4E00A341F0741F7D0CFF80113
:101DF00080819181009769F0019791838083892B7D
:101E000041F4D982838194819B838A83C7010E9494
:101E100014160B5F1F4FF4E00B331F0741F70F90B1
:101E20000F900F90CF91DF91FF91EF91BF91AF9104
:101E30009F918F917F916F915F914F913F912F91E2
:101E40001F910F91FF90EF90DF900F900BBE0F90BE
:101E50000FBE0F901F901895E1E9F0E080818A6035
:101E6000808388EE93E0909399008093980080910E
:101E70009400909195000E941A2B08959C01F99965
:101E8000FECF32BD21BDF89A80B508959C01F99925
:101E9000FECF1FBA32BD21BD60BD0FB6F894FA9ACD
:101EA000F99A0FBE089584B1806A84B92F9A249A52
:101EB0002C9A80E58CBD81E08DBD0895239A219AEE
:101EC00084B1806A84B92F9A249A2C9A80E58CBDBB
:101ED00081E08DBDEFE6F0E080818062808383E465
:101EE00080938100B59A0895DF93CF930F92CDB779
:101EF000DEB780689FB79983F8942C988EBD0DB497
:101F000007FEFDCF8EB58EBD0DB407FEFDCF8EB59D
:101F10002C9A99819FBF0F90CF91DF910895DF9305
:101F2000CF930F92CDB7DEB7982F906C8FB7898380
:101F3000F8942C989EBD0DB407FEFDCF8EB56EBDF6
:101F40000DB407FEFDCF8EB52C9A89818FBF9F738C
:101F5000923059F46F71663011F0663121F481E0EE
:101F60008093650902C0109265090F90CF91DF91AF
:101F70000895FF920F931F93062FF42E0E94740F63
:101F8000082310E002C015950795FA94E2F7802F18
:101F90001F910F91FF900895DF92EF92FF920F93A0
:101FA0001F93D82EF62EE42E022F0E94740F6F2D51
:101FB0006095682310E002C0000F111FEA94E2F759
:101FC000F0226F298D2D0E948F0F1F910F91FF908E
:101FD000EF90DF900895DF93CF930F92CDB7DEB7E8
:101FE0008FB78983F8942C9880E28EBD0DB407FEDC
:101FF000FDCF8EB58EBD0DB407FEFDCF9EB5892FEA
:1020000083508D37A8F4909312089EBD0DB407FE3F
:10201000FDCFE3E1F8E08EB51EBC81930DB407FE61
:10202000FDCF9150C1F78EB5809392082C9A07C0CE
:102030002C9A10921208109292081092930889819B
:102040008FBF0F90CF91DF910895DF93CF930F92C1
:10205000CDB7DEB7FC016F778FB78983F8942B9AE1
:102060002B982C9880E68EBD0DB407FEFDCF8EB563
:102070006EBD0DB407FEFDCF8EB581918EBD615052
:102080000DB407FEFDCF8EB56623B9F72C9A898172
:102090008FBF0F90CF91DF910895DF93CF930F9271
:1020A000CDB7DEB7982FFA018FB78983F8942C98B3
:1020B0001EBC0DB407FEFDCF8EB59EBD0DB407FE50
:1020C000FDCF8EB51EBC0DB407FEFDCF8EB580834F
:1020D000615011F03196F6CF2C9A89818FBF0F9005
:1020E000CF91DF910895DF93CF930F92CDB7DEB7F5
:1020F000982FFA018FB78983F8942C9880E48EBDCD
:102100000DB407FEFDCF8EB59EBD0DB407FEFDCF0D
:102110008EB581918EBD0DB407FEFDCF8EB5615099
:10212000C1F72C9A89818FBF0F90CF91DF910895CD
:102130000895DF93CF930F92CDB7DEB7E62FBA01A4
:102140002FB72983F89426E43FE04E2F50E00E94F9
:102150003F2C89818FBF0F90CF91DF910895DF933E
:10216000CF930F92CDB7DEB7FC01CA012FB72983F9
:10217000F8942EE33FE0462F50E0BF010E94232C4D
:1021800089818FBF0F90CF91DF910895DF92EF92F9
:10219000FF920F931F93DF93CF9300D0CDB7DEB79D
:1021A00080914E04882311F011E05CC081E080939F
:1021B0004E04D0906600F89461E00E94F31AE0901B
:1021C000B100F0908100009180001092B100109257
:1021D00081001092800020E030E063E056E04FEF95
:1021E0006093B100509381001092B200109285006C
:1021F0001092840046BB47BBB89BFECF8091840001
:10220000909185009A838983109281001092B10089
:1022100089819A818A5F934020F480916600815081
:102220000AC089819A818650944010F411E00CC054
:10223000809166008F5F809366002F5F3F4F83E041
:10224000283E380769F610E060E081E00E94F31A4A
:10225000E092B100F092810000938000112311F40C
:10226000D0926600812F0F900F90CF91DF911F9138
:102270000F91FF90EF90DF9008951F920F920FB68D
:102280000F920BB60F9211240F931F932F933F932E
:102290004F935F936F937F938F939F93AF93BF936E
:1022A000EF93FF938FE00E94740F082F182F83FF86
:1022B00002C00E94531C14FF02C00E94521912FF58
:1022C00010C02C9880E28EBD0DB407FEFDCF8EB5F8
:1022D0001EBC0DB407FEFDCF8EB52C9A0E94941A39
:1022E0000AC007FF08C08EE00E94740F8F77682F26
:1022F0008EE00E948F0FFF91EF91BF91AF919F9160
:102300008F917F916F915F914F913F912F911F918D
:102310000F910F900BBE0F900FBE0F901F9018954E
:1023200080932A090E94321B08951F93182F8FEF64
:102330009FEF909322098093210990932409809321
:10234000230910921E0990932609809325099093E2
:102350002809809327091092290910922D0981E0FC
:1023600080932E090E94FE1C10932A091F3F19F02A
:10237000812F0E94321B81E00E94A81B88E00E94EE
:10238000C01B0E94581A21E042E064E087E10E94ED
:10239000CC0F86E10E94C01B46E159E068E080E076
:1023A00090E00E94AF1080E00E94C61A8FEF9FEF6E
:1023B0000E94AE1A8FEF9FEF0E94BA1A22E044E00B
:1023C00060EF8CE20E94CC0F86E199E00E949E1A99
:1023D0000E945A121F910895089580E090E0089598
:1023E00080E008958FEF9FEF08959C01009771F0B2
:1023F000E2E5F4E0808191818217930711F481E096
:102400000895339684E0E83EF807A1F780E0089548
:10241000AC010097E1F0A2E5B4E020E030E08D915E
:102420009C9111978417950761F4F901EE0FFF1F36
:10243000E20FF31FEC5AFB4F808181FF02C081E065
:1024400008952F5F3F4F13962233310541F780E007
:102450000895AC01E2E5F4E020E030E08081918174
:102460008417950751F4F901EE0FFF1FE20FF31FD8
:10247000EE5AFB4F1182108208952F5F3F4F339623
:102480002233310559F7089580E090E0089580E007
:1024900090E0089580E090E0089580E090E0089555
:1024A00008950895089580E090E00895089580E0EB
:1024B00090E008950895AC01E2E5F4E020E030E01A
:1024C000808191818417950759F4F901EE0FFF1F60
:1024D000E20FF31FEC5AFB4F8081816080830895E7
:1024E0002F5F3F4F33962233310551F70895AC01EA
:1024F000009739F1A2E5B4E0FD0180819181841754
:10250000950731F0339684E0E83EF807B1F7089577
:1025100020E030E08D919C9111978417950759F434
:10252000F901EE0FFF1FE20FF31FEC5AFB4F808102
:102530008E7F808308952F5F3F4F1396223331059E
:1025400049F708951092510410925004E2E5F4E026
:1025500020E030E00EC080819181A9014F5F5F4F84
:102560003396892B29F030935104209350040AC0EC
:102570009A012233310578F33093510420935004AB
:1025800020E030E0C90108952091500430915104B9
:10259000F901EE0FFF1FE20FF31FEE5AFB4F0EC0C3
:1025A00080819181A9014F5F5F4F3396892B29F07C
:1025B00030935104209350040AC09A01223331050C
:1025C00078F3309351042093500420E030E0C901A7
:1025D000089521E0880F991FFC0173E0EE0FFF1FA3
:1025E0007A95E1F7E81BF90BE05BFB4F80818823CC
:1025F00031F081859285009719F02F5FEBCF20E0B5
:10260000822F0895CF92DF92EF92FF920F931F9344
:10261000CF93DF936C01DC011B960D911C911C97ED
:102620000115110509F454C082E5E82E84E0F82E66
:10263000F701808191818017910731F03396B4E0E2
:10264000E83EFB07B1F744C0C0E0D0E0F70180816D
:1026500091818017910769F5FE01EE0FFF1FEC0FC6
:10266000FD1FEC5AFB4F90E0D6011D968C9187FD23
:1026700091E0990F80818D7F892B8083FE01EE0F81
:10268000FF1FEC0FFD1FEC5AFB4F908190FF0EC017
:10269000D6011D968C91863019F49E7F908311C0CF
:1026A00060E070E0C8010E94E7150BC0C8010E94FD
:1026B0002C142196E3E0F0E0EE0EFF1EC233D105AC
:1026C00029F6D6011D968C911D978F771D968C93B8
:1026D000DF91CF911F910F91FF90EF90DF90CF90FE
:1026E0000895AC01A2E5B4E0FD0120E030E0808176
:1026F00091818417950759F4F901EE0FFF1FE20F3E
:10270000F31FEC5AFB4F80818C7F808308952F5FED
:102710003F4F33962233310551F720E030E08D9161
:102720009C911197892BA1F4F901EE0FFF1FE20F85
:10273000F31FDF01AE5ABB4F4D935C93EC5AFB4F36
:1027400080818C7F8083822F90E00E94C220089538
:102750002F5F3F4F13962233310509F7089580917B
:102760004F040E94590E80911E0991E089270E9412
:10277000AA210895CF93DF93EC01862F0E94901138
:1027800083E698EC909396088093950880912009B1
:10279000809397088F5F8093200980912109909101
:1027A00022099093990880939808D0939B08C0932E
:1027B0009A08ACE9B8E0E6E1F9E088E001900D9212
:1027C0008150E1F781E08093A408D093A608C093DC
:1027D000A50882E08093A70865E978E083E10E947C
:1027E0002C1C6FEA73E184E690E00E94620D8093F6
:1027F0004F04DF91CF91089580E090E89093960880
:102800008093950880911F09809397088F5F80932C
:102810001F09809121099091220990939908809332
:102820009808809123099091240990939B088093A4
:102830009A088FEF90E090939D0880939C0886E023
:1028400080939E088091290980939F0865E978E02C
:102850008BE00E942C1C0895CF92DF92EF92FF92A2
:102860000F931F93CF93DF937C01CCEED4E000E075
:1028700010E083E8C82ED12C2881222391F0898191
:102880009A818E159F0569F40C9DB0010D9D700D08
:102890001C9D700D112461517B4F822F0E942C1CB6
:1028A00018820F5F1F4FCD57DF4F0330110521F7FF
:1028B000DF91CF911F910F91FF90EF90DF90CF901C
:1028C000089565E978E0809194080E942C1C089591
:1028D0009F92AF92BF92CF92DF92EF92FF920F93AF
:1028E0001F93CF93DF937C01962EC72ED42ECCEE70
:1028F000D4E020E000E010E093E8A92EB12C88811C
:102900008823B9F4222399F4D882FA82E9820A9DB5
:1029100090010B9D300D1A9D300D112421513B4F1C
:102920004D2D50E0692D7C2DC9010E94082C21E01D
:1029300006C089819A818E159F0509F418820F5F60
:102940001F4FCD57DF4F03301105C9F6DF91CF91EF
:102950001F910F91FF90EF90DF90CF90BF90AF90BD
:102960009F900895DF93CF93CDB7DEB760970FB6F2
:10297000F894DEBF0FBECDBF81E698E89A838983C5
:10298000809120098B838F5F80932009809121099A
:10299000909122099D838C83809123099091240931
:1029A000998788879D878C878091E8049091E904B6
:1029B0009B878A878091EA048E870E94481A8F87B6
:1029C0000E944B1A888B80912509909126099F833C
:1029D0008E83BE016F5F7F4F80E10E942C1C60964A
:1029E0000FB6F894DEBF0FBECDBFCF91DF91089533
:1029F000282F80912309909124096817790789F07D
:102A000080911E09882369F07093E9046093E804BB
:102A10002093EA041092EB040E94B21481E08093A8
:102A20002D0908958091200890E08F779070833071
:102A3000910571F18430910534F48130910561F094
:102A40000297D9F51EC08530910581F18530910539
:102A500034F1069791F503C00E94C9200895409172
:102A6000210820911A0830911B0880912509909126
:102A700026092817390709F5842F90E00E945B1278
:102A8000089580911E0890911F080E946721089563
:102A900080911E0890911F080E944E2108958091F8
:102AA0002108909122080E9429120895609112082D
:102AB000605183E198E00E9429070895EF92FF9208
:102AC0000F931F93CF93DF93EC01062F7A01122F00
:102AD00020912309309124098217930709F46CC0CF
:102AE0008FEFCF3FD80709F467C080911E09882374
:102AF00009F462C081E698E890939608809395085F
:102B000080912009809397088F5F8093200980919E
:102B10002109909122099093990880939808309305
:102B20009D0820939C08D0939F08C0939E083093E3
:102B3000A1082093A008CE010E942117163029F485
:102B4000D0939B08C0939A0808C080912509909162
:102B5000260990939B0880939A081093A20890E00E
:102B600009C0E92FF0E0EB56F74FD7018D917D01B9
:102B700086879F5F9017A8F320919A0830919B0851
:102B8000809123099091240928173907A9F02F5F14
:102B90003F4F91F0025F009394081650123018F0E6
:102BA00087E090E002C080E090E061E674E10E947E
:102BB000620D81E080932D09DF91CF911F910F91DC
:102BC000FF90EF90089525E00E945E150895DF9331
:102BD000CF9300D0CDB7DEB77A83698326E0AE010C
:102BE0004F5F5F4F62E00E945E150F900F90CF9194
:102BF000DF91089521E00E945E150895DC010D909B
:102C00000020E9F7A81B27E0AC016A2F80E090E0E4
:102C10000E945E15089590912F098091300920E05F
:102C2000981321E0822F08950F931F93182F092FD7
:102C300080912F092091300990E001966AE070E0C0
:102C40000E94313030E082179307D9F040912F096C
:102C5000842F90E0FC01EE0FFF1FE80FF91FEF5CDF
:102C6000F64F212F302FC901DC0183E00D90019236
:102C70008150E1F7842F8F5F8A3008F080E08093E5
:102C80002F091F910F910895DF93CF930F92CDB726
:102C9000DEB7809130098983998189818F5F89832B
:102CA00089818A3008F0198289818093300923E074
:102CB000929F900111242F5C364FC9010F90CF9144
:102CC000DF9108950F931F93DF93CF930F92CDB7AA
:102CD000DEB703E011E0A7C08091300989838981C4
:102CE000809FF0011124EF5CF64F89818F5F89830B
:102CF00089818A3008F01982898180933009808126
:102D0000843119F1853180F4813109F48AC082312E
:102D100020F4803109F087C025C0823109F47EC0DB
:102D2000833109F080C077C0873109F441C0883110
:102D300030F4853189F1863109F075C00EC08831D3
:102D4000F1F1893109F06FC05FC080911E098823BD
:102D500009F069C00E94A71966C00180F281E02DC8
:102D6000099561C080911E09882309F45CC083E144
:102D700098E00E94021320911C0830911D08809158
:102D80002309909124092817390719F40E94121574
:102D90004AC00E94231747C080911E09882309F466
:102DA00042C06CEF73E181E090E00E94620D3BC095
:102DB00080911E098823B9F10E94AE1734C080911A
:102DC00013089091140883569C48B9F410931E0977
:102DD00080912008909121089093260980932509DD
:102DE00080912308909124089093240980932309CB
:102DF0000E94AE1A0E94AF1316C080911E0988234C
:102E000091F00E94B5180FC080911E09882359F0D7
:102E10000E94621808C00E940E2005C00E94D021A6
:102E200002C00E94112290912F09809130099817B9
:102E300009F052CF0F90CF91DF911F910F9108951C
:102E4000089580E00895A4E9B8E0E2E1F8E082E8BE
:102E500001900D928150E1F76BE070E28AE090E022
:102E60000E94620D80919E0890919F080E94F5112A
:102E70008823B9F180912009809397088F5F809310
:102E8000200980919E0890919F0890939B088093C1
:102E90009A08209123093091240930939D082093AA
:102EA0009C080E940812882361F0409194084250C7
:102EB00065E978E080919E0890919F080E946814CF
:102EC000089580919A0890919B088F5F9F4F09F415
:102ED00044C08091940865E978E082500E942C1CDF
:102EE0000895209125093091260980919C089091A0
:102EF0009D088217930781F4809120098093970899
:102F00008F5F8093200980912709909128099093E1
:102F10009B0880939A080BC08091200980939708A2
:102F20008F5F8093200930939B0820939A088091AB
:102F300023099091240990939D0880939C08809187
:102F40009A0890919B088F5F9F4F39F08091940869
:102F500065E978E082500E942C1C0895DF93CF939E
:102F6000CDB7DEB765970FB6F894DEBF0FBECDBF05
:102F700080911408883C09F043C083E698E89A835E
:102F80008983809120098B838F5F809320098091B2
:102F90002109909122099D838C838091250990912C
:102FA00026099F838E838091230990912409998714
:102FB000888781E08A8780912308909124089C87E4
:102FC0008B8780911A088D8780911B088E8780914E
:102FD0001C088F8780911D08888B80911E08898B23
:102FE00080911F088A8B809120088B8B809121080B
:102FF0008C8B809125088D8BBE016F5F7F4F56C0F3
:1030000083E698E89093950880939408809120092E
:10301000809396088F5F8093200980912109909179
:1030200022099093980880939708809125099091A0
:10303000260990939A08809399088091230990918A
:10304000240990939C0880939B0881E080939D08BD
:1030500080911D0890911E0890939F0880939E0870
:1030600080911F088093A008809120088093A10878
:10307000809121088093A208809122088093A30860
:10308000809123088093A408809124088093A50848
:10309000809125088093A608809126088093A70830
:1030A000809127088093A80864E978E085E10E9470
:1030B0002C1C65960FB6F894DEBF0FBECDBFCF9126
:1030C000DF91089590911208A4E9B8E0E2E1F8E0F8
:1030D00082E801900D928150E1F780911E098823CA
:1030E00009F442C0292F2C502695E1E0F0E0E21BC4
:1030F000F109EE0FFF1FF095E195FF4FE156F74FF5
:10310000808191819093280980932709223060F172
:1031100083E698E89093960880939508809120091B
:10312000809397088F5F809320092150822F90E031
:10313000FC01EE0FFF1FE156F74F208131813093E4
:103140009B0820939A0820912309309124093093F9
:103150009D0820939C082BEB20939E08059665E91B
:1031600078E0880F0E942C1C08950F931F93CF9333
:10317000DF9380911E09882309F486C020911D08E1
:1031800030911E08809123099091240904E918E0E8
:103190002817390709F049C083E69CE89093950801
:1031A0008093940880912009809396088F5F809384
:1031B0002009809121099091220990939808809389
:1031C000970880911F088093990880912008809328
:1031D0009A088091210880939B088091220880930F
:1031E0009C088091230880939D08809124088093F7
:1031F0009E088091250880939F08809126088093DF
:10320000A0083093A2082093A10882E08093A3082D
:1032100080912708909128089093A5088093A4088E
:103220000E947113B80182E12DC0E8012196D801F6
:10323000E2E1F8E082E801900D928150E1F780919F
:1032400020098A838F5F80932009809127099091BC
:1032500028099E838D838091230990912409988762
:103260008F8380919F089091A0080E94F511882378
:1032700031F080919F089091A0089E838D8365E92D
:1032800078E086E10E942C1CDF91CF911F910F9175
:1032900008958091750608958093F50108958091B1
:1032A000F5010895089508951F9310E08091540941
:1032B0008F3FE1F011E08091500990915109909376
:1032C00022098093210920915209309153093093AA
:1032D0002609209325090E94BA1A809154090E9458
:1032E0009011809158098F5F80932909812F0E9446
:1032F0009A211F9108952091920880911408829537
:1033000086958695837080934F09809116089091D9
:103310001708909351098093500980911808909153
:103320001908909353098093520980911D08809346
:10333000580980912A0981508093540910925509A7
:10334000209359090E94481A80935A0908951F939F
:103350004091920880917506882359F12091560971
:103360003091570980911A0890911B089093570942
:10337000809356098091570987FF05C030935709FC
:103380002093560916C080915909841780F084173C
:1033900081F49091580980911D08891740F0981781
:1033A00041F410915A090E94481A181710F40E940B
:1033B0007B191F91089590912A099F3FA9F481E0FC
:1033C0008093750686E1EFE4F9E0DF011D928A95AE
:1033D000E9F7909354098BE080932A098091F501D5
:1033E000803811F080932A0940912A094B3148F422
:1033F000242F30E08091F50190E0019628173907DD
:1034000041F4109275068FEF80932A090E94541997
:103410000895842F0E94901183E098E0909396087D
:103420008093950880911F09809397088F5F809300
:103430001F098FEF9FEF90939908809398089093BE
:103440009B0880939A0887E080939C0865E978E060
:1034500088E00E942C1C80912A098F5F80932A09A2
:103460006BED79E184E190E00E94620D089508958A
:103470000E94981080E090E00E94321D0E942C0F64
:103480000E948D2178940E9415200E946216FACF26
:1034900080917706089580919208089529982B9835
:1034A0008DE090E00197F1F7299A08950895089525
:1034B000089540E06FE181E00E94B90F089540E077
:1034C0006FE181E00E94B90F282F8151823058F0BE
:1034D000223049F0213039F080E090E02E3129F49B
:1034E00081E090E0089581E090E00895CF93DF932C
:1034F000EC0140E06FE181E00E94B90F863021F0DD
:10350000813011F084E407C040E06FE186E00E9462
:10351000B90F888380E4DF91CF91089540E06FE197
:1035200088E00E94B90F089540E06FE186E00E94B4
:10353000B90F8093770610922D0908951F93CF93AA
:10354000DF93EC0114E26991812F0E948F0F1F5FBE
:103550001C32C9F7DF91CF911F9108951F93192F46
:10356000682F80E20E948F0F612F81E20E948F0FEF
:103570001F9108951F93192F682F82E20E948F0FC9
:10358000612F83E20E948F0F1F910895282F43E03F
:1035900068E08EE20E94CC0F08952B988DE090E0B9
:1035A0000197F1F723E040E06FE182E00E94CC0F49
:1035B00083E090E00197F1F708951B9B02C080E43F
:1035C00008950E94CD1A8BE490E00197F1F740E056
:1035D0006FE181E00E94B90F883011F083E4089513
:1035E0002B9A80E408951F93162F663010F082E422
:1035F00011C0882311F421E001C020E043E068E01D
:1036000083E00E94CC0F212F40E067E083E00E941E
:10361000CC0F80E41F9108951B9902C080E40895A7
:103620002B9881EE96E00197F1F760E081E00E942F
:10363000F31A40E06FE181E00E94B90F883071F326
:1036400083E40895282F803110F082E408951B9BB5
:1036500002C084E4089540E06FE085E00E94CC0F52
:1036600080E408951F93182F8B50803110F082E46E
:1036700028C01B9B02C084E424C040E06FE188E0C6
:103680000E94B90F8117E1F0212F40E06FE188E03F
:103690000E94CC0F40E06FE181E00E94B90F8630BC
:1036A00011F0893021F48DE291E00197F1F740E0CB
:1036B0006FE188E00E94B90F811711F083E401C027
:1036C00080E41F91089580917606882329F48CE187
:1036D0000E94740F809376068091760608950F936A
:1036E0001F93DF93CF9300D0CDB7DEB7082F198299
:1036F00040E06FE181E00E94B90F182F0E94631B28
:10370000833021F00E94631B8730C9F4163019F40E
:10371000069510E010C0163191F4FACF45E060E64E
:1037200086E00E94B90F8A8389819A81880F880F69
:10373000892B89831F5F101788F3898102C00E943B
:10374000152B0F900F90CF91DF911F910F9108953E
:103750001F93182F0E94631B823031F4212F47E002
:1037600060E885E00E94CC0F0E94631B833031F437
:10377000212F45E060E284E00E94CC0F1F91089564
:103780000F931F93182F883051F0863041F0893005
:1037900031F0863121F0893111F082E45AC01B9B4F
:1037A00002C084E456C00E945F1A8823E1F70E9499
:1037B000631B823039F40E944919882319F01631AD
:1037C00009F416E040E06FE181E00E94B90F082F94
:1037D000181709F43DC0183019F40E94CD1A2FC0F3
:1037E000193159F48930E1F029E040E06FE182E0DD
:1037F0000E94CC0F063181F40CC0163189F4893057
:1038000079F029E040E06FE182E00E94CC0F0931BD
:1038100019F483E090E002C089E691E00197F1F7A6
:10382000212F40E06FE182E00E94CC0F083019F4B4
:1038300089E691E002C083E090E00197F1F740E073
:103840006FE181E00E94B90F811711F083E401C09C
:1038500080E41F910F9108951F93CF93DF93182F4A
:10386000EB0187FF02C082E41AC00E945F1A88231E
:10387000E1F789E10E94C01B40E06FE181E00E9416
:10388000B90F8931B1F78D819E8190932C09809376
:103890002B091E5F612FCE010E94251080E4DF916D
:1038A000CF911F910895DF93CF9300D000D00F9256
:1038B000CDB7DEB740E06FE181E00E94B90F8A83A7
:1038C0008A81813151F08A81863039F08A81813054
:1038D00021F08A81863109F057C00E94EB0F909148
:1038E000140880E020911308AC01420F511D9A0189
:1038F000809118088F3F41F4809119088F3F21F47F
:10390000842F807F09F072C01B821D821C8258E8C0
:103910002136350721F188E82236380740F448E09F
:103920002330340781F02050304849F512C08CE82C
:103930002336380701F148EC23363407D1F02356FB
:103940003848E9F40EC080911E098823C1F085E152
:1039500015C00E944919882391F084E10FC080E1CD
:103960000DC080911C08823031F08B3B31F08130EA
:1039700031F487E103C088E101C089E18B83CE0186
:1039800003960E94141632C08A81823049F08A81DF
:10399000823131F08A81893119F08A81893031F59B
:1039A00010922D091B821D821C8245E060EE82E090
:1039B0000E94B90F89838981833051F0843018F4D3
:1039C000823050F403C0853039F404C081E103C073
:1039D00083E101C082E18B838B81882321F0CE01BA
:1039E00003960E94141686E10E94C01B0F900F9050
:1039F0000F900F900F90CF91DF910895FF920F934A
:103A00001F93F82E0DEF13E0C8010197F1F70E9404
:103A10005E0F29982B988DE090E00197F1F7299A95
:103A200023E040E06FE182E00E94CC0FC8010197E3
:103A3000F1F76CE08EE00E948F0F27E040E06FE02E
:103A400089E00E94CC0FFF2011F00E94C61080E494
:103A50001F910F91FF9008950895089580E090E0E0
:103A6000089508951092FC062091FC062093FB0611
:103A700010927A0620917A062093790628E92093FD
:103A8000C10026E02093C2001092C5002CE02093D4
:103A9000C40090937E0780937D0708951092C10023
:103AA0000895382F809180078823D9F578949091D4
:103AB00079069F5F97FF05C090E003C0222319F0AD
:103AC0000EC020917F0780917A069817B9F3E09194
:103AD0007906F0E0E758F94F3283909379068091A8
:103AE000C10085FD1EC08091C00085FFFCCF909174
:103AF0007A06E92FF0E0E758F94F228180917906A4
:103B0000981711F42FEF06C0E92FEF5FE7FDE0E013
:103B1000E0937A062093C6008091C1008062809372
:103B2000C1000895CF93DF93EC0103C00E94511DA3
:103B3000219688818823D1F7DF91CF9108958091D4
:103B4000FB069091FC06282F30E0291B310937FF36
:103B500002C020583F4F822F08958091FB0690911C
:103B6000FC06282F30E0291B310937FF02C02058FE
:103B70003F4F822F08958091790690917A06282FE1
:103B800030E0291B310937FF02C020583F4F822FF8
:103B9000089590917A06E92FF0E0E758F94F2281D5
:103BA00080917906981711F42FEF06C0E92FEF5F87
:103BB000E7FDE0E0E0937A06822F08958091FB060E
:103BC0009091FC06282F30E0291B310937FF02C0F5
:103BD00020583F4F222391F39091FC06E92FF0E00B
:103BE000E550F94F22818091FB06981711F42FEFD1
:103BF00006C0E92FEF5FE7FDE0E0E093FC06822FCF
:103C00000895DF92EF92FF920F931F93CF93DF936C
:103C1000EC01D42E00E0E62EFF240894E108F10820
:103C20008091FB069091FC06282F30E0291B31097A
:103C300037FF02C020583F4F222391F39091FC069A
:103C4000E92FF0E0E550F94F12818091FB069817BB
:103C500011F41FEF06C0E92FEF5FE7FDE0E0E0930E
:103C6000FC06802F90E08E159F0524F01D3011F08A
:103C70001830B1F6DD2019F0812F0E94511D183047
:103C800061F01D3089F41882802FDF91CF911F9150
:103C90000F91FF90EF90DF900895002309F4C0CFBB
:103CA000015018822197BCCF19930F5FB9CF90E0D4
:103CB00080918007882309F491E09093800708950C
:103CC00008958091FB069091FC06282F30E0291B77
:103CD000310937FF02C020583F4F222309F455C055
:103CE0008091FB069091FC06282F30E0291B3109BA
:103CF00037FF02C020583F4F222391F39091FC06DA
:103D0000E92FF0E0E550F94F22818091FB069817EA
:103D100011F42FEF06C0E92FEF5FE7FDE0E0E0933D
:103D2000FC06809102028533E1F0863328F4833368
:103D300041F08433A1F509C08633C9F0873379F5A2
:103D400026C0213089F484E30FC0822F2B3008F085
:103D50008AE08093F60185E3809302021092780650
:103D600014C02093F70186E3809302020EC0909165
:103D700078068091F601981750F4E92FF0E0EA50A8
:103D8000FE4F22839F5F9093780680E0089583E33F
:103D90008093020280E0243031F481E0089583E3CF
:103DA0008093020280E00895EF92FF920F931F9399
:103DB000CF93DF93082F162F7A0181E00E94511DC7
:103DC000812F0E94511D802F0E94511D00E0C12FA4
:103DD000D0E006C0EE0DFF1D80810E94511D0F5FD7
:103DE000E02FF0E0EC17FD07ACF384E00E94511DDA
:103DF000DF91CF911F910F91FF90EF9008951F9247
:103E00000F920FB60F920BB60F9211242F933F9380
:103E10004F935F936F937F938F939F93AF93BF93D2
:103E2000EF93FF932091C6009091FB069F5F97FD53
:103E300090E08091FC06981741F0E091FB06F0E0DD
:103E4000E550F94F22839093FB0610927F07E09193
:103E50007D07F0917E07309711F0822F0995FF9131
:103E6000EF91BF91AF919F918F917F916F915F91F2
:103E70004F913F912F910F900BBE0F900FBE0F905F
:103E80001F9018951F920F920FB60F920BB60F92BC
:103E900011242F938F939F93EF93FF939091790623
:103EA00080917A069817B1F090917A06E92FF0E0A8
:103EB000E758F94F228180917906981711F42FEF76
:103EC00006C0E92FEF5FE7FDE0E0E0937A0620937C
:103ED000C60005C08091C1008F7D8093C100FF9115
:103EE000EF919F918F912F910F900BBE0F900FBE6E
:103EF0000F901F9018950895089581E080932E09E2
:103F0000089580918107882359F581E08093810786
:103F1000209103023091040221343105B8F42115B7
:103F2000310569F067EE7FE184E690E0AC01249F03
:103F3000C001259F900D349F900D112404C067EEA1
:103F40007FE188E893E10E94620D0895C9016AE06B
:103F500070E00E941D30CB0167EE7FE10E94E10D11
:103F600008950E94811F089580912E09882339F0B9
:103F700061EB7FE182E390E00E94620D08950E9470
:103F8000811F08950E94811F08950E944F0D885A35
:103F9000944E0E94380D08951F93DF93CF930F9294
:103FA000CDB7DEB780918207882361F411E01983D1
:103FB000AE014F5F5F4F61E080E090E00E94E3154B
:103FC000109382070F90CF91DF911F9108950E9467
:103FD000CC1F1092810720918307309184072F5FB7
:103FE0003F4F30938407209383078091050290917F
:103FF00006022817390761F4232B51F06BE977E0AB
:1040000087E090E00E94620D10928407109283076F
:104010000E94B41F0895089508950895089508957D
:1040200008950895089508950895CF93DF9380919A
:1040300026038823A9F080918607882399F480912C
:104040008707882329F00E94590E1092870704C021
:10405000109226030E94550781E08093860702C0D4
:10406000109286070E94611E882309F476C0809111
:10407000F701833829F1843830F4813851F08238DF
:1040800009F06BC00CC0843861F1853809F065C057
:104090003BC060E070E082E00E94F8145EC0809156
:1040A00085078F5F8093850781500E94F800DC01AF
:1040B000E6ECF1E080E101900D928150E1F721C042
:1040C000809185078F5F8093850781500E94F8005B
:1040D000DC01E6EDF1E080E101900D928150E1F725
:1040E00010C0809185078F5F8093850781500E9463
:1040F000F800DC01E6EBF1E080E101900D928150E7
:10410000E1F70E94890429C00E942801DC01E6EB46
:10411000F1E080E101900D928150E1F760EB70EFEA
:1041200081EB90EF0E946501809185078F5F8093FE
:104130008507815080FD03C0C7E0D2E002C0CAE01D
:10414000D2E00E94BF01FC01888199819183808324
:1041500082E00E94C4010E941D04DF91CF91089566
:1041600060E08FE20E948F0F60E070E082E00E94CA
:10417000F81460EB70E284EF91E00E94620D80938E
:10418000870708956BE070E28AE090E00E94620D7C
:10419000089580912008813031F46BE070E28AE06C
:1041A00090E00E94620D08956BE070E289E190E07A
:1041B0000E94620D0895EF92FF920F931F93DF9379
:1041C000CF93CDB7DEB728970FB6F894DEBF0FBEFA
:1041D000CDBF8E010F5F1F4FA80168E080E090E027
:1041E0000E94AF1078019E01275F3F4FF801808148
:1041F0008F3FB9F40F5F1F4F02171307B9F72AC09B
:1042000088E00E946F1BF70181937F01E017F1079F
:10421000B9F7AE014F5F5F4F68E080E090E00E9429
:1042200099108E010F5F1F4FA80162E080E190E0BE
:104230000E94AF1089819A818F5F9F4F91F484E132
:1042400090E09A838983A80162E080E190E00E9477
:10425000991007C080E00E94FE1C86E00E94C01BEF
:10426000CFCF28960FB6F894DEBF0FBECDBFCF914B
:10427000DF911F910F91FF90EF9008956091540985
:1042800080915209909153090E94BA13089540E019
:1042900050E060E081EC0E94D41E0895DF93CF933C
:1042A00000D0CDB7DEB79A838983AE014F5F5F4FF1
:1042B00062E081EC0E94D41E6BE070E28AE090E044
:1042C0000E94620D0F900F90CF91DF910895DF93C0
:1042D000CF9300D0CDB7DEB79A8389836BE070E2CD
:1042E00081E090E00E94620DAE014F5F5F4F62E09F
:1042F00081EC0E94D41E69817A8183E00E94F814C7
:104300000F900F90CF91DF9108958FEF0E9495113C
:104310000E94DB190E944E0708956BE070E289E16C
:1043200090E00E94620D0E94DB200E9485210E9485
:1043300042070895882339F06EE371E28AE090E045
:104340000E94620D089584E690E00E94F7000E94AA
:1043500085210895882379F46BE070E28AE090E08B
:104360000E94620D40E050E060E083EC0E94D41EA9
:104370000E94A803089584E690E00E94F7000E943E
:10438000852108954DE052E064E080E090E00E94D5
:10439000FA1562EC71E288EE93E00E94620D0895D6
:1043A0001F930E947C1F0E9449198823C1F58091A8
:1043B00025099091260910E020912B0930912C09B4
:1043C0002817390739F411E040E050E060E0C901F6
:1043D0000E94FA15809188078F5F80938807883044
:1043E000F0F0112371F010921E0988E00E946F1BFB
:1043F0009AE0899FC001112465E871E2C2960E948B
:10440000620D80912B0990912C090E94F51188234F
:1044100031F080912B0990912C090E9429121F9153
:10442000089520912B0930912C09809125099091B4
:1044300026092817390711F4109288070E947B1F5C
:104440000895A3E1B0E0E7E2F2E20C9444303C01CD
:10445000798B688B5A01FC0117821682838181FD5A
:1044600003C06FEF7FEF84C37AE0472E9E012F5F7A
:104470003F4F3B8B2A8BF3012381E889F98923FD88
:10448000859123FF8191F98BE88B882309F46DC313
:10449000853251F4E889F98923FD859123FF8191C3
:1044A000F98BE88B853229F4B30190E00E945B2CF4
:1044B000E2CF982FDD2455249924FFE1FD15D0F09B
:1044C0009B3269F09C3228F4903259F0933291F487
:1044D0000EC09D3249F0903369F431E029C042E0CA
:1044E000D42A54E0D52A28C088E0D82A25C090E1F3
:1044F000D92A22C0D7FC2BC0892F80538A3070F470
:10450000D6FE05C0949C902C1124980E15C0549C86
:10451000502C1124580EE0E2DE2A0EC09E3229F4FF
:10452000D6FC23C3F0E4DF2A07C09C3619F430E838
:10453000D32A02C0983659F4E889F98923FD959168
:1045400023FF9191F98BE88B992309F0B6CF892F3E
:104550008554833020F48D2D8061905E07C0892FB3
:104560008556833008F0A9C18D2D8F7E86FD02C04F
:1045700066E0962E5FE3F52EF822953619F4F0E406
:10458000FF2A07C0963619F420E8F22A02C09110DB
:104590009A94F7FE0BC03BE3391520F427E04CE377
:1045A000842E0EC0892C839427E00AC047E0491569
:1045B00028F427E0882437E0932E02C0292D882490
:1045C000C50104969D878C87F50160817181828188
:1045D0009381082DAE014F5F5F4F0E94252B6C0128
:1045E0000981202F30E03F872E8700FF05C03E85E0
:1045F00033FD02C01DE209C0F1FE02C01BE205C08E
:10460000F2FC02C010E001C010E28E859F858C7024
:104610009070892BC1F1112311F483E001C084E073
:10462000851510F055240AC0581AF3FC07C0B301D1
:1046300080E290E00E945B2C5A94C9F7112329F084
:10464000B301812F90E00E945B2C4E8543FF03C095
:104650000CE810E00EC000E910E00BC0E114F1041A
:1046600009F08052B30190E00E945B2C0F5F1F4F56
:1046700005C0EF2CFF2450E1E522FF24F8018491CE
:10468000882361F717C1F7FE13C08C0CFE85F4FF79
:1046900004C08A81813309F48A9418141CF0882498
:1046A00083942DC028E0281550F598E0892E27C066
:1046B000F6FC25C0892D90E08C159D054CF03CEF53
:1046C000C3163FEFD30624F040E8F42A01C09A94C1
:1046D000992049F0E2E0F0E0EC0FFD1FE90DF11D3B
:1046E00080818033A1F3F7FE0AC0892C8394892D41
:1046F00090E0C816D90614F0992401C09C18F7FC64
:1047000003C025E030E009C01C141D041CF021E0AA
:1047100030E003C096012F5F3F4F112311F02F5F50
:104720003F4F992029F0892D90E00196280F391FDD
:10473000852D90E02817390714F0552401C0521A2E
:10474000AF2CBB24C50189709070892B39F008C04B
:10475000B30180E290E00E945B2C5A945520C1F78F
:10476000112329F0B301812F90E00E945B2CA3FE5E
:1047700007C008C0B30180E390E00E945B2C5A940C
:104780005520C1F7F7FE48C08601D7FE02C000E001
:1047900010E076010894E11CF11CE01AF10A81E0B6
:1047A00090E08C0F9D1FE80EF91E160128183108A5
:1047B000892D90E0AA24BB24A81AB90A9FEF0F3FC5
:1047C000190729F4B3018EE290E00E945B2CC01619
:1047D000D10634F0201631061CF4F701808101C0A7
:1047E00080E3015010400894E11CF11C0A151B05E0
:1047F0002CF0B30190E00E945B2CE0CF0C151D055E
:1048000041F49A81963320F4953319F4FE85F4FF30
:1048100081E3B30190E04CC08A81813309F00F7EBF
:10482000B30190E00E945B2C9920A1F0B3018EE2CD
:1048300090E00E945B2C12E0E1E0F0E0EC0FFD1F45
:10484000E10FF11D1F5FB301808190E00E945B2C9E
:104850009A9491F7A4FC03C085E690E002C085E439
:1048600090E0B3010E945B2CD7FC05C0C114D104B9
:1048700041F404FF06C0D094C194D108D3948DE2D2
:1048800001C08BE2B30190E00E945B2C80E305C085
:104890008F5F26EF3FEFC20ED31E3AE0C316D1045E
:1048A000BCF7B30190E00E945B2CB301C601C09637
:1048B0000E945B2CAC84BD8455C1933631F0933794
:1048C00091F0933509F059C023C0F50180818983A7
:1048D0007E010894E11CF11C22E030E0A20EB31E20
:1048E00001E010E012C0F501E080F180D6FC03C0C9
:1048F0006FEF7FEF02C0692D70E022E030E0A20E82
:10490000B31EC7010E94182C8C013FE7D32214C0AC
:10491000F501E080F180D6FC03C06FEF7FEF02C0AD
:10492000692D70E022E030E0A20EB31EC7010E94A4
:10493000FD2B8C0130E8D32AD3FE07C01AC0B30187
:1049400080E290E00E945B2C5A94852D90E008173D
:104950001907A8F30EC0F701D7FC8591D7FE819106
:104960007F01B30190E00E945B2C51105A940150DA
:1049700010400115110579F7F5C0943611F09936FC
:1049800089F5D7FE08C0F501E080F180028113812E
:1049900024E030E00AC0F501808191817C0100278C
:1049A000F7FC0095102F22E030E0A20EB31E3FE688
:1049B000D32217FF0AC010950095F094E094E11CF3
:1049C000F11C011D111D40E8D42A2AE030E0AE019F
:1049D0004F5F5F4FC801B7010E94C32CF82E5A8960
:1049E000F51A43C0953729F41D2D1F7E2AE030E0CB
:1049F0001DC01D2D197F9F3661F0903720F498352A
:104A000009F0B3C00FC0903739F0983709F0ADC046
:104A100004C028E030E00AC0106114FD146020E1F9
:104A200030E004C014FD166020E132E017FF08C03A
:104A3000F501608171818281938144E050E008C07A
:104A4000F50180819181BC0180E090E042E050E07E
:104A5000A40EB51EAE014F5F5F4F0E94C32CF82E0F
:104A60005A89F51A8FE7D82ED122D6FE0BC08EEFC9
:104A7000D822F91438F4D4FE07C0D2FC05C09FEE4A
:104A8000D92202C01F2D01C0192DD4FE0DC0FE0178
:104A9000EF0DF11D8081803319F4E9EEDE2208C0AC
:104AA0001F5FD2FE05C003C08D2D867809F01F5F01
:104AB0000D2DD3FC14C0D0FE0FC0151510F09F2C87
:104AC0000BC09F2C950C911A152D06C0B30180E2E6
:104AD00090E00E945B2C1F5F1515C0F304C01515F4
:104AE00010F4511A01C0552404FF10C0B30180E333
:104AF00090E00E945B2C02FF1EC001FD03C088E70E
:104B000090E002C088E590E0B3010CC0802F867869
:104B100091F001FF02C08BE201C080E2D7FC8DE280
:104B2000B30190E00E945B2C06C0B30180E390E0EB
:104B30000E945B2C9A94F914C0F3FA94E1E0F0E03F
:104B4000EC0FFD1FEF0DF11DB301808190E00E947D
:104B50005B2CFF2091F706C0B30180E290E00E9439
:104B60005B2C5A945520C1F786CCF301668177817E
:104B7000CB016396E2E10C946030A0E0B0E0E3EC9E
:104B8000F5E20C944430DC012B01FA019C91923047
:104B900008F439C1EB018881823008F433C19430C4
:104BA00069F4843009F02FC111969C911197898185
:104BB000981709F428C1A2E1B2E025C1843009F4B4
:104BC00021C18230A9F4923009F01DC19A01AD01D2
:104BD00088E0EA010990AE01E90109929E01815045
:104BE000C1F7E201898111969C918923818308C1D3
:104BF000923009F407C112962D903C901397EB0167
:104C00008A819B811496AD90BD90CD90DC901797D2
:104C1000EC80FD800E811F819101281B390BB901A9
:104C200037FF04C066277727621B730B603271055C
:104C30000CF061C0121613066CF537014801062E00
:104C400004C096948794779467940A94D2F721E0ED
:104C500030E040E050E004C0220F331F441F551FD6
:104C60006A95D2F721503040404050402E213F21DC
:104C700040235123211531054105510521F021E043
:104C800030E040E050E079018A01E628F728082961
:104C900019293CC0232BD1F1260E371E35014601C0
:104CA000062E04C096948794779467940A94D2F75A
:104CB00021E030E040E050E004C0220F331F441FE9
:104CC000551F6A95D2F721503040404050402A216C
:104CD0003B214C215D21211531054105510521F074
:104CE00021E030E040E050E059016A01A628B728F1
:104CF000C828D9280BC0821593052CF01C01AA24C2
:104D0000BB24650103C0EE24FF24870111969C910A
:104D1000D20111968C91981709F445C0992339F066
:104D2000A80197012A193B094C095D0906C0A60193
:104D300095012E193F09400B510B57FD08C01182F8
:104D40003382228224833583468357831DC081E0CA
:104D500081833382228288279927DC01821B930B6F
:104D6000A40BB50B84839583A683B7830DC0220F54
:104D7000331F441F551F2483358346835783828105
:104D80009381019793838283248135814681578162
:104D9000DA01C9010197A109B1098F5F9F4FAF4F98
:104DA000BF4328F30BC0918333822282EA0CFB1CA1
:104DB0000C1D1D1DE482F5820683178383E080832A
:104DC000248135814681578157FF1AC0C901AA271E
:104DD00097FDA095BA2F81709070A070B070569515
:104DE000479537952795822B932BA42BB52B84833E
:104DF0009583A683B783828193810196938382836F
:104E0000DF0101C0D201CD01CDB7DEB7E2E10C94E4
:104E10006030A0E2B0E0EFE0F7E20C94503069833C
:104E20007A838B839C832D833E834F835887E9E06D
:104E3000EE2EF12CEC0EFD1EB701CE0101960E9464
:104E4000F3298E010F5E1F4FB801CE0105960E9417
:104E5000F3298A8991E089278A8BAE01475E5F4FEB
:104E6000B801C7010E94BD250E941E29A096E6E058
:104E70000C946C30A0E2B0E0E0E4F7E20C94503027
:104E800069837A838B839C832D833E834F835887EA
:104E9000F9E0EF2EF12CEC0EFD1EB701CE010196CC
:104EA0000E94F3298E010F5E1F4FB801CE010596B7
:104EB0000E94F329AE01475E5F4FB801C7010E940F
:104EC000BD250E941E29A096E6E00C946C30A8E156
:104ED000B0E0EDE6F7E20C944C3069837A838B8383
:104EE0009C832D833E834F835887B9E0EB2EF12CB2
:104EF000EC0EFD1EB701CE0101960E94F3298E0132
:104F00000F5E1F4FB801CE0105960E94F329298537
:104F1000223008F47CC03989323010F4B8017AC0EC
:104F20008A859A8989278A87243011F0223031F4C2
:104F3000231709F06CC062E172E06CC0343039F4C0
:104F40001D861E861F86188A1C861B8604C032306A
:104F500021F484E08987B7015DC02B853C858B896E
:104F60009C89281B390B3C872B87ED84FE840F8599
:104F70001889AD88BE88CF88D88CEA14FB040C054C
:104F80001D0540F4EE0CFF1C001F111F2150304086
:104F90003C872B8720E030E040E050E080E090E06C
:104FA000A0E0B0E46FE170E0EA14FB040C051D051D
:104FB00040F0282B392B4A2B5B2BEA18FB080C09F5
:104FC0001D09B695A79597958795EE0CFF1C001FB8
:104FD000111F6150704041F7DA01C9018F7790705D
:104FE000A070B07080349105A105B10561F427FD72
:104FF0000AC0E114F1040105110529F0205C3F4FBE
:105000004F4F5F4F20782D873E874F87588BBE01CB
:10501000675F7F4FCB010E941E296896EAE00C94DF
:105020006830A8E1B0E0E7E1F8E20C945030698321
:105030007A838B839C832D833E834F83588789E0BB
:10504000E82EF12CEC0EFD1EB701CE0101960E9458
:10505000F3298E010F5E1F4FB801CE0105960E9405
:10506000F3298985823040F08989823028F0B8019F
:10507000C7010E946B2A01C08FEF6896E6E00C948E
:105080006C30A8E1B0E0E7E4F8E20C9450306983BA
:105090007A838B839C832D833E834F83588789E05B
:1050A000E82EF12CEC0EFD1EB701CE0101960E94F8
:1050B000F3298E010F5E1F4FB801CE0105960E94A5
:1050C000F3298985823040F08989823028F0B8013F
:1050D000C7010E946B2A01C081E06896E6E00C944B
:1050E0006C30A8E0B0E0E7E7F8E20C944D309B01AB
:1050F000AC0183E08983DA01C9018827B7FD839574
:105100009927AA27BB27B82E21153105410551053E
:1051100019F482E089833AC08823A9F0203080E026
:10512000380780E0480780E8580729F460E070E01D
:1051300080E09FEC30C0EE24FF248701E21AF30ADE
:10514000040B150B02C079018A018EE1C82ED12C07
:10515000DC82CB82ED82FE820F831887C801B70103
:105160000E94CF2801971816190684F4082E04C04F
:10517000EE0CFF1C001F111F0A94D2F7ED82FE8275
:105180000F831887C81AD90ADC82CB82BA82CE0173
:1051900001960E941E292896E9E00C946930EF924E
:1051A000FF920F931F937B018C0180E0E81680E053
:1051B000F80681E0080780E0180788F48FEFE8160A
:1051C000F1040105110531F028F088E090E0A0E03D
:1051D000B0E017C080E090E0A0E0B0E012C080E056
:1051E000E81680E0F80680E0080781E0180728F05C
:1051F00088E190E0A0E0B0E004C080E190E0A0E0B1
:10520000B0E020E230E040E050E0281B390B4A0BD0
:105210005B0B04C016950795F794E7948A95D2F72F
:10522000F701E65EFD4F8081281B310941095109D4
:10523000C9011F910F91FF90EF900895DF92EF92B7
:10524000FF920F931F93FC01E480F5800681178184
:10525000D1808081823048F480E090E0A0E1B0E02D
:10526000E82AF92A0A2B1B2BA5C0843009F49FC019
:10527000823021F4EE24FF24870105C0E114F104FB
:105280000105110519F4E0E0F0E096C06281738138
:105290009FEF623879070CF05BC022E83FEF261BD6
:1052A000370B2A3131052CF020E030E040E050E0AF
:1052B0002AC0B801A701022E04C0769567955795BC
:1052C00047950A94D2F781E090E0A0E0B0E004C0F6
:1052D000880F991FAA1FBB1F2A95D2F70197A10912
:1052E000B1098E219F21A023B1230097A105B1050B
:1052F00021F081E090E0A0E0B0E09A01AB01282B22
:10530000392B4A2B5B2BDA01C9018F779070A07083
:10531000B07080349105A105B10539F427FF09C0AB
:10532000205C3F4F4F4F5F4F04C0215C3F4F4F4FBA
:105330005F4FE0E0F0E02030A0E03A07A0E04A074D
:10534000A0E45A0710F0E1E0F0E079018A0127C0FB
:105350006038710564F5FB01E158FF4FD801C701C2
:105360008F779070A070B07080349105A105B10561
:1053700039F4E7FE0DC080E490E0A0E0B0E004C0A6
:105380008FE390E0A0E0B0E0E80EF91E0A1F1B1FBB
:1053900017FF05C016950795F794E794319687E0B7
:1053A00016950795F794E7948A95D1F705C0EE24F2
:1053B000FF248701EFEFF0E06E2F67956627679572
:1053C000902F9F77D794DD24D7948E2F8695492FE1
:1053D000462B582F5D29B701CA011F910F91FF90ED
:1053E000EF90DF900895FC01DB0140815181228123
:1053F000622F6F7770E0221F2227221F9381892F4F
:10540000880F822B282F30E0991F9927991F11961A
:105410009C93119721153105A9F541155105610599
:10542000710511F482E037C082E89FEF13969C93D8
:105430008E9312979A01AB0167E0220F331F441F2E
:10544000551F6A95D1F783E08C930DC0220F331F4F
:10545000441F551F12968D919C9113970197139697
:105460009C938E931297203080E0380780E04807A5
:1054700080E4580758F314962D933D934D935C9315
:10548000179708952F3F310579F4411551056105AE
:10549000710519F484E08C93089564FF03C081E0E2
:1054A0008C9312C01C9210C02F57304013963C931F
:1054B0002E93129783E08C9387E0440F551F661F4D
:1054C000771F8A95D1F7706414964D935D936D9311
:1054D0007C93179708951F93DC01FB019C919230F8
:1054E00008F447C08081823008F443C0943051F4FE
:1054F00011961C91843099F58181682F70E0611BB1
:1055000071093FC0843021F0923031F48230B9F11A
:105510008181882389F12DC011961C9111978230C9
:10552000F1F081811817D9F412962D913C911397BF
:10553000828193818217930794F028173907BCF072
:1055400014968D919D910D90BC91A02D2481358153
:1055500046815781281739074A075B0718F411233A
:1055600041F00AC082179307A407B50740F411233E
:1055700019F061E070E005C06FEF7FEF02C060E0FE
:1055800070E0CB011F910895A0E0B0E0EAECFAE2F0
:105590000C944C30EC01A880B980CA80DB80A11447
:1055A000B104C104D10441F484E2A82E89EDB82EDF
:1055B0008BE5C82E87E0D82EC601B5012DE133EF6B
:1055C00041E050E00E94A53027EA31E440E050E09D
:1055D0000E9486307B018C01C601B5012DE133EFBD
:1055E00041E050E00E94A530CA01B9012CEE34EF31
:1055F0004FEF5FEF0E9486306E0D7F1D801F911F61
:1056000097FF04C061507040804090486883798360
:105610008A839B839B013F77C901CDB7DEB7EAE060
:105620000C9468300E94C42A08958AE193E00E9495
:10563000C42A0895A0E0B0E080931A0390931B035E
:10564000A0931C03B0931D030895283008F027E0B1
:105650003327DA01990F311D87FD916000966105AE
:10566000710539F432602E5F3D9330E32A95E1F7FE
:1056700008959F3F30F080387105610509F03C5F67
:105680003C5F3D93913008F08068911DDF93CF938C
:105690001F930F93FF92EF92192F987F9695E92F02
:1056A00096959695E90FFF27E251FF4F99273327EB
:1056B000EE24FF24A701E70105900894079428F43D
:1056C000360FE71EF81E491F511D660F771F881FF2
:1056D000991F0694A1F70590079428F4E70EF81E89
:1056E000491F561FC11D770F881F991F661F0694FB
:1056F000A1F70590079428F4F80E491F561FC71FFD
:10570000D11D880F991F661F771F0694A1F705907A
:10571000079420F4490F561FC71FD81F990F661F03
:10572000771F881F0694A9F784911095177041F090
:10573000D695C79557954795F794E7941A95C1F76D
:10574000E4E9F0E068941590159135916591959193
:1057500005907FE27395E118F10A430B560BC90BD4
:10576000D009C0F7E10CF11E431F561FC91FD01D01
:105770007EF4703311F48A95E6CFE894015030F04E
:10578000080F0AF40027021708F4202F2395022F90
:105790007A3328F079E37D932A95E9F710C07D9359
:1057A0002A9589F6069497956795379517951794D6
:1057B000E118F10A430B560BC90BD00998F0239559
:1057C0007E9173957A3308F070E37C932013B8F7D9
:1057D0007E9170617D9330F0839571E37D9370E3EA
:1057E0002A95E1F71124EF90FF900F911F91CF912F
:1057F000DF91992787FD90950895FC0105906150F0
:1058000070400110D8F7809590958E0F9F1F0895D6
:10581000FB01DC0102C001900D9241505040D8F7CD
:105820000895FB01DC0101900D920020E1F708953D
:10583000FC016150704001900110D8F7809590955F
:105840008E0F9F1F0895A0E0B0E0E9E2FCE20C9407
:105850004E307C01EB018A01690109C0CE0121961D
:10586000F6010995F70181937F0101501040011560
:105870001105A1F7CDB7DEB7E8E00C946A30A0E0DF
:10588000B0E0E5E4FCE20C944E30EC017B018A01CF
:10589000690109C0F70161917F01CE012196F601EE
:1058A00009950150104001151105A1F7CDB7DEB7DC
:1058B000E8E00C946A300F931F93CF93DF938C0131
:1058C000EB018B8181FF1BC082FF0DC02E813F81C8
:1058D0008C819D812817390764F4E881F98101934F
:1058E000F983E88306C0E885F985802F0995892B1F
:1058F00031F48E819F8101969F838E8302C00FEFCA
:105900001FEFC801DF91CF911F910F910895AEE075
:10591000B0E0EDE8FCE20C9452300D891E8986E07F
:105920008C831A8309838FEF9FE79E838D83CE013B
:105930004996AC016F89788DCE0101960E94212293
:105940002F813885020F131FF80110822E96E4E094
:105950000C946E30AEE0B0E0E0EBFCE20C9454301E
:1059600085E08C838B899C899A838983CE014796B5
:10597000AC016D897E89CE0101960E94A52E2E96DE
:10598000E2E00C947030FA01AA27283051F120315E
:1059900081F1E8946F936E7F6E5F7F4F8F4F9F4FC3
:1059A000AF4FB1E03ED0B4E03CD0670F781F891F05
:1059B0009A1FA11D680F791F8A1F911DA11D6A0FD3
:1059C000711D811D911DA11D20D009F468943F9186
:1059D0002AE0269F11243019305D3193DEF6CF0185
:1059E0000895462F4770405D4193B3E00FD0C9F74B
:1059F000F6CF462F4F70405D4A3318F0495D31FDB8
:105A00004052419302D0A9F7EACFB4E0A69597950A
:105A1000879577956795BA95C9F7009761057105E0
:105A200008959B01AC010A2E06945795479537952A
:105A30002795BA95C9F7620F731F841F951FA01D84
:105A40000895FC0120FD08C023FD05C022FF02C00F
:105A500073836283518340830895EF92FF920F9383
:105A60001F9344FF02C033E011C046FF02C034E080
:105A70000DC0DB01FC01AA0FBB1FEE1FFF1F10941E
:105A8000D1F76A0F7B1F8E1F9F1F31E0660F771FB4
:105A9000881F991F3150D1F77B018C01E20EF11C58
:105AA000011D111DA8019701B701CA011F910F9196
:105AB000FF90EF9008950F931F93CF93DF938C0186
:105AC000C8010E94C12FEC0197FD08C00E947B30E5
:105AD000892BB1F7B801CE010E940330CE01DF91CE
