:100000000C94E5000C940D010C940D010C940D0161
:100010000C940D010C940D010C940D010C940D0128
:100020000C940D010C940D010C940D010C940D0118
:100030000C9400050C940D010C940D010C940D0111
:100040000C940D010C940D010C940D010C940D01F8
:100050000C9449150C948C150C940D010C940D0105
:100060000C940D010C940D010C940D010C940D01D8
:100070000C940D010C940D010C940D010C940D01C8
:100080000C9458020C940D010C940D016E616E00DD
:10009000696E660000407A10F35A00A0724E18098B
:1000A0000010A5D4E80000E87648170000E40B54DF
:1000B000020000CA9A3B000000E1F50500008096AE
:1000C0009800000040420F000000A08601000000E0
:1000D000102700000000E80300000000640000009A
:1000E00000000A00000000000100000000002C7663
:1000F000D888DC674F0823DFC1DFAE59E1B1B7967E
:10010000E5E3E453C63AE651997696E8E6C28426DA
:10011000EB898C9B62ED407C6FFCEFBC9C9F40F2B6
:10012000BAA56FA5F490055A2AF75C936B6CF96732
:100130006DC11BFCE0E40D47FEF520E6B500D0EDF7
:10014000902E0300943577050080841E080000205F
:100150004E0A000000C80C333333330F986E1283FD
:100160001141EF8D2114893BE65516CFFEE6DB18D1
:10017000D1844B381BF77C1D901DA4BBE424203296
:1001800084725E228100C9F124ECA1E53D27494E2D
:1001900046494E4954594E414ECDCCCC3D0AD72309
:1001A0003C17B7D13877CC2B329595E6241FB14F49
:1001B0000A000020410000C84200401C4620BCBE8E
:1001C0004CCA1B0E5AAEC59D740011241FBECFEF42
:1001D000D0E4DEBFCDBF14BE88E10FB6F8948093A3
:1001E0006000109260000FBE12E0A0E0B1E0E4ED0C
:1001F000FAE400E00BBF02C007900D92AA36B107E7
:10020000D9F717E0AAE6B2E001C01D92A336B10704
:10021000E1F70E94ED0D0C9468250C940000089500
:1002200008950895DF93CF930F92CDB7DEB78FB7C0
:100230008983F8942091AD023091AE0289818FBFFD
:10024000C9010F90CF91DF910895DF93CF930F9263
:10025000CDB7DEB7AC01009719F4FB01099530C0AA
:100260008FB78983F894ACE6B2E0E0E08D919C9181
:100270001197892B09F52E2F30E0F901EE0FFF1FA2
:10028000EE0FFF1FE20FF31FE459FD4FCA014115A6
:10029000510511F481E090E091838083F901EE0F24
:1002A000FF1FEE0FFF1FE20FF31FE459FD4F748392
:1002B000638390916A0234C0EF5F1596EA30B1F61D
:1002C00090E03DC091E0EEE6F2E041E080818917E8
:1002D00009F440E0359682E0E03AF807B9F78091FA
:1002E000A002891709F440E08091A502891709F45A
:1002F00040E08091AA02891799F0442389F09093F5
:100300006A02F901EE0FFF1FEE0FFF1FE20FF31F4E
:10031000E459FD4F928380916B02882321F00DC038
:100320009F5F89F6CFCF109295001092940082E0E3
:100330008093710081E080936B0289818FBF892F48
:100340000F90CF91DF910895DF93CF930F92CDB7A8
:10035000DEB7AC01009719F4FB01099516C0809136
:100360009E0290919F02892B11F4E0E011C08091D0
:10037000A3029091A402892B11F4E1E009C08091BD
:10038000A8029091A902892B11F090E050C0E2E000
:100390002E2F30E0F901EE0FFF1FEE0FFF1FE20FCF
:1003A000F31FE256FD4F5183408374836383909122
:1003B0006A029F5F09F491E0EEE6F2E041E080819D
:1003C000891709F440E0359682E0E03AF807B9F77A
:1003D0008091A002891709F440E08091A502891755
:1003E00009F440E08091AA02891719F3442309F324
:1003F00090936A02F901EE0FFF1FEE0FFF1FE20F4D
:10040000F31FE256FD4F92838FB78983F894809152
:100410006B02882351F4109295001092940082E0B0
:100420008093710081E080936B0289818FBF892F57
:100430000F90CF91DF910895982FEEE6F2E020E043
:1004400030E08081891769F4F901EE0FFF1FEE0F8C
:10045000FF1FE20FF31FE459FD4F11821082128239
:1004600008952F5F3F4F35962A30310551F780911F
:10047000A002891719F480E090E00DC08091A502D8
:10048000891719F481E090E006C08091AA028917CB
:1004900071F482E090E0FC01EE0FFF1FEE0FFF1FF2
:1004A000E80FF91FE256FD4F118210821282089563
:1004B0001F920F920FB60F920BB60F921124DF927C
:1004C000EF92FF920F931F932F933F934F935F935E
:1004D0006F937F938F939F93AF93BF93EF93FF930C
:1004E000DF93CF9300D00F92CDB7DEB78091AD02EE
:1004F0009091AE0201969093AE028093AD028091EE
:1005000000019091010101979093010180930001F6
:10051000892B49F00CE612E066E1D62E7E010894A4
:10052000E11CF11C27C088EE93E0909301018093B9
:1005300000010EE912E056E1D52E7E010894E11C7F
:10054000F11CF80180819181009769F001979183F6
:100550008083892B41F4D982838194819B838A8310
:10056000C7010E94C9090B5F1F4FF2E00D3A1F0738
:1005700041F7D0CFF80180819181009769F0019710
:1005800091838083892B41F4D982838194819B83D9
:100590008A83C7010E94C9090B5F1F4FF2E00E3921
:1005A0001F0741F70F900F900F90CF91DF91FF91B0
:1005B000EF91BF91AF919F918F917F916F915F91DB
:1005C0004F913F912F911F910F91FF90EF90DF90EE
:1005D0000F900BBE0F900FBE0F901F901895E1E982
:1005E000F0E080818A60808388EE93E090939900A8
:1005F0008093980080919400909195000E940A2128
:1006000008959C01F999FECF32BD21BDF89A80B5BD
:1006100008959C01F999FECF1FBA32BD21BD60BD7E
:100620000FB6F894FA9AF99A0FBE089584B1806AC9
:1006300084B92F9A249A2C9A80E58CBD81E08DBDD7
:100640000895239A219A84B1806A84B92F9A249AB2
:100650002C9A80E58CBD81E08DBDEFE6F0E08081D5
:100660008062808383E480938100B59A0895DF934C
:10067000CF930F92CDB7DEB780689FB79983F89478
:100680002C988EBD0DB407FEFDCF8EB58EBD0DB47A
:1006900007FEFDCF8EB52C9A99819FBF0F90CF9109
:1006A000DF910895DF93CF930F92CDB7DEB7982FE8
:1006B000906C8FB78983F8942C989EBD0DB407FE7B
:1006C000FDCF8EB56EBD0DB407FEFDCF8EB52C9A55
:1006D00089818FBF9F73923059F46F71663011F02A
:1006E000663121F481E080934F0702C010924F07DA
:1006F0000F90CF91DF910895FF920F931F93062FD4
:10070000F42E0E943703082310E002C015950795C8
:10071000FA94E2F7802F1F910F91FF900895DF92D6
:10072000EF92FF920F931F93D82EF62EE42E022FF6
:100730000E9437036F2D6095682310E002C0000F00
:10074000111FEA94E2F7F0226F298D2D0E945203C7
:100750001F910F91FF90EF90DF900895DF93CF935B
:100760000F92CDB7DEB78FB78983F8942C9880E2CB
:100770008EBD0DB407FEFDCF8EB58EBD0DB407FE48
:10078000FDCF9EB5892F83508D37A8F49093FC053B
:100790009EBD0DB407FEFDCFEDEFF5E08EB51EBC9E
:1007A00081930DB407FEFDCF9150C1F78EB58093B4
:1007B0007C062C9A07C02C9A1092FC0510927C069D
:1007C00010927D0689818FBF0F90CF91DF910895A0
:1007D000DF93CF930F92CDB7DEB7FC016F778FB762
:1007E0008983F8942B9A2B982C9880E68EBD0DB4B3
:1007F00007FEFDCF8EB56EBD0DB407FEFDCF8EB5E5
:1008000081918EBD61500DB407FEFDCF8EB566237C
:10081000B9F72C9A89818FBF0F90CF91DF910895FE
:10082000DF93CF930F92CDB7DEB7982FFA018FB732
:100830008983F8942C981EBC0DB407FEFDCF8EB5AD
:100840009EBD0DB407FEFDCF8EB51EBC0DB407FED8
:10085000FDCF8EB58083615011F03196F6CF2C9A82
:1008600089818FBF0F90CF91DF910895DF93CF9350
:100870000F92CDB7DEB7982FFA018FB78983F8941E
:100880002C9880E48EBD0DB407FEFDCF8EB59EBDC5
:100890000DB407FEFDCF8EB581918EBD0DB407FE60
:1008A000FDCF8EB56150C1F72C9A89818FBF0F9013
:1008B000CF91DF9108950895DF93CF930F92CDB735
:1008C000DEB7E62FBA012FB72983F89429E033E089
:1008D0004E2F50E00E943B2289818FBF0F90CF9115
:1008E000DF910895DF93CF930F92CDB7DEB7FC0170
:1008F000CA012FB72983F89421E033E0462F50E056
:10090000BF010E941F2289818FBF0F90CF91DF917D
:100910000895DF92EF92FF920F931F93DF93CF938F
:1009200000D0CDB7DEB78091AF02882311F011E07F
:100930005CC081E08093AF02D0906600F89461E0E3
:100940000E94A80EE090B100F0908100009180001C
:100950001092B100109281001092800020E030E0EF
:1009600063E056E04FEF6093B10050938100109226
:10097000B200109285001092840046BB47BBB89B22
:10098000FECF80918400909185009A838983109294
:1009900081001092B10089819A818A5F934020F48E
:1009A0008091660081500AC089819A818650944066
:1009B00010F411E00CC0809166008F5F8093660098
:1009C0002F5F3F4F83E0283E380769F610E060E074
:1009D00081E00E94A80EE092B100F09281000093A5
:1009E0008000112311F4D0926600812F0F900F9098
:1009F000CF91DF911F910F91FF90EF90DF900895BD
:100A00001F920F920FB60F920BB60F9211240F93F5
:100A10001F932F933F934F935F936F937F938F9386
:100A20009F93AF93BF93EF93FF938FE00E943703A1
:100A3000082F182F83FF02C00E94081014FF02C065
:100A40000E94070D12FF10C02C9880E28EBD0DB4DD
:100A500007FEFDCF8EB51EBC0DB407FEFDCF8EB5D3
:100A60002C9A0E94490E0AC007FF08C08EE00E941F
:100A700037038F77682F8EE00E945203FF91EF912A
:100A8000BF91AF919F918F917F916F915F914F91A6
:100A90003F912F911F910F910F900BBE0F900FBEA2
:100AA0000F901F901895809314070E94E70E0895E9
:100AB0001F93182F8FEF9FEF90930C0780930B07D6
:100AC00090930E0780930D071092080790931007DC
:100AD00080930F07909312078093110710921307CA
:100AE0001092170781E0809318070E94B3101093AB
:100AF00014071F3F19F0812F0E94E70E81E00E942A
:100B00005D0F88E00E94750F0E940D0E21E042E00B
:100B100064E087E10E948F0386E10E94750F40E048
:100B200057E068E080E090E00E94720480E00E945C
:100B30007B0E8FEF9FEF0E94630E8FEF9FEF0E945F
:100B40006F0E22E044E060EF8CE20E948F0380E0B1
:100B500097E00E94530E0E941D061F91089508956C
:100B600080E090E0089580E008958FEF9FEF089572
:100B70009C01009771F0E3EBF2E080819181821794
:100B8000930711F481E00895339683E0E934F80780
:100B9000A1F780E00895AC010097E1F0A3EBB2E08B
:100BA00020E030E08D919C9111978417950761F4B6
:100BB000F901EE0FFF1FE20FF31FEB54FD4F808191
:100BC00081FF02C081E008952F5F3F4F13962233CB
:100BD000310541F780E00895AC01E3EBF2E020E05D
:100BE00030E0808191818417950751F4F901EE0F6F
:100BF000FF1FE20FF31FED54FD4F11821082089585
:100C00002F5F3F4F33962233310559F7089580E027
:100C100090E0089580E090E0089580E090E00895ED
:100C200080E090E0089508950895089580E090E0B0
:100C30000895089580E090E008950895AC01E3EBF5
:100C4000F2E020E030E0808191818417950759F42B
:100C5000F901EE0FFF1FE20FF31FEB54FD4F8081F0
:100C60008160808308952F5F3F4F33962233310593
:100C700051F70895AC01009739F1A3EBB2E0FD0103
:100C8000808191818417950731F0339683E0E934B0
:100C9000F807B1F7089520E030E08D919C9111970D
:100CA0008417950759F4F901EE0FFF1FE20FF31FA8
:100CB000EB54FD4F80818E7F808308952F5F3F4FDF
:100CC00013962233310549F708951092B20210921B
:100CD000B102E3EBF2E020E030E00EC080819181D0
:100CE000A9014F5F5F4F3396892B29F03093B202F1
:100CF0002093B1020AC09A012233310578F3309370
:100D0000B2022093B10220E030E0C90108952091A1
:100D1000B1023091B202F901EE0FFF1FE20FF31F93
:100D2000ED54FD4F0EC080819181A9014F5F5F4F4F
:100D30003396892B29F03093B2022093B1020AC076
:100D40009A012233310578F33093B2022093B10235
:100D500020E030E0C901089521E0880F991FFC01CF
:100D600073E0EE0FFF1F7A95E1F7E81BF90BEF54E4
:100D7000FD4F8081882331F081859285009719F09D
:100D80002F5FEBCF20E0822F0895CF92DF92EF927A
:100D9000FF920F931F93CF93DF936C01DC011B969F
:100DA0000D911C911C970115110509F454C083EB9A
:100DB000E82E82E0F82EF70180819181801791075B
:100DC00031F03396B3E0E934FB07B1F744C0C0E03B
:100DD000D0E0F701808191818017910769F5FE01CC
:100DE000EE0FFF1FEC0FFD1FEB54FD4F90E0D601FF
:100DF0001D968C9187FD91E0990F80818D7F892BC5
:100E00008083FE01EE0FFF1FEC0FFD1FEB54FD4F23
:100E1000908190FF0EC0D6011D968C91863019F4FA
:100E20009E7F908311C060E070E0C8010E94A90914
:100E30000BC0C8010E94F0072196E3E0F0E0EE0E3F
:100E4000FF1EC233D10529F6D6011D968C911D9740
:100E50008F771D968C93DF91CF911F910F91FF900B
:100E6000EF90DF90CF900895AC01A3EBB2E0FD01CD
:100E700020E030E0808191818417950759F4F901D1
:100E8000EE0FFF1FE20FF31FEB54FD4F80818C7FAD
:100E9000808308952F5F3F4F33962233310551F7FA
:100EA00020E030E08D919C911197892BA1F4F901FC
:100EB000EE0FFF1FE20FF31FDF01AD54BD4F4D9347
:100EC0005C93EB54FD4F80818C7F8083822F90E078
:100ED0000E94F01508952F5F3F4F1396223331057E
:100EE00009F708958091B0020E941C0280910807C2
:100EF00091E089270E94C9160895CF93DF93EC01F2
:100F0000862F0E94530583E698EC90938006809389
:100F10007F0680910A07809381068F5F80930A077E
:100F200080910B0790910C07909383068093820623
:100F3000D0938506C0938406A6E8B6E0E0E0F7E02B
:100F400088E001900D928150E1F781E080938E0658
:100F5000D0939006C0938F0682E0809391066FE74E
:100F600076E083E10E94E10F62E777E084E690E0BB
:100F70000E9425018093B002DF91CF91089580E017
:100F800090E89093800680937F0680910907809374
:100F900081068F5F8093090780910B0790910C0762
:100FA000909383068093820680910D0790910E079F
:100FB00090938506809384068FEF90E09093870648
:100FC0008093860686E0809388068091130780933D
:100FD00089066FE776E08BE00E94E10F089508959F
:100FE000CF92DF92EF92FF920F931F93CF93DF93F5
:100FF0007C01CDE4D3E000E010E083E8C82ED12CE2
:101000002881222391F089819A818E159F0569F4A8
:101010000C9DB0010D9D700D1C9D700D1124605B29
:101020007C4F822F0E94E10F18820F5F1F4FCD5718
:10103000DF4F0330110521F7DF91CF911F910F9101
:10104000FF90EF90DF90CF9008956FE776E080916A
:101050007E060E94E10F08959F92AF92BF92CF92B9
:10106000DF92EF92FF920F931F93CF93DF937C0158
:10107000962EC72ED42ECDE4D3E020E000E010E081
:1010800093E8A92EB12C88818823B9F4222399F4FE
:10109000D882FA82E9820A9D90010B9D300D1A9D3B
:1010A000300D1124205B3C4F4D2D50E0692D7C2DDF
:1010B000C9010E94FC2121E006C089819A818E1518
:1010C0009F0509F418820F5F1F4FCD57DF4F033084
:1010D0001105C9F6DF91CF911F910F91FF90EF900D
:1010E000DF90CF90BF90AF909F900895DF93CF9304
:1010F000CDB7DEB760970FB6F894DEBF0FBECDBF99
:1011000081E698E89A83898380910A078B838F5FB1
:1011100080930A0780910B0790910C079D838C8325
:1011200080910D0790910E07998788879D878C87FE
:101130008091490390914A039B878A8780914B0352
:101140008E870E94FD0D8F870E94000E888B8091F4
:101150000F07909110079F838E83BE016F5F7F4FB3
:1011600080E10E94E10F60960FB6F894DEBF0FBEDB
:10117000CDBFCF91DF910895282F80910D079091D9
:101180000E076817790789F080910807882369F0AE
:1011900070934A036093490320934B0310924C03CE
:1011A0000E94760881E080931707089580910A06CF
:1011B00090E08F7790708330910559F184309105DC
:1011C00034F48130910549F0029781F51BC08430D9
:1011D000910531F1069751F503C00E94E316089579
:1011E00040910B06209104063091050680910F076F
:1011F0009091100728173907C9F4842F90E00E94B6
:101200001E06089580910806909109060E948A168C
:10121000089580910806909109060E94711608951C
:1012200080910B0690910C060E94EC050895EF92B8
:10123000FF920F931F93CF93DF93EC01062F7A0158
:10124000122F20910D0730910E078217930709F492
:101250006CC08FEFCF3FD80709F467C080910807B3
:10126000882309F462C081E698E890938006809311
:101270007F0680910A07809381068F5F80930A071B
:1012800080910B0790910C079093830680938206C0
:101290003093870620938606D0938906C0938806EC
:1012A00030938B0620938A06CE010E94D60A163010
:1012B00029F4D0938506C093840608C080910F0757
:1012C00090911007909385068093840610938C0666
:1012D00090E009C0E92FF0E0E158F94FD7018D9176
:1012E0007D0186879F5F9017A8F320918406309137
:1012F000850680910D0790910E0728173907A9F0F0
:101300002F5F3F4F91F0025F00937E061650123020
:1013100018F087E090E002C080E090E065E278E0BD
:101320000E94250181E080931707DF91CF911F91E3
:101330000F91FF90EF900895DC010D900020E9F7E8
:10134000A81B27E0AC016A2F80E090E00E941709FB
:101350000895DF93CF9300D0CDB7DEB77A8369834A
:1013600026E0AE014F5F5F4F62E00E9417090F90C9
:101370000F90CF91DF91089521E00E941709089501
:101380009091190780911A0720E0981321E0822F8D
:1013900008950F931F93182F092F809119072091FB
:1013A0001A0790E001966AE070E00E948F2430E016
:1013B00082179307D9F040911907842F90E0FC0120
:1013C000EE0FFF1FE80FF91FE55EF84F212F302FBA
:1013D000C901DC0183E00D9001928150E1F7842F77
:1013E0008F5F8A3008F080E0809319071F910F917A
:1013F0000895DF93CF930F92CDB7DEB780911A0790
:101400008983998189818F5F898389818A3008F0F6
:101410001982898180931A0723E0929F90011124F9
:10142000255E384FC9010F90CF91DF9108950F933A
:101430001F93DF93CF930F92CDB7DEB703E011E098
:10144000A7C080911A0789838981809FF0011124A8
:10145000E55EF84F89818F5F898389818A3008F042
:101460001982898180931A078081843119F185312D
:1014700080F4813109F48AC0823120F4803109F08E
:1014800087C025C0823109F47EC0833109F080C055
:1014900077C0873109F441C0883130F4853189F152
:1014A000863109F075C00EC08831F1F1893109F03B
:1014B0006FC05FC080910807882309F069C00E944F
:1014C0005C0D66C00180F281E02D099561C08091BC
:1014D0000807882309F45CC08DEF95E00E94C506DB
:1014E000209106063091070680910D0790910E0716
:1014F0002817390719F40E94D6084AC00E94D80A52
:1015000047C080910807882309F442C06FEB77E059
:1015100081E090E00E9425013BC08091080788236C
:10152000B9F10E94630B34C08091FD059091FE05D6
:1015300083569C48B9F41093080780910A0690914D
:101540000B069093100780930F0780910D069091E2
:101550000E0690930E0780930D070E94630E0E9463
:10156000720716C080910807882391F00E946A0CC8
:101570000FC080910807882359F00E94170C08C0FB
:101580000E94001705C00E94031702C00E9447175F
:101590009091190780911A07981709F052CF0F9070
:1015A000CF91DF911F910F910895089580E00895E4
:1015B000AEE7B6E0ECEFF5E082E801900D928150E5
:1015C000E1F765EC75E18AE090E00E9425018091E9
:1015D0008806909189060E94B8058823B9F1809108
:1015E0000A07809381068F5F80930A07809188069F
:1015F00090918906909385068093840620910D072B
:1016000030910E0730938706209386060E94CB0503
:10161000882361F040917E0642506FE776E080912A
:101620008806909189060E942C080895809184066E
:10163000909185068F5F9F4F09F444C080917E068C
:101640006FE776E082500E94E10F089520910F0726
:101650003091100780918606909187068217930734
:1016600081F480910A07809381068F5F80930A0737
:1016700080911107909112079093850680938406BC
:101680000BC080910A07809381068F5F80930A07C1
:10169000309385062093840680910D0790910E0764
:1016A00090938706809386068091840690918506A4
:1016B0008F5F9F4F39F080917E066FE776E0825012
:1016C0000E94E10F0895DF93CF93CDB7DEB7659702
:1016D0000FB6F894DEBF0FBECDBF8091FE05883CEB
:1016E00009F043C083E698E89A83898380910A07CA
:1016F0008B838F5F80930A0780910B0790910C0773
:101700009D838C8380910F07909110079F838E8318
:1017100080910D0790910E079987888781E08A87CD
:1017200080910D0690910E069C878B878091040610
:101730008D87809105068E87809106068F87809120
:101740000706888B80910806898B809109068A8B11
:1017500080910A068B8B80910B068C8B80910F06F3
:101760008D8BBE016F5F7F4F56C083E698E89093E4
:101770007F0680937E0680910A07809380068F5FA4
:1017800080930A0780910B0790910C079093820633
:101790008093810680910F079091100790938406A3
:1017A0008093830680910D0790910E079093860693
:1017B0008093850681E0809387068091070690914B
:1017C0000806909389068093880680910906809385
:1017D0008A0680910A0680938B0680910B0680937F
:1017E0008C0680910C0680938D0680910D06809367
:1017F0008E0680910E0680938F0680910F0680934F
:101800009006809110068093910680911106809336
:1018100092066EE776E085E10E94E10F65960FB6CD
:10182000F894DEBF0FBECDBFCF91DF9108959091A8
:10183000FC05AEE7B6E0ECEFF5E082E801900D9232
:101840008150E1F780910807882309F442C0292FCD
:101850002C502695E1E0F0E0E21BF109EE0FFF1FAE
:10186000F095E195FF4FE757F94F80819181909373
:10187000120780931107223060F183E698E8909375
:10188000800680937F0680910A07809381068F5F90
:1018900080930A072150822F90E0FC01EE0FFF1F7A
:1018A000E757F94F208131813093850620938406D4
:1018B00020910D0730910E073093870620938606FE
:1018C0002BEB2093880605966FE776E0880F0E9441
:1018D000E10F08950F931F93CF93DF938091080733
:1018E000882309F486C0209107063091080680916C
:1018F0000D0790910E070EE716E02817390709F03B
:1019000049C083E69CE890937F0680937E06809191
:101910000A07809380068F5F80930A0780910B07E8
:1019200090910C079093820680938106809109061E
:101930008093830680910A068093840680910B062B
:101940008093850680910C068093860680910D0613
:101950008093870680910E068093880680910F06FB
:10196000809389068091100680938A0630938C06B6
:1019700020938B0682E080938D06809111069091D2
:10198000120690938F0680938E060E943407B8014A
:1019900082E12DC0E8012196D801ECEFF5E082E864
:1019A00001900D928150E1F780910A078A838F5F41
:1019B00080930A0780911107909112079E838D836F
:1019C00080910D0790910E0798878F8380918906EB
:1019D00090918A060E94B805882331F0809189068B
:1019E00090918A069E838D836FE776E086E10E9460
:1019F000E10FDF91CF911F910F9108958091D6044F
:101A00000895809302010895809102010895089538
:101A100008951F9310E080913E078F3FE1F011E0A1
:101A200080913A0790913B0790930C0780930B07A6
:101A300020913C0730913D073093100720930F070A
:101A40000E946F0E80913E070E94530580914207CD
:101A50008F5F80931307812F0E94B9161F910895FD
:101A600020917C068091FE058295869586958370EF
:101A700080933907809100069091010690933B076F
:101A800080933A07809102069091030690933D0758
:101A900080933C078091070680934207809114074A
:101AA000815080933E0710923F07209343070E9486
:101AB000FD0D8093440708951F9340917C0680910B
:101AC000D604882359F12091400730914107809135
:101AD00004069091050690934107809340078091FA
:101AE000410787FF05C0309341072093400716C088
:101AF00080914307841780F0841781F49091420706
:101B000080910706891740F0981741F41091440717
:101B10000E94FD0D181710F40E94300D1F910895BA
:101B2000909114079F3FA9F481E08093D60486E149
:101B3000E9E3F7E0DF011D928A95E9F790933E070C
:101B40008BE08093140780910201803811F080931C
:101B50001407409114074B3148F4242F30E0809152
:101B6000020190E001962817390741F41092D6043B
:101B70008FEF809314070E94090D0895842F0E940F
:101B8000530583E098E09093800680937F068091D0
:101B90000907809381068F5F809309078FEF9FEF7E
:101BA00090938306809382069093850680938406A3
:101BB00087E0809386066FE776E088E00E94E10F79
:101BC000809114078F5F8093140760E97DE084E1C2
:101BD00090E00E942501089508950E945B0480E032
:101BE00090E00E947C130E94EF020E94AE1678944F
:101BF0000E94CE150E94170AFACF8091D80408954A
:101C000080917C06089529982B988DE090E00197AB
:101C1000F1F7299A089508950895089540E06FE135
:101C200081E00E947C03089540E06FE181E00E9422
:101C30007C03282F8151823058F0223049F0213026
:101C400039F080E090E02E3129F481E090E00895B1
:101C500081E090E00895CF93DF93EC0140E06FE1E5
:101C600081E00E947C03863021F0813011F084E411
:101C700007C040E06FE186E00E947C03888380E437
:101C8000DF91CF91089540E06FE188E00E947C03EE
:101C9000089540E06FE186E00E947C038093D804C1
:101CA0001092170708951F93CF93DF93EC0114E26E
:101CB0006991812F0E9452031F5F1C32C9F7DF9187
:101CC000CF911F9108951F93192F682F80E20E94D2
:101CD0005203612F81E20E9452031F9108951F93C6
:101CE000192F682F82E20E945203612F83E20E9423
:101CF00052031F910895282F43E068E08EE20E946E
:101D00008F0308952B988DE090E00197F1F723E081
:101D100040E06FE182E00E948F0383E090E0019752
:101D2000F1F708951B9B02C080E408950E94820E83
:101D30008BE490E00197F1F740E06FE181E00E94D1
:101D40007C03883011F083E408952B9A80E4089591
:101D50001F93162F663010F082E411C0882311F40F
:101D600021E001C020E043E068E083E00E948F03AF
:101D7000212F40E067E083E00E948F0380E41F9101
:101D800008951B9902C080E408952B9881EE96E097
:101D90000197F1F760E081E00E94A80E40E06FE15A
:101DA00081E00E947C03883071F383E40895282F3A
:101DB000803110F082E408951B9B02C084E40895F2
:101DC00040E06FE085E00E948F0380E408951F9358
:101DD000182F8B50803110F082E428C01B9B02C06A
:101DE00084E424C040E06FE188E00E947C03811716
:101DF000E1F0212F40E06FE188E00E948F0340E096
:101E00006FE181E00E947C03863011F0893021F47B
:101E10008DE291E00197F1F740E06FE188E00E94E8
:101E20007C03811711F083E401C080E41F910895C1
:101E30008091D704882329F48CE10E943703809392
:101E4000D7048091D70408950F931F93DF93CF9306
:101E500000D0CDB7DEB7082F198240E06FE181E0F6
:101E60000E947C03182F0E94180F833021F00E94DB
:101E7000180F8730C9F4163019F4069510E010C019
:101E8000163191F4FACF45E060E686E00E947C03CB
:101E90008A8389819A81880F880F892B89831F5FA4
:101EA000101788F3898102C00E9405210F900F90BE
:101EB000CF91DF911F910F9108951F93182F0E94CA
:101EC000180F823031F4212F47E060E885E00E944E
:101ED0008F030E94180F833031F4212F45E060E218
:101EE00084E00E948F031F9108950F931F93182F72
:101EF000883051F0863041F0893031F0863121F060
:101F0000893111F082E45AC01B9B02C084E456C0A0
:101F10000E94140E8823E1F70E94180F823039F4D2
:101F20000E94FE0C882319F0163109F416E040E0F7
:101F30006FE181E00E947C03082F181709F43DC06F
:101F4000183019F40E94820E2FC0193159F48930CB
:101F5000E1F029E040E06FE182E00E948F0306316A
:101F600081F40CC0163189F4893079F029E040E021
:101F70006FE182E00E948F03093119F483E090E061
:101F800002C089E691E00197F1F7212F40E06FE16F
:101F900082E00E948F03083019F489E691E002C0C4
:101FA00083E090E00197F1F740E06FE181E00E946B
:101FB0007C03811711F083E401C080E41F910F912D
:101FC00008951F93CF93DF93182FEB0187FF02C073
:101FD00082E41AC00E94140E8823E1F789E10E946E
:101FE000750F40E06FE181E00E947C038931B1F719
:101FF0008D819E8190931607809315071E5F612F38
:10200000CE010E94E80380E4DF91CF911F910895F3
:10201000DF93CF9300D000D00F92CDB7DEB740E072
:102020006FE181E00E947C038A838A81813151F0D3
:102030008A81863039F08A81813021F08A81863127
:1020400009F057C00E94AE039091FE0580E02091F8
:10205000FD05AC01420F511D9A01809102068F3F90
:1020600041F4809103068F3F21F4842F807F09F093
:1020700072C01B821D821C8258E82136350721F16F
:1020800088E82236380740F448E02330340781F0EE
:102090002050304849F512C08CE82336380701F14A
:1020A00048EC23363407D1F023563848E9F40EC003
:1020B000809108078823C1F085E115C00E94FE0CBD
:1020C000882391F084E10FC080E10DC08091060665
:1020D000823031F08B3B31F0813031F487E103C045
:1020E00088E101C089E18B83CE0103960E94C90972
:1020F00032C08A81823049F08A81823131F08A810E
:10210000893119F08A81893031F5109217071B82C5
:102110001D821C8245E060EE82E00E947C03898380
:102120008981833051F0843018F4823050F403C038
:10213000853039F404C081E103C083E101C082E14C
:102140008B838B81882321F0CE0103960E94C909DD
:1021500086E10E94750F0F900F900F900F900F90D7
:10216000CF91DF910895FF920F931F93F82E0DEFFB
:1021700013E0C8010197F1F70E94210329982B98D9
:102180008DE090E00197F1F7299A23E040E06FE1BC
:1021900082E00E948F03C8010197F1F76CE08EE0A6
:1021A0000E94520327E040E06FE089E00E948F0325
:1021B000FF2011F00E94890480E41F910F91FF908D
:1021C000089584E597E008958091ED0408950895B9
:1021D00008950895089508951092EE040895809149
:1021E000EE04882371F01092EE048091EF040E94B7
:1021F0001C026CEB72E182E390E00E942501809367
:10220000EF0408958091520790915307892B21F094
:102210008091EF040E941C026CEB72E184E690E076
:102220000E9425018093EF04089588E00E94240F06
:10223000992787FD9095A92FB92FBC01CD010E9448
:10224000411E20E030E04AE754E40E94971D2091AF
:102250005C0730915D0740915E0750915F070E94D7
:10226000701C9B01AC0120935C0730935D07409389
:102270005E0750935F0708956F927F928F929F92AF
:10228000AF92BF92CF92DF92EF92FF920F931F9384
:10229000DF93CF93CDB7DEB72C970FB6F894DEBFA0
:1022A0000FBECDBFFC0180818530D9F1863038F476
:1022B000823009F409C1833009F00EC107C08730AC
:1022C00009F447C0893009F007C15FC0818192815C
:1022D00090935307809352070A9730F48AE090E076
:1022E000909353078093520742E557E062E080E104
:1022F00090E00E945C048091520790915307892BD3
:1023000019F081E0809318078091EF040E941C026D
:102310006CEB72E18AE090E00E9425018093EF046B
:10232000DBC080910D0790910E0726E02C8321E001
:102330002D839F838E83DE011896E3E0F1E085E034
:1023400001900D928150E1F7AE014C5F5F4F69E063
:1023500017C088E0898380910A0790E02CE231E081
:10236000AC01429FC001439F900D529F900D1124DC
:10237000805090489B838A83AE014F5F5F4F63E03C
:1023800080E090E00E94BC09A7C0B1800B2D10E056
:10239000CF0102960E9415216B017C01000F111FD5
:1023A000000F111F0F511B4FF801C082D182E28232
:1023B000F38280E090E0A0E0B0E08093DD049093B1
:1023C000DE04A093DF04B093E0040E9415119B018A
:1023D000AC01C701B6010E943F1C6093DD047093FD
:1023E000DE048093DF049093E00449ED54E068E05C
:1023F00088E090E00E945C04F80180819181A281D4
:10240000B38180935C0790935D07A0935E07B093C0
:102410005F07BB2009F460C06090E1047090E204A3
:102420008090E3049090E4042091E5043091E60468
:102430004091E7045091E804C401B3010E943F1C9D
:102440007B018C016091E9047091EA0480E090E0E6
:102450000E949F1E5B016C016091EB047091EC0483
:1024600080E090E00E949F1E9B01AC01C601B50177
:102470000E943F1C9B01AC01C801B7010E94971D3F
:102480007B018C01A60195010E949D1C9B01AC0162
:10249000E092D904F092DA040093DB041093DC0498
:1024A000C401B3010E943F1C6093DD047093DE04FD
:1024B0008093DF049093E00449ED54E068E088E005
:1024C00090E00E945C0408C0319648E050E0BF01F3
:1024D00084E597E00E9405222C960FB6F894DEBFA3
:1024E0000FBECDBFCF91DF911F910F91FF90EF9065
:1024F000DF90CF90BF90AF909F908F907F906F9024
:1025000008958091EE048823B1F11092EE04809139
:10251000520790915307892B71F1809118078823F6
:1025200051F18091EF040E941C02209152073091DA
:10253000530742E02B38340788F46CEB72E184E6F1
:1025400090E0AC01249FC001259F900D349F900D19
:1025500011240E9425018093EF040895C901059676
:102560006AE070E00E947B24CB016CEB72E10E9478
:10257000A4018093EF0408950F931F93DF93CF93EB
:10258000CDB7DEB7AA970FB6F894DEBF0FBECDBFAA
:1025900080910807882309F44BC020910D073091E2
:1025A0000E07FE01759686E1DF011D928A95E9F717
:1025B00084E08D8B3F8B2E8BDE015E96E3E0F1E0B5
:1025C00085E001900D928150E1F748E050E064E52C
:1025D00077E0CE0183960E9405220E9415119F93F9
:1025E0008F937F936F9388E091E09F938F938E01F9
:1025F0000F5F1F4F1F930F930E94832246E050E00E
:10260000B801CE0148960E940522AE014B5E5F4F95
:1026100066E180E090E00E94BC0981E08093EE04D6
:102620008DB79EB708960FB6F8949EBF0FBE8DBFAC
:10263000AA960FB6F894DEBF0FBECDBFCF91DF9143
:102640001F910F91089542E557E062E080E190E02C
:102650000E94720480915207909153078F5F9F4FA1
:1026600021F4109253071092520786E10E94750FD1
:1026700088E00E94240F992787FD9095A92FB92FF4
:10268000BC01CD010E94411E20E030E048EC52E444
:102690000E94971D20E030E04CE852E40E94701C3C
:1026A00060935C0770935D0780935E0790935F076C
:1026B00086E10E94750F88E00E94240F992787FD0C
:1026C0009095A92FB92FBC01CD010E94411E20E099
:1026D00030E048EC52E40E94971D20E030E040E0FA
:1026E00052E40E94701C60935C0770935D078093B6
:1026F0005E0790935F07089510927405209174050A
:10270000209373051092F2042091F2042093F104B7
:1027100028E92093C10026E02093C2001092C50052
:102720002CE02093C4009093F6058093F50508955E
:102730001092C1000895382F8091F8058823D9F5AB
:1027400078949091F1049F5F97FF05C090E003C0DB
:10275000222319F00EC02091F7058091F2049817FA
:10276000B9F3E091F104F0E0EF50FB4F3283909326
:10277000F1048091C10085FD1EC08091C00085FFDD
:10278000FCCF9091F204E92FF0E0EF50FB4F228153
:102790008091F104981711F42FEF06C0E92FEF5F35
:1027A000E7FDE0E0E093F2042093C6008091C100D1
:1027B00080628093C1000895CF93DF93EC0103C042
:1027C0000E949B13219688818823D1F7DF91CF91B6
:1027D00008958091730590917405282F30E0291B8E
:1027E000310937FF02C020583F4F822F0895809152
:1027F000730590917405282F30E0291B310937FFAC
:1028000002C020583F4F822F08958091F10490918B
:10281000F204282F30E0291B310937FF02C020586D
:102820003F4F822F08959091F204E92FF0E0EF508E
:10283000FB4F22818091F104981711F42FEF06C00D
:10284000E92FEF5FE7FDE0E0E093F204822F0895C7
:102850008091730590917405282F30E0291B310970
:1028600037FF02C020583F4F222391F39091740507
:10287000E92FF0E0ED58FA4F228180917305981707
:1028800011F42FEF06C0E92FEF5FE7FDE0E0E093E2
:102890007405822F0895DF92EF92FF920F931F939A
:1028A000CF93DF93EC01D42E00E0E62EFF240894B2
:1028B000E108F1088091730590917405282F30E0AC
:1028C000291B310937FF02C020583F4F222391F3C3
:1028D00090917405E92FF0E0ED58FA4F1281809144
:1028E0007305981711F41FEF06C0E92FEF5FE7FD9E
:1028F000E0E0E0937405802F90E08E159F0524F0B2
:102900001D3011F01830B1F6DD2019F0812F0E9432
:102910009B13183061F01D3089F41882802FDF91ED
:10292000CF911F910F91FF90EF90DF9008950023BA
:1029300009F4C0CF015018822197BCCF19930F5FC3
:10294000B9CF90E08091F805882309F491E0909345
:10295000F805089508958091730590917405282FC6
:1029600030E0291B310937FF02C020583F4F222396
:1029700009F455C08091730590917405282F30E0BB
:10298000291B310937FF02C020583F4F222391F302
:1029900090917405E92FF0E0ED58FA4F2281809173
:1029A0007305981711F42FEF06C0E92FEF5FE7FDCD
:1029B000E0E0E0937405809157018533E1F08633C0
:1029C00028F4833341F08433A1F509C08633C9F07C
:1029D000873379F526C0213089F484E30FC0822F34
:1029E0002B3008F08AE080934B0185E380935701F8
:1029F0001092F00414C020934C0186E38093570199
:102A00000EC09091F00480914B01981750F4E92F7B
:102A1000F0E0E55BFE4F22839F5F9093F00480E03F
:102A2000089583E38093570180E0243031F481E0FE
:102A3000089583E38093570180E00895EF92FF9219
:102A40000F931F93CF93DF93082F162F7A0181E006
:102A50000E949B13812F0E949B13802F0E949B1327
:102A600000E0C12FD0E006C0EE0DFF1D80810E9466
:102A70009B130F5FE02FF0E0EC17FD07ACF384E051
:102A80000E949B13DF91CF911F910F91FF90EF90C8
:102A900008951F920F920FB60F920BB60F9211244A
:102AA0002F933F934F935F936F937F938F939F9356
:102AB000AF93BF93EF93FF932091C600909173055E
:102AC0009F5F97FD90E080917405981741F0E09129
:102AD0007305F0E0ED58FA4F22839093730510923E
:102AE000F705E091F505F091F605309711F0822F8A
:102AF0000995FF91EF91BF91AF919F918F917F9138
:102B00006F915F914F913F912F910F900BBE0F905E
:102B10000FBE0F901F9018951F920F920FB60F9235
:102B20000BB60F9211242F938F939F93EF93FF93E4
:102B30009091F1048091F2049817B1F09091F20411
:102B4000E92FF0E0EF50FB4F22818091F1049817BC
:102B500011F42FEF06C0E92FEF5FE7FDE0E0E0930F
:102B6000F2042093C60005C08091C1008F7D809340
:102B7000C100FF91EF919F918F912F910F900BBE0C
:102B80000F900FBE0F901F90189508950895089507
:102B90000895089508950895089508951092F905E7
:102BA0000E94AB14882349F080914C01813829F4AC
:102BB00060E070E082E00E94BC08089560E08FE26F
:102BC0000E94520360E070E082E00E94BC086EED5B
:102BD00075E184EF91E00E9425018093FA05089544
:102BE00065EC75E18AE090E00E942501089565ECAE
:102BF00075E189E190E00E9425010895EF92FF922E
:102C00000F931F93DF93CF93CDB7DEB728970FB6FF
:102C1000F894DEBF0FBECDBF8E010F5F1F4FA8011E
:102C200068E080E090E00E94720478019E01275FD6
:102C30003F4FF80180818F3FB9F40F5F1F4F02179C
:102C40001307B9F72AC088E00E94240FF701819387
:102C50007F01E017F107B9F7AE014F5F5F4F68E002
:102C600080E090E00E945C048E010F5F1F4FA8017E
:102C700062E080E190E00E94720489819A818F5F16
:102C80009F4F91F484E190E09A838983A80162E0E8
:102C900080E190E00E945C0407C080E00E94B310D5
:102CA00086E00E94750FCFCF28960FB6F894DEBF4E
:102CB0000FBECDBFCF91DF911F910F91FF90EF908D
:102CC000089560913E0780913C0790913D070E94D6
:102CD0007D07089540E050E060E081EC0E941E1501
:102CE0000895DF93CF9300D0CDB7DEB79A83898361
:102CF000AE014F5F5F4F62E081EC0E941E1565ECF4
:102D000075E18AE090E00E9425010F900F90CF912D
:102D1000DF910895DF93CF9300D0CDB7DEB79A83CC
:102D2000898365EC75E181E090E00E942501AE01A8
:102D30004F5F5F4F62E081EC0E941E1569817A81CE
:102D400083E00E94BC080F900F90CF91DF9108950F
:102D50008FEF0E9458050E94900D089565EC75E173
:102D600089E190E00E9425010E94FE150E94A816AC
:102D70000895882339F061E676E18AE090E00E94C8
:102D80002501089584E690E00E940F010E94A81694
:102D90000895882389F465EC75E18AE090E00E944B
:102DA000250140E050E060E083EC0E941E150E9487
:102DB00023130E940211089584E690E00E940F01FF
:102DC0000E94A816089580910A06813051F465EC9E
:102DD00075E18AE090E00E9425018BE096E00E9478
:102DE0003C11089548E551E064E080E090E00E94E5
:102DF000BC0962EF76E188EE93E00E942501089518
:102E00000E94EF1008951F930E94FE0C8823E9F59D
:102E100080910F079091100710E0209115073091D5
:102E200016072817390739F411E040E050E060E058
:102E3000C9010E94BC098091FB058F5F8093FB054F
:102E4000883018F40E94EF1020C0112381F01092F6
:102E500008070E94EC1088E00E94240F9AE0899FE6
:102E6000C001112468EA76E1C2960E942501809192
:102E70001507909116070E94B805882331F08091BC
:102E80001507909116070E94EC051F910895209157
:102E900015073091160780910F079091100728179A
:102EA000390711F41092FB050E9481120895A3E1E5
:102EB000B0E0EDE5F7E10C94A2243C01798B688B3E
:102EC0005A01FC0117821682838181FD03C06FEFD6
:102ED0007FEF84C37AE0472E9E012F5F3F4F3B8BED
:102EE0002A8BF3012381E889F98923FD859123FF4A
:102EF0008191F98BE88B882309F46DC3853251F4F5
:102F0000E889F98923FD859123FF8191F98BE88B6D
:102F1000853229F4B30190E00E945722E2CF982F26
:102F2000DD2455249924FFE1FD15D0F09B3269F092
:102F30009C3228F4903259F0933291F40EC09D32B5
:102F400049F0903369F431E029C042E0D42A54E0DA
:102F5000D52A28C088E0D82A25C090E1D92A22C0E5
:102F6000D7FC2BC0892F80538A3070F4D6FE05C061
:102F7000949C902C1124980E15C0549C502C112414
:102F8000580EE0E2DE2A0EC09E3229F4D6FC23C39E
:102F9000F0E4DF2A07C09C3619F430E8D32A02C0D7
:102FA000983659F4E889F98923FD959123FF919189
:102FB000F98BE88B992309F0B6CF892F855483309C
:102FC00020F48D2D8061905E07C0892F8556833057
:102FD00008F0A9C18D2D8F7E86FD02C066E0962E79
:102FE0005FE3F52EF822953619F4F0E4FF2A07C0C6
:102FF000963619F420E8F22A02C091109A94F7FE4E
:103000000BC03BE3391520F427E04CE3842E0EC0BF
:10301000892C839427E00AC047E0491528F427E06B
:10302000882437E0932E02C0292D8824C5010496F8
:103030009D878C87F5016081718182819381082D44
:10304000AE014F5F5F4F0E9419216C010981202F53
:1030500030E03F872E8700FF05C03E8533FD02C06C
:103060001DE209C0F1FE02C01BE205C0F2FC02C075
:1030700010E001C010E28E859F858C709070892BC6
:10308000C1F1112311F483E001C084E0851510F033
:1030900055240AC0581AF3FC07C0B30180E290E03F
:1030A0000E9457225A94C9F7112329F0B301812FA6
:1030B00090E00E9457224E8543FF03C00CE810E0C9
:1030C0000EC000E910E00BC0E114F10409F08052D9
:1030D000B30190E00E9457220F5F1F4F05C0EF2CF5
:1030E000FF2450E1E522FF24F8018491882361F751
:1030F00017C1F7FE13C08C0CFE85F4FF04C08A8153
:10310000813309F48A9418141CF0882483942DC008
:1031100028E0281550F598E0892E27C0F6FC25C038
:10312000892D90E08C159D054CF03CEFC3163FEFC8
:10313000D30624F040E8F42A01C09A94992049F07B
:10314000E2E0F0E0EC0FFD1FE90DF11D808180331E
:10315000A1F3F7FE0AC0892C8394892D90E0C8164C
:10316000D90614F0992401C09C18F7FC03C025E08F
:1031700030E009C01C141D041CF021E030E003C045
:1031800096012F5F3F4F112311F02F5F3F4F992082
:1031900029F0892D90E00196280F391F852D90E0A8
:1031A0002817390714F0552401C0521AAF2CBB243C
:1031B000C50189709070892B39F008C0B30180E295
:1031C00090E00E9457225A945520C1F7112329F00C
:1031D000B301812F90E00E945722A3FE07C008C0D0
:1031E000B30180E390E00E9457225A945520C1F722
:1031F000F7FE48C08601D7FE02C000E010E076016D
:103200000894E11CF11CE01AF10A81E090E08C0FB7
:103210009D1FE80EF91E160128183108892D90E02F
:10322000AA24BB24A81AB90A9FEF0F3F190729F453
:10323000B3018EE290E00E945722C016D10634F00E
:10324000201631061CF4F701808101C080E3015093
:1032500010400894E11CF11C0A151B052CF0B30169
:1032600090E00E945722E0CF0C151D0541F49A8191
:10327000963320F4953319F4FE85F4FF81E3B3010E
:1032800090E04CC08A81813309F00F7EB30190E059
:103290000E9457229920A1F0B3018EE290E00E9493
:1032A000572212E0E1E0F0E0EC0FFD1FE10FF11D0D
:1032B0001F5FB301808190E00E9457229A9491F79A
:1032C000A4FC03C085E690E002C085E490E0B30171
:1032D0000E945722D7FC05C0C114D10441F404FF59
:1032E00006C0D094C194D108D3948DE201C08BE282
:1032F000B30190E00E94572280E305C08F5F26EF64
:103300003FEFC20ED31E3AE0C316D104BCF7B3019F
:1033100090E00E945722B301C601C0960E94572236
:10332000AC84BD8455C1933631F0933791F0933519
:1033300009F059C023C0F501808189837E0108947A
:10334000E11CF11C22E030E0A20EB31E01E010E00F
:1033500012C0F501E080F180D6FC03C06FEF7FEF73
:1033600002C0692D70E022E030E0A20EB31EC7015A
:103370000E9414228C013FE7D32214C0F501E080A3
:10338000F180D6FC03C06FEF7FEF02C0692D70E0C3
:1033900022E030E0A20EB31EC7010E94F1218C0191
:1033A00030E8D32AD3FE07C01AC0B30180E290E010
:1033B0000E9457225A94852D90E008171907A8F308
:1033C0000EC0F701D7FC8591D7FE81917F01B30133
:1033D00090E00E94572251105A940150104001155C
:1033E000110579F7F5C0943611F0993689F5D7FEB5
:1033F00008C0F501E080F1800281138124E030E013
:103400000AC0F501808191817C010027F7FC0095BD
:10341000102F22E030E0A20EB31E3FE6D32217FFAA
:103420000AC010950095F094E094E11CF11C011D78
:10343000111D40E8D42A2AE030E0AE014F5F5F4F13
:10344000C801B7010E94A622F82E5A89F51A43C076
:10345000953729F41D2D1F7E2AE030E01DC01D2D5B
:10346000197F9F3661F0903720F4983509F0B3C08A
:103470000FC0903739F0983709F0ADC004C028E08C
:1034800030E00AC0106114FD146020E130E004C097
:1034900014FD166020E132E017FF08C0F5016081DD
:1034A00071818281938144E050E008C0F501808100
:1034B0009181BC0180E090E042E050E0A40EB51E96
:1034C000AE014F5F5F4F0E94A622F82E5A89F51A6F
:1034D0008FE7D82ED122D6FE0BC08EEFD822F9145A
:1034E00038F4D4FE07C0D2FC05C09FEED92202C03A
:1034F0001F2D01C0192DD4FE0DC0FE01EF0DF11DD1
:103500008081803319F4E9EEDE2208C01F5FD2FE0D
:1035100005C003C08D2D867809F01F5F0D2DD3FCEB
:1035200014C0D0FE0FC0151510F09F2C0BC09F2C9F
:10353000950C911A152D06C0B30180E290E00E940F
:1035400057221F5F1515C0F304C0151510F4511A4A
:1035500001C0552404FF10C0B30180E390E00E9435
:10356000572202FF1EC001FD03C088E790E002C0A1
:1035700088E590E0B3010CC0802F867891F001FFC0
:1035800002C08BE201C080E2D7FC8DE2B30190E083
:103590000E94572206C0B30180E390E00E945722A8
:1035A0009A94F914C0F3FA94E1E0F0E0EC0FFD1FF7
:1035B000EF0DF11DB301808190E00E945722FF20A2
:1035C00091F706C0B30180E290E00E9457225A941E
:1035D0005520C1F786CCF30166817781CB016396D4
:1035E000E2E10C94BE24A0E0B0E0E9EFFAE10C9433
:1035F000A224DC012B01FA019C91923008F439C11C
:10360000EB018881823008F433C1943069F484304E
:1036100009F02FC111969C9111978981981709F48F
:1036200028C1ADE5B1E025C1843009F421C1823063
:10363000A9F4923009F01DC19A01AD0188E0EA01B8
:103640000990AE01E90109929E018150C1F7E201A2
:10365000898111969C918923818308C1923009F454
:1036600007C112962D903C901397EB018A819B81A4
:103670001496AD90BD90CD90DC901797EC80FD80B6
:103680000E811F819101281B390BB90137FF04C03E
:1036900066277727621B730B603271050CF061C0DF
:1036A000121613066CF537014801062E04C09694D5
:1036B0008794779467940A94D2F721E030E040E051
:1036C00050E004C0220F331F441F551F6A95D2F7E4
:1036D00021503040404050402E213F214023512373
:1036E000211531054105510521F021E030E040E090
:1036F00050E079018A01E628F728082919293CC0F9
:10370000232BD1F1260E371E35014601062E04C0AB
:1037100096948794779467940A94D2F721E030E0E6
:1037200040E050E004C0220F331F441F551F6A952C
:10373000D2F721503040404050402A213B214C21BB
:103740005D21211531054105510521F021E030E0D1
:1037500040E050E059016A01A628B728C828D928B6
:103760000BC0821593052CF01C01AA24BB24650113
:1037700003C0EE24FF24870111969C91D20111967B
:103780008C91981709F445C0992339F0A801970145
:103790002A193B094C095D0906C0A60195012E199D
:1037A0003F09400B510B57FD08C011823382228222
:1037B00024833583468357831DC081E08183338210
:1037C000228288279927DC01821B930BA40BB50B5F
:1037D00084839583A683B7830DC0220F331F441FB4
:1037E000551F2483358346835783828193810197B4
:1037F000938382832481358146815781DA01C9010F
:103800000197A109B1098F5F9F4FAF4FBF4328F3C5
:103810000BC0918333822282EA0CFB1C0C1D1D1D00
:10382000E482F5820683178383E0808324813581D7
:103830004681578157FF1AC0C901AA2797FDA09555
:10384000BA2F81709070A070B070569547953795DB
:103850002795822B932BA42BB52B84839583A6834A
:10386000B78382819381019693838283DF0101C0B4
:10387000D201CD01CDB7DEB7E2E10C94BE24A0E2C7
:10388000B0E0E5E4FCE10C94AE2469837A838B8399
:103890009C832D833E834F835887E9E0EE2EF12CE5
:1038A000EC0EFD1EB701CE0101960E943C208E0158
:1038B0000F5E1F4FB801CE0105960E943C208A89F9
:1038C00091E089278A8BAE01475E5F4FB801C7013F
:1038D0000E94F31A0E94671FA096E6E00C94CA2487
:1038E000A0E2B0E0E6E7FCE10C94AE2469837A83C1
:1038F0008B839C832D833E834F835887F9E0EF2E83
:10390000F12CEC0EFD1EB701CE0101960E943C2069
:103910008E010F5E1F4FB801CE0105960E943C201C
:10392000AE01475E5F4FB801C7010E94F31A0E94C3
:10393000671FA096E6E00C94CA24A0E2B0E0E3EA98
:10394000FCE10C94A22469837A838B839C832D836E
:103950003E834F835887BE01675F7F4FCE0101963C
:103960000E943C20BE016F5E7F4FCE0105960E94F3
:103970003C209985923088F089898230C8F0943053
:1039800019F4823051F404C0843029F4923081F467
:103990008DE591E0C6C0923049F420E09A858A898D
:1039A000981321E02A87CE010996BBC0823049F4E2
:1039B00020E09A858A89981321E02A8BCE014196CE
:1039C000B0C02D843E844F8458886D887E888F884F
:1039D000988CEE24FF248701AA24BB24650140E0D3
:1039E00050E060E070E0E0E0F0E0C10181709070D4
:1039F000892BE9F0E60CF71C081D191D9A01AB0193
:103A00002A0D3B1D4C1D5D1D80E090E0A0E0B0E064
:103A1000E614F7040805190520F481E090E0A0E021
:103A2000B0E0BA01A901480F591F6A1F7B1FAA0CF9
:103A3000BB1CCC1CDD1C97FE08C081E090E0A0E020
:103A4000B0E0A82AB92ACA2ADB2A3196E032F10569
:103A500049F0660C771C881C991C5694479437943F
:103A60002794C3CFFA85EA892B893C898B859C856D
:103A7000280F391F2E5F3F4F17C0CA018170907009
:103A8000892B61F016950795F794E79480E090E014
:103A9000A0E0B0E8E82AF92A0A2B1B2B7695679557
:103AA000579547952F5F3F4F77FDE7CF0CC0440FE9
:103AB000551F661F771F17FD4160EE0CFF1C001F8E
:103AC000111F21503040403090E0590790E06907C5
:103AD00090E4790760F32B8F3C8FDB01CA018F776D
:103AE0009070A070B07080349105A105B10561F4AB
:103AF00047FD0AC0E114F1040105110529F0405CFD
:103B00005F4F6F4F7F4F40781A8EFE1711F081E0A4
:103B10008A8F4D8F5E8F6F8F78A383E0898FCE0160
:103B200049960E94671FA096E2E10C94BE24A8E18A
:103B3000B0E0EDE9FDE10C94AA2469837A838B83DC
:103B40009C832D833E834F835887B9E0EB2EF12C65
:103B5000EC0EFD1EB701CE0101960E943C208E01A5
:103B60000F5E1F4FB801CE0105960E943C202985AB
:103B7000223008F47CC03989323010F4B8017AC0A0
:103B80008A859A8989278A87243011F0223031F476
:103B9000231709F06CC06DE571E06CC0343039F466
:103BA0001D861E861F86188A1C861B8604C032301E
:103BB00021F484E08987B7015DC02B853C858B8922
:103BC0009C89281B390B3C872B87ED84FE840F854D
:103BD0001889AD88BE88CF88D88CEA14FB040C0500
:103BE0001D0540F4EE0CFF1C001F111F215030403A
:103BF0003C872B8720E030E040E050E080E090E020
:103C0000A0E0B0E46FE170E0EA14FB040C051D05D0
:103C100040F0282B392B4A2B5B2BEA18FB080C09A8
:103C20001D09B695A79597958795EE0CFF1C001F6B
:103C3000111F6150704041F7DA01C9018F77907010
:103C4000A070B07080349105A105B10561F427FD25
:103C50000AC0E114F1040105110529F0205C3F4F71
:103C60004F4F5F4F20782D873E874F87588BBE017F
:103C7000675F7F4FCB010E94671F6896EAE00C9454
:103C8000C624A8E0B0E0E7E4FEE10C94AB249B017D
:103C9000AC0183E08983DA01C9018827B7FD8395E8
:103CA0009927AA27BB27B82E2115310541055105B3
:103CB00019F482E089833AC08823A9F0203080E09B
:103CC000380780E0480780E8580729F460E070E092
:103CD00080E09FEC30C0EE24FF248701E21AF30A53
:103CE000040B150B02C079018A018EE1C82ED12C7C
:103CF000DC82CB82ED82FE820F831887C801B70178
:103D00000E94181F01971816190684F4082E04C083
:103D1000EE0CFF1C001F111F0A94D2F7ED82FE82E9
:103D20000F831887C81AD90ADC82CB82BA82CE01E7
:103D300001960E94671F2896E9E00C94C724A8E02A
:103D4000B0E0E5EAFEE10C94AC247B018C01611546
:103D500071058105910519F482E0898360C083E0D3
:103D600089838EE1C82ED12CDC82CB82ED82FE824B
:103D70000F831887C801B7010E94181FBC0161504A
:103D8000704077FF39C0EE27FF27E61BF70B20E0D6
:103D900030E040E050E081E090E0A0E0B0E00E2EA6
:103DA00004C0880F991FAA1FBB1F0A94D2F701975E
:103DB000A109B1098E219F21A023B1230097A1055C
:103DC000B10521F021E030E040E050E004C016955C
:103DD0000795F794E794EA95D2F72E293F29402BCF
:103DE000512B2D833E834F8358878EE190E0861BB5
:103DF000970B9C838B8313C06115710581F0062E90
:103E000004C0EE0CFF1C001F111F0A94D2F7ED82B4
:103E1000FE820F831887C61AD70ADC82CB821A82E9
:103E2000CE0101960E94671F2896E8E00C94C824F2
:103E3000EF92FF920F931F937B018C0180E0E816B5
:103E400080E0F80681E0080780E0180788F48FEF2B
:103E5000E816F1040105110531F028F088E090E042
:103E6000A0E0B0E017C080E090E0A0E0B0E012C0B9
:103E700080E0E81680E0F80680E0080781E0180797
:103E800028F088E190E0A0E0B0E004C080E190E09C
:103E9000A0E0B0E020E230E040E050E0281B390B29
:103EA0004A0B5B0B04C016950795F794E7948A9527
:103EB000D2F7F701EB59FE4F8081281B31094109E8
:103EC0005109C9011F910F91FF90EF900895DF9262
:103ED000EF92FF920F931F93FC01E480F58006811F
:103EE0001781D1808081823048F480E090E0A0E1A9
:103EF000B0E0E82AF92A0A2B1B2BA5C0843009F46C
:103F00009FC0823021F4EE24FF24870105C0E11414
:103F1000F1040105110519F4E0E0F0E096C06281BA
:103F200073819FEF623879070CF05BC022E83FEFA6
:103F3000261B370B2A3131052CF020E030E040E021
:103F400050E02AC0B801A701022E04C076956795FB
:103F5000579547950A94D2F781E090E0A0E0B0E051
:103F600004C0880F991FAA1FBB1F2A95D2F701977B
:103F7000A109B1098E219F21A023B1230097A1059A
:103F8000B10521F081E090E0A0E0B0E09A01AB0142
:103F9000282B392B4A2B5B2BDA01C9018F779070C4
:103FA000A070B07080349105A105B10539F427FFE8
:103FB00009C0205C3F4F4F4F5F4F04C0215C3F4F13
:103FC0004F4F5F4FE0E0F0E02030A0E03A07A0E084
:103FD0004A07A0E45A0710F0E1E0F0E079018A0115
:103FE00027C06038710564F5FB01E158FF4FD80127
:103FF000C7018F779070A070B07080349105A105D3
:10400000B10539F4E7FE0DC080E490E0A0E0B0E037
:1040100004C08FE390E0A0E0B0E0E80EF91E0A1FB4
:104020001B1F17FF05C016950795F794E794319667
:1040300087E016950795F794E7948A95D1F705C020
:10404000EE24FF248701EFEFF0E06E2F67956627DF
:104050006795902F9F77D794DD24D7948E2F8695E0
:10406000492F462B582F5D29B701CA011F910F9187
:10407000FF90EF90DF900895FC01DB0140815181BA
:104080002281622F6F7770E0221F2227221F9381E7
:10409000892F880F822B282F30E0991F9927991F8D
:1040A00011969C93119721153105A9F541155105DC
:1040B0006105710511F482E037C082E89FEF139625
:1040C0009C938E9312979A01AB0167E0220F331FE6
:1040D000441F551F6A95D1F783E08C930DC0220FC2
:1040E000331F441F551F12968D919C911397019772
:1040F00013969C938E931297203080E0380780E0CF
:10410000480780E4580758F314962D933D934D9338
:104110005C93179708952F3F310579F441155105A8
:104120006105710519F484E08C93089564FF03C060
:1041300081E08C9312C01C9210C02F573040139610
:104140003C932E93129783E08C9387E0440F551F86
:10415000661F771F8A95D1F7706414964D935D930F
:104160006D937C9317970895A0E0B0E0EAEBF0E23E
:104170000C94AA24EC01A880B980CA80DB80A11429
:10418000B104C104D10441F484E2A82E89EDB82E13
:104190008BE5C82E87E0D82EC601B5012DE133EF9F
:1041A00041E050E00E942B2527EA31E440E050E056
:1041B0000E940C257B018C01C601B5012DE133EF76
:1041C00041E050E00E942B25CA01B9012CEE34EFEA
:1041D0004FEF5FEF0E940C256E0D7F1D801F911F1A
:1041E00097FF04C061507040804090486883798395
:1041F0008A839B839B013F77C901CDB7DEB7EAE095
:104200000C94C6240E94B420089585E692E00E9492
:10421000B4200895A0E0B0E0809365029093660218
:10422000A0936702B09368020895662777270C94DD
:104230000423283008F027E03327DA01990F311DD5
:1042400087FD916000966105710539F432602E5F3B
:104250003D9330E32A95E1F708959F3F30F0803891
:104260007105610509F03C5F3C5F3D93913008F0BA
:104270008068911DDF93CF931F930F93FF92EF926E
:10428000192F987F9695E92F96959695E90FFF2718
:10429000E251FF4F99273327EE24FF24A701E701BE
:1042A00005900894079428F4360FE71EF81E491F5E
:1042B000511D660F771F881F991F0694A1F705905F
:1042C000079428F4E70EF81E491F561FC11D770FEB
:1042D000881F991F661F0694A1F70590079428F47C
:1042E000F80E491F561FC71FD11D880F991F661F43
:1042F000771F0694A1F70590079420F4490F561FE5
:10430000C71FD81F990F661F771F881F0694A9F72C
:1043100084911095177041F0D695C795579547959C
:10432000F794E7941A95C1F7E4E9F0E068941590E2
:10433000159135916591959105907FE27395E118FE
:10434000F10A430B560BC90BD009C0F7E10CF11E63
:10435000431F561FC91FD01D7EF4703311F48A9578
:10436000E6CFE894015030F0080F0AF40027021756
:1043700008F4202F2395022F7A3328F079E37D93D8
:104380002A95E9F710C07D932A9589F606949795AA
:104390006795379517951794E118F10A430B560B5B
:1043A000C90BD00998F023957E9173957A3308F064
:1043B00070E37C932013B8F77E9170617D9330F0A9
:1043C000839571E37D9370E32A95E1F71124EF90D3
:1043D000FF900F911F91CF91DF91992787FD9095C5
:1043E0000895FC010590615070400110D8F7809548
:1043F00090958E0F9F1F0895FB01DC0102C0019074
:104400000D9241505040D8F70895FB01DC01415016
:10441000504048F001900D920020C9F701C01D9254
:1044200041505040E0F70895FC0161507040019008
:104430000110D8F7809590958E0F9F1F0895A0E0EA
:10444000B0E0E5E2F2E20C94AC247C01EB018A01DD
:10445000690109C0CE012196F6010995F701819302
:104460007F010150104001151105A1F7CDB7DEB74E
:10447000E8E00C94C824A0E0B0E0E1E4F2E20C949F
:10448000AC24EC017B018A01690109C0F70161914B
:104490007F01CE012196F6010995015010400115CA
:1044A0001105A1F7CDB7DEB7E8E00C94C8240F934F
:1044B0001F93CF93DF938C01EB018B8181FF1BC096
:1044C00082FF0DC02E813F818C819D812817390785
:1044D00064F4E881F9810193F983E88306C0E885F3
:1044E000F985802F0995892B31F48E819F81019662
:1044F0009F838E8302C00FEF1FEFC801DF91CF9122
:104500001F910F910895AEE0B0E0E9E8F2E20C945B
:10451000B0240D891E8986E08C831A8309838FEF6E
:104520009FE79E838D83CE014996AC016F89788D7C
:10453000CE0101960E9457172F813885020F131F55
:10454000F80110822E96E4E00C94CC24FA01AA27FC
:10455000283051F1203181F1E8946F936E7F6E5FC6
:104560007F4F8F4F9F4FAF4FB1E03ED0B4E03CD074
:10457000670F781F891F9A1FA11D680F791F8A1F57
:10458000911DA11D6A0F711D811D911DA11D20D0BE
:1045900009F468943F912AE0269F11243019305D78
:1045A0003193DEF6CF010895462F4770405D419369
:1045B000B3E00FD0C9F7F6CF462F4F70405D4A33B6
:1045C00018F0495D31FD4052419302D0A9F7EACF7E
:1045D000B4E0A6959795879577956795BA95C9F7AD
:1045E00000976105710508959B01AC010A2E0694A0
:1045F0005795479537952795BA95C9F7620F731F59
:10460000841F951FA01D0895A0E0B0E0EAE0F3E24A
:104610000C94A824EC015B016115710519F0FB01F4
:10462000918380831991812F90E00E94D924892B56
:10463000C9F71D3221F41991FF24F39404C01B32F1
:1046400009F41991FF246E010894C108D10843E0D0
:1046500050E06EE871E0C6010E946324892B01F5E9
:104660008E010E5F1F4F45E050E061E971E0C80127
:104670000E946324892B19F48E01095F1F4FA11436
:10468000B10419F0F50111830083F0FC04C070E05F
:1046900090E080E814C070E090E080E86FEF08C11F
:1046A00043E050E066E971E0C6010E946324892B73
:1046B00069F4A114B10429F470E090E080EC6FE794
:1046C000F7C02296F501D183C083F6CF88249924C0
:1046D00040E050E060E070E0E12FE053EA30A0F508
:1046E000F2E0FF2A8F2D90E09C0128703070F2FEDE
:1046F00006C0232B79F50894811C911C2BC0232B19
:1047000019F0089481089108DB01CA0112E0880FB2
:10471000991FAA1FBB1F1A95D1F7480F591F6A1F6F
:104720007B1F440F551F661F771F4E0F511D611DC4
:10473000711D483929E9520729E9620729E1720701
:1047400048F084E0F82A06C0EE3F31F4F3FC39C0AB
:1047500098E0F92A1991C0CFE53311F0E53189F5D8
:1047600029912D3219F4E0E1FE2A05C02B3219F00F
:1047700081E090E003C0299182E090E0E22FE053D5
:10478000EA3018F0C81BD90B1CC020E030E0FCE078
:1047900020383F075CF4C901880F991F880F991FC3
:1047A000280F391F220F331F2E0F311DE991E053BF
:1047B000EA3068F3F4FE03C0309521953F4F820E36
:1047C000931ECF2CDD24F1FE07C0A114B10421F00B
:1047D0002197F501D183C083CB01BA010E949F1EAE
:1047E0007B018C01F3E0CF22DD2423E0C216D1044B
:1047F00021F417FB109517F910955701680120E077
:1048000030E040E050E0C801B7010E94E124882375
:1048100009F44AC097FE0DC02DEAE22E21E0F22EE7
:104820009094819491089394C0E2D0E005E010E068
:1048300012C095ECE92E91E0F92EF6CFF701259103
:10484000359145915491C601B5010E949D1C5B01B3
:104850006C018C1A9D0A8C169D0684F7D595C79518
:104860000115110539F08CEF9FEFE80EF91E01508C
:104870001040F1CFC501D6017C018D018C2D880F30
:104880008D2D881F8F3F51F020E030E040E050E058
:10489000C601B5010E94E124882331F482E290E050
:1048A00090936207809361077E2D9F2D802F612F4B
:1048B000272F392F482F562FB901CA01CDB7DEB7A0
:1048C000ECE00C94C424FB01DC014150504088F022
:1048D0008D9181341CF08B350CF4805E65916134D0
:1048E0001CF06B350CF4605E861B611171F3990B43
:1048F0000895881BFCCFAA1BBB1B51E107C0AA1F50
:10490000BB1FA617B70710F0A61BB70B881F991F70
:104910005A95A9F780959095BC01CD01089597FB14
:10492000092E07260AD077FD04D0E5DF06D0002047
:104930001AF4709561957F4F0895F6F790958195DB
:104940009F4F08952F923F924F925F926F927F9266
:104950008F929F92AF92BF92CF92DF92EF92FF928F
:104960000F931F93CF93DF93CDB7DEB7CA1BDB0B3B
:104970000FB6F894DEBF0FBECDBF09942A883988E0
:1049800048885F846E847D848C849B84AA84B984E7
:10499000C884DF80EE80FD800C811B81AA81B981F3
:1049A000CE0FD11D0FB6F894DEBF0FBECDBFED0107
:1049B000089591112EC0803219F089508550D0F79A
:1049C000089503D008F481E00895990F0008550F69
:1049D000AA0BE0E8FEEF16161706E807F907C0F085
:1049E00012161306E407F50798F0621B730B840B8D
:1049F000950B39F40A2661F0232B242B252B21F467
:104A000008950A2609F4A140A6958FEF811D811D06
:104A10000895992788270895629FD001739FF00118
:104A2000829FE00DF11D649FE00DF11D929FF00D3E
:104A3000839FF00D749FF00D659FF00D9927729F75
:104A4000B00DE11DF91F639FB00DE11DF91FBD0100
:104A5000CF011124089597FB092E05260ED057FD8E
:104A600004D014D00AD0001C38F4509540953095ED
:104A700021953F4F4F4F5F4F0895F6F790958095E2
:104A8000709561957F4F8F4F9F4F0895A1E21A2E29
:104A9000AA1BBB1BFD010DC0AA1FBB1FEE1FFF1FE2
:104AA000A217B307E407F50720F0A21BB30BE40B32
:104AB000F50B661F771F881F991F1A9469F7609579
:104AC0007095809590959B01AC01BD01CF01089533
:044AD000F894FFCF88
:104AD400E80380646567460025660048E17EC19A64
:104AE40099D94052B8B24148E10B42D7A338426643
:104AF4006662423D8A854200009A42AE47AF42D781
:104B040023C64233B3DF4214AEFD4266A611437B93
:104B1400142C4333335B43142E2D44000000000057
:104B24000000000000000033726F75740000000084
:104B34000000000000000102020303030304040454
:104B44000404040404050505050505050505050516
:104B540005050505050606060606060606060606F6
:104B640006060606060606060606060606060606E1
:104B740006060606060707070707070707070707C6
:104B840007070707070707070707070707070707B1
:104B940007070707070707070707070707070707A1
:104BA4000707070707070707070707070707070791
:104BB4000707070707080808080808080808080876
:104BC4000808080808080808080808080808080861
:104BD4000808080808080808080808080808080851
:104BE4000808080808080808080808080808080841
:104BF4000808080808080808080808080808080831
:104C04000808080808080808080808080808080820
:104C14000808080808080808080808080808080810
:104C24000808080808080808080808080808080800
:0A4C3400080808080801000000004D
:00000001FF
