:100000000C94E5000C940D010C940D010C940D0161
:100010000C940D010C940D010C940D010C940D0128
:100020000C9428010C940F010C940D010C940D01FB
:100030000C94C6050C940D010C940D010C940D014B
:100040000C940D010C940D010C940D010C940D01F8
:100050000C9465110C94A8110C940D010C940D01D5
:100060000C940D010C940D010C940D010C940D01D8
:100070000C940D010C940D010C940D010C940D01C8
:100080000C9430030C940D010C940D016E616E0004
:10009000696E660000407A10F35A00A0724E18098B
:1000A0000010A5D4E80000E87648170000E40B54DF
:1000B000020000CA9A3B000000E1F50500008096AE
:1000C0009800000040420F000000A08601000000E0
:1000D000102700000000E80300000000640000009A
:1000E00000000A00000000000100000000002C7663
:1000F000D888DC674F0823DFC1DFAE59E1B1B7967E
:10010000E5E3E453C63AE651997696E8E6C28426DA
:10011000EB898C9B62ED407C6FFCEFBC9C9F40F2B6
:10012000BAA56FA5F490055A2AF75C936B6CF96732
:100130006DC11BFCE0E40D47FEF520E6B500D0EDF7
:10014000902E0300943577050080841E080000205F
:100150004E0A000000C80C333333330F986E1283FD
:100160001141EF8D2114893BE65516CFFEE6DB18D1
:10017000D1844B381BF77C1D901DA4BBE424203296
:1001800084725E228100C9F124ECA1E53D27494E2D
:1001900046494E4954594E414ECDCCCC3D0AD72309
:1001A0003C17B7D13877CC2B329595E6241FB14F49
:1001B0000A000020410000C84200401C4620BCBE8E
:1001C0004CCA1B0E5AAEC59D740011241FBECFEF42
:1001D000D0E4DEBFCDBF14BE88E10FB6F8948093A3
:1001E0006000109260000FBE12E0A0E0B1E0E6EC0B
:1001F000F2E400E00BBF02C007900D92AA36B107EF
:10020000D9F715E0AAE6B2E001C01D92A234B10709
:10021000E1F70E94270A0C9461210C9400001F92C0
:100220000F920FB60F920BB60F9211248F93EF938C
:10023000FF93E0E7F0E080818D7F8083FF91EF9175
:100240008F910F900BBE0F900FBE0F901F901895BF
:100250001F920F920FB60F9211248F9388E10FB661
:10026000F89480936000109260000FBE8F910F9001
:100270000FBE0F901F9018950F931F93DF93CF938E
:100280000F92CDB7DEB78C018091F704882309F473
:100290008DC082E102C00E94480A81518230D8F3A9
:1002A0000E94CC0A80917A008F7780937A0080B781
:1002B000806880BF8FEA809364008FEF8093650031
:1002C00011B882B92A9A17B888B98BB18F6B8BB9DC
:1002D0008FB78983F89485B7806685BF85B78F7D92
:1002E00085BF89818FBF8091B60080628093B60000
:1002F0008091B10087608093B1008091B60080FD4D
:10030000FCCF3FC00C34110528F03093B3000B54E0
:1003100010400EC0C80144E0880F991F4A95E1F7CC
:1003200065E070E00E9474206093B30000E010E08C
:100330008091B60083FDFCCF1092B2008091B60090
:1003400084FDFCCFB99A8091700082608093700028
:100350008FB78983F89483B7817F866083BF83B723
:10036000816083BF7894889583B78E7F83BF8981AE
:100370008FBF0FB6F89420936000109260000FBEFC
:1003800002C030EF28E10115110509F0BBCF109232
:1003900064001092650080E090E00E94980F0E9437
:1003A000DC030E94FB0A89E00E94AF0B0F90CF9103
:1003B000DF911F910F91089508950895DF93CF93D2
:1003C0000F92CDB7DEB78FB78983F8942091AD0235
:1003D0003091AE0289818FBFC9010F90CF91DF911B
:1003E0000895DF93CF930F92CDB7DEB7AC0100979E
:1003F00019F4FB01099530C08FB78983F894ACE6F6
:10040000B2E0E0E08D919C911197892B09F52E2F98
:1004100030E0F901EE0FFF1FEE0FFF1FE20FF31F99
:10042000E459FD4FCA014115510511F481E090E0F6
:1004300091838083F901EE0FFF1FEE0FFF1FE20F84
:10044000F31FE459FD4F7483638390916A0234C0B3
:10045000EF5F1596EA30B1F690E03DC091E0EEE630
:10046000F2E041E08081891709F440E0359682E0AE
:10047000E03AF807B9F78091A002891709F440E043
:100480008091A502891709F440E08091AA0289179A
:1004900099F0442389F090936A02F901EE0FFF1F4F
:1004A000EE0FFF1FE20FF31FE459FD4F928380917F
:1004B0006B02882321F00DC09F5F89F6CFCF109289
:1004C00095001092940082E08093710081E0809307
:1004D0006B0289818FBF892F0F90CF91DF91089593
:1004E000DF93CF930F92CDB7DEB7AC01009719F42D
:1004F000FB01099516C080919E0290919F02892B65
:1005000011F4E0E011C08091A3029091A402892B24
:1005100011F4E1E009C08091A8029091A902892B11
:1005200011F090E050C0E2E02E2F30E0F901EE0F24
:10053000FF1FEE0FFF1FE20FF31FE256FD4F518327
:1005400040837483638390916A029F5F09F491E012
:10055000EEE6F2E041E08081891709F440E035964B
:1005600082E0E03AF807B9F78091A002891709F410
:1005700040E08091A502891709F440E08091AA0229
:10058000891719F3442309F390936A02F901EE0FD6
:10059000FF1FEE0FFF1FE20FF31FE256FD4F928386
:1005A0008FB78983F89480916B02882351F410925D
:1005B00095001092940082E08093710081E0809316
:1005C0006B0289818FBF892F0F90CF91DF910895A2
:1005D000982FEEE6F2E020E030E08081891769F4A0
:1005E000F901EE0FFF1FEE0FFF1FE20FF31FE4599B
:1005F000FD4F11821082128208952F5F3F4F359672
:100600002A30310551F78091A002891719F480E052
:1006100090E00DC08091A502891719F481E090E067
:1006200006C08091AA02891771F482E090E0FC0173
:10063000EE0FFF1FEE0FFF1FE80FF91FE256FD4FF1
:100640001182108212820895E1E9F0E080818A60CF
:10065000808388EE93E090939900809398000895AA
:100660001F920F920FB60F920BB60F921124DF92CA
:10067000EF92FF920F931F932F933F934F935F93AC
:100680006F937F938F939F93AF93BF93EF93FF935A
:10069000DF93CF9300D00F92CDB7DEB78091AD023C
:1006A0009091AE0201969093AE028093AD0280913C
:1006B0000001909101010197909301018093000145
:1006C000892B49F00CE612E066E1D62E7E010894F3
:1006D000E11CF11C27C088EE93E090930101809308
:1006E00000010EE912E056E1D52E7E010894E11CCE
:1006F000F11CF80180819181009769F00197918345
:100700008083892B41F4D982838194819B838A835E
:10071000C7010E9458080B5F1F4FF2E00D3A1F07F8
:1007200041F7D0CFF80180819181009769F001975E
:1007300091838083892B41F4D982838194819B8327
:100740008A83C7010E9458080B5F1F4FF2E00E39E1
:100750001F0741F70F900F900F90CF91DF91FF91FE
:10076000EF91BF91AF919F918F917F916F915F9129
:100770004F913F912F911F910F91FF90EF90DF903C
:100780000F900BBE0F900FBE0F901F9018959C01FD
:10079000F999FECF32BD21BDF89A80B508959C012C
:1007A000F999FECF1FBA32BD21BD60BD0FB6F894D6
:1007B000FA9AF99A0FBE089584B1806A84B92F9A83
:1007C000249A2C9A80E58CBD81E08DBD0895239AF2
:1007D000219A84B1806A84B92F9A249A2C9A80E550
:1007E0008CBD81E08DBDEFE6F0E08081806280838A
:1007F00083E480938100B59A0895DF93CF930F929D
:10080000CDB7DEB780689FB79983F8942C988EBDDA
:100810000DB407FEFDCF8EB58EBD0DB407FEFDCF26
:100820008EB52C9A99819FBF0F90CF91DF9108953B
:10083000DF93CF930F92CDB7DEB7982F906C8FB721
:100840008983F8942C989EBD0DB407FEFDCF8EB51C
:100850006EBD0DB407FEFDCF8EB52C9A89818FBF7A
:100860009F73923059F46F71663011F0663121F444
:1008700081E080932E0502C010922E050F90CF913B
:10088000DF910895FF920F931F93062FF42E0E947D
:10089000FD03082310E002C015950795FA94E2F7CE
:1008A000802F1F910F91FF900895DF92EF92FF929A
:1008B0000F931F93D82EF62EE42E022F0E94FD03D5
:1008C0006F2D6095682310E002C0000F111FEA949D
:1008D000E2F7F0226F298D2D0E9418041F910F91CD
:1008E000FF90EF90DF900895DF93CF930F92CDB7F5
:1008F000DEB78FB78983F8942C9880E28EBD0DB453
:1009000007FEFDCF8EB58EBD0DB407FEFDCF9EB5A3
:10091000892F83508D37A8F49093DB039EBD0DB4CF
:1009200007FEFDCFECEDF3E08EB51EBC81930DB458
:1009300007FEFDCF9150C1F78EB580935B042C9AD2
:1009400007C02C9A1092DB0310925B0410925C0497
:1009500089818FBF0F90CF91DF910895DF93CF935F
:100960000F92CDB7DEB7FC016F778FB78983F8940C
:100970002B9A2B982C9880E68EBD0DB407FEFDCFE8
:100980008EB56EBD0DB407FEFDCF8EB581918EBDC7
:1009900061500DB407FEFDCF8EB56623B9F72C9AD2
:1009A00089818FBF0F90CF91DF910895DF93CF930F
:1009B0000F92CDB7DEB7982FFA018FB78983F894DD
:1009C0002C981EBC0DB407FEFDCF8EB59EBD0DB498
:1009D00007FEFDCF8EB51EBC0DB407FEFDCF8EB554
:1009E0008083615011F03196F6CF2C9A89818FBFA8
:1009F0000F90CF91DF910895DF93CF930F92CDB7F2
:100A0000DEB7982FFA018FB78983F8942C9880E489
:100A10008EBD0DB407FEFDCF8EB59EBD0DB407FE95
:100A2000FDCF8EB581918EBD0DB407FEFDCF8EB585
:100A30006150C1F72C9A89818FBF0F90CF91DF91C0
:100A400008950895DF93CF930F92CDB7DEB7E62FC9
:100A5000BA012FB72983F8942FEC33E04E2F50E0E2
:100A60000E94341E89818FBF0F90CF91DF9108952E
:100A7000DF93CF930F92CDB7DEB7FC01CA012FB73A
:100A80002983F89427EC33E0462F50E0BF010E9401
:100A9000181E89818FBF0F90CF91DF910895DF924B
:100AA000EF92FF920F931F93DF93CF9300D0CDB7B8
:100AB000DEB78091AF02882311F011E05CC081E0C5
:100AC0008093AF02D0906600F89461E00E94E20A41
:100AD000E090B100F0908100009180001092B10090
:100AE000109281001092800020E030E063E056E038
:100AF0004FEF6093B100509381001092B2001092BA
:100B000085001092840046BB47BBB89BFECF809106
:100B10008400909185009A838983109281001092BD
:100B2000B10089819A818A5F934020F480916600A8
:100B300081500AC089819A818650944010F411E056
:100B40000CC0809166008F5F809366002F5F3F4FDF
:100B500083E0283E380769F610E060E081E00E94FB
:100B6000E20AE092B100F09281000093800011232C
:100B700011F4D0926600812F0F900F90CF91DF91EA
:100B80001F910F91FF90EF90DF9008951F920F92A9
:100B90000FB60F920BB60F9211240F931F932F9342
:100BA0003F934F935F936F937F938F939F93AF93F5
:100BB000BF93EF93FF938FE00E94FD03082F182F40
:100BC00083FF02C00E94420C14FF02C00E943C0935
:100BD00012FF10C02C9880E28EBD0DB407FEFDCF31
:100BE0008EB51EBC0DB407FEFDCF8EB52C9A0E94AB
:100BF000830A0AC007FF08C08EE00E94FD038F77BA
:100C0000682F8EE00E941804FF91EF91BF91AF9181
:100C10009F918F917F916F915F914F913F912F9114
:100C20001F910F910F900BBE0F900FBE0F901F9052
:100C300018958093F3040E94210B08951F93182F99
:100C40008FEF9FEF9093EB048093EA049093ED0471
:100C50008093EC041092E7049093EF048093EE04E9
:100C60009093F1048093F0041092F2041092F60431
:100C700081E08093F7040E94DC0C1093F3041F3F83
:100C800019F0812F0E94210B81E00E94970B88E0D0
:100C90000E94AF0B0E94470A21E042E064E087E136
:100CA0000E94550486E10E94AF0B4FED54E068E0CE
:100CB00080E090E00E94380580E00E94B50A8FEF46
:100CC0009FEF0E949D0A8FEF9FEF0E94A90A22E0EA
:100CD00044E060EF8CE20E9455048FED94E00E94A6
:100CE0008D0A0E949A061F910895089580E090E071
:100CF000089580E008958FEF9FEF089580E00895B4
:100D000080E008950895089580E090E0089580E0DF
:100D100090E0089580E090E0089580E090E00895EC
:100D200008950895089580E090E00895089580E082
:100D300090E00895089508950895FC0185858F77C2
:100D40008587089580E090E0089580E090E0089520
:100D500021E0880F991FFC0133E0EE0FFF1F3A9549
:100D6000E1F7E81BF90BEF54FD4F8081882331F048
:100D700081859285009719F02F5FEBCF20E0822FBD
:100D800008958091B0020E94E8028091E70491E00A
:100D900089270E94E5120895CF93DF93EC01862FF7
:100DA0000E94190683E698EC90935F0480935E049A
:100DB0008091E904809360048F5F8093E9048091BF
:100DC000EA049091EB049093620480936104D093C1
:100DD0006404C0936304A5E6B4E0EFEDF4E088E0BA
:100DE00001900D928150E1F781E080936D04D093E2
:100DF0006F04C0936E0483E0809370046EE574E02A
:100E000083E10E941B0C61EC76E084E690E00E9496
:100E1000F1018093B002DF91CF9108950895DF939F
:100E2000CF9300D0CDB7DEB70F900F90CF91DF9169
:100E30000895089508950895DF93CF93CDB7DEB751
:100E400060970FB6F894DEBF0FBECDBF81E698E87D
:100E50009A8389838091E9048B838F5F8093E9046F
:100E60008091EA049091EB049D838C838091EC0443
:100E70009091ED04998788879D878C878091B10236
:100E80009091B2029B878A878091B3028E870E94DD
:100E9000370A8F870E943A0A888B8091EE049091DE
:100EA000EF049F838E83BE016F5F7F4F80E10E94BE
:100EB0001B0C60960FB6F894DEBF0FBECDBFCF916E
:100EC000DF910895282F8091EC049091ED0468172C
:100ED000790789F08091E704882369F07093B20262
:100EE0006093B1022093B3021092B4020E941C07D7
:100EF00081E08093F60408956EE574E080915D04CE
:100F00000E941B0C0895EF92FF920F931F93CF93B3
:100F1000DF93EC01062F7A01122F2091EC0430911F
:100F2000ED048217930709F470C08FEFCF3FD80705
:100F300009F46BC08091E704882309F466C081E658
:100F400098E890935F0480935E048091E904809315
:100F500060048F5F8093E9048091EA049091EB0430
:100F60009093620480936104309366042093650437
:100F7000D0936804C093670430936A042093690493
:100F8000CE010E943109163029F4D0936404C09335
:100F9000630408C08091EE049091EF049093640480
:100FA000809363048091F7048111106810936B049F
:100FB00090E009C0E92FF0E0E25AFB4FD7018D9194
:100FC0007D0186879F5F9017A8F32091630430917D
:100FD00064048091EC049091ED0428173907A9F07E
:100FE0002F5F3F4F91F0025F00935D041650123067
:100FF00018F087E090E002C080E090E06CE777E0D6
:101000000E94F10181E08093F604DF91CF911F915E
:101010000F91FF90EF9008958091E90390E08F7712
:10102000907082309105E1F0833091051CF40197B6
:1010300021F506C083309105D1F00697F1F403C085
:101040000E94FF1208951092F70426E04CEE54E03F
:1010500062E08091EE049091EF040E94830708956E
:101060008091E7039091E8030E94A6120895809171
:10107000E7039091E8030E948D12089521E00E94F9
:1010800083070895DC010D900020E9F7A81B27E0F5
:10109000AC016A2F80E090E00E9483070895909150
:1010A000F8048091F90420E0981321E0822F08953C
:1010B0000F931F93182F092F8091F8042091F904A2
:1010C00090E001966AE070E00E94882030E082178C
:1010D0009307D9F04091F804842F90E0FC01EE0FC3
:1010E000FF1FE80FF91FE650FB4F212F302FC901DA
:1010F000DC0183E00D9001928150E1F7842F8F5F36
:101100008A3008F080E08093F8041F910F910895D1
:10111000DF93CF930F92CDB7DEB78091F904898327
:10112000998189818F5F898389818A3008F019824A
:1011300089818093F90423E0929F90011124265025
:101140003B4FC9010F90CF91DF9108950F931F93EB
:10115000DF93CF930F92CDB7DEB703E011E06FC0FE
:101160008091F90489838981809FF0011124E650E0
:10117000FB4F89818F5F898389818A3008F01982CA
:1011800089818093F9048081833109F450C08431CE
:1011900050F4813109F451C0823108F04BC08031E4
:1011A00009F04DC014C0863169F0883111F18431E5
:1011B00009F045C08091E704882309F040C00E94EF
:1011C00091093DC00180F281E02D099538C08091E0
:1011D000E7048823A1F12091E5033091E603809193
:1011E000EC049091ED042817390749F50E940C088A
:1011F00026C08091DC039091DD0383569C48F9F46E
:101200001093E7048091E9039091EA039093EF042F
:101210008093EE048091EC039091ED039093ED04A4
:101220008093EC040E949D0A0E94C10608C00E949F
:101230001C1305C00E941F1302C00E944913909105
:10124000F8048091F904981709F08ACF0F90CF9194
:10125000DF911F910F9108950895089508950895BD
:10126000089580E008958091B50208958093020169
:101270000895809102010895089508951F9310E044
:1012800080911D058F3FE1F011E08091190590914B
:101290001A059093EB048093EA0420911B0530918A
:1012A0001C053093EF042093EE040E94A90A80915C
:1012B0001D050E941906809121058F5F8093F2041D
:1012C000812F0E94D5121F91089520915B04809177
:1012D000DD038295869586958370809318058091AD
:1012E000DF039091E00390931A0580931905809194
:1012F000E1039091E20390931C0580931B0580917C
:10130000E603809321058091F304815080931D05AD
:1013100010921E05209322050E94370A8093230510
:1013200008951F9340915B048091B502882359F181
:1013300020911F05309120058091E3039091E403F3
:101340009093200580931F058091200587FF05C09D
:101350003093200520931F0516C080912205841725
:1013600080F0841781F4909121058091E60389171C
:1013700040F0981741F4109123050E94370A18177E
:1013800010F40E9465091F9108959091F3049F3F06
:10139000B1F481E08093B50286E1E8E1F5E0DF0198
:1013A0001D928A95E9F790931D058BE08093F304D5
:1013B00080910201803839F08093F30404C082E008
:1013C00090E00E943C014091F3044B3148F4242FFB
:1013D00030E08091020190E001962817390741F42E
:1013E0001092B5028FEF8093F3040E943E09089596
:1013F000842F0E94190683E098E090935F04809305
:101400005E048091E804809360048F5F8093E80419
:101410008FEF9FEF90936204809361049093640434
:101420008093630487E0809365046EE574E088E050
:101430000E941B0C8091F3048F5F8093F30465EC92
:1014400079E084E190E00E94F101089508950E94FE
:10145000210580E090E00E94980F0E9424030E94E2
:10146000CA1278940E94EA110E94A608FACF8091CD
:10147000B702089580915B04089529982B988DE018
:1014800090E00197F1F7299A089508950895089535
:1014900040E06FE181E00E944204089540E06FE186
:1014A00081E00E944204282F8151823058F022307E
:1014B00049F0213039F080E090E02E3129F481E0CC
:1014C00090E0089581E090E00895CF93DF93EC01E0
:1014D00040E06FE181E00E944204863021F08130DB
:1014E00011F084E407C040E06FE186E00E9442040E
:1014F000888380E4DF91CF91089540E06FE188E038
:101500000E944204089540E06FE186E00E94420498
:101510008093B7021092F60408951F93CF93DF9340
:10152000EC0114E26991812F0E9418041F5F1C32A4
:10153000C9F7DF91CF911F9108951F93192F682F3D
:1015400080E20E941804612F81E20E9418041F911A
:1015500008951F93192F682F82E20E941804612FAB
:1015600083E20E9418041F910895282F43E068E049
:101570008EE20E94550408952B988DE090E001972B
:10158000F1F723E040E06FE182E00E94550483E040
:1015900090E00197F1F708951B9B02C080E4089545
:1015A0000E94BC0A8BE490E00197F1F740E06FE104
:1015B00081E00E944204883011F083E408952B9A60
:1015C00080E408951F93162F663010F082E411C056
:1015D000882311F421E001C020E043E068E083E0CB
:1015E0000E945504212F40E067E083E00E945504EB
:1015F00080E41F9108951B9902C080E408952B9800
:1016000081EE96E00197F1F760E081E00E94E20A46
:1016100040E06FE181E00E944204883071F383E48E
:101620000895282F803110F082E408951B9B02C09A
:1016300084E4089540E06FE085E00E94550480E472
:1016400008951F93182F8B50803110F082E428C02A
:101650001B9B02C084E424C040E06FE188E00E944C
:1016600042048117E1F0212F40E06FE188E00E9401
:10167000550440E06FE181E00E944204863011F0A1
:10168000893021F48DE291E00197F1F740E06FE1BC
:1016900088E00E944204811711F083E401C080E4D5
:1016A0001F9108958091B602882329F48CE10E944D
:1016B000FD038093B6028091B60208950F931F93A5
:1016C000DF93CF9300D0CDB7DEB7082F198240E06B
:1016D0006FE181E00E944204182F0E94520B833078
:1016E00021F00E94520B8730C9F4163019F4069588
:1016F00010E010C0163191F4FACF45E060E686E0C4
:101700000E9442048A8389819A81880F880F892BDD
:1017100089831F5F101788F3898102C00E94071D0B
:101720000F900F90CF91DF911F910F9108951F930C
:10173000182F0E94520B823031F4212F47E060E8CD
:1017400085E00E9455040E94520B833031F4212F12
:1017500045E060E284E00E9455041F9108950F93D4
:101760001F93182F883051F0863041F0893031F0C6
:10177000863121F0893111F082E45AC01B9B02C0EE
:1017800084E456C00E944E0A8823E1F70E94520B5F
:10179000823039F40E943309882319F0163109F494
:1017A00016E040E06FE181E00E944204082F181724
:1017B00009F43DC0183019F40E94BC0A2FC0193139
:1017C00059F48930E1F029E040E06FE182E00E94C5
:1017D0005504063181F40CC0163189F4893079F052
:1017E00029E040E06FE182E00E945504093119F4DC
:1017F00083E090E002C089E691E00197F1F7212FA4
:1018000040E06FE182E00E945504083019F489E657
:1018100091E002C083E090E00197F1F740E06FE1D2
:1018200081E00E944204811711F083E401C080E44A
:101830001F910F9108951F93CF93DF93182FEB0102
:1018400087FF02C082E41AC00E944E0A8823E1F793
:1018500089E10E94AF0B40E06FE181E00E94420409
:101860008931B1F78D819E819093F5048093F404C2
:101870001E5F612FCE010E94AE0480E4DF91CF9104
:101880001F910895DF93CF9300D000D00F92CDB772
:10189000DEB740E06FE181E00E9442048A838A81E2
:1018A000813151F08A81863039F08A81813021F08E
:1018B0008A81863109F046C00E9474049091DD034C
:1018C00080E02091DC03AC01420F511D9A01809110
:1018D000E1038F3F41F48091E2038F3F21F4842F95
:1018E000807F09F061C01B821D821C8258E821366E
:1018F0003507B1F088E82236380720F42050304808
:10190000E1F408C058E82336350761F023563C4817
:10191000A1F40FC00E943309882379F084E10CC040
:1019200080E10AC08091E503823019F08B3B29F4F5
:1019300002C088E101C089E18B83CE0103960E9439
:10194000580832C08A81823049F08A81823131F070
:101950008A81893119F08A81893031F51092F60433
:101960001B821D821C8245E060EE82E00E944204E0
:1019700089838981833051F0843018F4823050F4A7
:1019800003C0853039F404C081E103C083E101C0A4
:1019900082E18B838B81882321F0CE0103960E9404
:1019A000580886E10E94AF0B0F900F900F900F9098
:1019B0000F90CF91DF910895FF920F931F93F82E10
:1019C0000DEF13E0C8010197F1F70E94E703299892
:1019D0002B988DE090E00197F1F7299A23E040E001
:1019E0006FE182E00E945504C8010197F1F76CE0B5
:1019F0008EE00E94180427E040E06FE089E00E943A
:101A00005504FF2011F00E944F0580E41F910F91B3
:101A1000FF90089583E395E008958091CC020895A6
:101A2000089508950895089508951092CD02089597
:101A30008091CD02882371F01092CD028091CE0268
:101A40000E94E80261EC7EE082E390E00E94F101F6
:101A50008093CE0208958091CD02882391F0109258
:101A6000CD028091310590913205892B51F0809102
:101A7000F704882331F068E27FE082E390E00E947F
:101A8000F10108958091310590913205892B21F063
:101A90008091CE020E94E80261EC7EE084E690E054
:101AA0000E94F1018093CE02089588E00E945E0BAF
:101AB000992787FD9095A92FB92FBC01CD010E94D0
:101AC000431A20E030E04AE754E40E94991920913B
:101AD0003B0530913C0540913D0550913E050E94EB
:101AE00072189B01AC0120933B0530933C05409359
:101AF0003D0550933E0508956F927F928F929F927D
:101B0000AF92BF92CF92DF92EF92FF920F931F930B
:101B1000DF93CF93CDB7DEB72C970FB6F894DEBF27
:101B20000FBECDBFFC0180818530D9F1863038F4FD
:101B3000823009F409C1833009F00EC107C0873033
:101B400009F447C0893009F007C15FC081819281E3
:101B500090933205809331050A9730F48AE090E043
:101B6000909332058093310541E355E062E080E1D6
:101B700090E00E9422058091310590913205892BD9
:101B800019F081E08093F7048091CE020E94E80270
:101B900061EC7EE08AE090E00E94F1018093CE0249
:101BA000DBC08091EC049091ED0426E02C8321E0D1
:101BB0002D839F838E83DE011896E3E0F1E085E0BC
:101BC00001900D928150E1F7AE014C5F5F4F69E0EB
:101BD00017C088E089838091E90490E02CE231E02D
:101BE000AC01429FC001439F900D529F900D112464
:101BF000805090489B838A83AE014F5F5F4F63E0C4
:101C000080E090E00E943E08A7C0B1800B2D10E05C
:101C1000CF0102960E94171D6B017C01000F111F5E
:101C2000000F111F00541D4FF801C082D182E282C3
:101C3000F38280E090E0A0E0B0E08093BC0290935B
:101C4000BD02A093BE02B093BF020E94550D9B013E
:101C5000AC01C701B6010E9441186093BC027093A9
:101C6000BD028093BE029093BF0248EB52E068E051
:101C700088E090E00E942205F80180819181A28194
:101C8000B38180933B0590933C05A0933D05B093B1
:101C90003E05BB2009F460C06090C0027090C10294
:101CA0008090C2029090C3022091C4023091C5027C
:101CB0004091C6025091C702C401B3010E9441186D
:101CC0007B018C016091C8027091C90280E090E0B4
:101CD0000E94A11A5B016C016091CA027091CB0253
:101CE00080E090E00E94A11A9B01AC01C601B50101
:101CF0000E9441189B01AC01C801B7010E949919CB
:101D00007B018C01A60195010E949F189B01AC01EB
:101D1000E092B802F092B9020093BA021093BB02AB
:101D2000C401B3010E9441186093BC027093BD02CC
:101D30008093BE029093BF0248EB52E068E088E0D7
:101D400090E00E94220508C0319648E050E0BF01B3
:101D500083E395E00E94FE1D2C960FB6F894DEBF3B
:101D60000FBECDBFCF91DF911F910F91FF90EF90EC
:101D7000DF90CF90BF90AF909F908F907F906F90AB
:101D800008950F931F93DF93CF93CDB7DEB7AA9734
:101D90000FB6F894DEBF0FBECDBF8091E704882355
:101DA00009F44BC02091EC043091ED04FE017596CE
:101DB00086E1DF011D928A95E9F784E08D8B3F8BE8
:101DC0002E8BDE015E96E3E0F1E085E001900D925E
:101DD0008150E1F748E050E063E375E0CE0183967F
:101DE0000E94FE1D0E94550D9F938F937F936F93CA
:101DF00088E091E09F938F938E010F5F1F4F1F9399
:101E00000F930E947C1E46E050E0B801CE01489638
:101E10000E94FE1DAE014B5E5F4F66E180E090E0E8
:101E20000E943E0881E08093CD028DB79EB7089650
:101E30000FB6F8949EBF0FBE8DBFAA960FB6F8944A
:101E4000DEBF0FBECDBFCF91DF911F910F910895DF
:101E500041E355E062E080E190E00E943805909116
:101E60003105992309F491E08091F704882331F03A
:101E7000892F90E00E943C010E94C10E089541E329
:101E800055E062E080E190E00E94380580913105E4
:101E9000909132058F5F9F4F21F41092320510927E
:101EA000310586E10E94AF0B88E00E945E0B992706
:101EB00087FD9095A92FB92FBC01CD010E94431A2F
:101EC00020E030E048EC52E40E94991920E030E034
:101ED0004CE852E40E94721860933B0570933C05F5
:101EE00080933D0590933E0586E10E94AF0B88E00C
:101EF0000E945E0B992787FD9095A92FB92FBC01F1
:101F0000CD010E94431A20E030E048EC52E40E94E8
:101F1000991920E030E040E052E40E94721860938A
:101F20003B0570933C0580933D0590933E050895D5
:101F30001092530320915303209352031092D10225
:101F40002091D1022093D00228E92093C10026E0FD
:101F50002093C2001092C5002CE02093C4009093FF
:101F6000D5038093D40308951092C1000895382FAB
:101F70008091D7038823D9F578949091D0029F5F00
:101F800097FF05C090E003C0222319F00EC02091F6
:101F9000D6038091D1029817B9F3E091D002F0E016
:101FA000E053FD4F32839093D0028091C10085FDB4
:101FB0001EC08091C00085FFFCCF9091D102E92F17
:101FC000F0E0E053FD4F22818091D002981711F488
:101FD0002FEF06C0E92FEF5FE7FDE0E0E093D102CD
:101FE0002093C6008091C10080628093C100089553
:101FF000CF93DF93EC0103C00E94B70F2196888135
:102000008823D1F7DF91CF91089580915203909169
:102010005303282F30E0291B310937FF02C0205815
:102020003F4F822F08958091520390915303282FA0
:1020300030E0291B310937FF02C020583F4F822F63
:1020400008958091D0029091D102282F30E0291B71
:10205000310937FF02C020583F4F822F08959091D9
:10206000D102E92FF0E0E053FD4F22818091D002B0
:10207000981711F42FEF06C0E92FEF5FE7FDE0E0BE
:10208000E093D102822F08958091520390915303DF
:10209000282F30E0291B310937FF02C020583F4F5D
:1020A000222391F390915303E92FF0E0EE5AFC4F75
:1020B000228180915203981711F42FEF06C0E92F67
:1020C000EF5FE7FDE0E0E0935303822F0895DF9296
:1020D000EF92FF920F931F93CF93DF93EC01D42ED7
:1020E00000E0E62EFF240894E108F10880915203F5
:1020F00090915303282F30E0291B310937FF02C08C
:1021000020583F4F222391F390915303E92FF0E0A1
:10211000EE5AFC4F128180915203981711F41FEF71
:1021200006C0E92FEF5FE7FDE0E0E0935303802F67
:1021300090E08E159F0524F01D3011F01830B1F697
:10214000DD2019F0812F0E94B70F183061F01D308B
:1021500089F41882802FDF91CF911F910F91FF900A
:10216000EF90DF900895002309F4C0CF015018824A
:102170002197BCCF19930F5FB9CF90E08091D7031F
:10218000882309F491E09093D703089508958091EE
:10219000520390915303282F30E0291B310937FF58
:1021A00002C020583F4F222309F455C080915203AA
:1021B00090915303282F30E0291B310937FF02C0CB
:1021C00020583F4F222391F390915303E92FF0E0E1
:1021D000EE5AFC4F228180915203981711F42FEF91
:1021E00006C0E92FEF5FE7FDE0E0E0935303809145
:1021F00057018533E1F0863328F4833341F084338B
:10220000A1F509C08633C9F0873379F526C021309E
:1022100089F484E30FC0822F2B3008F08AE080938A
:102220004B0185E3809357011092CF0214C0209395
:102230004C0186E3809357010EC09091CF028091AC
:102240004B01981750F4E92FF0E0E55BFE4F228335
:102250009F5F9093CF0280E0089583E380935701BE
:1022600080E0243031F481E0089583E380935701C6
:1022700080E00895EF92FF920F931F93CF93DF9327
:10228000082F162F7A0181E00E94B70F812F0E943C
:10229000B70F802F0E94B70F00E0C12FD0E006C01B
:1022A000EE0DFF1D80810E94B70F0F5FE02FF0E061
:1022B000EC17FD07ACF384E00E94B70FDF91CF91DC
:1022C0001F910F91FF90EF9008951F920F920FB6FC
:1022D0000F920BB60F9211242F933F934F935F935E
:1022E0006F937F938F939F93AF93BF93EF93FF93DE
:1022F0002091C600909152039F5F97FD90E08091DE
:102300005303981741F0E0915203F0E0EE5AFC4F6E
:102310002283909352031092D603E091D403F0915C
:10232000D503309711F0822F0995FF91EF91BF915E
:10233000AF919F918F917F916F915F914F913F915D
:102340002F910F900BBE0F900FBE0F901F901895FE
:102350001F920F920FB60F920BB60F9211242F936C
:102360008F939F93EF93FF939091D0028091D1022E
:102370009817B1F09091D102E92FF0E0E053FD4FB2
:1023800022818091D002981711F42FEF06C0E92F17
:10239000EF5FE7FDE0E0E093D1022093C60005C0C7
:1023A0008091C1008F7D8093C100FF91EF919F913B
:1023B0008F912F910F900BBE0F900FBE0F901F901B
:1023C0001895089508950895089508950895089515
:1023D000089508951092D8030E94C710882349F0E9
:1023E00080914C01813829F460E070E082E00E9425
:1023F0006207089560E08FE20E94180460E070E0D8
:1024000082E00E9462076AEF71E184EF91E00E942E
:10241000F1018093D903089561EE71E18AE090E0C3
:102420000E94F101089561EE71E189E190E00E945E
:10243000F1010895EF92FF920F931F93DF93CF93D3
:10244000CDB7DEB728970FB6F894DEBF0FBECDBF6D
:102450008E010F5F1F4FA80168E080E090E00E94AE
:10246000380578019E01275F3F4FF80180818F3F3B
:10247000B9F40F5F1F4F02171307B9F72AC088E09E
:102480000E945E0BF70181937F01E017F107B9F716
:10249000AE014F5F5F4F68E080E090E00E94220550
:1024A0008E010F5F1F4FA80162E080E190E00E9463
:1024B000380589819A818F5F9F4F91F484E190E084
:1024C0009A838983A80162E080E190E00E9422055E
:1024D00007C080E00E94DC0C86E00E94AF0BCFCFEB
:1024E00028960FB6F894DEBF0FBECDBFCF91DF9117
:1024F0001F910F91FF90EF90089560911D058091BD
:102500001B0590911C050E94CC06089540E050E008
:1025100060E081EC0E943A110895DF93CF9300D0E0
:10252000CDB7DEB79A838983AE014F5F5F4F62E01C
:1025300081EC0E943A1161EE71E18AE090E00E9424
:10254000F1010F900F90CF91DF910895DF93CF931A
:1025500000D0CDB7DEB79A83898361EE71E181E067
:1025600090E00E94F101AE014F5F5F4F62E081ECAD
:102570000E943A1169817A8183E00E9462070F907C
:102580000F90CF91DF9108958FEF0E941E060E9459
:10259000C509089561EE71E189E190E00E94F101C1
:1025A0000E941A120E94C4120895882339F06DE720
:1025B00072E18AE090E00E94F101089584E690E0E3
:1025C0000E943C010E94C4120895882389F461EEA0
:1025D00071E18AE090E00E94F10140E050E060E0AB
:1025E00083EC0E943A110E943F0F0E94420D089511
:1025F00084E690E00E943C010E94C41208958091FC
:10260000E903813051F461EE71E18AE090E00E94CB
:10261000F1018AEE93E00E947C0D089548E551E0B7
:1026200064E080E090E00E943E086EE073E188EE96
:1026300093E00E94F10108950E94180D08950E94F0
:102640003309882329F54091F4045091F504209131
:10265000EE043091EF048091DA038F5F8093DA0308
:10266000883018F40E94180D08954217530781F41A
:102670001092E7040E94150D88E00E945E0B9AE01C
:10268000899FC001112464EC72E1C2960E94F1019D
:1026900008952091F4043091F5048091EE04909116
:1026A000EF042817390711F41092DA030E942B0D5A
:1026B0000895A3E1B0E0EFE5F3E10C949B203C0129
:1026C000798B688B5A01FC0117821682838181FD08
:1026D00003C06FEF7FEF84C37AE0472E9E012F5F28
:1026E0003F4F3B8B2A8BF3012381E889F98923FD36
:1026F000859123FF8191F98BE88B882309F46DC3C1
:10270000853251F4E889F98923FD859123FF819170
:10271000F98BE88B853229F4B30190E00E94501EBA
:10272000E2CF982FDD2455249924FFE1FD15D0F048
:102730009B3269F09C3228F4903259F0933291F434
:102740000EC09D3249F0903369F431E029C042E077
:10275000D42A54E0D52A28C088E0D82A25C090E1A0
:10276000D92A22C0D7FC2BC0892F80538A3070F41D
:10277000D6FE05C0949C902C1124980E15C0549C34
:10278000502C1124580EE0E2DE2A0EC09E3229F4AD
:10279000D6FC23C3F0E4DF2A07C09C3619F430E8E6
:1027A000D32A02C0983659F4E889F98923FD959116
:1027B00023FF9191F98BE88B992309F0B6CF892FEC
:1027C0008554833020F48D2D8061905E07C0892F61
:1027D0008556833008F0A9C18D2D8F7E86FD02C0FD
:1027E00066E0962E5FE3F52EF822953619F4F0E4B4
:1027F000FF2A07C0963619F420E8F22A02C0911089
:102800009A94F7FE0BC03BE3391520F427E04CE324
:10281000842E0EC0892C839427E00AC047E0491516
:1028200028F427E0882437E0932E02C0292D88243D
:10283000C50104969D878C87F50160817181828135
:102840009381082DAE014F5F5F4F0E941B1D6C01ED
:102850000981202F30E03F872E8700FF05C03E858D
:1028600033FD02C01DE209C0F1FE02C01BE205C03B
:10287000F2FC02C010E001C010E28E859F858C70D2
:102880009070892BC1F1112311F483E001C084E021
:10289000851510F055240AC0581AF3FC07C0B3017F
:1028A00080E290E00E94501E5A94C9F7112329F04B
:1028B000B301812F90E00E94501E4E8543FF03C05C
:1028C0000CE810E00EC000E910E00BC0E114F104C8
:1028D00009F08052B30190E00E94501E0F5F1F4F1D
:1028E00005C0EF2CFF2450E1E522FF24F80184917C
:1028F000882361F717C1F7FE13C08C0CFE85F4FF27
:1029000004C08A81813309F48A9418141CF0882445
:1029100083942DC028E0281550F598E0892E27C013
:10292000F6FC25C0892D90E08C159D054CF03CEF00
:10293000C3163FEFD30624F040E8F42A01C09A946E
:10294000992049F0E2E0F0E0EC0FFD1FE90DF11DE8
:1029500080818033A1F3F7FE0AC0892C8394892DEE
:1029600090E0C816D90614F0992401C09C18F7FC11
:1029700003C025E030E009C01C141D041CF021E058
:1029800030E003C096012F5F3F4F112311F02F5FFE
:102990003F4F992029F0892D90E00196280F391F8B
:1029A000852D90E02817390714F0552401C0521ADC
:1029B000AF2CBB24C50189709070892B39F008C0F9
:1029C000B30180E290E00E94501E5A945520C1F756
:1029D000112329F0B301812F90E00E94501EA3FE25
:1029E00007C008C0B30180E390E00E94501E5A94D3
:1029F0005520C1F7F7FE48C08601D7FE02C000E0AF
:102A000010E076010894E11CF11CE01AF10A81E063
:102A100090E08C0F9D1FE80EF91E16012818310852
:102A2000892D90E0AA24BB24A81AB90A9FEF0F3F72
:102A3000190729F4B3018EE290E00E94501EC016DF
:102A4000D10634F0201631061CF4F701808101C054
:102A500080E3015010400894E11CF11C0A151B058D
:102A60002CF0B30190E00E94501EE0CF0C151D0524
:102A700041F49A81963320F4953319F4FE85F4FFDE
:102A800081E3B30190E04CC08A81813309F00F7E6D
:102A9000B30190E00E94501E9920A1F0B3018EE294
:102AA00090E00E94501E12E0E1E0F0E0EC0FFD1F0C
:102AB000E10FF11D1F5FB301808190E00E94501E65
:102AC0009A9491F7A4FC03C085E690E002C085E4E7
:102AD00090E0B3010E94501ED7FC05C0C114D10480
:102AE00041F404FF06C0D094C194D108D3948DE280
:102AF00001C08BE2B30190E00E94501E80E305C04C
:102B00008F5F26EF3FEFC20ED31E3AE0C316D1040B
:102B1000BCF7B30190E00E94501EB301C601C096FD
:102B20000E94501EAC84BD8455C1933631F093375A
:102B300091F0933509F059C023C0F5018081898354
:102B40007E010894E11CF11C22E030E0A20EB31ECD
:102B500001E010E012C0F501E080F180D6FC03C076
:102B60006FEF7FEF02C0692D70E022E030E0A20E2F
:102B7000B31EC7010E940D1E8C013FE7D32214C073
:102B8000F501E080F180D6FC03C06FEF7FEF02C05B
:102B9000692D70E022E030E0A20EB31EC7010E9452
:102BA000F31D8C0130E8D32AD3FE07C01AC0B3014D
:102BB00080E290E00E94501E5A94852D90E0081704
:102BC0001907A8F30EC0F701D7FC8591D7FE8191B4
:102BD0007F01B30190E00E94501E51105A940150A1
:102BE00010400115110579F7F5C0943611F09936AA
:102BF00089F5D7FE08C0F501E080F18002811381DC
:102C000024E030E00AC0F501808191817C01002739
:102C1000F7FC0095102F22E030E0A20EB31E3FE635
:102C2000D32217FF0AC010950095F094E094E11CA0
:102C3000F11C011D111D40E8D42A2AE030E0AE014C
:102C40004F5F5F4FC801B7010E949F1EF82E5A893F
:102C5000F51A43C0953729F41D2D1F7E2AE030E078
:102C60001DC01D2D197F9F3661F0903720F49835D7
:102C700009F0B3C00FC0903739F0983709F0ADC0F4
:102C800004C028E030E00AC0106114FD146020E1A7
:102C900030E004C014FD166020E132E017FF08C0E8
:102CA000F501608171818281938144E050E008C028
:102CB000F50180819181BC0180E090E042E050E02C
:102CC000A40EB51EAE014F5F5F4F0E949F1EF82EEF
:102CD0005A89F51A8FE7D82ED122D6FE0BC08EEF77
:102CE000D822F91438F4D4FE07C0D2FC05C09FEEF8
:102CF000D92202C01F2D01C0192DD4FE0DC0FE0126
:102D0000EF0DF11D8081803319F4E9EEDE2208C059
:102D10001F5FD2FE05C003C08D2D867809F01F5FAE
:102D20000D2DD3FC14C0D0FE0FC0151510F09F2C34
:102D30000BC09F2C950C911A152D06C0B30180E293
:102D400090E00E94501E1F5F1515C0F304C01515BA
:102D500010F4511A01C0552404FF10C0B30180E3E0
:102D600090E00E94501E02FF1EC001FD03C088E7D4
:102D700090E002C088E590E0B3010CC0802F867817
:102D800091F001FF02C08BE201C080E2D7FC8DE22E
:102D9000B30190E00E94501E06C0B30180E390E0B2
:102DA0000E94501E9A94F914C0F3FA94E1E0F0E006
:102DB000EC0FFD1FEF0DF11DB301808190E00E942B
:102DC000501EFF2091F706C0B30180E290E00E9400
:102DD000501E5A945520C1F786CCF3016681778145
:102DE000CB016396E2E10C94B720A0E0B0E0EBEFFA
:102DF000F6E10C949B20DC012B01FA019C919230AE
:102E000008F439C1EB018881823008F433C1943071
:102E100069F4843009F02FC111969C911197898132
:102E2000981709F428C1ADE5B1E025C1843009F453
:102E300021C18230A9F4923009F01DC19A01AD017F
:102E400088E0EA010990AE01E90109929E018150F2
:102E5000C1F7E201898111969C918923818308C180
:102E6000923009F407C112962D903C901397EB0114
:102E70008A819B811496AD90BD90CD90DC90179780
:102E8000EC80FD800E811F819101281B390BB90157
:102E900037FF04C066277727621B730B603271050A
:102EA0000CF061C0121613066CF537014801062EAE
:102EB00004C096948794779467940A94D2F721E09B
:102EC00030E040E050E004C0220F331F441F551F84
:102ED0006A95D2F721503040404050402E213F218A
:102EE00040235123211531054105510521F021E0F1
:102EF00030E040E050E079018A01E628F72808290F
:102F000019293CC0232BD1F1260E371E350146016D
:102F1000062E04C096948794779467940A94D2F707
:102F200021E030E040E050E004C0220F331F441F96
:102F3000551F6A95D2F721503040404050402A2119
:102F40003B214C215D21211531054105510521F021
:102F500021E030E040E050E059016A01A628B7289E
:102F6000C828D9280BC0821593052CF01C01AA246F
:102F7000BB24650103C0EE24FF24870111969C91B8
:102F8000D20111968C91981709F445C0992339F014
:102F9000A80197012A193B094C095D0906C0A60141
:102FA00095012E193F09400B510B57FD08C01182A6
:102FB0003382228224833583468357831DC081E078
:102FC00081833382228288279927DC01821B930B1D
:102FD000A40BB50B84839583A683B7830DC0220F02
:102FE000331F441F551F24833583468357838281B3
:102FF0009381019793838283248135814681578110
:10300000DA01C9010197A109B1098F5F9F4FAF4F45
:10301000BF4328F30BC0918333822282EA0CFB1C4E
:103020000C1D1D1DE482F5820683178383E08083D7
:10303000248135814681578157FF1AC0C901AA27CB
:1030400097FDA095BA2F81709070A070B0705695C2
:10305000479537952795822B932BA42BB52B8483EB
:103060009583A683B783828193810196938382831C
:10307000DF0101C0D201CD01CDB7DEB7E2E10C9492
:10308000B720A0E2B0E0E7E4F8E10C94A720698360
:103090007A838B839C832D833E834F835887E9E01B
:1030A000EE2EF12CEC0EFD1EB701CE0101960E9412
:1030B0003E1C8E010F5E1F4FB801CE0105960E9487
:1030C0003E1C8A8991E089278A8BAE01475E5F4F5B
:1030D000B801C7010E94F5160E94691BA096E6E0A0
:1030E0000C94C320A0E2B0E0E8E7F8E10C94A7203C
:1030F00069837A838B839C832D833E834F83588798
:10310000F9E0EF2EF12CEC0EFD1EB701CE01019679
:103110000E943E1C8E010F5E1F4FB801CE01059626
:103120000E943E1CAE01475E5F4FB801C7010E947E
:10313000F5160E94691BA096E6E00C94C320A0E25D
:10314000B0E0E5EAF8E10C949B2069837A838B83F5
:103150009C832D833E834F835887BE01675F7F4FDB
:10316000CE0101960E943E1CBE016F5E7F4FCE01D4
:1031700005960E943E1C9985923088F0898982309C
:10318000C8F0943019F4823051F404C0843029F42A
:10319000923081F48DE591E0C6C0923049F420E090
:1031A0009A858A89981321E02A87CE010996BBC0A7
:1031B000823049F420E09A858A89981321E02A8B8D
:1031C000CE014196B0C02D843E844F8458886D88CE
:1031D0007E888F88988CEE24FF248701AA24BB2444
:1031E000650140E050E060E070E0E0E0F0E0C10147
:1031F00081709070892BE9F0E60CF71C081D191DF1
:103200009A01AB012A0D3B1D4C1D5D1D80E090E035
:10321000A0E0B0E0E614F7040805190520F481E009
:1032200090E0A0E0B0E0BA01A901480F591F6A1F61
:103230007B1FAA0CBB1CCC1CDD1C97FE08C081E0C8
:1032400090E0A0E0B0E0A82AB92ACA2ADB2A319689
:10325000E032F10549F0660C771C881C991C5694E5
:10326000479437942794C3CFFA85EA892B893C8900
:103270008B859C85280F391F2E5F3F4F17C0CA01D1
:1032800081709070892B61F016950795F794E794FB
:1032900080E090E0A0E0B0E8E82AF92A0A2B1B2B96
:1032A00076956795579547952F5F3F4F77FDE7CF09
:1032B0000CC0440F551F661F771F17FD4160EE0CB1
:1032C000FF1C001F111F21503040403090E0590773
:1032D00090E0690790E4790760F32B8F3C8FDB0166
:1032E000CA018F779070A070B07080349105A105ED
:1032F000B10561F447FD0AC0E114F10401051105AF
:1033000029F0405C5F4F6F4F7F4F40781A8EFE1759
:1033100011F081E08A8F4D8F5E8F6F8F78A383E0ED
:10332000898FCE0149960E94691BA096E2E10C9418
:10333000B720A8E1B0E0EFE9F9E10C94A32069839C
:103340007A838B839C832D833E834F835887B9E098
:10335000EB2EF12CEC0EFD1EB701CE0101960E9462
:103360003E1C8E010F5E1F4FB801CE0105960E94D4
:103370003E1C2985223008F47CC03989323010F493
:10338000B8017AC08A859A8989278A87243011F002
:10339000223031F4231709F06CC06DE571E06CC088
:1033A000343039F41D861E861F86188A1C861B86BB
:1033B00004C0323021F484E08987B7015DC02B85D9
:1033C0003C858B899C89281B390B3C872B87ED8496
:1033D000FE840F851889AD88BE88CF88D88CEA1402
:1033E000FB040C051D0540F4EE0CFF1C001F111F13
:1033F000215030403C872B8720E030E040E050E017
:1034000080E090E0A0E0B0E46FE170E0EA14FB043B
:103410000C051D0540F0282B392B4A2B5B2BEA1895
:10342000FB080C091D09B695A79597958795EE0C95
:10343000FF1C001F111F6150704041F7DA01C901E4
:103440008F779070A070B07080349105A105B105A0
:1034500061F427FD0AC0E114F1040105110529F00A
:10346000205C3F4F4F4F5F4F20782D873E874F871F
:10347000588BBE01675F7F4FCB010E94691B689626
:10348000EAE00C94BF20A8E0B0E0E9E4FAE10C9493
:10349000A4209B01AC0183E08983DA01C90188275C
:1034A000B7FD83959927AA27BB27B82E211531058B
:1034B0004105510519F482E089833AC08823A9F0B7
:1034C000203080E0380780E0480780E8580729F47A
:1034D00060E070E080E09FEC30C0EE24FF248701C4
:1034E000E21AF30A040B150B02C079018A018EE17E
:1034F000C82ED12CDC82CB82ED82FE820F8318870E
:10350000C801B7010E941A1B01971816190684F406
:10351000082E04C0EE0CFF1C001F111F0A94D2F7E6
:10352000ED82FE820F831887C81AD90ADC82CB820B
:10353000BA82CE0101960E94691B2896E9E00C949C
:10354000C020A8E0B0E0E7EAFAE10C94A5207B01F6
:103550008C01611571058105910519F482E089835B
:1035600060C083E089838EE1C82ED12CDC82CB82BF
:10357000ED82FE820F831887C801B7010E941A1BD3
:10358000BC016150704077FF39C0EE27FF27E61B72
:10359000F70B20E030E040E050E081E090E0A0E078
:1035A000B0E00E2E04C0880F991FAA1FBB1F0A94FB
:1035B000D2F70197A109B1098E219F21A023B12340
:1035C0000097A105B10521F021E030E040E050E096
:1035D00004C016950795F794E794EA95D2F72E293B
:1035E0003F29402B512B2D833E834F8358878EE1FB
:1035F00090E0861B970B9C838B8313C0611571052C
:1036000081F0062E04C0EE0CFF1C001F111F0A944F
:10361000D2F7ED82FE820F831887C61AD70ADC82A2
:10362000CB821A82CE0101960E94691B2896E8E09F
:103630000C94C120EF92FF920F931F937B018C019A
:1036400080E0E81680E0F80681E0080780E01807CF
:1036500088F48FEFE816F1040105110531F028F028
:1036600088E090E0A0E0B0E017C080E090E0A0E04B
:10367000B0E012C080E0E81680E0F80680E00807BD
:1036800081E0180728F088E190E0A0E0B0E004C0F5
:1036900080E190E0A0E0B0E020E230E040E050E0E7
:1036A000281B390B4A0B5B0B04C016950795F79442
:1036B000E7948A95D2F7F701EB59FE4F8081281BDA
:1036C000310941095109C9011F910F91FF90EF90F4
:1036D0000895DF92EF92FF920F931F93FC01E48015
:1036E000F58006811781D1808081823048F480E0A6
:1036F00090E0A0E1B0E0E82AF92A0A2B1B2BA5C034
:10370000843009F49FC0823021F4EE24FF24870125
:1037100005C0E114F1040105110519F4E0E0F0E041
:1037200096C0628173819FEF623879070CF05BC0AD
:1037300022E83FEF261B370B2A3131052CF020E021
:1037400030E040E050E02AC0B801A701022E04C0DA
:1037500076956795579547950A94D2F781E090E062
:10376000A0E0B0E004C0880F991FAA1FBB1F2A95D4
:10377000D2F70197A109B1098E219F21A023B1237E
:103780000097A105B10521F081E090E0A0E0B0E054
:103790009A01AB01282B392B4A2B5B2BDA01C9018B
:1037A0008F779070A070B07080349105A105B1053D
:1037B00039F427FF09C0205C3F4F4F4F5F4F04C0D3
:1037C000215C3F4F4F4F5F4FE0E0F0E02030A0E042
:1037D0003A07A0E04A07A0E45A0710F0E1E0F0E061
:1037E00079018A0127C06038710564F5FB01E15851
:1037F000FF4FD801C7018F779070A070B0708034F0
:103800009105A105B10539F4E7FE0DC080E490E013
:10381000A0E0B0E004C08FE390E0A0E0B0E0E80EEC
:10382000F91E0A1F1B1F17FF05C016950795F79471
:10383000E794319687E016950795F794E7948A9573
:10384000D1F705C0EE24FF248701EFEFF0E06E2FE3
:10385000679566276795902F9F77D794DD24D79437
:103860008E2F8695492F462B582F5D29B701CA0107
:103870001F910F91FF90EF90DF900895FC01DB0105
:10388000408151812281622F6F7770E0221F2227B1
:10389000221F9381892F880F822B282F30E0991FB8
:1038A0009927991F11969C93119721153105A9F518
:1038B000411551056105710511F482E037C082E8B8
:1038C0009FEF13969C938E9312979A01AB0167E03A
:1038D000220F331F441F551F6A95D1F783E08C9345
:1038E0000DC0220F331F441F551F12968D919C91BE
:1038F0001397019713969C938E931297203080E034
:10390000380780E0480780E4580758F314962D9351
:103910003D934D935C93179708952F3F310579F4AC
:10392000411551056105710519F484E08C930895E2
:1039300064FF03C081E08C9312C01C9210C02F570B
:10394000304013963C932E93129783E08C9387E03C
:10395000440F551F661F771F8A95D1F77064149620
:103960004D935D936D937C9317970895A0E0B0E01D
:10397000ECEBFCE10C94A320EC01A880B980CA8098
:10398000DB80A114B104C104D10441F484E2A82E67
:1039900089EDB82E8BE5C82E87E0D82EC601B5017B
:1039A0002DE133EF41E050E00E94242127EA31E489
:1039B00040E050E00E9405217B018C01C601B50169
:1039C0002DE133EF41E050E00E942421CA01B9010A
:1039D0002CEE34EF4FEF5FEF0E9405216E0D7F1D3F
:1039E000801F911F97FF04C0615070408040904835
:1039F000688379838A839B839B013F77C901CDB715
:103A0000DEB7EAE00C94BF200E94B61C089585E65C
:103A100092E00E94B61C0895A0E0B0E08093650299
:103A200090936602A0936702B09368020895662798
:103A300077270C94FD1E283008F027E03327DA01A1
:103A4000990F311D87FD916000966105710539F46C
:103A500032602E5F3D9330E32A95E1F708959F3F52
:103A600030F080387105610509F03C5F3C5F3D93A3
:103A7000913008F08068911DDF93CF931F930F93CF
:103A8000FF92EF92192F987F9695E92F969596952C
:103A9000E90FFF27E251FF4F99273327EE24FF2438
:103AA000A701E70105900894079428F4360FE71E54
:103AB000F81E491F511D660F771F881F991F069416
:103AC000A1F70590079428F4E70EF81E491F561F2A
:103AD000C11D770F881F991F661F0694A1F70590D7
:103AE000079428F4F80E491F561FC71FD11D880FD1
:103AF000991F661F771F0694A1F70590079420F47D
:103B0000490F561FC71FD81F990F661F771F881FA1
:103B10000694A9F784911095177041F0D695C79532
:103B200057954795F794E7941A95C1F7E4E9F0E0C3
:103B300068941590159135916591959105907FE266
:103B40007395E118F10A430B560BC90BD009C0F766
:103B5000E10CF11E431F561FC91FD01D7EF47033A8
:103B600011F48A95E6CFE894015030F0080F0AF47A
:103B70000027021708F4202F2395022F7A3328F00C
:103B800079E37D932A95E9F710C07D932A9589F60C
:103B9000069497956795379517951794E118F10A4C
:103BA000430B560BC90BD00998F023957E91739562
:103BB0007A3308F070E37C932013B8F77E9170613C
:103BC0007D9330F0839571E37D9370E32A95E1F75F
:103BD0001124EF90FF900F911F91CF91DF919927C2
:103BE00087FD90950895FC0105906150704001108B
:103BF000D8F7809590958E0F9F1F0895FB01DC01EB
:103C00004150504048F001900D920020C9F701C08A
:103C10001D9241505040E0F70895FC016150704002
:103C200001900110D8F7809590958E0F9F1F0895F1
:103C3000A0E0B0E0EEE1FEE10C94A5207C01EB01F8
:103C40008A01690109C0CE012196F6010995F701A3
:103C500081937F010150104001151105A1F7CDB7E7
:103C6000DEB7E8E00C94C120A0E0B0E0EAE3FEE1BA
:103C70000C94A520EC017B018A01690109C0F701C0
:103C800061917F01CE012196F60109950150104006
:103C900001151105A1F7CDB7DEB7E8E00C94C120FE
:103CA0000F931F93CF93DF938C01EB018B8181FFE7
:103CB0001BC082FF0DC02E813F818C819D81281702
:103CC000390764F4E881F9810193F983E88306C038
:103CD000E885F985802F0995892B31F48E819F81A4
:103CE00001969F838E8302C00FEF1FEFC801DF9103
:103CF000CF911F910F910895AEE0B0E0E2E8FEE1B0
:103D00000C94A9200D891E8986E08C831A8309836F
:103D10008FEF9FE79E838D83CE014996AC016F891B
:103D2000788DCE0101960E9459132F813885020F9C
:103D3000131FF80110822E96E4E00C94C520FA01BE
:103D4000AA27283051F1203181F1E8946F936E7FDA
:103D50006E5F7F4F8F4F9F4FAF4FB1E03ED0B4E0CB
:103D60003CD0670F781F891F9A1FA11D680F791F0C
:103D70008A1F911DA11D6A0F711D811D911DA11D1D
:103D800020D009F468943F912AE0269F112430192D
:103D9000305D3193DEF6CF010895462F4770405DC8
:103DA0004193B3E00FD0C9F7F6CF462F4F70405D77
:103DB0004A3318F0495D31FD4052419302D0A9F7D2
:103DC000EACFB4E0A6959795879577956795BA95CC
:103DD000C9F700976105710508959B01AC010A2E92
:103DE00006945795479537952795BA95C9F7620F69
:103DF000731F841F951FA01D0895A0E0B0E0E3E0AD
:103E0000FFE10C94A120EC015B016115710519F033
:103E1000FB01918380831991812F90E00E94D22031
:103E2000892BC9F71D3221F41991FF24F39404C0A2
:103E30001B3209F41991FF246E010894C108D108BE
:103E400043E050E06EE871E0C6010E945C20892BDF
:103E500001F58E010E5F1F4F45E050E061E971E012
:103E6000C8010E945C20892B19F48E01095F1F4F45
:103E7000A114B10419F0F50111830083F0FC04C012
:103E800070E090E080E814C070E090E080E86FEFB0
:103E900008C143E050E066E971E0C6010E945C2081
:103EA000892B69F4A114B10429F470E090E080EC4E
:103EB0006FE7F7C02296F501D183C083F6CF88243F
:103EC000992440E050E060E070E0E12FE053EA30F8
:103ED000A0F5F2E0FF2A8F2D90E09C012870307051
:103EE000F2FE06C0232B79F50894811C911C2BC08F
:103EF000232B19F0089481089108DB01CA0112E014
:103F0000880F991FAA1FBB1F1A95D1F7480F591F79
:103F10006A1F7B1F440F551F661F771F4E0F511DD1
:103F2000611D711D483929E9520729E9620729E114
:103F3000720748F084E0F82A06C0EE3F31F4F3FC43
:103F400039C098E0F92A1991C0CFE53311F0E53175
:103F500089F529912D3219F4E0E1FE2A05C02B32B2
:103F600019F081E090E003C0299182E090E0E22F17
:103F7000E053EA3018F0C81BD90B1CC020E030E039
:103F8000FCE020383F075CF4C901880F991F880FB7
:103F9000991F280F391F220F331F2E0F311DE99152
:103FA000E053EA3068F3F4FE03C0309521953F4FAB
:103FB000820E931ECF2CDD24F1FE07C0A114B104A4
:103FC00021F02197F501D183C083CB01BA010E9472
:103FD000A11A7B018C01F3E0CF22DD2423E0C2167D
:103FE000D10421F417FB109517F9109557016801BA
:103FF00020E030E040E050E0C801B7010E94DA2044
:10400000882309F44AC097FE0DC02DEAE22E21E074
:10401000F22E9094819491089394C0E2D0E005E050
:1040200010E012C095ECE92E91E0F92EF6CFF701E1
:104030002591359145915491C601B5010E949F1873
:104040005B016C018C1A9D0A8C169D0684F7D59530
:10405000C7950115110539F08CEF9FEFE80EF91E99
:1040600001501040F1CFC501D6017C018D018C2D8E
:10407000880F8D2D881F8F3F51F020E030E040E009
:1040800050E0C601B5010E94DA20882331F482E2B3
:1040900090E090934105809340057E2D9F2D802FC9
:1040A000612F272F392F482F562FB901CA01CDB7BD
:1040B000DEB7ECE00C94BD20FB01DC014150504028
:1040C00088F08D9181341CF08B350CF4805E659105
:1040D00061341CF06B350CF4605E861B611171F36A
:1040E000990B0895881BFCCFAA1BBB1B51E107C08D
:1040F000AA1FBB1FA617B70710F0A61BB70B881F78
:10410000991F5A95A9F780959095BC01CD01089506
:1041100097FB092E07260AD077FD04D0E5DF06D0ED
:1041200000201AF4709561957F4F0895F6F79095E9
:1041300081959F4F08952F923F924F925F926F9279
:104140007F928F929F92AF92BF92CF92DF92EF9227
:10415000FF920F931F93CF93DF93CDB7DEB7CA1BA8
:10416000DB0B0FB6F894DEBF0FBECDBF09942A88D3
:10417000398848885F846E847D848C849B84AA847B
:10418000B984C884DF80EE80FD800C811B81AA8108
:10419000B981CE0FD11D0FB6F894DEBF0FBECDBFD3
:1041A000ED01089591112EC0803219F0895085508B
:1041B000D0F7089503D008F481E00895990F00081E
:1041C000550FAA0BE0E8FEEF16161706E807F907E9
:1041D000C0F012161306E407F50798F0621B730B84
:1041E000840B950B39F40A2661F0232B242B252B05
:1041F00021F408950A2609F4A140A6958FEF811DA8
:10420000811D0895992788270895629FD001739F83
:10421000F001829FE00DF11D649FE00DF11D929F62
:10422000F00D839FF00D749FF00D659FF00D9927A1
:10423000729FB00DE11DF91F639FB00DE11DF91FC5
:10424000BD01CF011124089597FB092E05260ED03C
:1042500057FD04D014D00AD0001C38F45095409576
:10426000309521953F4F4F4F5F4F0895F6F790954A
:104270008095709561957F4F8F4F9F4F0895A1E274
:104280001A2EAA1BBB1BFD010DC0AA1FBB1FEE1FD0
:10429000FF1FA217B307E407F50720F0A21BB30B1B
:1042A000E40BF50B661F771F881F991F1A9469F797
:1042B00060957095809590959B01AC01BD01CF01F3
:0642C0000895F894FFCF01
:1042C600E80380646567460025660048E17EC19A7A
:1042D60099D94052B8B24148E10B42D7A338426659
:1042E6006662423D8A854200009A42AE47AF42D797
:1042F60023C64233B3DF4214AEFD4266A611437BAA
:10430600142C4333335B43142E2D4400000000006D
:104316000000000000000033656E646400000000C9
:10432600000000000000010202030303030404046A
:10433600040404040405050505050505050505052C
:10434600050505050506060606060606060606060C
:1043560006060606060606060606060606060606F7
:1043660006060606060707070707070707070707DC
:1043760007070707070707070707070707070707C7
:1043860007070707070707070707070707070707B7
:1043960007070707070707070707070707070707A7
:1043A600070707070708080808080808080808088C
:1043B6000808080808080808080808080808080877
:1043C6000808080808080808080808080808080867
:1043D6000808080808080808080808080808080857
:1043E6000808080808080808080808080808080847
:1043F6000808080808080808080808080808080837
:104406000808080808080808080808080808080826
:104416000808080808080808080808080808080816
:0A4426000808080808010000000063
:00000001FF
