:100000000C9496000C94BE000C94BE000C94BE00A0
:100010000C94BE000C94BE000C94BE000C94BE0068
:100020000C94BE000C94BE000C9472170C94BE008D
:100030000C94BE000C94BE000C94BE000C94BE0048
:100040000C940F170C94BE000C94BE000C94BE00D0
:100050000C94BE000C94BE000C94BE000C94BE0028
:100060000C94BE000C94470F0C940E0F0C94BE0021
:100070000C94BE000C94BE000C94BE000C94BE0008
:100080000C9467140C94BE000C94BE000C94BE003B
:100090000C94BE000C94BE0012010002020000404D
:1000A000EB031820001000000001090243000201C8
:1000B0000080320904000001020201000524001042
:1000C000010524010301042402060524060001079A
:1000D0000583032000FF09040100020A0000000755
:1000E000058102200000070502022000000C0341E8
:1000F0000054004D0045004C0022034100560052C0
:1001000000200055005300420020004300440043FB
:10011000002000440045004D004F000C0331002E2C
:100120000030002E003000040309040011241FBE1B
:10013000CFEFD0E2DEBFCDBF14BE88E10FB6F8949A
:1001400080936000109260000FBE18E0A0E0B1E064
:10015000E0E9FFE400E00BBF02C007900D92AE3F64
:10016000B107D9F711E1AEEFB8E001C01D92AA3C8A
:10017000B107E1F70E948C0B0C94C6270C94000089
:10018000809335110E94DF0C08951F93182F8FEF75
:100190009FEF90932D1180932C1190932F118093AA
:1001A0002E11109229119093311180933011909358
:1001B000331180933211109234111092381181E072
:1001C000809339110E949B0E109335111F3F19F037
:1001D000812F0E94DF0C81E00E94550D88E00E9473
:1001E0006D0D0E94B90B21E042E064E087E10E94BE
:1001F0009E1586E10E946D0D41E251E168E080E0CC
:1002000090E00E94811681E00E94560C8FEF9FEFD4
:100210000E943E0C8FEF9FEF0E944A0C22E044E0C8
:1002200060EF8CE20E949E1581E291E10E942E0C0B
:100230000E9407031F91089508950895EF92FF9279
:100240000F931F93CF93DF93E82EEB018A0181E098
:1002500080930209F880B981AA817B816C813D81FC
:100260002E819F81E1E1F9E041E050E080818F152E
:10027000A9F481818B1791F482818A1779F48381A3
:10028000871761F48481861749F48581831731F4D7
:100290008681821719F487818917A1F04F5F5F4F1C
:1002A0003E964436510511F7E0E1F9E041E050E0B7
:1002B0008081882351F04F5F5F4F3E964436510551
:1002C000B9F735C04436510590F5CA01880F991F1A
:1002D000BC0123E0660F771F2A95E1F7681B790BB5
:1002E0009B012E5F364FF901E1928881D901119669
:1002F0008C931197898181838A8182838B81838307
:100300008C8184838D8185838E8186838F81878391
:100310001A961C930E9319971C961C921E921B976B
:10032000DB01A15FB64F8C918E7F8C9302C04FEFA3
:100330005FEFCA01DF91CF911F910F91FF90EF9076
:100340000895DC01E0E1F9E021E030E080818823DC
:1003500071F191818C91981751F5928111968C9140
:100360001197981721F5938112968C9112979817EF
:10037000F1F4948113968C9113979817C1F4958199
:1003800014968C911497981791F4968115968C91E8
:100390001597981761F4978116968C911697981770
:1003A00031F4908517968C911797981741F02F5F2D
:1003B0003F4F3E962436310549F62FEF3FEFC901F6
:1003C000089584369105B0F4880F991FFC0143E02D
:1003D000EE0FFF1F4A95E1F7E81BF90BEE5FF64FB2
:1003E0008081882339F020E081859285892B19F45A
:1003F00021E001C020E0822F089580E00895089553
:100400008436910588F4880F991FFC0163E0EE0F94
:10041000FF1F6A95E1F7E81BF90BEE5FF64F1082BC
:10042000128611861486138608958436910518F075
:1004300020E030E00EC0880F991FFC01A3E0EE0F12
:10044000FF1FAA95E1F7E81BF90BEE5FF64F218538
:100450003285C90108959C018436910538F5C9019A
:10046000880F991FFC0143E0EE0FFF1F4A95E1F74B
:10047000E81BF90BEE5FF64F80818823B9F0243634
:10048000310520F481859285892B91F0C901880F6F
:10049000991FFC0123E0EE0FFF1F2A95E1F7E81BEF
:1004A000F90BEE5FF64F21853285D9CF20E030E0A1
:1004B000C9010895AC01E0E1F9E021E030E080817C
:1004C000882329F0818592858417950741F02F5F55
:1004D0003F4F3E962436310591F720E030E0C901C8
:1004E00008959C018436910560F5880F991FFC01E1
:1004F000A3E0EE0FFF1FAA95E1F7E81BF90BEE5FF3
:10050000F64F418552852F5F3F4FC901880F991FD4
:10051000FC0163E0EE0FFF1F6A95E1F7E81BF90BA2
:10052000EE5FF64F0BC08081882329F0818592858C
:100530008417950741F02F5F3F4F3E9624363105D3
:1005400091F720E030E0C90108958436910518F054
:1005500020E030E00EC0880F991FFC0123E0EE0F71
:10056000FF1F2A95E1F7E81BF90BEE5FF64F238595
:100570003485C90108958436910570F4880F991F58
:10058000FC0143E0EE0FFF1F4A95E1F7E81BF90B72
:10059000EE5FF64F7487638708958436910518F0EF
:1005A00020E030E00CC0880F991F9C0163E0220F0F
:1005B000331F6A95E1F7281B390B2E5F364FC901AF
:1005C000089508950895FC0185858F77858708959E
:1005D00080E090E0089580E090E0089521E0880FA9
:1005E000991FFC01A3E0EE0FFF1FAA95E1F7E81B9E
:1005F000F90BEE5FF64F8081882331F0818592857B
:10060000009719F02F5FEBCF20E0822F089588E745
:1006100095E0E2E0F9E0DF019C011D9221503040BD
:10062000E1F708959093FF088093FE087093010905
:100630006093000964E273E080EA90E00E94341362
:1006400081E08093381108958091FE089091FF0811
:100650000E943F10882319F480E090E002C085E0FA
:1006600090E064E075E00E9434130895DF93CF9327
:100670000F92CDB7DEB79C01AB018436910508F02F
:100680005AC0880F991FFC01A3E0EE0FFF1FAA9527
:10069000E1F7E81BF90BEE5FF64F8081882331F418
:1006A00080E091E00E94C30F80E046C0232B09F454
:1006B00042C02185328521153105E9F181E0898328
:1006C0006115710519F4A0E0B0E002C0DB011A96D3
:1006D000C901880F991FFC0163E0EE0FFF1F6A95A7
:1006E000E1F7E81BF90BEE5FF64F8081882321F1DB
:1006F00089818F5F898381859285892B41F441159A
:10070000510519F0FA0136832583898115C01097A8
:1007100011F02D933D93C901880F991FFC0123E02F
:10072000EE0FFF1F2A95E1F7E81BF90BEE5FF64F7E
:1007300021853285CDCF81E00F90CF91DF91089553
:100740003F924F925F926F927F928F929F92AF9261
:10075000BF92CF92DF92EF92FF920F931F93DF939E
:10076000CF93CDB7DEB7E6970FB6F894DEBF0FBED6
:10077000CDBF8091680190916901A0916A01B0910B
:100780006B0189839A83AB83BC8385E191E00E94EE
:10079000C30F50E1652E59E0752E41E0442E512CD7
:1007A000F3013080332009F45FC081809280A38000
:1007B000B480C580D680E780F084BF92AF929F92CC
:1007C0008F9200E29401A501B601C7010E94112396
:1007D00059016A01DF92CF92BF92AF92F3018385F4
:1007E00094859F938F93818592859F938F93818525
:1007F0009285880F991FFC0123E0EE0FFF1F2A95B9
:10080000E1F7E81BF90BEE5FF64F8081E1E0F0E0E5
:10081000EC0FFD1FE80FF11D808190E09F938F93F7
:100820005F924F92E1E0F0E0EC0FFD1FE30DF11D50
:10083000808190E09F938F9385E291E09F938F93C7
:10084000E5E0F0E0EC0FFD1FFF93EF930E945E24C4
:10085000CE0105960E94C30F8DB79EB746960FB680
:10086000F8949EBF0FBE8DBFEEE0F0E06E0E7F1ECF
:100870000894411C511CFAE76F16FEE07F0609F050
:100880008FCF87E491E00E94C30F00E010E0DD24E9
:100890002E010894411C511C98E5692E91E0792E97
:1008A00085E0A82EB12CAC0EBD1E01C087011F93A0
:1008B0000F93C801880F991FFC01A3E0EE0FFF1FE3
:1008C000AA95E1F7E81BF90BEE5FF64F8081F20184
:1008D000E80FF11D808190E09F938F937F926F923C
:1008E000BF92AF920E945E24C5010E94C30FE0E157
:1008F000F9E021E030E08DB79EB708960FB6F89486
:100900009EBF0FBE8DBF8081882329F0818592858F
:100910008017910739F02F5F3F4F3E9624363105FF
:1009200091F703C0D3948901C2CF0436110588F52D
:10093000C801880F991FFC0163E0EE0FFF1F6A9545
:10094000E1F7E81BF90BEE5FF64F21853285780160
:100950000894E11CF11CC701880F991FFC0143E0BA
:10096000EE0FFF1F4A95E1F7E81BF90BEE5FF64F1C
:100970000CC08081882329F0818592858217930796
:1009800029F10894E11CF11C3E9694E6E916F10465
:1009900081F7C801880F991FFC0113E0EE0FFF1FBC
:1009A0001A95E1F7E81BF90BEE5FF64F018512850A
:1009B0000115110549F410C080E691E00E94C30FB3
:1009C0001F5F1D15C8F372CFDA94AFCF85E691E0B3
:1009D0000E94C30F10E0F5CFE6960FB6F894DEBF85
:1009E0000FBECDBFCF91DF911F910F91FF90EF9080
:1009F000DF90CF90BF90AF909F908F907F906F903F
:100A00005F904F903F900895EF92FF920F931F9346
:100A1000DF93CF93CDB7DEB760970FB6F894DEBF04
:100A20000FBECDBF8DE691E00E94C30F80910009FB
:100A3000909101099F938F938FE7E82E81E0F82E24
:100A4000FF92EF920AE311E11F930F930E945E243D
:100A5000C8010E94C30F82E891E00E94C30F8091F9
:100A6000FE089091FF089F938F93FF92EF921F9340
:100A70000F930E945E24C8010E94C30F60912B1146
:100A80006F5F60932B116150A0912C11B0912D11CB
:100A90004091FE085091FF088DB79EB70C960FB697
:100AA000F8949EBF0FBE8DBF4436510540F59A01A4
:100AB000C901880F991FFC0113E0EE0FFF1F1A9563
:100AC000E1F7E81BF90BEE5FF64F80818823B9F060
:100AD0002436310520F481859285892B91F0C90156
:100AE000880F991FFC0173E0EE0FFF1F7A95E1F765
:100AF000E81BF90BEE5FF64F21853285D9CF20E058
:100B000030E0809100099091010921153105C9F06B
:100B1000988B8F8784E08E871D861C865B874A872B
:100B2000198618863F832E83BD83AC836B8381E651
:100B300098E89A838983BE016F5F7F4F80E10E94AE
:100B4000D90D60960FB6F894DEBF0FBECDBFCF9122
:100B5000DF911F910F91FF90EF90089560EA70E18F
:100B600086E10E94D90D08950F931F93CF93DF93D1
:100B700090911F1080E020911E10820F911D28E897
:100B80008336920709F0E3C0E0E1F9E061E070E04C
:100B90008081882341F1918180912A10981719F55D
:100BA000928180912B109817F1F4938180912C10F1
:100BB0009817C9F4948180912D109817A1F495810C
:100BC00080912E10981779F4968180912F109817A4
:100BD00051F4978180913010981729F49085809175
:100BE0003110981739F06F5F7F4F3E96643671056C
:100BF00079F635C0CB01880F991FFC0123E0EE0F79
:100C0000FF1F2A95E1F7E81BF90BEE5FF64F808195
:100C1000882329F1CB01880F991FFC0113E0EE0F07
:100C2000FF1F1A95E1F7E81BF90BEE5FF64F2185E0
:100C300032852115310549F46436710580F410823E
:100C400012861186148613860AC08091281090910E
:100C500029108217930719F0C9010E94120380918D
:100C60002810909129100E943F10182F40912810B1
:100C7000509129106AE270E1809132100E941E01A9
:100C8000EC019093B5108093B41083E698E89093AC
:100C9000A1108093A01080912B118093A2108F5FE0
:100CA00080932B1180912C1190912D119093A41071
:100CB0008093A31080912510909126109093A610F8
:100CC0008093A51080912E1190912F119093A810D0
:100CD0008093A71082E08093A910809128109091B2
:100CE00029109093AB108093AA1080912A108093C2
:100CF000AC1080912B108093AD1080912C108093BC
:100D0000AE1080912D108093AF1080912E108093A3
:100D1000B01080912F108093B1108091301080938B
:100D2000B210809131108093B310112319F480E038
:100D300090E002C085E090E06EEA75E00E94341316
:100D400081E080933811CE010E94341DB7C08356D4
:100D5000984C19F0C0E0D0E0B1C0E0E1F9E061E00A
:100D600070E08081882341F1909125102091261018
:100D7000309127104091281050912910A0912A10ED
:100D8000B0912B1010912C1081818917A9F48281C8
:100D9000821791F48381831779F48481841761F435
:100DA0008581851749F486818A1731F487818B17ED
:100DB00019F48085811739F06F5F7F4F3E96643656
:100DC000710579F629C0CB01880F991FFC01A3E0BA
:100DD000EE0FFF1FAA95E1F7E81BF90BEE5FF64F48
:100DE000818592850097B1F464367105A8F4CB0132
:100DF000880F991FFC0153E0EE0FFF1F5A95E1F792
:100E0000E81BF90BEE5FF64F1082128611861486EE
:100E1000138602C00E9412038091301040E050E01F
:100E200065E270E10E941E01EC0183E69CE890936C
:100E3000A1108093A01080912B118093A2108F5F3E
:100E400080932B1180912C1190912D119093A410CF
:100E50008093A31080912510909126102091271047
:100E6000309128104091291050912A1060912B1038
:100E700070912C108093A5109093A6102093A7102A
:100E80003093A8104093A9105093AA106093AB1010
:100E90007093AC1080912E1190912F119093AE1001
:100EA0008093AD1082E08093AF10D093B110C093C7
:100EB000B01060EA70E182E10E94D90D80E991E012
:100EC0000E94C30FDF93CF9383EA91E09F938F93A8
:100ED0000AE311E11F930F930E945E24C8010E9450
:100EE000C30F86EA91E00E94C30FCE0121E04DB707
:100EF0005EB74A5F5F4F0FB6F8945EBF0FBE4DBF3F
:100F0000880F991FFC0133E0EE0FFF1F3A95E1F7C0
:100F1000E81BF90BEE5FF64F8081882331F0818565
:100F20009285009719F02F5FEBCF20E0822F90E0A1
:100F30009F938F9383EA91E09F938F930AE311E14C
:100F40001F930F930E945E24C8010E94C30F85E681
:100F500091E00E94C30FCE010E94FF1C8DB79EB787
:100F600006960FB6F8949EBF0FBE8DBFDF91CF914E
:100F70001F910F91089580E090E89093A1108093C5
:100F8000A01080912A118093A2108F5F80932A1164
:100F900080912C1190912D119093A4108093A31007
:100FA00080912E1190912F119093A6108093A510EF
:100FB0008FEF90E49093A8108093A71086E0809321
:100FC000A910809134118093AA1060EA70E18BE03F
:100FD0000E94D90D08950895089508950895282F21
:100FE00080912E1190912F1168177907E9F0809167
:100FF00029118823C9F070937B0E60937A0E209399
:101000007C0E10927D0ECB010E943F10882319F4B4
:1010100080E090E002C085E090E065E178E00E9429
:10102000341381E0809338110895DF93CF93CDB7C7
:10103000DEB760970FB6F894DEBF0FBECDBF81E676
:1010400098E89A83898380912B118B838F5F80939B
:101050002B1180912C1190912D119D838C83809167
:101060002E1190912F11998788879D878C87809169
:101070007A0E90917B0E9B878A8780917C0E8E875B
:101080000E94A90B8F870E94AC0B888B80917A0EEF
:1010900090917B0E0E942B028E831F82BE016F5F98
:1010A0007F4F80E10E94D90D60960FB6F894DEBFA5
:1010B0000FBECDBFCF91DF91089560EA70E18091BE
:1010C0009F100E94D90D089580912B1090E08F778A
:1010D00090708230910541F08330910561F0019765
:1010E00081F40E94061F08958091291090912A1082
:1010F0000E94431D08958091291090912A100E940A
:10110000B9220895BF92CF92DF92EF92FF920F9390
:101110001F93CF93DF938C01F62E6A01B22E20919C
:101120002E1130912F118217930709F471C08FEFA0
:101130000F3F180709F46CC080912911882309F426
:1011400067C081E698E89093A1108093A0108091E9
:101150002B118093A2108F5F80932B1180912C1103
:1011600090912D119093A4108093A3103093A81008
:101170002093A7101093AA100093A9103093AC10DD
:101180002093AB10C8010E943F10E82EC8010E94B6
:101190001502EC01502F412F06C0CE010E9415020E
:1011A0005C2F4D2FEC012097C1F75093A510409371
:1011B000A610B092AD1090E009C0E92FF0E0E05623
:1011C000FF4ED6018D916D0186879F5F9F15A8F315
:1011D0002091A5103091A61080912E1190912F1181
:1011E00028173907A9F02F5F3F4F91F08EE0F80ED6
:1011F000F0929F10EE2019F487E090E002C085E0A5
:1012000090E06DE578E00E94341381E0809338111E
:10121000DF91CF911F910F91FF90EF90DF90CF90D2
:10122000BF900895DF93CF9300D0CDB7DEB77A8318
:10123000698326E0AE014F5F5F4F62E00E94820843
:101240000F900F90CF91DF91089521E00E948208C6
:101250000895909162118091631120E0981321E02C
:10126000822F08950F931F93182F092F80916211D9
:101270002091631190E001966AE070E00E942027BF
:1012800030E082179307D9F040916211842F90E0EB
:10129000FC01EE0FFF1FE80FF91FEC59FE4E212F46
:1012A000302FC901DC0183E00D9001928150E1F7FC
:1012B000842F8F5F8A3008F080E0809362111F9145
:1012C0000F910895DF93CF930F92CDB7DEB7809142
:1012D00063118983998189818F5F898389818A30AC
:1012E00008F0198289818093631123E0929F900115
:1012F00011242C593E4EC9010F90CF91DF910895D2
:101300001F93DF93CF930F92CDB7DEB713E05CC08E
:101310008091631189838981819FF0011124EC59A7
:10132000FE4E89818F5F898389818A3008F0198216
:1013300089818093631180818331F1F1843140F49C
:10134000813109F43FC08231D0F58031E9F515C013
:10135000853161F1853128F0863151F08731A1F571
:1013600028C080912911882379F50E94F9092CC0A1
:101370000180F281E02D099527C0809129118823F1
:1013800019F18EE190E10E94E30220912710309143
:10139000281080912E1190912F112817390719F4D8
:1013A0000E94640811C00E949A100EC00E94BB07E0
:1013B0000BC00E94B40508C00E94B62205C00E945E
:1013C000FD1C02C00E94FC1C90916211809163116F
:1013D000981709F09DCF0F90CF91DF911F9108953D
:1013E00080917E0E08958093AF0108958091AF01A2
:1013F000089580917E0E882369F0E0917F0EF0E0E1
:10140000EE0FFF1FE158F14F838194818C509E4F66
:1014100094838383089587E00E944615E0917F0EB0
:10142000F0E0EE0FFF1FE158F14F23813481280FC8
:10143000311D3483238360E087E00E9461150895A5
:10144000CF92DF92EF92FF920F931F93DF93CF9390
:10145000CDB7DEB7EDB6FEB680917F0E8A3108F4C7
:101460004DC0DDB6CEB610927E0E8EE00E944615BF
:101470008F7E682F8EE00E94611528E93EE0F90119
:101480000FEF1FEF808191818017910708F48C0185
:1014900032968EE0E83BF807A9F7EDB7FEB77A97EA
:1014A0000FB6F894FEBF0FBEEDBFADB7BEB7119635
:1014B0004BE060E0F901808191818017910729F468
:1014C000FD01E60FF11D40836F5F4F5F2E5F3F4FC1
:1014D0004B3181F7662349F08091810E0E940027ED
:1014E000A90FB11D8C910E940B1D8D2D9C2D9C016F
:1014F0000FB6F8943EBF0FBE2DBF30C08F5F8093F4
:101500007F0E0E94DF0C83E098E09093A1108093FF
:10151000A01080912A118093A2108F5F80932A11CE
:101520008FEF9FEF9093A4108093A3109093A61039
:101530008093A51087E08093A71060EA70E188E0AF
:101540000E94D90D60E087E00E94611560E27AE0B8
:1015500084E190E00E9434138093800E0FB6F894DB
:10156000FEBE0FBEEDBECF91DF911F910F91FF9098
:10157000EF90DF90CF900895E2E8FEE01192119293
:101580008EE0E83BF807D1F78AE080937F0E109257
:10159000800E8FEF0E94C50086E00E946D0D88E0EE
:1015A0000E941C0D8093810E8BE00E94DF0C8EE068
:1015B0000E9446158061682F8EE00E94611581E0CF
:1015C00080937E0E0E94200A08951F9310E0809160
:1015D00087118F3FE1F011E0809183119091841188
:1015E00090932D1180932C112091851130918611AB
:1015F00030933111209330110E944A0C8091871151
:101600000E94C00080918B118F5F80933411812FD5
:101610000E94011D1F910895909135119F3FA9F4DB
:1016200081E080937E0E86E1E2E8F1E1DF011D9228
:101630008A95E9F7909387118BE08093351180911B
:10164000AF01803811F080933511409135114B3145
:1016500048F4242F30E08091AF0190E001962817E4
:10166000390741F410927E0E8FEF809335110E945E
:10167000E50A0895842F0E94C00083E098E09093CB
:10168000A1108093A01080912A118093A2108F5FE7
:1016900080932A118FEF9FEF9093A4108093A31053
:1016A0009093A6108093A51087E08093A71060EA1E
:1016B00070E188E00E94D90D809135118F5F809391
:1016C00035116CE07BE084E190E00E9434130895D2
:1016D000EF92FF920F931F9388E00E941C0DF82E4B
:1016E000EE2488E00E941C0D082F10E00E291F290F
:1016F000C8010E944A0C10932D1100932C1180E018
:1017000090E00E943E0C10922F1110922E111F910A
:101710000F91FF90EF9008950E946A1680E88093E1
:1017200061001092610080E090E00E942D100E9404
:10173000FE140E945C180E946A180E949D1E7894F4
:101740000E949E1F0E9480090E9459180E948B18B7
:10175000F6CF8091B90E089580919D1008952D982F
:101760002C988DE090E00197F1F72D9A0895089557
:101770000895089540E06FE181E00E948B1508957F
:1017800040E06FE181E00E948B15282F815182306B
:1017900058F0223049F0213039F080E090E02E31CD
:1017A00029F481E090E0089581E090E00895CF93DE
:1017B000DF93EC0140E06FE181E00E948B15863001
:1017C00021F0813011F084E407C040E06FE186E051
:1017D0000E948B15888380E4DF91CF91089540E0CB
:1017E00067E083E00E948B15089545E060E281E1A7
:1017F0000E948B15882311F08BE408958AE40895E4
:1018000044E060E181E10E948B15089540E06FE0C3
:1018100081E10E948B15089540E06FE089E00E940D
:101820008B15089545E060E688E00E948B150895C9
:1018300040E06FE085E00E948B15089540E06FE185
:1018400088E00E948B15089540E06FE186E00E94D9
:101850008B158093B90E1092381108951F93CF9372
:10186000DF93EC0114E26991812F0E9461151F5FE3
:101870001C32C9F7DF91CF911F9108951F93192F43
:10188000682F80E20E946115612F81E20E9461153C
:101890001F9108951F93192F682F82E20E946115EE
:1018A000612F83E20E9461151F910895282F43E064
:1018B00068E08EE20E949E1508952C988DE090E0DD
:1018C0000197F1F723E040E06FE182E00E949E156E
:1018D00083E090E00197F1F708951C9B02C080E43B
:1018E00008950E945D0C8BE490E00197F1F740E0D1
:1018F0006FE181E00E948B15883011F083E4089538
:101900002C9A80E408951F93162F663010F082E41D
:1019100011C0882311F421E001C020E043E068E019
:1019200083E00E949E15212F40E067E083E00E9443
:101930009E1580E41F9108951C9902C080E40895CB
:101940002C9881EE96E00197F1F760E081E00E942B
:10195000830C40E06FE181E00E948B15883071F3C9
:1019600083E408951F93162F603110F082E415C0B0
:101970001C9B02C084E411C0882311F021E001C047
:1019800020E044E060E181E10E949E15212F40E0CB
:101990006FE081E10E949E1580E41F910895282F39
:1019A000803110F082E408951C9B02C084E4089505
:1019B00040E06FE085E00E949E1580E408951F934B
:1019C000182F8B50803110F082E428C01C9B02C07D
:1019D00084E424C040E06FE188E00E948B15811709
:1019E000E1F0212F40E06FE188E00E949E1540E089
:1019F0006FE181E00E948B15863011F0893021F46F
:101A00008DE291E00197F1F740E06FE188E00E94FC
:101A10008B15811711F083E401C080E41F910895B4
:101A20008091B80E882329F48CE10E94461580939A
:101A3000B80E8091B80E08950F931F93DF93CF9344
:101A400000D0CDB7DEB7082F198240E06FE181E00A
:101A50000E948B15182F0E94100D833021F00E94D8
:101A6000100D8730C9F4163019F4069510E010C037
:101A7000163191F4FACF45E060E686E00E948B15BE
:101A80008A8389819A81880F880F892B89831F5FB8
:101A9000101788F3898102C00E94E1230F900F90F4
:101AA000CF91DF911F910F9108951F93182F0E94DE
:101AB000100D823031F4212F47E060E885E00E946C
:101AC0009E150E94100D833031F4212F45E060E215
:101AD00084E00E949E151F9108950F931F93182F65
:101AE000883051F0863041F0893031F0863121F074
:101AF000893111F082E45AC01C9B02C084E456C0B4
:101B00000E94C00B8823E1F70E94100D823039F447
:101B10000E94F009882319F0163109F416E040E01C
:101B20006FE181E00E948B15082F181709F43DC062
:101B3000183019F40E945D0C2FC0193159F4893006
:101B4000E1F029E040E06FE182E00E949E1506315D
:101B500081F40CC0163189F4893079F029E040E035
:101B60006FE182E00E949E15093119F483E090E054
:101B700002C089E691E00197F1F7212F40E06FE183
:101B800082E00E949E15083019F489E691E002C0B7
:101B900083E090E00197F1F740E06FE181E00E947F
:101BA0008B15811711F083E401C080E41F910F9120
:101BB00008951F93CF93DF93182FEB0187FF02C087
:101BC00082E41AC00E94C00B8823E1F789E10E94D9
:101BD0006D0D40E06FE181E00E948B158931B1F716
:101BE0008D819E8190933711809336111E5F612FF6
:101BF000CE010E94F71580E4DF91CF911F910895E7
:101C0000DF93CF9300D000D00F92CDB7DEB740E086
:101C10006FE181E00E948B158A838A81813151F0C6
:101C20008A81863039F08A81813021F08A8186313B
:101C300009F047C00E94BD1590911F1080E02091CF
:101C40001E10AC01420F511D9A01809123108F3F4D
:101C500041F4809124108F3F21F4842F807F09F07C
:101C600062C01B821D821C8258E821363507E1F0D4
:101C700088E82236380740F448E02330340761F022
:101C800020503048C9F40AC088E82336380771F07C
:101C90002356384C89F40EC085E10DC00E94F0092E
:101CA000882351F084E107C080E105C080912710AE
:101CB000813011F487E18B83CE0103960E943209B3
:101CC00032C08A81823049F08A81823131F08A8142
:101CD000893119F08A81893031F5109238111B82CF
:101CE0001D821C8245E060EE82E00E948B15898394
:101CF0008981833051F0843018F4823050F403C06D
:101D0000853039F404C081E103C083E101C082E180
:101D10008B838B81882321F0CE0103960E943209A8
:101D200086E10E946D0D0F900F900F900F900F9015
:101D3000CF91DF9108950F931F930DEF13E0C8012A
:101D40000197F1F70E9430152D982C988DE090E0C6
:101D50000197F1F72D9A23E040E06FE182E00E94C5
:101D60009E15C8010197F1F76CE08EE00E946115A5
:101D700027E040E06FE089E00E949E1580E41F911B
:101D80000F910895089580913C0F90913D0F282F59
:101D900030E0291B310937FF02C020583F4F822F06
:101DA000089580913C0F90913D0F282F30E0291B22
:101DB000310937FF02C020583F4F822F089580918C
:101DC000BA0E9091BB0E282F30E0291B310937FF46
:101DD00002C020583F4F822F08959091BB0EE92FEB
:101DE000F0E0E654F14F22818091BA0E981711F479
:101DF0002FEF06C0E92FEF5FE7FDE0E0E093BB0EB9
:101E0000822F089590E08091C10F882309F491E01A
:101E10009093C10F089580E0089508951F920F9246
:101E20000FB60F920BB60F9211242F938F939F939F
:101E3000EF93FF939091BA0E8091BB0E9817B1F07B
:101E40009091BB0EE92FF0E0E654F14F2281809192
:101E5000BA0E981711F42FEF06C0E92FEF5FE7FDD8
:101E6000E0E0E093BB0E2093CE0005C08091C90056
:101E70008F7D8093C900FF91EF919F918F912F915A
:101E80000F900BBE0F900FBE0F901F9018951F92D2
:101E90000F920FB60F920BB60F9211242F933F9310
:101EA0004F935F936F937F938F939F93AF93BF9362
:101EB000EF93FF932091CE0090913C0F9F5F97FD91
:101EC00090E080913D0F981741F0E0913C0FF0E0D9
:101ED000E45CF04F228390933C0F1092C00FE0918E
:101EE000BE0FF091BF0F309711F0822F0995FF912F
:101EF000EF91BF91AF919F918F917F916F915F9182
:101F00004F913F912F910F900BBE0F900FBE0F90EE
:101F10001F901895282F90913C0F9F5F97FD90E0A0
:101F200080913D0F981741F0E0913C0FF0E0E45CA8
:101F3000F04F228390933C0F1092C00F08950F939F
:101F40001F93082F8091C10F8823D1F478941091AA
:101F5000BA0E1F5F17FF08C010E006C08091C00FC7
:101F6000882371F40E948B188091BB0E1817B1F36F
:101F7000E091BA0EF0E0E654F14F02831093BA0EEE
:101F80001F910F910895CF93DF93EC0103C00E943E
:101F90009F0F219688818823D1F7DF91CF910895F3
:101FA00002C00E948B1880913C0F90913D0F282F0A
:101FB00030E0291B310937FF02C020583F4F222350
:101FC00081F390913D0FE92FF0E0E45CF04F228126
:101FD00080913C0F981711F42FEF06C0E92FEF5FA7
:101FE000E7FDE0E0E0933D0F822F0895DF92EF924E
:101FF000FF920F931F93CF93DF93EC01D42E00E059
:10200000E62EFF240894E108F1080E94D00F182F53
:10201000802F90E08E159F0524F01D3011F01830B0
:10202000A1F7DD2019F0812F0E949F0F183061F079
:102030001D3081F41882802FDF91CF911F910F9175
:10204000FF90EF90DF9008950023F9F2015018827D
:102050002197DBCF19930F5FD8CF10923D0F80915E
:102060003D0F80933C0F1092BB0E8091BB0E80936E
:10207000BA0E0E94F0180895089508950895FF92E9
:102080000F931F93DF93CF93CDB7DEB7C258D040E5
:102090000FB6F894DEBF0FBECDBF8E010D5F1F4F90
:1020A000B8010E943603F82E82E08F1578F583E69A
:1020B00098E89C838B8380912B11F80182838F5F3A
:1020C00080932B1180912C1190912D1194838383F7
:1020D000108617828BEB8187858196819A8389830D
:1020E00089819A810E94A502F8016285738586170D
:1020F000970761F089819A810E94BB02FF0CB801A9
:102100008F2D8A5F0E94D90D81E001C080E0CE57FB
:10211000DF4F0FB6F894DEBF0FBECDBFCF91DF917A
:102120001F910F91FF90089560EA70E18FE70E9480
:10213000D90D0895AFE9B0E1EDE1F0E182E8019059
:102140000D928150E1F75F9A65EF7CE18AE090E0C3
:102150000E9434138091A9109091AA100E94E1016D
:102160002091A9103091AA10882339F180912B1168
:102170008093A2108F5F80932B113093A610209331
:10218000A51080912E1190912F119093A8108093FB
:10219000A71080EB91E00E94C30F8091A510909151
:1021A000A6108F5F9F4F09F43EC080919F1060EA98
:1021B00070E182500E94D90D089580912B11809377
:1021C000A2108F5F80932B11C9010E942B02909364
:1021D000A6108093A5101092A8101092A71086EC5C
:1021E00091E00E94C30F8091A9109091AA100E94C3
:1021F0003F10882351F064E970E185E090E00E948F
:10220000341381E08093381108958091A510909146
:10221000A6108F5F9F4F39F080919F1060EA70E1A8
:1022200082500E94D90D089580EB91E108950895A0
:1022300008958091C30F089508955F981092C40F78
:1022400008955F988091C40F882371F01092C40F95
:102250008091C50F0E942B146CE171E182E390E044
:102260000E9434138093C50F08955F988091C40F26
:102270008823B1F11092C40F8091AE119091AF11EB
:10228000892B71F180913911882351F18091C50F0B
:102290000E942B142091AE113091AF1142E02B38E7
:1022A000340788F46CE171E184E690E0AC01249F8E
:1022B000C001259F900D349F900D11240E9434136E
:1022C0008093C50F0895C90105966AE070E00E94E9
:1022D0000C27CB016CE171E10E94B3138093C50F11
:1022E00008950F931F93DF93CF93CDB7DEB72A974F
:1022F0000FB6F894DEBF0FBECDBF8E010F5F1F4F2C
:102300009AE0F80111929A95E9F799E099838A8306
:1023100046E050E0CE0103960E940F24A8016AE037
:1023200080919B1190919C110E9425098EED91E066
:102330000E94C30F2A960FB6F894DEBF0FBECDBF22
:10234000CF91DF911F910F9108950F931F93DF930A
:10235000CF93CDB7DEB72C970FB6F894DEBF0FBE84
:10236000CDBF8091C20F8130D9F0813020F0823012
:1023700009F05BC03CC088EF91E00E94C30F8DE97B
:1023800091E10E94C30F8EE192E00E94C30F809101
:10239000C20F8F5F8093C20F81E08093C30F4AC04A
:1023A0000E94C30E882309F445C041E06AE08E0113
:1023B0000F5F1F4FC8010E94F60FB80180E00E9416
:1023C00071118091C20F8F5F8093C20F80919A111B
:1023D000823081F581E292E00E94C30F8DE991E1A4
:1023E0000E94C30F8EE192E00E94C30F23C0809130
:1023F0009A118230B1F40E94C30E8823D9F041E0D3
:102400006AE08E010F5F1F4FC8010E94F60F809196
:10241000C20F8F5F8093C20FB80181E00E947111DB
:1024200009C083E08093C20F05C01092C30F1092C1
:10243000C20F06C065EA71E182E390E00E943413A6
:102440002C960FB6F894DEBF0FBECDBFCF91DF91B3
:102450001F910F910895CF92DF92EF92FF920F9309
:102460001F93DF93CF93CDB7DEB72A970FB6F894BB
:10247000DEBF0FBECDBF6C01FC018081843021F036
:10248000863009F06EC063C087E492E00E94C30FFB
:10249000F601818192819F938F938EE592E09F93C5
:1024A0008F938AE3E82E81E1F82EFF92EF920E944B
:1024B0005E24C7010E94C30F81E692E00E94C30F11
:1024C00083E090E0C80ED91E46E050E0B6018E01D0
:1024D0000F5F1F4FC8010E940F241F82C8010E9476
:1024E000C30F80E20E949F0FC60106960E94C30F91
:1024F00085E692E00E94C30F0E94A90B90E09F9393
:102500008F930DE612E01F930F93FF92EF920E94BC
:102510005E24C7010E94C30F80E792E00E94C30FB0
:102520000E94AC0B90E09F938F931F930F93FF92A9
:10253000EF920E945E24C7010E94C30FEDB7FEB761
:1025400072960FB6F894FEBF0FBEEDBF0AC0A9E9A0
:10255000B1E1F60189E001900D928150E1F70E940E
:10256000A5112A960FB6F894DEBF0FBECDBFCF914E
:10257000DF911F910F91FF90EF90DF90CF90089522
:102580000F931F93DF93CF93CDB7DEB729970FB685
:10259000F894DEBF0FBECDBF8C0182E0898348E096
:1025A00050E0CE0102960E940F24AE014F5F5F4FB4
:1025B00069E0C8010E94250929960FB6F894DEBF8C
:1025C0000FBECDBFCF91DF911F910F910895DF9383
:1025D000CF930F92CDB7DEB727E02983AE014F5FCF
:1025E0005F4F63E00E9425090F90CF91DF9108951E
:1025F000DF93CF930F92CDB7DEB725E029831092FA
:102600009911AE014F5F5F4F63E00E9425090F9063
:10261000CF91DF910895DF93CF9300D00F92CDB784
:10262000DEB723E029837B836A83AE014F5F5F4F70
:1026300063E00E9425090F900F900F90CF91DF91DA
:102640000895DF93CF930F92CDB7DEB78FB789830D
:10265000F8942091091030910A1089818FBFC90127
:102660000F90CF91DF910895DF93CF930F92CDB765
:10267000DEB7AC01009719F4FB01099530C08FB7A4
:102680008983F894A8ECBFE0E0E08D919C911197CC
:10269000892B09F52E2F30E0F901EE0FFF1FEE0F09
:1026A000FF1FE20FF31FE853F04FCA014115510518
:1026B00011F481E090E091838083F901EE0FFF1F18
:1026C000EE0FFF1FE20FF31FE853F04F7483638395
:1026D0009091C60F34C0EF5F1596EA30B1F690E0E6
:1026E0003DC091E0EAECFFE041E08081891709F408
:1026F00040E035968FE0EC3FF807B9F78091FC0F8A
:10270000891709F440E080910110891709F440E02D
:1027100080910610891799F0442389F09093C60F91
:10272000F901EE0FFF1FEE0FFF1FE20FF31FE8533B
:10273000F04F92838091C70F882321F00DC09F5FD7
:1027400089F6CFCF109295001092940082E080938A
:10275000710081E08093C70F89818FBF892F0F900F
:10276000CF91DF910895DF93CF930F92CDB7DEB76E
:10277000AC01009719F4FB01099516C08091FA0F7E
:102780009091FB0F892B11F4E0E011C08091FF0FB5
:1027900090910010892B11F4E1E009C080910410A0
:1027A00090910510892B11F090E050C0E2E02E2F9F
:1027B00030E0F901EE0FFF1FEE0FFF1FE20FF31FD6
:1027C000E650F04F51834083748363839091C60F2A
:1027D0009F5F09F491E0EAECFFE041E08081891716
:1027E00009F440E035968FE0EC3FF807B9F78091A7
:1027F000FC0F891709F440E080910110891709F452
:1028000040E080910610891719F3442309F390934F
:10281000C60FF901EE0FFF1FEE0FFF1FE20FF31FB0
:10282000E650F04F92838FB78983F8948091C70F59
:10283000882351F4109295001092940082E08093C6
:10284000710081E08093C70F89818FBF892F0F901E
:10285000CF91DF910895982FEAECFFE020E030E07F
:102860008081891769F4F901EE0FFF1FEE0FFF1F3A
:10287000E20FF31FE853F04F118210821282089585
:102880002F5F3F4F35962A30310551F78091FC0F6D
:10289000891719F480E090E00DC08091011089172C
:1028A00019F481E090E006C080910610891771F458
:1028B00082E090E0FC01EE0FFF1FEE0FFF1FE80F1C
:1028C000F91FE650F04F11821082128208951F9274
:1028D0000F920FB60F920BB60F921124DF92EF9268
:1028E000FF920F931F932F933F934F935F936F9399
:1028F0007F938F939F93AF93BF93EF93FF93DF9358
:10290000CF9300D00F92CDB7DEB780910910909190
:102910000A10019690930A10809309108091B702D3
:102920009091B80201979093B8028093B702892BD7
:1029300049F008EC1FE066E1D62E7E010894E11C08
:10294000F11C27C088EE93E09093B8028093B70201
:102950000AEF1FE056E1D52E7E010894E11CF11C20
:10296000F80180819181009769F0019791838083BC
:10297000892B41F4D982838194819B838A83C70107
:102980000E9432090B5F1F4FF0E109301F0741F72A
:10299000D0CFF80180819181009769F001979183F0
:1029A0008083892B41F4D982838194819B838A839C
:1029B000C7010E9432090B5F1F4FFFE00A3F1F074C
:1029C00041F70F900F900F90CF91DF91FF91EF9112
:1029D000BF91AF919F918F917F916F915F914F9137
:1029E0003F912F911F910F91FF90EF90DF900F90EB
:1029F0000BBE0F900FBE0F901F901895E1E9F0E00D
:102A000080818A60808388EE93E090939900809320
:102A1000980080919400909195000E94E62308957B
:102A20009C01F999FECF32BD21BDF89A80B5089579
:102A30009C01F999FECF1FBA32BD21BD60BD0FB612
:102A4000F894FA9AF99A0FBE089584B1866084B911
:102A5000299A209A289A80E58CBD81E08DBD089541
:102A6000249A259A84B1866084B9299A209A289A52
:102A700080E58CBD81E08DBDEFE6F0E08081806275
:102A8000808383E480938100B59A0895DF93CF9388
:102A90000F92CDB7DEB780689FB79983F8942898D6
:102AA0008EBD0DB407FEFDCF8EB58EBD0DB407FEF5
:102AB000FDCF8EB5289A99819FBF0F90CF91DF915E
:102AC0000895DF93CF930F92CDB7DEB7982F906C18
:102AD0008FB78983F89428989EBD0DB407FEFDCF6B
:102AE0008EB56EBD0DB407FEFDCF8EB5289A8981D7
:102AF0008FBF9F73923059F46F71663011F0663159
:102B000021F481E08093981102C0109298110F90E7
:102B1000CF91DF910895FF920F931F93062FF42E0C
:102B20000E944615082310E002C015950795FA94F7
:102B3000E2F7802F1F910F91FF900895DF92EF929F
:102B4000FF920F931F93D82EF62EE42E022F0E9491
:102B500046156F2D6095682310E002C0000F111F0D
:102B6000EA94E2F7F0226F298D2D0E9461151F91E2
:102B70000F91FF90EF90DF900895DF93CF930F9226
:102B8000CDB7DEB78FB78983F894289880E28EBDE1
:102B90000DB407FEFDCF8EB58EBD0DB407FEFDCF83
:102BA0009EB5892F83508D37A8F490931D109EBD3C
:102BB0000DB407FEFDCFEEE1F0E18EB51EBC8193B2
:102BC0000DB407FEFDCF9150C1F78EB580939D10D7
:102BD000289A07C0289A10921D1010929D101092EA
:102BE0009E1089818FBF0F90CF91DF910895DF9361
:102BF000CF930F92CDB7DEB7FC016F778FB7898384
:102C0000F8942C9A2C98289880E68EBD0DB407FE77
:102C1000FDCF8EB56EBD0DB407FEFDCF8EB5819193
:102C20008EBD61500DB407FEFDCF8EB56623B9F79A
:102C3000289A89818FBF0F90CF91DF910895DF93FC
:102C4000CF930F92CDB7DEB7982FFA018FB7898354
:102C5000F89428981EBC0DB407FEFDCF8EB59EBD1E
:102C60000DB407FEFDCF8EB51EBC0DB407FEFDCF23
:102C70008EB58083615011F03196F6CF289A898104
:102C80008FBF0F90CF91DF910895DF93CF930F9275
:102C9000CDB7DEB7982FFA018FB78983F8942898BB
:102CA00080E48EBD0DB407FEFDCF8EB59EBD0DB484
:102CB00007FEFDCF8EB581918EBD0DB407FEFDCF11
:102CC0008EB56150C1F7289A89818FBF0F90CF913F
:102CD000DF9108950895DF93CF930F92CDB7DEB7BC
:102CE000E62FBA012FB72983F89428E135E14E2F5A
:102CF00050E00E943A2489818FBF0F90CF91DF91DD
:102D00000895DF93CF930F92CDB7DEB7FC01CA01D0
:102D10002FB72983F89420E135E1462F50E0BF0119
:102D20000E941E2489818FBF0F90CF91DF9108955B
:102D3000DF92EF92FF920F931F93DF93CF9300D018
:102D4000CDB7DEB780910B10882311F011E05CC085
:102D500081E080930B10D0906600F89461E00E94AF
:102D6000830CE090B100F0908100009180001092FF
:102D7000B100109281001092800020E030E063E00A
:102D800056E04FEF6093B100509381001092B20073
:102D9000109285001092840046BB47BBB89BFECFC3
:102DA00080918400909185009A838983109281009C
:102DB0001092B10089819A818A5F934020F48091BA
:102DC000660081500AC089819A818650944010F42F
:102DD00011E00CC0809166008F5F809366002F5FCA
:102DE0003F4F83E0283E380769F610E060E081E05D
:102DF0000E94830CE092B100F09281000093800069
:102E0000112311F4D0926600812F0F900F90CF9173
:102E1000DF911F910F91FF90EF90DF9008951F9227
:102E20000F920FB60F920BB60F9211240F931F93B0
:102E30002F933F934F935F936F937F938F939F93C2
:102E4000AF93BF93EF93FF938FE00E944615082F37
:102E5000182F83FF02C00E94000E14FF02C00E94C0
:102E60000B0A12FF10C0289880E28EBD0DB407FE39
:102E7000FDCF8EB51EBC0DB407FEFDCF8EB5289AD2
:102E80000E94240C0AC007FF08C08EE00E9446156D
:102E90008F77682F8EE00E946115FF91EF91BF91AF
:102EA000AF919F918F917F916F915F914F913F91E2
:102EB0002F911F910F910F900BBE0F900FBE0F908F
:102EC0001F90189508950895789483B7817F846042
:102ED00083BF83B7816083BF889583B78E7F83BFAD
:102EE000089508951F920F920FB60F920BB60F928E
:102EF00011242F933F934F935F936F937F938F93FF
:102F00009F93AF93BF93EF93FF938091DA0080FF7D
:102F100031C08091D80080FF2DC08EEF8093DA0001
:102F20008091D90080FF19C081E08093C211809107
:102F30000C1090910D10826090930D1080930C10E6
:102F40008091E20088608093E2000E947D19809168
:102F5000E0008E7F8093E0000DC01092C2111092AD
:102F6000C51180910C1090910D10846090930D10FC
:102F700080930C108091E10082FF09C08091E200F3
:102F800082FF05C08BEF8093E1000E947B18809147
:102F9000E10080FF29C08091E20080FF25C08EEF14
:102FA0008093E1008091E20080618093E2008FEEE7
:102FB0008093E1008091D80080628093D800809156
:102FC0000C1090910D10806290930D1080930C1056
:102FD000789483B7817F846083BF83B7816083BF28
:102FE000889583B78E7F83BF8091E10084FF1AC0EC
:102FF0008091E20084FF16C08091D8008F7D80937D
:10300000D8008FEE8093E1008091E2008F7E809364
:10301000E20080910C1090910D10806490930D103F
:1030200080930C108091E10085FF1AC08091E2002E
:1030300085FF16C08091E2008F7E8093E2008FEDC5
:103040008093E1008091E2008F7D8093E200809187
:103050000C1090910D10806890930D1080930C10BF
:103060008091E10083FF12C08091E20083FF0EC0D7
:1030700087EF8093E1000E94111A80910C109091CB
:103080000D10916090930D1080930C10FF91EF91B3
:10309000BF91AF919F918F917F916F915F914F9170
:1030A0003F912F910F900BBE0F900FBE0F901F906E
:1030B00018950E9499190895E7EDF0E080818160EC
:1030C000808380818F7B80838081806880830E9461
:1030D0006C1908958AB1806A8AB98DB1806C8DB9F6
:1030E0005F985E9A8EB1806C8EB9E2EEF0E08081DE
:1030F0008460808308958091BE118F5F8093BE119C
:1031000008955F9A88EC8093B51108955D9888ECD6
:103110008093BD1108950F931F938091B51188235B
:1031200021F081508093B51101C05F988091BD114D
:10313000882321F081508093BD1101C05D9A809158
:10314000B411882321F081508093B41101C0779A83
:103150008091BF11882321F081508093BF1101C05D
:10316000769A8091C5118823C1F18091BE11823376
:10317000C0F08091C0118823A1F01092BE110E946E
:1031800061190FC00093E9000E943619882329F1C4
:1031900077981093B4110E94ED0E90E00E944019B0
:1031A00002C001E018EC0E94DF0E882359F70E944C
:1031B000D10E8F3790F40E94F518882349F40DC082
:1031C00076981093BF110E9417190E948A0F01C0B0
:1031D00018EC8091C111882399F71F910F910895E0
:1031E0001092C0111092C11108958091C1118823CD
:1031F000C9F482E08093E9008091E80082FF12C068
:103200008091F3008091F2008093C111882351F4E2
:103210008091E8008B7F8093E8008091E8008F77B1
:103220008093E8008091C111811181E0089582E0CE
:103230008093E9008091C111882319F40E94F51848
:10324000FBCF9091F1008091C11181508093C11109
:10325000882351F48091E8008B7F8093E80080916F
:10326000E8008F778093E800892F08958091E80027
:1032700090E025E0969587952A95E1F7817008956D
:10328000282F81E08093E9008091E80085FFFCCF42
:103290000CC081E08093E9008091E8008F778093F3
:1032A000E8001092C011822F08952093F1008091C0
:1032B000C0118F5F8093C0118091E80085FFE9CF36
:1032C000F2CF81E08093E900E8EEF0E080818F7733
:1032D00080831092C01108957894E8EDF0E0808129
:1032E0008F76808380818069808380818F7B8083DB
:1032F000808181608083789408958EE089BD09B4CF
:1033000000FEFDCF8091D8008F7D8093D800809102
:10331000E20081608093E2008091E2008860809307
:10332000E2000E94111A8091E0008E7F8093E000FD
:1033300008958091D90080FF09C08091C21188232F
:1033400029F481E08093C2110E947D1980910C10B4
:1033500090910D1090FF10C080910C1090910D1065
:103360009E7F90930D1080930C1081E08093EA0073
:103370001092EA001092C5111092E9008091E800C5
:1033800083FF02C00E940C1B08959091EB00916096
:103390009093EB008093EC008091ED008270862B7F
:1033A0008093ED008091ED0082608093ED0080912C
:1033B000EE00881F8827881F08959091F40080E010
:1033C00090FD06C08F5F873011F09695F9CF80E0B1
:1033D0000895FB018093E90004C081918093F1007E
:1033E00041508091E80085FF02C04423B1F7842F4B
:1033F0000895FB018093E90004C08091F10081935E
:1034000041508091E80085FF02C04423B1F7842F2A
:1034100008958093E900EBEEF0E080818062808384
:1034200008958091D8008F7B8093D8008091D90037
:1034300081FF21C01092E9008091EB0080FD1BC04C
:103440001092E9008091EB0081608093EB0082E0B4
:103450008093EC008091ED00827080638093ED009A
:103460008091ED0082608093ED008091EE00881FD6
:103470008827881F089580E0089580E0089580914E
:10348000E800877F8093E8008091B6118093F10077
:103490008091B7118093F1008091B8118093F10071
:1034A0008091B9118093F1008091BA118093F1005D
:1034B0008091BB118093F1008091BC118093F10049
:1034C0008091E8008E7F8093E8008091E80080FF83
:1034D000FCCF8091E80082FFFCCF8091E8008B7FD9
:1034E0008093E8008091E8008F778093E80008954A
:1034F0008091E800877F8093E8008091E80082FF58
:10350000FCCF8091F1008093B6118091F1008093FF
:10351000B7118091F1008093B8118091F1008093F0
:10352000B9118091F1008093BA118091F1008093DC
:10353000BB118091F1008093BC118091E8008B7FDA
:103540008093E8008091E8008F778093E800809175
:10355000E8008E7F8093E8008091E80080FFFCCF38
:1035600008958091F1008091F100613231F0623272
:1035700059F0603229F080E008950E943F1A02C09D
:103580000E94781A81E008958091E800877F8093F7
:10359000E8008091E8008E7F8093E8008091E80049
:1035A00080FFFCCF81E008958091E800877F8093C1
:1035B000E8008091E8008E7F8093E8008091E80029
:1035C00080FFFCCF0895FF920F931F9309EE10E048
:1035D00083E0F801808360E281EC0E94C51981E0FC
:1035E000F801808360E281E80E94C51982E0F82E2C
:1035F000F801F08264E280E80E94C519EAEEF0E08A
:1036000088E080831082F082108284E080831082C0
:103610001F910F91FF900895DF93CF9300D0CDB706
:10362000DEB79091F100909313106091F100663035
:10363000F9F0673068F4613009F402C1613008F4D0
:103640006CC1633009F435C1653009F0BAC1BEC040
:10365000693009F4DCC06A3020F4683009F0B1C187
:1036600099C06A3009F495C16B3009F0AAC198C1BC
:10367000903809F08DC010920E106091F100809189
:10368000F100813019F0823089F406C082E1809324
:10369000C61188E990E005C083E48093C6118AEAE8
:1036A00090E09093C8118093C71105C00E943D1A05
:1036B000882309F48BC18091F1008091F100809101
:1036C000F10089838091F1008A838091E800877FEF
:1036D0008093E80029813A818091C61190E0821799
:1036E000930758F48F739070892B21F481E08093B5
:1036F0000E1005C010920E1002C02093C61120912A
:10370000C7113091C8114091C61119C08091E800CD
:1037100080FFFCCFF90190E00AC0542F5150903443
:1037200049F09F5F84918093F1003196452F9F016E
:10373000442399F78091E8008E7F8093E80044232A
:1037400059F08091E80082FFE1CF2093C7113093B8
:10375000C8114093C61106C02093C7113093C811F9
:103760001092C6118091E80082FD08C180910E1070
:10377000813049F48091E80080FFFCCF8091E8001F
:103780008E7F8093E8008091E80082FFFCCFF6C036
:1037900066E002C19038C1F48091E800877F809391
:1037A000E8008091C5118093F1008091E8008E7F40
:1037B0008093E8008091E8008F778093E800809103
:1037C000E80082FFFCCFDAC068E0E6C09923E9F4A4
:1037D0009091E3008091F1008F779078892B80930E
:1037E000E3008091E800877F8093E8008091E80003
:1037F0008E7F8093E8008091E80080FFFCCF80916D
:10380000E30080688093E300EBC065E0C5C09923C6
:10381000A9F49091F100923008F0D8C08091E800AE
:10382000877F8093E8009093C5118091E8008E7F98
:103830008093E800892F0E94E31AD2C069E0ACC0EF
:103840009330A8F5992309F4C1C0913009F4BEC0A2
:103850008091F1009091F100882309F0B7C0E091C8
:10386000F100EF77E093E9008091EB0080FF50C01A
:10387000EE23B1F08091EB0080618093EB0081E05A
:1038800090E00E2E02C0880F991F0A94E2F78093F1
:10389000EA001092EA008091EB0088608093EB00D0
:1038A0001092E900F0E0E15FFF4E108228C061E075
:1038B00073C0933080F5913009F488C0923009F0DC
:1038C0008FC08091F1009091F100882309F07EC0B3
:1038D000E091F100EF7709F479C0E093E90080917D
:1038E000EB0080FF15C08091EB0080628093EB00BD
:1038F0001092E900F0E0E15FFF4E81E0808380916B
:10390000E800877F8093E8008091E8008E7F66C0A2
:103910001092E9005BC063E03FC0892F805883307C
:10392000B0F58091F1008091F100E091F1009138C3
:1039300029F0923859F0903809F048C08091E80099
:10394000877F8093E8001092F1000DC08091E8001D
:10395000877F8093E800F0E0EF77F070E15FFF4E43
:1039600080818093F1001092F1008091E8008E7FB9
:103970008093E8008091E80082FFFCCF8091E8000E
:103980008B7F8093E8008091E8008F7727C060E00C
:1039900003C09138D9F06AE0892F0E94B11A20C083
:1039A0009130F1F48091E800877F8093E800809166
:1039B000E8008E7F8093E8008091E80080FFFCCFD4
:1039C0000FC0892F0E94B11A882351F48091EB0017
:1039D00080628093EB008091E800877F8093E8000D
:1039E0000F900F90CF91DF9108955F9808955F98A1
:1039F00008955F9808950895089508950895089585
:103A00000895089589EB92E00E94C30F88EE92E03A
:103A10000E94C30F08950F931F93082F0E94C500A3
:103A20000E94680B8CE093E00E94C30F10E01F938C
:103A30000F938FE293E09F938F930AE311E11F931B
:103A40000F930E945E24C8010E94C30F81E08093FF
:103A500029118DB79EB706960FB6F8949EBF0FBE7C
:103A60008DBF1F910F9108955F9A65EF7CE18AE009
:103A700090E00E94341308956CE37DE188EE93E0BA
:103A80000E9434130895EF92FF920F931F938C01BD
:103A90005F9A65EF7CE181E090E00E94341382E35D
:103AA00093E00E94C30F1F930F938FE293E09F93C5
:103AB0008F938AE3E82E81E1F82EFF92EF920E9425
:103AC0005E24C7010E94C30FB80183E00E94EF0784
:103AD0008DB79EB706960FB6F8949EBF0FBE8DBFEA
:103AE0001F910F91FF90EF9008955F9A65EF7CE131
:103AF00089E190E00E9434130895EF92FF920F93B2
:103B00001F93882349F080931A10709319106093C3
:103B1000181081E080931B1080911A10882309F4FB
:103B20008CC080911B1090E00E94CD02FC0180812E
:103B3000882311F490E068C080911A10813021F040
:103B4000823021F191E060C08CE493E00E94C30FC9
:103B500080911B1090E09F938F938FE293E09F934F
:103B60008F930AE311E11F930F930E945E24C80113
:103B70000E94C30F60911B1070E082E00E94EF076B
:103B800091E02DB73EB72A5F3F4F39C08CE593E0F7
:103B90000E94C30F80911B1090E09F938F939FE230
:103BA000E92E93E0F92EFF92EF920AE311E11F93C1
:103BB0000F930E945E24C8010E94C30F8DE693E01C
:103BC0000E94C30F80911810909119109F938F93AA
:103BD000FF92EF921F930F930E945E24C8010E94F0
:103BE000C30F609118107091191080911B1090E014
:103BF0000E940B1391E02DB73EB7245F3F4F0FB6E5
:103C0000F8943EBF0FBE2DBF80911B108F5F809335
:103C10001B10843660F4992319F481E090E002C00F
:103C20008AEF90E062E27EE10E94341306C01092B7
:103C300019101092181010921A101F910F91FF90E6
:103C4000EF90089560E070E080E00E947D1D08958F
:103C500060E08FE20E94611560E070E082E00E9407
:103C6000EF0768E27EE184EF91E00E9434138093D5
:103C70001C100895EF92FF920F931F93DF93CF9341
:103C8000CDB7DEB728970FB6F894DEBF0FBECDBF15
:103C90008E010F5F1F4FA80168E080E090E00E9456
:103CA000811678019E01275F3F4FF80180818F3F89
:103CB000B9F40F5F1F4F02171307B9F72AC088E046
:103CC0000E941C0DF70181937F01E017F107B9F7FE
:103CD000AE014F5F5F4F68E080E090E00E946B169E
:103CE0008E010F5F1F4FA80162E080E190E00E940B
:103CF000811689819A818F5F9F4F91F484E190E0D2
:103D00009A838983A80162E080E190E00E946B16AB
:103D100007C080E00E949B0E86E00E946D0DCFCF11
:103D200028960FB6F894DEBF0FBECDBFCF91DF91BE
:103D30001F910F91FF90EF9008958AB1806A8AB920
:103D40008DB1806C8DB90E94751D0E943A1E0E9433
:103D5000BC0A81E793E00E94C30F0895EF92FF929F
:103D60000F931F938FE793E00E94C30F80918511FB
:103D7000909186119F938F9381E993E09F938F9306
:103D80000AE311E11F930F930E945E24C8010E9471
:103D9000C30F84E993E00E94C30F8091871190E0E4
:103DA0009F938F932FE2E22E23E0F22EFF92EF9269
:103DB0001F930F930E945E24C8010E94C30F8CE9D9
:103DC00093E00E94C30F80918B1190E09F938F939B
:103DD000FF92EF921F930F930E945E24C8010E94EE
:103DE000C30F6091871180918511909186110E9477
:103DF0001C018DB79EB742960FB6F8949EBF0FBEBA
:103E00008DBF1F910F91FF90EF90089580912B101F
:103E1000813059F45F9A65EF7CE18AE090E00E947E
:103E200034138CE290E10E942B1208956F927F92DE
:103E30008F929F92AF92BF92CF92DF92EF92FF92BA
:103E40000F931F93DF93CF93CDB7DEB7A8970FB62D
:103E5000F894DEBF0FBECDBF86EA93E00E94C30F89
:103E60006FECC62E68E0D62E5FE2A52E56E0B52E8A
:103E70004E010894811C911C45EB642E43E0742E86
:103E8000F60180810E944615082F10E01F930F93C2
:103E9000BF92AF927F926F929F928F920E945E2408
:103EA000C4010E94C30F38E0E32EF12C2DB73EB7BA
:103EB000285F3F4F0FB6F8943EBF0FBE2DBF8E2D2B
:103EC0008150F80102C0F595E7958A95E2F7E0FD8B
:103ED00002C080E301C081E30E949F0F0894E108C3
:103EE000F108E114F10459F783EC93E00E94C30F49
:103EF0000894C11CD11C20E130E0A20EB31E39EFA2
:103F0000C31638E0D30609F0BBCF83EC93E00E94E0
:103F1000C30FA8960FB6F894DEBF0FBECDBFCF91EA
:103F2000DF911F910F91FF90EF90DF90CF90BF90A6
:103F3000AF909F908F907F906F9008956F927F9237
:103F40008F929F92AF92BF92CF92DF92EF92FF92A9
:103F50000F931F93DF93CF93CDB7DEB7C656D040F4
:103F60000FB6F894DEBF0FBECDBF109217100E949F
:103F7000C30E882309F4E4C20E941911882309F0B2
:103F8000DFC280913811882309F0DAC20E94D00F75
:103F9000082F843111F4109214108091141088238A
:103FA00001F17E010894E11CF11C10E0F70100838F
:103FB0001F5F143659F00E94C30E0894E11CF11CD7
:103FC000882321F00E94D00F082FF0CFAE014F5F61
:103FD0005F4F612F80911510909116100E94250956
:103FE000AFC283EC93E00E94C30F093681F10A3619
:103FF00098F4003509F46FC2013538F4013409F43E
:1040000071C2033409F096C210C2033609F4A9C183
:10401000043609F08FC215C0023709F4DCC103373A
:1040200038F40E3609F417C2003709F083C26AC1AA
:10403000043751F0043708F47DC1073709F07AC21C
:104040002EC20E94161F76C20E94A00373C28091E6
:104050003211909133119F938F93809130119091F1
:1040600031119F938F9380912E1190912F119F93D7
:104070008F9386EC93E09F938F933E010894611C8D
:10408000711C7F926F920E945E24C3010E94C30F35
:104090008091351190E09F938F9382EF93E09F93EF
:1040A0008F937F926F920E945E24C3010E94C30F80
:1040B0008EEF93E00E94C30F80912C1190912D11EF
:1040C0009F938F9381E993E09F938F930AE311E18C
:1040D0001F930F930E945E24C8010E94C30F83ECBC
:1040E00093E00E94C30F8090211190902211A09024
:1040F0002311B0902411C0902511D0902611E0908A
:104100002711F0902811BF92AF929F928F9200E2F8
:104110009401A501B601C7010E94112359016A014A
:10412000DF92CF92BF92AF928AE094E09F938F93F9
:104130007F926F920E945E242DB73EB72E5D3F4F57
:104140000FB6F8943EBF0FBE2DBFC3010E94C30F30
:104150009091341180912911882319F420E234E0E0
:1041600002C026E234E0892F90E09F938F933F9323
:104170002F938BE294E09F938F938E010F5F1F4FDD
:104180001F930F930E945E24C8010E94C30F88E012
:104190000E941C0D90E09F938F9385E494E09F9381
:1041A0008F931F930F930E945E24C8010E94C30F38
:1041B0000E94100DEDB7FEB73E960FB6F894FEBF05
:1041C0000FBEEDBF833051F0873059F0823019F4C3
:1041D00006EE10E008C0082F10E005C007EE10E062
:1041E00002C004ED10E083E594E00E94C30F8DE16E
:1041F0000E94461590E09F938F931F930F938BE53A
:1042000094E09F938F938E010F5F1F4F1F930F9327
:104210000E945E24C8010E94C30F78E6E72E74E076
:10422000F72EFF92EF928BE694E09F938F931F936C
:104230000F930E945E24C8010E94C30F88E090E0A3
:104240009F938F9388E794E09F938F931F930F938F
:104250000E945E24C8010E94C30F2091AE113091CC
:10426000AF11C9016AE070E00E940C279F938F9301
:10427000C9016AE070E00E940C277F936F9387E882
:1042800094E09F938F931F930F930E945E24C80125
:104290000E94C30F8DE994E09F938F9383EA94E08B
:1042A0009F938F931F930F930E945E242DB73EB769
:1042B0002E5D3F4F0FB6F8943EBF0FBE2DBFC80115
:1042C0000E94C30FFF92EF928DEB94E09F938F9328
:1042D0001F930F930E945E24C8010E94C30FFF9298
:1042E000EF928CEC94E09F938F931F930F930E9417
:1042F0005E248DB79EB70C960FB6F8949EBF0FBE86
:104300008DBF18C18DED94E00E94C30F41E062E3C0
:104310008E010F5F1F4FC8010E94F60FC8010E9457
:10432000F1238093151090931610BC0182E00E9437
:10433000EF0700C181EF94E00E94C30F41E062E308
:104340008E010F5F1F4FC8010E94F60FC8010E9427
:10435000F123909316108093151081E08093141030
:10436000E9C088E095E00E94C30F41E062E38E015E
:104370000F5F1F4FC8010E94F60FC8010E94F12372
:10438000F82E89E195E00E94C30F41E062E3C80185
:104390000E94F60F8F2D0E94C5000E94680B8BE2D1
:1043A00095E00E94C30F81E080932911C8010E940B
:1043B000F1239093161080931510009709F4BAC05A
:1043C0000E944A0C809115109091161090932D1117
:1043D00080932C11AFC08AE495E00E94C30F41E0A6
:1043E00062E38E010F5F1F4FC8010E94F60FC801E4
:1043F0000E94F123909316108093151084E695E0A7
:104400000E94C30F41E062E3C8010E94F60FC80199
:104410000E94F1238C010E948009B801809115103F
:10442000909116100E940B1385C085E895E00E94BC
:10443000C30F41E062E38E010F5F1F4FC8010E946E
:10444000F60FC8010E94F123809315109093161067
:104450000E94F8126FC087E995E00E94C30F41E007
:1044600062E38E010F5F1F4FC8010E94F60FC80163
:104470000E94F12390931610809315108AEA95E01C
:104480000E94C30F41E062E3C8010E94F60FB80129
:1044900080911510909116100E94C0124BC088EBAD
:1044A00095E00E94C30F41E062E38E010F5F1F4F52
:1044B000C8010E94F60FC8010E94F12390931610C4
:1044C000809315100E94800980911510909116100C
:1044D0000E94E1022FC08BEC95E00E94C30F0E9466
:1044E000020F28C08AEE95E00E94C30F41E062E30C
:1044F000CE0101960E94F60F8981803729F460E091
:1045000070E081E00E947D1D8981823799F484E604
:1045100095E00E94C30F41E062E38E010F5F1F4FE1
:10452000C8010E94F60FC8010E94F123BC0182E07D
:104530000E947D1D62E07DE18AEF90E00E943413CD
:10454000CA59DF4F0FB6F894DEBF0FBECDBFCF9173
:10455000DF911F910F91FF90EF90DF90CF90BF9070
:10456000AF909F908F907F906F9008950E9421113F
:104570000895EF92FF920F931F938C018CE096E0C9
:104580000E94C30F1F930F9381E993E09F938F9332
:104590000AE311E11F930F930E945E24C8010E9459
:1045A000C30F82E296E00E94C30F0E94AC0B90E022
:1045B0009F938F93EFE2EE2EE3E0FE2EFF92EF92B9
:1045C0001F930F930E945E24C8010E94C30F88E2CC
:1045D00096E00E94C30F0E94A90B90E09F938F93D7
:1045E000FF92EF921F930F930E945E24C8010E94D6
:1045F000C30F83EC93E00E94C30F5F9A65EF7CE1E9
:104600008AE090E00E9434138DB79EB742960FB6B1
:10461000F8949EBF0FBE8DBF1F910F91FF90EF903A
:104620000895EF92FF920F93DF93CF93CDB7DEB74C
:1046300060970FB6F894DEBF0FBECDBFA82F002342
:1046400009F461C07E010894E11CF11C88E0F701C7
:1046500011928A95E9F729833A834B835C836D83B2
:104660007E83AF83988780E2801BE82FFF27E7FDDA
:10467000F0954D815E816F817885181684F01D86D6
:104680001E861F86188A882799278E1B9F0B04C0B9
:1046900076956795579547958A95D2F728C0202F2C
:1046A000332727FD3095DB01CA01022E04C0B695E1
:1046B000A795979587950A94D2F78D879E87AF87A0
:1046C000B88B04C0440F551F661F771FEA95D2F7B9
:1046D00089819A81AB81BC8104C0B695A7959795D5
:1046E00087952A95D2F7482B592B6A2B7B2B498724
:1046F0005A876B877C8729853A854B855C856D85D4
:104700007E85AF8598898A2F60960FB6F894DEBFB4
:104710000FBECDBFCF91DF910F91FF90EF90089525
:10472000A0E0B0E0E6E9F3E20C947527EC01A88084
:10473000B980CA80DB80A114B104C104D10441F462
:1047400084E2A82E89EDB82E8BE5C82E87E0D82EFE
:10475000C601B5012DE133EF41E050E00E94522740
:1047600027EA31E440E050E00E9433277B018C01CE
:10477000C601B5012DE133EF41E050E00E94522720
:10478000CA01B9012CEE34EF4FEF5FEF0E943327DF
:104790006E0D7F1D801F911F97FF04C061507040F8
:1047A00080409048688379838A839B839B013F770D
:1047B000C901CDB7DEB7EAE00C9491270E9490239F
:1047C000089589EF98E00E9490230895A0E0B0E05A
:1047D0008093F9089093FA08A093FB08B093FC0823
:1047E0000895FC0188279927E89421912032E9F364
:1047F000293010F02E30C8F32B3241F02D3239F42D
:10480000689404C00E945624820F911D2191205368
:104810002A30C0F31EF4909581959F4F0895FB01B7
:10482000DC014150504048F001900D920020C9F742
:1048300001C01D9241505040E0F70895A0E0B0E063
:10484000E4E2F4E20C9477277C01EB018A01690130
:1048500009C0CE012196F6010995F70181937F01E8
:104860000150104001151105A1F7CDB7DEB7E8E002
:104870000C949327A0E0B0E0E0E4F4E20C947727F6
:10488000EC017B018A01690109C0F70161917F0197
:10489000CE012196F6010995015010400115110530
:1048A000A1F7CDB7DEB7E8E00C9493277AE0979FA5
:1048B000902D879F802D910D11240895AEE0B0E0DA
:1048C000E4E6F4E20C947B270D891E8986E08C8354
:1048D0001A8309838FEF9FE79E838D83CE014996CC
:1048E000AC016F89788DCE0101960E9481242F81C1
:1048F0003885020F131FF80110822E96E4E00C9405
:104900009727ABE0B0E0E7E8F4E20C946D273C01B8
:104910002B015A01FC0117821682838181FD03C09D
:104920006FEF7FEFC8C19AE0892E1E010894211C09
:10493000311CF3012381F20123FD859123FF819135
:104940002F01882309F4B4C1853239F423FD859100
:1049500023FF81912F01853229F4B30190E00E9459
:104960007626E7CF982FDD24CC249924FFE1FD158E
:10497000D0F09B3269F09C3228F4903259F0933297
:1049800091F40EC09D3249F0903369F441E024C0A7
:1049900052E0D52A84E0D82A28C098E0D92A25C038
:1049A000E0E1DE2A22C0D7FC29C0892F80538A305B
:1049B00070F4D6FE05C0989C902C1124980E15C05A
:1049C000C89CC02C1124C80EF0E2DF2A0EC09E3213
:1049D00029F4D6FC6DC140E4D42A07C09C3619F4F2
:1049E00050E8D52A02C0983649F4F20123FD95918A
:1049F00023FF91912F01992309F0B8CF892F855476
:104A0000833018F08052833038F444E050E0A40E34
:104A1000B51E5FE359830FC0933631F0933779F0B9
:104A2000933509F056C020C0F5018081898342E0AA
:104A300050E0A40EB51E710101E010E012C0F501B6
:104A4000E080F180D6FC03C06FEF7FEF02C0692DDC
:104A500070E042E050E0A40EB51EC7010E946B2634
:104A60008C015FE7D52214C0F501E080F180D6FC0F
:104A700003C06FEF7FEF02C0692D70E042E050E0AD
:104A8000A40EB51EC7010E9460268C0150E8D52AED
:104A9000D3FE07C01AC0B30180E290E00E947626E0
:104AA000CA948C2D90E008171907A8F30EC0F701DF
:104AB000D7FC8591D7FE81917F01B30190E00E94E0
:104AC0007626C110CA94015010400115110579F7DE
:104AD000ECC0943611F0993671F5D7FE08C0F50197
:104AE000E080F1800281138144E050E00AC0F501CA
:104AF000808191817C010027F7FC0095102F42E016
:104B000050E0A40EB51E5FE6D52217FF0AC010952F
:104B10000095F094E094E11CF11C011D111D80E84A
:104B2000D82A2AE030E0A101C801B7010E94A226DC
:104B3000F82EF21840C0953729F41D2D1F7E2AE06B
:104B400030E01DC01D2D197F9F3661F0903720F495
:104B5000983509F0ADC00FC0903739F0983709F09B
:104B6000A7C004C028E030E00AC0106114FD146042
:104B700020E130E004C014FD166020E132E017FFB0
:104B800008C0F501608171818281938144E050E029
:104B900008C0F50180819181BC0180E090E042E095
:104BA00050E0A40EB51EA1010E94A226F82EF21814
:104BB0008FE7D82ED122D6FE0BC05EEFD522F91496
:104BC00038F4D4FE07C0D2FC05C08FEED82202C054
:104BD0001F2D01C0192DD4FE0DC0FE01EF0DF11DDA
:104BE0008081803319F499EED92208C01F5FD2FE6C
:104BF00005C003C08D2D867809F01F5F0D2DD3FCF5
:104C000014C0D0FE0FC01C1510F09F2C0BC09F2CA1
:104C10009C0C911A1C2D06C0B30180E290E00E940A
:104C200076261F5F1C15C0F304C01C1510F4C11AB2
:104C300001C0CC2404FF10C0B30180E390E00E94C7
:104C4000762602FF1EC001FD03C088E790E002C087
:104C500088E590E0B3010CC0802F867891F001FFC9
:104C600002C08BE201C080E2D7FC8DE2B30190E08C
:104C70000E94762606C0B30180E390E00E9476266B
:104C80009A94F914C0F3FA94F101EF0DF11DB301F8
:104C9000808190E00E947626FF20A9F706C0B3012C
:104CA00080E290E00E947626CA94CC20C1F741CEE3
:104CB000F30166817781CB012B96E2E10C94892781
:104CC000FC010590615070400110D8F780959095D7
:104CD0008E0F9F1F0895FC016150704001900110DC
:104CE000D8F7809590958E0F9F1F08950F931F936F
:104CF000CF93DF938C01EB018B8181FF1BC082FF7F
:104D00000DC02E813F818C819D812817390764F465
:104D1000E881F9810193F983E88306C0E885F98584
:104D2000802F0995892B31F48E819F8101969F8375
:104D30008E8302C00FEF1FEFC801DF91CF911F914B
:104D40000F910895FA01AA27283051F1203181F1FD
:104D5000E8946F936E7F6E5F7F4F8F4F9F4FAF4F83
:104D6000B1E03ED0B4E03CD0670F781F891F9A1F96
:104D7000A11D680F791F8A1F911DA11D6A0F711D4A
:104D8000811D911DA11D20D009F468943F912AE056
:104D9000269F11243019305D3193DEF6CF0108953E
:104DA000462F4770405D4193B3E00FD0C9F7F6CF6F
:104DB000462F4F70405D4A3318F0495D31FD405237
:104DC000419302D0A9F7EACFB4E0A69597958795CD
:104DD00077956795BA95C9F70097610571050895AC
:104DE0009B01AC010A2E0694579547953795279558
:104DF000BA95C9F7620F731F841F951FA01D0895F0
:104E0000991B79E004C0991F961708F0961B881F1C
:104E10007A95C9F780950895AA1BBB1B51E107C07D
:104E2000AA1FBB1FA617B70710F0A61BB70B881F3A
:104E3000991F5A95A9F780959095BC01CD010895C9
:104E400097FB092E07260AD077FD04D0E5DF06D0B0
:104E500000201AF4709561957F4F0895F6F79095AC
:104E600081959F4F0895629FD001739FF001829FAB
:104E7000E00DF11D649FE00DF11D929FF00D839FE9
:104E8000F00D749FF00D659FF00D9927729FB00D86
:104E9000E11DF91F639FB00DE11DF91FBD01CF0199
:104EA0001124089597FB092E05260ED057FD04D036
:104EB0004BD00AD0001C38F4509540953095219580
:104EC0003F4F4F4F5F4F0895F6F79095809570953F
:104ED00061957F4F8F4F9F4F08952F923F924F9232
:104EE0005F926F927F928F929F92AF92BF92CF927A
:104EF000DF92EF92FF920F931F93CF93DF93CDB783
:104F0000DEB7CA1BDB0B0FB6F894DEBF0FBECDBFFA
:104F100009942A88398848885F846E847D848C84CB
:104F20009B84AA84B984C884DF80EE80FD800C81D4
:104F30001B81AA81B981CE0FD11D0FB6F894DEBFB7
:104F40000FBECDBFED010895A1E21A2EAA1BBB1B17
:104F5000FD010DC0AA1FBB1FEE1FFF1FA217B30745
:104F6000E407F50720F0A21BB30BE40BF50B661F5B
:104F7000771F881F991F1A9469F76095709580951F
:104F800090959B01AC01BD01CF010895F894FFCF2E
:104F90000D0A4261642064657374206E6F6465203D
:104FA00028525029000D0A5461626C6520446174D6
:104FB000613A0D0A002563253032582025632530DB
:104FC000325820253032582030782530386C58251A
:104FD00030386C580D0A000D0A4E6574776F726B8D
:104FE00020547265650D0A00256325303258200073
:104FF00020202020000D0A0043435245000D0A44A2
:10500000726F7070696E67206368696C6420002538
:1050100078002066726F6D20706172656E7420007A
:105020000D0A4173736F636961746564206E6F6408
:1050300065200025640020486F7073203D200080AB
:105040000D0A526F757465206461746120746F205D
:105050006368696C64000D0A526F75746520646141
:1050600074612066726F6D20436F6F7264000D0A69
:1050700053656E742063616C206461746120746F89
:105080002073656E736F72000D0A43616C206E6F42
:1050900064652C20656E746572206170706C696542
:1050A000642072656164696E672041205B005D3A2F
:1050B000000D0A43616C206E6F64652C20656E7470
:1050C0006572206170706C696564207265616469E5
:1050D0006E672042205B000D0A52656164696E674D
:1050E0002066726F6D206E6F6465203078002578C1
:1050F00000203D20002C20525353493D00256400E0
:105100002C204C51493D0048E17EC19A99D940522A
:10511000B8B24148E10B42D7A33842666662423DCD
:105120008A854200009A42AE47AF42D723C6423337
:10513000B3DF4214AEFD4266A611437B142C433309
:10514000335B43142E2D44E8030D0A643D64756DF2
:105150007020743D7461626C6520693D696E666F94
:1051600020703D70696E6720733D73747265616D68
:1051700020633D6368616E000D0A723D7265616473
:10518000696E67206E3D6E616D6520773D77616B5E
:105190006520503D70617573653A20000D0A5374A7
:1051A00061727475702C204920616D20636F6F727D
:1051B00064696E61746F72206F6E206368200025D1
:1051C00064000D0A50696E672072657175657374AD
:1051D0002066726F6D206E6F646520000D0A506945
:1051E0006E67696E67206E6F646520000D0A496EF8
:1051F00074657276616C206E6F64652000203D20BE
:10520000000D0A4E6F726D616C206D6F6465000D4C
:105210000A4173736F63696174696E6720746F20EC
:1052200000257800206F6E20636820002C20686FB6
:105230007073203D20000D0A0D0A52454720445549
:105240004D500D0A00252D313573202D202530328B
:105250005820000D0A000D0A73686F7274203D20FB
:10526000253034580D0A706172656E74203D20251A
:105270003034580D0A726F7574653D253034580D01
:105280000A006368616E203D2025640D0A005041CC
:105290004E204944203D203078006C6F6E67203DE1
:1052A0002030782530386C582530386C580D0A007D
:1052B00066616C73650074727565006173736F630A
:1052C000203D2025730D0A486F7073203D20253046
:1052D00034580D0A0072616E64203D20253032582A
:1052E0000D0A00506172743D52460025752C205203
:1052F00065763D25640D0A004E6F00536C65657040
:10530000203D2025730D0A0046726571203D202541
:10531000644D487A0D0A00496E74657276616C209E
:105320003D2025642E25647365630D0A0033324BDE
:10533000487A00536C6565702074696D65642062FD
:10534000792025732074696D65720D0A00364C6FE3
:105350005750414E203D2025730D0A0044656D6F66
:10536000206D6F6465203D2025730D0A000D0A45F0
:105370006E7465722073686F727420616464723A2F
:10538000000D0A53747265616D206D6F6465207441
:105390006F20616464723A000D0A456E7465722074
:1053A0006E6577206368616E000D0A456E746572E4
:1053B000206E65772050414E4944000D0A537461B8
:1053C000727475702C204920616D20636F6F726458
:1053D000696E61746F722E0D0A000D0A5265717547
:1053E00065737420646174612066726F6D206E6FE6
:1053F00064653A000D0A5265706F72742074696DAD
:105400006520283130306D5320696E746572766185
:105410006C73293A000D0A43616C207768696368F0
:10542000206E6F64653A000D0A4E616D65207768E5
:10543000696368206E6F64653A000D0A456E746595
:1054400072206E616D653A000D0A57616B652077B9
:1054500068696368206E6F64653A000D0A50617573
:105460007365642C20707265737320275027207435
:105470006F20756E7061757365000D0A416C6C204C
:105480006E6F646573202D20287229656164696ED2
:10549000672C2028702970696E673A000D0A5069E0
:1054A0006E6720726573706F6E73652066726F6DC4
:1054B0002000204C51493D0020525353493D005497
:1054C00052585F535441545553000000000000549B
:1054D00052585F53544154450000000000000054EE
:1054E00052585F4354524C5F30000000000000549B
:1054F00052585F4354524C5F31000000000000508E
:1055000048595F54585F5057520000000000005047
:1055100048595F52535349000000000000000050FA
:1055200048595F45445F4C4556454C0000000050CB
:1055300048595F43435F434341000000000000437C
:1055400043415F544852455300000000000000549E
:1055500052585F4354524C5F320000000000004933
:1055600052515F4D41534B000000000000000049C4
:1055700052515F53544154555300000000000056EF
:105580005245475F4354524C000000000000004267
:1055900041544D4F4E000000000000000000005834
:1055A0004F53435F4354524C000000000000005230
:1055B000585F53594E0000000000000000000052E8
:1055C000465F4354524C5F3000000000000000581A
:1055D00041485F4354524C5F3100000000000046D8
:1055E000544E5F4354524C00000000000000005233
:1055F000465F4354524C5F310000000000000050F1
:105600004C4C5F43460000000000000000000050CA
:105610004C4C5F4443550000000000000000005067
:105620004152545F4E554D000000000000000056EE
:10563000455253494F4E5F4E554D00000000004DFE
:10564000414E5F49445F3000000000000000004D03
:10565000414E5F49445F31000000000000000053EC
:10566000484F52545F414444525F300000000053A1
:10567000484F52545F414444525F31000000005093
:10568000414E5F49445F30000000000000000050C0
:10569000414E5F49445F31000000000000000049B6
:1056A0004545455F414444525F30000000000049D9
:1056B0004545455F414444525F31000000000049C8
:1056C0004545455F414444525F32000000000049B7
:1056D0004545455F414444525F33000000000049A6
:1056E0004545455F414444525F3400000000004995
:1056F0004545455F414444525F3500000000004984
:105700004545455F414444525F3600000000004972
:105710004545455F414444525F3700000000005852
:1057200041485F4354524C5F30000000000000438A
:10573000534D415F534545445F3000000000004336
:10574000534D415F534545445F3100000000004325
:10575000534D415F42450000000000000000000181
:1057600002030405060708090C0E0F101112151686
:105770001718161A1B1C1D1E1F2021222324252644
:0E5780002728292A2B2C2D2E2F010000000097
:00000001FF
