:100000000C94CD000C94F5000C94F5000C94F500C4
:100010000C94F5000C94F5000C94F5000C94F5008C
:100020000C9410010C94F7000C94F5000C94F5005E
:100030000C9422120C94F5000C94F5000C94F5002D
:100040000C94F5000C94F5000C94F5000C94F5005C
:100050000C94471B0C948A1B0C94F5000C94F5002F
:100060000C94F5000C94F5000C94F5000C94F5003C
:100070000C94F5000C94F5000C94F5000C94F5002C
:100080000C946D0F0C94F5000C94F5006E616E00ED
:10009000696E660000407A10F35A00A0724E18098B
:1000A0000010A5D4E80000E87648170000E40B54DF
:1000B000020000CA9A3B000000E1F50500008096AE
:1000C0009800000040420F000000A08601000000E0
:1000D000102700000000E80300000000640000009A
:1000E00000000A00000000000100000000002C7663
:1000F000D888DC674F0823DFC1DFAE59E1B1B7967E
:10010000E5E3E453C63AE651997696E8E6C28426DA
:10011000EB898C9B62ED407C6FFCEFBC9C9F40F2B6
:10012000BAA56FA5F490055A2AF75C936B6CF96732
:100130006DC11BFCE0E40D47FEF520E6B500D0EDF7
:10014000902E0300943577050080841E080000205F
:100150004E0A000000C80C333333330F986E1283FD
:100160001141EF8D2114893BE65516CFFEE6DB18D1
:10017000D1844B381BF77C1D901DA4BBE424203296
:1001800084725E228100C9F124ECA1E53D276364FD
:10019000696E6F70737578585B0011241FBECFEFC6
:1001A000D0E4DEBFCDBF14BE88E10FB6F8948093D3
:1001B0006000109260000FBE13E0A0E0B1E0EEE43A
:1001C000FAE500E00BBF02C007900D92AE31B10717
:1001D000D9F717E0AEE1B3E001C01D92AA34B10730
:1001E000E1F70E9491160C94252D0C9400001F92AB
:1001F0000F920FB60F920BB60F9211248F93EF93BD
:10020000FF93E0E7F0E080818D7F8083FF91EF91A5
:100210008F910F900BBE0F900FBE0F901F901895EF
:100220001F920F920FB60F9211248F9388E10FB691
:10023000F89480936000109260000FBE8F910F9031
:100240000FBE0F901F9018950F931F93DF93CF93BE
:100250000F92CDB7DEB78C0180911107882309F486
:100260008DC082E102C00E94B21681518230D8F363
:100270000E94361780917A008F7780937A0080B73A
:10028000806880BF8FEA809364008FEF8093650061
:1002900011B882B92A9A17B888B98BB18F6B8BB90C
:1002A0008FB78983F89485B7806685BF85B78F7DC2
:1002B00085BF89818FBF8091B60080628093B60030
:1002C0008091B10087608093B1008091B60080FD7D
:1002D000FCCF3FC00C34110528F03093B3000B5411
:1002E00010400EC0C80144E0880F991F4A95E1F7FD
:1002F00065E070E00E94602C6093B30000E010E0C5
:100300008091B60083FDFCCF1092B2008091B600C0
:1003100084FDFCCFB99A8091700082608093700058
:100320008FB78983F89483B7817F866083BF83B753
:10033000816083BF7894889583B78E7F83BF8981DE
:100340008FBF0FB6F89420936000109260000FBE2C
:1003500002C030EF28E10115110509F0BBCF109262
:1003600064001092650080E090E00E947A190E947B
:1003700038100E94651789E00E9419180F90CF91DC
:10038000DF911F910F91089522E735E030936F05BB
:1003900020936E0593E0909372059AE39093750510
:1003A00090ED909373059093740594E1909370058C
:1003B000F901749690E89093860513821282118257
:1003C00010928A0510928B0510928C0580938D05F2
:1003D000245E3F4F30932103209320038CE18093D0
:1003E0007105C9014897089582E795E090936F05DC
:1003F00080936E05109225031092240323E020932E
:10040000720520EF2093730520ED20937405439629
:10041000909321038093200323E120937005209380
:1004200071054097089522E735E030936F052093DA
:100430006E0590932503809324032D5F3F4F3093E7
:1004400021032093200393E09093720580EF809323
:1004500073058DED809374059093700590937105ED
:1004600008959C01805B904F0F97F0F480EF603B04
:100470007807D0F080EF6F3B7807B0F4E09120036D
:10048000F09121038BEF8083862F805B922F9295D2
:10049000907F890F81833296F0932103E0932003AC
:1004A000809170058E5F12C0E0912003F0912103CE
:1004B00088EF808331832283738364833596F0933E
:1004C0002103E0932003809170058B5F809370057A
:1004D000E0912003F0912103F0932303E0932203A2
:1004E000CB01820F931F918380838217930718F0AB
:1004F0008617970718F40196918380833296F093BC
:100500002103E0932003809170058E5F8093700536
:10051000809371050895809120039091210308959F
:100520002091200330912103280F311D30932103A6
:100530002093200390917105980F90937105089571
:100540007F928F929F92AF92BF92CF92DF92EF9263
:10055000FF920F931F93CF93DF937090700580905D
:10056000200390902103A0916E05B0916F05139622
:10057000B0932103A0932003139710927005119656
:100580008C911197682F70E086FD10C087FD07C021
:100590001796B0932103A093200317970FC01696C8
:1005A000B0932103A0932003169708C087FD06C0CF
:1005B0001496B0932103A0932003149765FF05C000
:1005C00029E130E040E050E00DC0E0912003F091DF
:1005D00021038191282F30E040E050E0F093210387
:1005E000E093200312968C91C82FD0E080910407ED
:1005F0009091050792605C01CC24DD24CE018073CC
:100600009070B4E095958795BA95E1F7FC01EE0FEF
:10061000FF1FE80FF91FE859FA4F808191817C0193
:1006200000E010E08091060790910707A0E0B0E09D
:10063000E80EF91E0A1F1B1F8FEF9EEFA0E0B0E02F
:10064000E80EF91E0A1F1B1FEA0CFB1C0C1D1D1DCA
:10065000E20EF31E041F151F68717070672B49F4BA
:100660008091200390912103019690932103809320
:100670002003CE018C7090708430910509F45FC026
:100680008530910524F4892B09F482C097C0883005
:100690009105D1F00C9709F091C0CE018370907054
:1006A000FC01EE0FFF1FE80FF91FE859FA4F808198
:1006B0009181A0E0B0E081509140AF4FBF4F8A0DD3
:1006C0009B1DAC1DBD1D36C0E0912003F0912103A0
:1006D0004081218147FD20C030E0942F80E0282B0D
:1006E000392B442737FD4095542FCE0183709070ED
:1006F000FC01EE0FFF1FE80FF91FE859FA4F808148
:100700009181A0E0B0E0280F391F4A1F5B1FE20E65
:10071000F31E041F151F52C0822F90E0A0E0B0E02E
:1007200080509140AF4FBF4F46954F70840F911D41
:10073000A11DB11DE80EF91E0A1F1B1F3FC0CE01EF
:1007400083709070FC01EE0FFF1FE80FF91FE8594E
:10075000FA4F80819181A0E0B0E0E80EF91E0A1FF7
:100760001B1FE0912003F091210340E0308120E045
:100770008181D901A80FB11DCD01A0E0B0E0E80E44
:10078000F91E0A1F1B1F4E5F3296483079F716C0BC
:10079000E0912003F091210340E0308120E081814D
:1007A000B901680F711DCB01A0E0B0E0E80EF91EA1
:1007B0000A1F1B1F4E5F3296403179F7909221033A
:1007C00080922003709270058091710590E08719E6
:1007D00091099C01442737FD4095542F2E0D3F1D54
:1007E000401F511F08C0CA01AA27BB27820F931FB1
:1007F0009C0140E050E0DA01C901807090700097E0
:10080000A105B10581F7C901DF91CF911F910F912A
:10081000FF90EF90DF90CF90BF90AF909F908F9020
:100820007F9008959C0141505040460F571FFB0197
:100830000EC0708160E08181DB01A80FB11D2A0F1D
:100840003B1F2A173B0710F42F5F3F4F3296E417E8
:10085000F50778F3E417F50749F4908180E0280F55
:10086000391F2817390710F42F5F3F4FC90108952A
:10087000FC0180818F3FB9F580917005282F30E011
:100880002C5F3F4F80917105A82FB0E04CE025C050
:10089000FB01EE58FA4F9181992329F18081833031
:1008A000C1F4BF01605F7F4F40E150E080E090E025
:1008B0000E9412049C0180916D058823A1F430935D
:1008C0006C0520936B0581E080936D05809300019A
:1008D0000895990F990F990F490FB901640F711D70
:1008E0006A177B07ACF208950F931F9302E715E098
:1008F00010936F0500936E0583E0809372058AE381
:100900008093750588ED8093730588EC809374055A
:1009100084EA8093760582E080937705D801169665
:10092000B0932103A093200386E08093700585E8AF
:100930008093780511961C92119710927C05109265
:100940007D0510927E0510927F0586E180937105EA
:10095000F8013E96F0931F03E0931E0381E080931D
:1009600080058183809107078283809106078383B6
:10097000148215821682178213961C921E92129769
:100980000E94A002209170054091710550E030E076
:10099000421B530B60916E0570916F05620F731FC0
:1009A0000E94120420917005F801E20FF11D382F0A
:1009B000292F20953095338322830E940A1CA80199
:1009C0006091710580E090E00E94A4141F910F9146
:1009D0000895DF92EF92FF920F931F93CF93DF93CF
:1009E000809100018F3F19F40E94740456C00E9448
:1009F000A002C0912203D09123032881398140E0D5
:100A000050E0D090700560917105E62FF0E0ED198F
:100A1000F10938967F010027F7FC0095102F3897D1
:100A2000E20EF31E041F151FA0E0B0E0E80EF91E51
:100A30000A1F1B1F08C0C801AA27BB278E0D9F1DB8
:100A40007C0100E010E0D801C70180709070009731
:100A5000A105B10581F760916E0570916F056D0D6F
:100A6000711DAF01C7010E941204382F292F209554
:100A7000309539832883232B21F48FEF9FEF9983BF
:100A800088830E940A1C42E755E0609171058091BD
:100A90002403909125030E94A414DF91CF911F910C
:100AA0000F91FF90EF90DF900895809100018F3FAC
:100AB00019F40E94740408950E94A0022091700508
:100AC0004091710550E030E0421B530B60916E0580
:100AD00070916F05620F731F0E94120420917005C0
:100AE000E22FF0E0EE58FA4F382F292F209530955D
:100AF00033832283232B21F48FEF9FEF9383828311
:100B00000E940A1C42E755E06091710580E090E088
:100B10000E94A4140895CF93DF93FC0182E795E02F
:100B200090936F0580936E0523E0209372051092D9
:100B300074052AE32093750504969093210380930E
:100B4000200388ED8093730586818295807F806C79
:100B5000809374059481982B909374058581982BCC
:100B600090937405928590937005E92FF0E0EF0162
:100B7000CE58DA4F88E888831982DF01AA58BA4F25
:100B800011961C92119712961C92129713961C9212
:100B90001397662319F080E48C9301C01C92905E39
:100BA00090937105E657FA4FF0931F03E0931E03ED
:100BB00082E0808381E08183809107078283809136
:100BC0000607838314821582168217821B821A827B
:100BD0000E94A002209170054091710550E030E024
:100BE000421B530B60916E0570916F05620F731F6E
:100BF0000E941204E0917005F0E0EE58FA4F382F91
:100C0000292F20953095338322830E940A1C42E7C6
:100C100055E06091710580E090E00E94A414DF919E
:100C2000CF910895CF92DF92EF92FF920F93DF93CF
:100C3000CF93CDB7DEB72B970FB6F894DEBF0FBEBC
:100C4000CDBF22E735E030936F0520936E051092FB
:100C500070052D5F3F4F30932103209320032350D5
:100C6000304080917205833009F0B1C180917405E4
:100C70008C708C3009F0ABC180917305982F86FD84
:100C800008C087FD03C0295F3F4F07C02A5F3F4F61
:100C900004C087FD06C02C5F3F4F30932103209393
:100CA000200395FF03C081E18C830AC0E0912003FB
:100CB000F091210381918C83F0932103E093200331
:100CC00020912003309121032A833B838091730577
:100CD00090E0887190708830910561F089309105BD
:100CE0001CF4892B71F014C08031910529F04897CC
:100CF00079F405C081E001C080E4898309C08FEFE9
:100D0000FCCFF90181918983F0932103E0932003C3
:100D100080917405282F23702D8390E09C01207C06
:100D2000307074E0359527957A95E1F728878073C0
:100D3000907064E0959587956A95E1F78F83E091CF
:100D40002003F0912103FA87E987243051F02830FD
:100D500019F0222341F00CC0808187FD38C1329602
:100D600003C0389601C07096F0932103E0932003EE
:100D7000E091200382E795E0E81BE0937005EB87A4
:100D80008C818A3309F06CC0F0E0EE58FA4F808114
:100D90008038D1F568E67CE18AE090E00E942E0E72
:100DA00010927005E0916E05F0916F058181887158
:100DB00011F480E4848380917005E0916E05F091D8
:100DC0006F05E80FF11D9D819295907F906C928345
:100DD0008F812885822B892B8283EB85E093700598
:100DE000F0E0EE58FA4F81E8808382819381019789
:100DF000938382830E940A1C42E755E0609171054B
:100E000080E090E00E94A414E0917005F0E0EE58BC
:100E1000FA4F8081813839F4E0912003F091210369
:100E200087810E94D10DE0917005F0E0EE58FA4FF5
:100E30008081863821F4CE0101960E943804E09129
:100E40007005F0E0EE58FA4F8081873849F48F81C1
:100E50008D8388858E8361E0CE0101960E948B058B
:100E60008C81813109F0B3C0E0902003F090210320
:100E7000F70180818B3F41F597012F5F3F4F309302
:100E80002103209320038181482F42954F70C42E67
:100E9000DD2460EB70EFC60ED71E90E0BC016F70D2
:100EA000707060557F4054E0880F991F5A95E1F7A4
:100EB000482B41832F5F3F4F309321032093200322
:100EC000809170058E5F21C0883F09F080C0D701F6
:100ED0001196F701D1801196CC901197C701039616
:100EE0007381FC016181F701718311966C93D38248
:100EF000FC01C18285E090E0E80EF91EF09221032A
:100F0000E0922003809170058B5F80937005E091E3
:100F10002003F0912103F0932303E0932203CB01FC
:100F20008C0D9D1D918380838C159D0518F086176F
:100F3000970718F4019691838083AF014E5F5F4F4E
:100F40005093210340932003809170058E5F80931E
:100F5000700501E7081B20917105281B7E0108948C
:100F6000E11CF11CC6010E943E0A382F882379F14A
:100F7000809170058B8710927005E0916E05F0915D
:100F80006F059181892F887129F4EA81FB8180E4C2
:100F9000808303C0977E9061918380917005E0917A
:100FA0006E05F0916F05E80FF11D9D819295907F80
:100FB000906C92838F812885822B892B82838B85ED
:100FC00080937005830F809371050E94E9042B962E
:100FD0000FB6F894DEBF0FBECDBFCF91DF910F915A
:100FE000FF90EF90DF90CF900895FF920F931F93A3
:100FF0008C01F62E0E940A1C22E735E0025F1F4F8B
:101000004F2D50E0B801C9010E944B28F0927105A4
:101010000E9412061F910F91FF90089580E89EEFA5
:10102000909369058093680581E080936A050E942A
:10103000071C089581E090E09093060280930502DA
:1010400008951F931092270380912803813019F48B
:101050000E94F40107C0809129038F5F80932903C8
:101060000E94C4019C01D901E6EBF1E080E101900E
:101070000D928150E1F7809128038130C1F460EB3B
:1010800070EF81EB90EF0E94310210912A030E94D1
:101090008B022BEB33E0412F50E0B9010E944B282B
:1010A00080912A030E9490020E94E9040EC00E94CF
:1010B0001B0EA0E0B0E080932B0390932C03A09331
:1010C0002D03B0932E030E9455051F9108956F9232
:1010D0007F928F929F92AF92BF92CF92DF92EF92C8
:1010E000FF920F931F9386E10E94191888E00E94D7
:1010F000C817992787FD9095A92FB92FBC01CD015D
:101100000E94B42420E030E04AE754E40E94AA237D
:1011100020E030E04CE852E40E947D236093E60139
:101120007093E7018093E8019093E90188E00E94C1
:10113000C817992787FD9095A92FB92FBC01CD011C
:101140000E94B42420E030E04AE754E40E94AA233D
:1011500020E030E048EE51E40E947D236093EA01F4
:101160007093EB018093EC019093ED0188E00E9475
:10117000C817992787FD9095A92FB92FBC01CD01DC
:101180000E94B42420E030E04AE754E40E94AA23FD
:1011900020E030E047E853E40E947D235B016C01CE
:1011A0006093EE017093EF018093F0019093F10151
:1011B000E090E601F090E7010091E8011091E9016B
:1011C00023E333E34CE852E4C801B7010E945424FE
:1011D00018162CF483E393E3ACE8B2E40EC02DECD4
:1011E0003CEC4BE852E4C801B7010E9484248823F8
:1011F00064F48DEC9CECABE8B2E48093E601909350
:10120000E701A093E801B093E901E090EA01F090D2
:10121000EB010091EC011091ED0128E431EE48EE74
:1012200051E4C801B7010E94542418162CF488E434
:1012300091EEA8EEB1E40EC02AE939E947EE51E497
:10124000C801B7010E948424882364F48AE999E9DB
:10125000A7EEB1E48093EA019093EB01A093EC0137
:10126000B093ED012DEC3CE047E853E4C601B50135
:101270000E94542418162CF48DEC9CE0A7E8B3E4EB
:101280000EC023E333EF46E853E4C601B5010E94E4
:101290008424882364F483E393EFA6E8B3E4809383
:1012A000EE019093EF01A093F001B093F101109241
:1012B00006040E94F401DC01E6EDF1E080E101901A
:1012C0000D928150E1F760EB70EF81EB90EF0E949F
:1012D0003102E090EE01F090EF010091F0011091E9
:1012E000F101A090EA01B090EB01C090EC01D09028
:1012F000ED016090E6017090E7018090E801909028
:10130000E9010E948B021F930F93FF92EF92DF92ED
:10131000CF92BF92AF929F928F927F926F9221E075
:1013200031E03F932F939F938F930E94CA280E948E
:1013300090020E94E9048DB79EB740960FB6F894CC
:101340009EBF0FBE8DBF1F910F91FF90EF90DF905A
:10135000CF90BF90AF909F908F907F906F900895A7
:10136000DF92EF92FF920F931F93FC01009789F495
:1013700080E090E0A1E0B0E08093B1039093B203ED
:10138000A093B303B093B4031092B0031092AF03D1
:101390006FC0E090B103F090B2030091B3031091DD
:1013A000B403DD24603411F0DD24D3942091AF0325
:1013B0003091B003D901A15DBC4F962F03C081913C
:1013C0008D9391509923D9F7C901860F911D909360
:1013D000B0038093AF038038910518F4DD2009F441
:1013E00047C0D801C70180589F4FAF4FBF4F8050B3
:1013F0009F4FA140B04020F54FE253E0C801B70134
:101400000E949EFE2091AF033091B00340E050E077
:101410008091B1039091B203A091B303B091B40352
:10142000820F931FA41FB51F8093B1039093B20343
:10143000A093B303B093B4031092B0031092AF0320
:10144000DD20B1F08091B1039091B203A091B3037C
:10145000B091B4038093F1059093F205A093F30546
:10146000B093F40560E07EEF84E690E00E942E0EDB
:101470001F910F91FF90EF90DF9008953F924F9250
:101480005F926F927F928F929F92AF92BF92CF9214
:10149000DF92EF92FF920F931F93DF93CF93CDB71D
:1014A000DEB7A8970FB6F894DEBF0FBECDBF7A01A6
:1014B000722E40EF603B740709F0FDC0570100E059
:1014C0004E010894811C911C91E4392E66246A9483
:1014D0008AE1482E81E0582EE2C0D5012C912134BA
:1014E00009F487C0223438F42A3009F4BFC02D3003
:1014F00009F0C2C0BBC02C3469F1243521F0283476
:1015000009F0BAC04FC0F401E00FF11D2083102F85
:101510001F5F8091E6019091E701A091E801B091F1
:10152000E901BF93AF939F938F935F924F92C40152
:10153000810F911D9F938F930E94CA28012F080F3E
:101540006501EDB7FEB738960FB6F894FEBF0FBE33
:10155000EDBFA0C0F401E00FF11D2083102F1F5F2D
:101560008091EE019091EF01A091F001B091F10115
:10157000BF93AF939F938F935F924F92C401810F5C
:10158000911D9F938F930E94CA28012F080F650118
:101590004DB75EB7485F5F4F0FB6F8945EBF0FBEA2
:1015A0004DBF78C0F401E00FF11D2083102F1F5FA5
:1015B0008091EA019091EB01A091EC01B091ED01D5
:1015C000BF93AF939F938F935F924F92C401810F0C
:1015D000911D9F938F930E94CA28012F080F6501C8
:1015E0008DB79EB708960FB6F8949EBF0FBE8DBFFD
:1015F00051C065010894C11CD11CD50111968C9174
:101600008D3011F08A3061F4F401E00FF11D308269
:10161000902F9F5FF401E90FF11D8091F20137C017
:101620007A94813329F48093F20140E251E006C0BC
:10163000803349F48093F20142E251E061E084ECAE
:101640000E941C1B27C0F401E00FF11D6082902F47
:101650009F5FF401E90FF11D20839F5FF401E90F03
:10166000F11DD6018C9180830D5F14C0F401E00F51
:10167000F11D20830F5F0DC0F401E00FF11D6082AA
:10168000902F9F5FF401E90FF11DD5018C918083AC
:101690000E5F65017A9456010894A11CB11C772055
:1016A00009F01BCF402F50E0BE016F5F7F4FC70195
:1016B0000E944B285DC2B0EF613B7B07B9F42DEE71
:1016C00033E0472D50E0B701C9010E944B287092CA
:1016D00027030E941B0EA0E0B0E08093B503909317
:1016E000B603A093B703B093B80341C2E0EF623BE7
:1016F0007E0709F039C1D7018C91873409F4E8C01D
:10170000883450F4833409F41AC1843409F453C082
:10171000823409F022C1A6C0833539F0873709F435
:1017200015C1883409F019C10DC1B7E2B21708F02C
:1017300054C004EE11E01F930F93025010401F930A
:101740000F93025010401F930F93025010401F93AD
:101750000F93025010401F930F93025010401F939D
:101760000F93025010401F930F93025010401F938D
:101770000F9383E391E09F938F930894E11CF11CF6
:10178000FF92EF920894E108F1080E94ED28F80119
:101790004DB75EB74C5E5F4F0FB6F8945EBF0FBE9D
:1017A0004DBF9181808181839083329651E0E63EE6
:1017B000F507B9F7F5C0D70111968C91833751F42D
:1017C000A6EBB1E0E6EDF1E080E101900D928150F1
:1017D000E1F7E6C0B7E2B21718F064E271E0C2C107
:1017E00004EC11E01F930F93025010401F930F93CE
:1017F000025010401F930F93025010401F930F93FD
:10180000025010401F930F93025010401F930F93EC
:10181000025010401F930F93025010401F930F93DC
:1018200083E391E09F938F930894E11CF11CFF9256
:10183000EF920894E108F1080E94ED28F8014DB7F5
:101840005EB74C5E5F4F0FB6F8945EBF0FBE4DBFE4
:101850009181808181839083329651E0E63CF50747
:10186000B9F79EC0D70111968C91803571F18335FF
:1018700009F073C0422F425040932A032BEB33E010
:10188000C701029650E0BC01C9010E944B28F70134
:10189000E70DF11D229131962A3099F4329780811B
:1018A0008D3079F090912A03E92FF0E0DF01A65402
:1018B000BC4F8DE08C93E554FC4F20839F5F909349
:1018C0002A0381E0809328036BC01092280368C02C
:1018D00080912703882331F46FE571E0C7010E94EE
:1018E000542808C18091B5039091B603A091B70325
:1018F000B091B803BF93AF939F938F938DE691E020
:101900009F938F93FF92EF920E94CA28182F9701FE
:10191000280F311D409127038DEE93E050E0BC016C
:10192000C9010E944B2800912703010FEDB7FEB7B4
:1019300038960FB6F894FEBF0FBEEDBF19C11092D6
:1019400027032EC081E0809326032AC065E771E05B
:10195000C7010E9454280AE10BC16DE471E0C70180
:101960000E94542801E104C1F0EF633B7F07F1F4CA
:10197000F70190E004C09F5F31969C3019F08081A0
:101980008A30C9F7F701E90FF11D1082D7010D90D8
:101990000020E9F7AE19A7016A2F82EC0E941C1BF8
:1019A00060E971E0C7010E945428C8C040EF643B61
:1019B000740711F4022FDCC06534710509F0D0C042
:1019C00082E090E09093040280930302109206025A
:1019D00010920502D7018C91882309F0C8C0119696
:1019E0008C91823009F088C097012E5F3F4FD9015A
:1019F00001C0DF01FD0181918823D9F780818F36F5
:101A000009F0B5C08181833609F0B1C08281843785
:101A100009F0ADC08381853609F0A9C0848184377F
:101A200009F0A5C08581882309F0A1C0FD01379682
:101A300017968C91823609F09AC081818C3609F014
:101A400096C082818B3609F092C01381133709F05A
:101A50008EC07481793609F08AC065816A3709F0D1
:101A600086C05681553609F082C08781882309F0E7
:101A70007EC04085463309F07AC09185943309F0E1
:101A800076C08285882309F072C0F701108286E053
:101A9000818382E68283F90131968CE6D901119621
:101AA0008C93DF0111968BE68183FD0131961196AF
:101AB0001C93DF0111967183FD01319611966C9391
:101AC000DF0111965183FD01319611961C92DF01C1
:101AD0001196418311969C93119712961C9260E087
:101AE00080E090E00E94B00981E090E09093BA031A
:101AF0008093B9030DE03CC08330C9F5F701238121
:101B0000928180E0AC01420F511D8091B903909108
:101B1000BA0348175907A1F484E081838091B9037F
:101B20009091BA0301969093BA038093B9035CEF46
:101B3000750E672DC70104960E94B00904E018C015
:101B40004817590728F484E0D70111968C93F6CFF3
:101B500085E0F701818312821382148205E008C0B8
:101B600065E971E0C7010E9454280EE001C000E061
:101B7000802FA8960FB6F894DEBF0FBECDBFCF91D1
:101B8000DF911F910F91FF90EF90DF90CF90BF906A
:101B9000AF909F908F907F906F905F904F903F900D
:101BA00008950E941B0EA0E0B0E08093B5039093CF
:101BB000B603A093B703B093B80320912B033091E1
:101BC0002C0340912D0350912E03821B930BA40BE9
:101BD000B50BBF93AF939F938F9384EA91E09F934C
:101BE0008F938DEE93E09F938F930E94CA288093EA
:101BF00027030E94A41D8DB79EB708960FB6F894D0
:101C00009EBF0FBE8DBF0895DF93CF930F92CDB7C8
:101C1000DEB79C01009711F421E030E08FB7898393
:101C2000F89430934B0420934A0489818FBF0F901E
:101C3000CF91DF910895DF93CF930F92CDB7DEB7A9
:101C40008FB78983F89420914C0430914D04898199
:101C50008FBFC9010F90CF91DF910895DF93CF938C
:101C60000F92CDB7DEB7AC01009719F4FB010995CF
:101C700030C08FB78983F894A9E0B4E0E0E08D919B
:101C80009C911197892B09F52E2F30E0F901EE0F69
:101C9000FF1FEE0FFF1FE20FF31FE75FFB4FCA01AD
:101CA0004115510511F481E090E091838083F901A1
:101CB000EE0FFF1FEE0FFF1FE20FF31FE75FFB4F5B
:101CC000748363839091070434C0EF5F1596EA3004
:101CD000B1F690E03DC091E0EBE0F4E041E08081BE
:101CE000891709F440E0359684E0ED33F807B9F739
:101CF00080913D04891709F440E0809142048917DE
:101D000009F440E080914704891799F0442389F051
:101D100090930704F901EE0FFF1FEE0FFF1FE20F74
:101D2000F31FE75FFB4F928380910804882321F023
:101D30000DC09F5F89F6CFCF10929500109294004E
:101D400082E08093710081E08093080489818FBFD5
:101D5000892F0F90CF91DF910895DF93CF930F924A
:101D6000CDB7DEB7AC01009719F4FB01099516C099
:101D700080913B0490913C04892B11F4E0E011C068
:101D80008091400490914104892B11F4E1E009C055
:101D90008091450490914604892B11F090E050C049
:101DA000E2E02E2F30E0F901EE0FFF1FEE0FFF1FD4
:101DB000E20FF31FE55CFB4F518340837483638321
:101DC000909107049F5F09F491E0EBE0F4E041E0BB
:101DD0008081891709F440E0359684E0ED33F807F7
:101DE000B9F780913D04891709F440E080914204DD
:101DF000891709F440E080914704891719F34423B7
:101E000009F390930704F901EE0FFF1FEE0FFF1F78
:101E1000E20FF31FE55CFB4F92838FB78983F89441
:101E200080910804882351F4109295001092940038
:101E300082E08093710081E08093080489818FBFE4
:101E4000892F0F90CF91DF910895982FEBE0F4E068
:101E500020E030E08081891769F4F901EE0FFF1F5F
:101E6000EE0FFF1FE20FF31FE75FFB4F118210829F
:101E7000128208952F5F3F4F35962A30310551F772
:101E800080913D04891719F480E090E00DC08091A5
:101E90004204891719F481E090E006C0809147045C
:101EA000891771F482E090E0FC01EE0FFF1FEE0F46
:101EB000FF1FE80FF91FE55CFB4F118210821282B1
:101EC0000895E1E9F0E080818A60808388EE93E004
:101ED000909399008093980008951F920F920FB6E7
:101EE0000F920BB60F921124DF92EF92FF920F9395
:101EF0001F932F933F934F935F936F937F938F9392
:101F00009F93AF93BF93EF93FF93DF93CF9300D053
:101F10000F92CDB7DEB780914C0490914D0401969D
:101F200090934D0480934C0420914C0430914D04C7
:101F300080914A0490914B0428173907A1F48091AD
:101F40004A0490914B04892B71F010924B0410922B
:101F50004A0486E1898385EC9BE19B838A83CE01D9
:101F600001960E94C2148091F3019091F4010197AF
:101F70009093F4018093F301892B49F009E014E078
:101F800066E1D62E7E010894E11CF11C27C088EE84
:101F900093E09093F4018093F3010BE314E056E196
:101FA000D52E7E010894E11CF11CF80180819181FD
:101FB000009769F0019791838083892B41F4D9823E
:101FC000838194819B838A83C7010E94C2140B5F23
:101FD0001F4FF4E00A341F0741F7D0CFF80180818A
:101FE0009181009769F0019791838083892B41F457
:101FF000D982838194819B838A83C7010E94C21402
:102000000B5F1F4FF4E00B331F0741F70F900F904A
:102010000F90CF91DF91FF91EF91BF91AF919F9181
:102020008F917F916F915F914F913F912F911F9170
:102030000F91FF90EF90DF900F900BBE0F900FBEAF
:102040000F901F9018959C01F999FECF32BD21BDCC
:10205000F89A80B508959C01F999FECF1FBA32BD58
:1020600021BD60BD0FB6F894FA9AF99A0FBE089593
:1020700084B1806A84B92F9A249A2C9A80E58CBD09
:1020800081E08DBD0895239A219A84B1806A84B934
:102090002F9A249A2C9A80E58CBD81E08DBDEFE6C5
:1020A000F0E080818062808383E480938100B59A30
:1020B0000895DF93CF930F92CDB7DEB780689FB7B7
:1020C0009983F8942C988EBD0DB407FEFDCF8EB584
:1020D0008EBD0DB407FEFDCF8EB52C9A99819FBFA2
:1020E0000F90CF91DF910895DF93CF930F92CDB7EB
:1020F000DEB7982F906C8FB78983F8942C989EBD8B
:102100000DB407FEFDCF8EB56EBD0DB407FEFDCF3D
:102110008EB52C9A89818FBF9F73923059F46F715D
:10212000663011F0663121F481E08093480702C0E7
:10213000109248070F90CF91DF910895FF920F936F
:102140001F93062FF42E0E945910082310E002C09E
:1021500015950795FA94E2F7802F1F910F91FF9044
:102160000895DF92EF92FF920F931F93D82EF62ED1
:10217000E42E022F0E9459106F2D6095682310E005
:1021800002C0000F111FEA94E2F7F0226F298D2D93
:102190000E9474101F910F91FF90EF90DF900895AF
:1021A000DF93CF930F92CDB7DEB78FB78983F894C3
:1021B0002C9880E28EBD0DB407FEFDCF8EB58EBD8E
:1021C0000DB407FEFDCF9EB5892F83508D37A8F43F
:1021D0009093F5059EBD0DB407FEFDCFE6EFF5E04B
:1021E0008EB51EBC81930DB407FEFDCF9150C1F793
:1021F0008EB5809375062C9A07C02C9A1092F5051F
:10220000109275061092760689818FBF0F90CF913C
:10221000DF910895DF93CF930F92CDB7DEB7FC0126
:102220006F778FB78983F8942B9A2B982C9880E638
:102230008EBD0DB407FEFDCF8EB56EBD0DB407FE8D
:10224000FDCF8EB581918EBD61500DB407FEFDCFDF
:102250008EB56623B9F72C9A89818FBF0F90CF91E5
:10226000DF910895DF93CF930F92CDB7DEB7982F0C
:10227000FA018FB78983F8942C981EBC0DB407FE21
:10228000FDCF8EB59EBD0DB407FEFDCF8EB51EBC35
:102290000DB407FEFDCF8EB58083615011F03196ED
:1022A000F6CF2C9A89818FBF0F90CF91DF9108953F
:1022B000DF93CF930F92CDB7DEB7982FFA018FB788
:1022C0008983F8942C9880E48EBD0DB407FEFDCF71
:1022D0008EB59EBD0DB407FEFDCF8EB581918EBD2E
:1022E0000DB407FEFDCF8EB56150C1F72C9A8981E0
:1022F0008FBF0F90CF91DF9108950895DF93CF9313
:102300000F92CDB7DEB7E62FBA012FB72983F89425
:102310002BE230E14E2F50E00E94822889818FBF4E
:102320000F90CF91DF910895DF93CF930F92CDB7A8
:10233000DEB7FC01CA012FB72983F89423E230E10C
:10234000462F50E0BF010E94662889818FBF0F9001
:10235000CF91DF910895DF92EF92FF920F931F9339
:10236000DF93CF9300D0CDB7DEB780914E048823A2
:1023700011F011E05CC081E080934E04D0906600C3
:10238000F89461E00E944C17E090B100F090810059
:10239000009180001092B100109281001092800094
:1023A00020E030E063E056E04FEF6093B1005093DF
:1023B00081001092B200109285001092840046BBFA
:1023C00047BBB89BFECF80918400909185009A8393
:1023D0008983109281001092B10089819A818A5F6D
:1023E000934020F48091660081500AC089819A81CF
:1023F0008650944010F411E00CC0809166008F5F0D
:10240000809366002F5F3F4F83E0283E380769F6D0
:1024100010E060E081E00E944C17E092B100F09281
:10242000810000938000112311F4D0926600812F67
:102430000F900F90CF91DF911F910F91FF90EF9030
:10244000DF9008951F920F920FB60F920BB60F9266
:1024500011240F931F932F933F934F935F936F9389
:102460007F938F939F93AF93BF93EF93FF938FE0EF
:102470000E945910082F182F83FF02C00E94AC1829
:1024800014FF02C00E94A61512FF10C02C9880E213
:102490008EBD0DB407FEFDCF8EB51EBC0DB407FE7C
:1024A000FDCF8EB52C9A0E94ED160AC007FF08C01A
:1024B0008EE00E9459108F77682F8EE00E94741072
:1024C000FF91EF91BF91AF919F918F917F916F910C
:1024D0005F914F913F912F911F910F910F900BBEE4
:1024E0000F900FBE0F901F90189580930D070E94BC
:1024F0008B1708951F93182F8FEF9FEF9093050769
:1025000080930407909307078093060710920107B2
:10251000909309078093080790930B0780930A070D
:1025200010920C071092100781E0809311070E940F
:10253000461910930D071F3F19F0812F0E948B172A
:1025400081E00E94011888E00E9419180E94B116CB
:1025500021E042E064E087E10E94B11086E10E9440
:10256000191849EF56E068E080E090E00E9494116D
:1025700080E00E941F178FEF9FEF0E9407178FEFD9
:102580009FEF0E94131722E044E060EF8CE20E946C
:10259000B11089EF96E00E94F7160E94F6121F9183
:1025A0000895089580E090E0089580E008958FEF09
:1025B0009FEF089580E0089580E0089508950895BC
:1025C00080E090E0089580E090E0089580E090E061
:1025D000089580E090E0089508950895089580E0BA
:1025E00090E00895089580E090E00895089508959A
:1025F0000895FC0185858F778587089580E090E0B8
:10260000089580E090E0089521E0880F991FFC0173
:1026100033E0EE0FFF1F3A95E1F7E81BF90BE05BA3
:10262000FB4F8081882331F081859285009719F0D6
:102630002F5FEBCF20E0822F089580914F040E94FE
:10264000250F8091010791E089270E94071E0895B8
:10265000CF93DF93EC01862F0E94751283E698ECEE
:1026600090937906809378068091030780937A0689
:102670008F5F8093030780910407909105079093E3
:102680007C0680937B06D0937E06C0937D06AFE7E1
:10269000B6E0E9EFF6E088E001900D928150E1F7B5
:1026A00081E080938706D0938906C093880683E0F3
:1026B00080938A0668E776E083E10E9485186DE1E1
:1026C00073E184E690E00E942E0E80934F04DF9128
:1026D000CF9108950895DF93CF9300D0CDB7DEB7A3
:1026E0000F900F90CF91DF91089508950895DF9393
:1026F000CF93CDB7DEB760970FB6F894DEBF0FBEAD
:10270000CDBF81E698E89A838983809103078B8304
:102710008F5F8093030780910407909105079D8345
:102720008C838091060790910707998788879D87FA
:102730008C8780915004909151049B878A87809167
:1027400052048E870E94A1168F870E94A416888B40
:1027500080910807909109079F838E83BE016F5F68
:102760007F4F80E10E94851860960FB6F894DEBF17
:102770000FBECDBFCF91DF910895282F809106071E
:10278000909107076817790789F0809101078823DE
:1027900069F0709351046093500420935204109296
:1027A00053040E94771381E080931007089568E72F
:1027B00076E0809177060E9485180895EF92FF9247
:1027C0000F931F93CF93DF93EC01062F7A01122F03
:1027D00020910607309107078217930709F470C00C
:1027E0008FEFCF3FD80709F46BC080910107882392
:1027F00009F466C081E698E890937906809378069C
:102800008091030780937A068F5F809303078091FE
:1028100004079091050790937C0680937B06309384
:10282000800620937F06D0938206C0938106309362
:10283000840620938306CE010E949B15163029F44E
:10284000D0937E06C0937D0608C0809108079091C2
:10285000090790937E0680937D0680911107811170
:1028600010681093850690E009C0E92FF0E0E85861
:10287000F94FD7018D917D0186879F5F9017A8F34F
:1028800020917D0630917E06809106079091070782
:1028900028173907A9F02F5F3F4F91F0025F00938F
:1028A00077061650123018F087E090E002C080E002
:1028B00090E067ED73E10E942E0E81E08093100797
:1028C000DF91CF911F910F91FF90EF90089580912C
:1028D000030690E08F7790708330910531F184305A
:1028E000910534F48130910549F0029761F516C0E5
:1028F0008530910509F1069731F503C00E94261D28
:1029000008951092110726E046E057E062E08091BA
:102910000807909109070E94DE130895809101062F
:10292000909102060E94C41D089580910106909125
:1029300002060E94AB1D08956091F505605186EF77
:1029400095E00E94F507089525E00E94DE130895A2
:1029500021E00E94DE130895DC010D900020E9F7CC
:10296000A81B27E0AC016A2F80E090E00E94DE13F4
:102970000895909112078091130720E0981321E0A9
:10298000822F08950F931F93182F092F80911207FC
:102990002091130790E001966AE070E00E94742C89
:1029A00030E082179307D9F040911207842F90E00E
:1029B000FC01EE0FFF1FE80FF91FEC5EF84F212F0F
:1029C000302FC901DC0183E00D9001928150E1F7C5
:1029D000842F8F5F8A3008F080E0809312071F9168
:1029E0000F910895DF93CF930F92CDB7DEB780910B
:1029F00013078983998189818F5F898389818A30CF
:102A000008F0198289818093130723E0929F900137
:102A100011242C5E384FC9010F90CF91DF9108959A
:102A20000F931F93DF93CF930F92CDB7DEB703E0E1
:102A300011E06FC08091130789838981809FF00125
:102A40001124EC5EF84F89818F5F898389818A30F8
:102A500008F019828981809313078081833109F4FA
:102A600050C0843150F4813109F451C0823108F0F2
:102A70004BC0803109F04DC014C0863169F08831F7
:102A800011F1843109F045C080910107882309F0D4
:102A900040C00E94FB153DC00180F281E02D0995E8
:102AA00038C0809101078823A1F12091FF05309162
:102AB000000680910607909107072817390749F506
:102AC0000E94671426C08091F6059091F705835601
:102AD0009C48F9F410930107809103069091040635
:102AE0009093090780930807809106069091070646
:102AF00090930707809306070E9407170E941D13F3
:102B000008C00E946B1C05C00E942D1E02C00E94BE
:102B1000541E9091120780911307981709F08ACFDD
:102B20000F90CF91DF911F910F910895089508950F
:102B300008950895089580E00895809154040895BB
:102B40008093F50108958091F50108950895089501
:102B50001F9310E0809137078F3FE1F011E08091E3
:102B600033079091340790930507809304072091D1
:102B700035073091360730930907209308070E94E4
:102B80001317809137070E94751280913B078F5F62
:102B900080930C07812F0E94F71D1F9108952091AB
:102BA00075068091F705829586958695837080934A
:102BB00032078091F9059091FA059093340780933C
:102BC00033078091FB059091FC0590933607809325
:102BD00035078091000680933B0780910D07815057
:102BE000809337071092380720933C070E94A11664
:102BF00080933D0708951F9340917506809154047A
:102C0000882359F12091390730913A078091FD05C9
:102C10009091FE0590933A078093390780913A0787
:102C200087FF05C030933A072093390716C080917B
:102C30003C07841780F0841781F490913B078091C2
:102C40000006891740F0981741F410913D070E9443
:102C5000A116181710F40E94CF151F910895909196
:102C60000D079F3FB1F481E08093540486E1E2E3D5
:102C7000F7E0DF011D928A95E9F7909337078BE023
:102C800080930D078091F501803839F080930D070E
:102C900004C082E090E00E94240140910D074B3176
:102CA00048F4242F30E08091F50190E00196281738
:102CB000390741F4109254048FEF80930D070E945E
:102CC000A8150895842F0E94751283E098E09093D0
:102CD0007906809378068091020780937A068F5F49
:102CE000809302078FEF9FEF90937C0680937B0683
:102CF00090937E0680937D0687E080937F0668E749
:102D000076E088E00E94851880910D078F5F8093A0
:102D10000D076FE276E184E190E00E942E0E0895A7
:102D200008950E947D1180E090E00E947A190E942F
:102D3000610F0E94EA1D78940E94721C0E94101577
:102D4000FACF8091560408958091750608952998C8
:102D50002B988DE090E00197F1F7299A0895089556
:102D60000895089540E06FE181E00E949E1008956B
:102D700040E06FE181E00E949E10282F8151823057
:102D800058F0223049F0213039F080E090E02E31C7
:102D900029F481E090E0089581E090E00895CF93D8
:102DA000DF93EC0140E06FE181E00E949E108630ED
:102DB00021F0813011F084E407C040E06FE186E04B
:102DC0000E949E10888380E4DF91CF91089540E0B7
:102DD0006FE188E00E949E10089540E06FE186E078
:102DE0000E949E10809356041092100708951F931E
:102DF000CF93DF93EC0114E26991812F0E9474104C
:102E00001F5F1C32C9F7DF91CF911F9108951F9367
:102E1000192F682F80E20E947410612F81E20E94B6
:102E200074101F9108951F93192F682F82E20E943A
:102E30007410612F83E20E9474101F910895282F4F
:102E400043E068E08EE20E94B11008952B988DE077
:102E500090E00197F1F723E040E06FE182E00E940B
:102E6000B11083E090E00197F1F708951B9B02C039
:102E700080E408950E9426178BE490E00197F1F713
:102E800040E06FE181E00E949E10883011F083E401
:102E900008952B9A80E408951F93162F663010F042
:102EA00082E411C0882311F421E001C020E043E056
:102EB00068E083E00E94B110212F40E067E083E0EA
:102EC0000E94B11080E41F9108951B9902C080E414
:102ED00008952B9881EE96E00197F1F760E081E08C
:102EE0000E944C1740E06FE181E00E949E10883004
:102EF00071F383E40895282F803110F082E408955F
:102F00001B9B02C084E4089540E06FE085E00E94CE
:102F1000B11080E408951F93182F8B50803110F06A
:102F200082E428C01B9B02C084E424C040E06FE11F
:102F300088E00E949E108117E1F0212F40E06FE1B0
:102F400088E00E94B11040E06FE181E00E949E1095
:102F5000863011F0893021F48DE291E00197F1F78C
:102F600040E06FE188E00E949E10811711F083E439
:102F700001C080E41F91089580915504882329F4AD
:102F80008CE10E9459108093550480915504089556
:102F90000F931F93DF93CF9300D0CDB7DEB7082FE9
:102FA000198240E06FE181E00E949E10182F0E947C
:102FB000BC17833021F00E94BC178730C9F416304B
:102FC00019F4069510E010C0163191F4FACF45E0DF
:102FD00060E686E00E949E108A8389819A81880F2C
:102FE000880F892B89831F5F101788F3898102C09E
:102FF0000E9458270F900F90CF91DF911F910F9152
:1030000008951F93182F0E94BC17823031F4212F8E
:1030100047E060E885E00E94B1100E94BC17833051
:1030200031F4212F45E060E284E00E94B1101F914D
:1030300008950F931F93182F883051F0863041F078
:10304000893031F0863121F0893111F082E45AC0A3
:103050001B9B02C084E456C00E94B8168823E1F787
:103060000E94BC17823039F40E949D15882319F004
:10307000163109F416E040E06FE181E00E949E10F5
:10308000082F181709F43DC0183019F40E942617AC
:103090002FC0193159F48930E1F029E040E06FE1A7
:1030A00082E00E94B110063181F40CC0163189F41F
:1030B000893079F029E040E06FE182E00E94B110B0
:1030C000093119F483E090E002C089E691E00197AC
:1030D000F1F7212F40E06FE182E00E94B11008304B
:1030E00019F489E691E002C083E090E00197F1F7DE
:1030F00040E06FE181E00E949E10811711F083E4AF
:1031000001C080E41F910F9108951F93CF93DF9327
:10311000182FEB0187FF02C082E41AC00E94B81684
:103120008823E1F789E10E94191840E06FE181E00E
:103130000E949E108931B1F78D819E8190930F0777
:1031400080930E071E5F612FCE010E940A1180E45A
:10315000DF91CF911F910895DF93CF9300D000D0DE
:103160000F92CDB7DEB740E06FE181E00E949E1084
:103170008A838A81813151F08A81863039F08A814F
:10318000813021F08A81863109F046C00E94D0103A
:103190009091F70580E02091F605AC01420F511D9A
:1031A0009A018091FB058F3F41F48091FC058F3F90
:1031B00021F4842F807F09F061C01B821D821C8254
:1031C00058E821363507B1F088E82236380720F470
:1031D00020503048E1F408C058E82336350761F044
:1031E00023563C48A1F40FC00E949D15882379F016
:1031F00084E10CC080E10AC08091FF05823019F0A3
:103200008B3B29F402C088E101C089E18B83CE01A8
:1032100003960E94C21432C08A81823049F08A81AA
:10322000823131F08A81893119F08A81893031F512
:10323000109210071B821D821C8245E060EE82E026
:103240000E949E1089838981833051F0843018F464
:10325000823050F403C0853039F404C081E103C0EA
:1032600083E101C082E18B838B81882321F0CE0131
:1032700003960E94C21486E10E9419180F900F90C5
:103280000F900F900F90CF91DF910895FF920F93C1
:103290001F93F82E0DEF13E0C8010197F1F70E947C
:1032A000431029982B988DE090E00197F1F7299A27
:1032B00023E040E06FE182E00E94B110C801019775
:1032C000F1F76CE08EE00E94741027E040E06FE0C0
:1032D00089E00E94B110FF2011F00E94AB1180E440
:1032E0001F910F91FF9008950895089580E090E058
:1032F000089508951092DB042091DB042093DA04F2
:1033000010925904209159042093580428E92093DD
:10331000C10026E02093C2001092C5002CE020934B
:10332000C40090935D0580935C0508951092C100E0
:103330000895382F80915F058823D9F5789490916E
:1033400058049F5F97FF05C090E003C0222319F047
:103350000EC020915E05809159049817B9F3E09151
:103360005804F0E0E85AFB4F328390935804809160
:10337000C10085FD1EC08091C00085FFFCCF9091EB
:103380005904E92FF0E0E85AFB4F2281809158045C
:10339000981711F42FEF06C0E92FEF5FE7FDE0E08B
:1033A000E09359042093C6008091C100806280930D
:1033B000C1000895CF93DF93EC0103C00E949919D7
:1033C000219688818823D1F7DF91CF91089580914C
:1033D000DA049091DB04282F30E0291B310937FFF4
:1033E00002C020583F4F822F08958091DA049091B7
:1033F000DB04282F30E0291B310937FF02C0205899
:103400003F4F822F08958091580490915904282F9E
:1034100030E0291B310937FF02C020583F4F822F6F
:10342000089590915904E92FF0E0E85AFB4F22816A
:1034300080915804981711F42FEF06C0E92FEF5F21
:10344000E7FDE0E0E0935904822F08958091DA04CB
:103450009091DB04282F30E0291B310937FF02C08F
:1034600020583F4F222391F39091DB04E92FF0E0A5
:10347000E652FB4F22818091DA04981711F42FEF66
:1034800006C0E92FEF5FE7FDE0E0E093DB04822F69
:103490000895DF92EF92FF920F931F93CF93DF93E4
:1034A000EC01D42E00E0E62EFF240894E108F10898
:1034B0008091DA049091DB04282F30E0291B310938
:1034C00037FF02C020583F4F222391F39091DB0435
:1034D000E92FF0E0E652FB4F12818091DA04981751
:1034E00011F41FEF06C0E92FEF5FE7FDE0E0E09386
:1034F000DB04802F90E08E159F0524F01D3011F025
:103500001830B1F6DD2019F0812F0E94991918307A
:1035100061F01D3089F41882802FDF91CF911F91C7
:103520000F91FF90EF90DF900895002309F4C0CF32
:10353000015018822197BCCF19930F5FB9CF90E04B
:1035400080915F05882309F491E090935F050895C9
:1035500008958091DA049091DB04282F30E0291B34
:10356000310937FF02C020583F4F222309F455C0CC
:103570008091DA049091DB04282F30E0291B310977
:1035800037FF02C020583F4F222391F39091DB0474
:10359000E92FF0E0E652FB4F22818091DA04981780
:1035A00011F42FEF06C0E92FEF5FE7FDE0E0E093B5
:1035B000DB04809102028533E1F0863328F4833303
:1035C00041F08433A1F509C08633C9F0873379F51A
:1035D00026C0213089F484E30FC0822F2B3008F0FD
:1035E0008AE08093F60185E38093020210925704EB
:1035F00014C02093F70186E3809302020EC09091DD
:1036000057048091F601981750F4E92FF0E0EA5042
:10361000FE4F22839F5F9093570480E0089583E3D9
:103620008093020280E0243031F481E0089583E346
:103630008093020280E00895EF92FF920F931F9310
:10364000CF93DF93082F162F7A0181E00E949919FA
:10365000812F0E949919802F0E94991900E0C12F93
:10366000D0E006C0EE0DFF1D80810E9499190F5F0A
:10367000E02FF0E0EC17FD07ACF384E00E9499190D
:10368000DF91CF911F910F91FF90EF9008951F92BE
:103690000F920FB60F920BB60F9211242F933F93F8
:1036A0004F935F936F937F938F939F93AF93BF934A
:1036B000EF93FF932091C6009091DA049F5F97FDEE
:1036C00090E08091DB04981741F0E091DA04F0E09B
:1036D000E652FB4F22839093DA0410925E05E0914C
:1036E0005C05F0915D05309711F0822F0995FF91EF
:1036F000EF91BF91AF919F918F917F916F915F916A
:103700004F913F912F910F900BBE0F900FBE0F90D6
:103710001F9018951F920F920FB60F920BB60F9233
:1037200011242F938F939F93EF93FF9390915804BD
:10373000809159049817B1F090915904E92FF0E065
:10374000E85AFB4F228180915804981711F42FEF0B
:1037500006C0E92FEF5FE7FDE0E0E0935904209316
:10376000C60005C08091C1008F7D8093C100FF918C
:10377000EF919F918F912F910F900BBE0F900FBEE5
:103780000F901F9018950895089581E08093110778
:10379000089580916105882359F581E08093610542
:1037A000209103023091040221343105B8F421152F
:1037B000310569F06CE27CE184E690E0AC01249F85
:1037C000C001259F900D349F900D112404C06CE220
:1037D0007CE188E893E10E942E0E0895C9016AE019
:1037E00070E00E94602CCB016CE27CE10E94AD0E87
:1037F000089580911107882339F060E57CE182E328
:1038000090E00E942E0E08950E94C91B08950E9408
:10381000C91B08950E941B0E885A944E0E94040EE4
:1038200008951F93DF93CF930F92CDB7DEB78091AA
:103830006005882361F411E01983AE014F5F5F4F8B
:1038400061E080E090E00E94A414109360050F9066
:10385000CF91DF911F9108950E94111C1092610574
:1038600020916205309163052F5F3F4F30936305D0
:10387000209362058091050290910602281739076E
:1038800061F4232B51F067E678E087E090E00E9436
:103890002E0E10926305109262050E94F91B089586
:1038A00080911107882329F40E94C91B0E94111CD2
:1038B0000895109260058091030290910402009790
:1038C00011F482E390E00E9424010E942C1C0895D0
:1038D0000895089508950895089508950895089500
:1038E00008950895CF93DF93809126038823A9F04C
:1038F00080916505882399F480916605882329F0D5
:103900000E94250F1092660504C0109226030E94A3
:10391000210881E08093650502C0109265050E9430
:10392000A91A882309F476C08091F701833829F118
:10393000843830F4813851F0823809F06BC00CC003
:10394000843861F1853809F065C03BC060E070E003
:1039500082E00E94BD135EC0809164058F5F8093FA
:10396000640581500E94C401DC01E6ECF1E080E1D5
:1039700001900D928150E1F721C0809164058F5F25
:103980008093640581500E94C401DC01E6EDF1E002
:1039900080E101900D928150E1F710C080916405A3
:1039A0008F5F8093640581500E94C401DC01E6EBC7
:1039B000F1E080E101900D928150E1F70E94550500
:1039C00029C00E94F401DC01E6EBF1E080E1019006
:1039D0000D928150E1F760EB70EF81EB90EF0E9468
:1039E0003102809164058F5F80936405815080FD72
:1039F00003C0C7E0D2E002C0CAE0D2E00E948B025E
:103A0000FC01888199819183808382E00E949002E9
:103A10000E94E904DF91CF91089560E08FE20E9457
:103A2000741060E070E082E00E94BD136DE07DE103
:103A300084EF91E00E942E0E80936605089568E65B
:103A40007CE18AE090E00E942E0E089580910306AA
:103A5000813031F468E67CE18AE090E00E942E0E2D
:103A6000089568E67CE189E190E00E942E0E0895B9
:103A7000EF92FF920F931F93DF93CF93CDB7DEB7F3
:103A800028970FB6F894DEBF0FBECDBF8E010F5F33
:103A90001F4FA80168E080E090E00E949411780137
:103AA0009E01275F3F4FF80180818F3FB9F40F5F80
:103AB0001F4F02171307B9F72AC088E00E94C817E2
:103AC000F70181937F01E017F107B9F7AE014F5F6E
:103AD0005F4F68E080E090E00E947E118E010F5FF2
:103AE0001F4FA80162E080E190E00E94941189815B
:103AF0009A818F5F9F4F91F484E190E09A8389834C
:103B0000A80162E080E190E00E947E1107C080E0A1
:103B10000E94461986E00E941918CFCF28960FB64A
:103B2000F894DEBF0FBECDBFCF91DF911F910F91F3
:103B3000FF90EF900895609137078091350790913D
:103B400036070E942813089540E050E060E081ECC1
:103B50000E941C1B0895DF93CF9300D0CDB7DEB732
:103B60009A838983AE014F5F5F4F62E081EC0E94D0
:103B70001C1B68E67CE18AE090E00E942E0E0F900C
:103B80000F90CF91DF910895DF93CF9300D0CDB701
:103B9000DEB79A83898368E67CE181E090E00E9449
:103BA0002E0EAE014F5F5F4F62E081EC0E941C1B46
:103BB00069817A8183E00E94BD130F900F90CF91AD
:103BC000DF9108958FEF0E947A120E942F160E94B3
:103BD0001A08089568E67CE189E190E00E942E0EC3
:103BE0000E94381D0E94E21D0E940E08089588233D
:103BF00039F06BE97DE18AE090E00E942E0E089595
:103C000084E690E00E9424010E94E21D089588232A
:103C100079F468E67CE18AE090E00E942E0E40E0B4
:103C200050E060E083EC0E941C1B0E947404089525
:103C300084E690E00E9424010E94E21D08954DE078
:103C400052E064E080E090E00E94A8146FE17EE121
:103C500088EE93E00E942E0E08950E94C41B0E94DD
:103C60009D15882301F540910E0750910F07209173
:103C7000080730910907809167058F5F809367057A
:103C8000883088F04217530771F41092010788E0DA
:103C90000E94C8179AE0899FC001112462EE7DE15D
:103CA000C2960E942E0E089520910E0730910F07A4
:103CB00080910807909109072817390711F410928D
:103CC00067050E94C31B0895A3E1B0E0EAE6FEE1A8
:103CD0000C94872C3C01798B688B5A01FC0117826C
:103CE0001682838181FD03C06FEF7FEF84C37AE08A
:103CF000472E9E012F5F3F4F3B8B2A8BF301238181
:103D0000E889F98923FD859123FF8191F98BE88B5F
:103D1000882309F46DC3853251F4E889F98923FDBC
:103D2000859123FF8191F98BE88B853229F4B301CA
:103D300090E00E949E28E2CF982FDD2455249924FC
:103D4000FFE1FD15D0F09B3269F09C3228F49032EF
:103D500059F0933291F40EC09D3249F0903369F4DA
:103D600031E029C042E0D42A54E0D52A28C088E0B6
:103D7000D82A25C090E1D92A22C0D7FC2BC0892F90
:103D800080538A3070F4D6FE05C0949C902C112488
:103D9000980E15C0549C502C1124580EE0E2DE2AD7
:103DA0000EC09E3229F4D6FC23C3F0E4DF2A07C0FC
:103DB0009C3619F430E8D32A02C0983659F4E889C1
:103DC000F98923FD959123FF9191F98BE88B992334
:103DD00009F0B6CF892F8554833020F48D2D806172
:103DE000905E07C0892F8556833008F0A9C18D2DBC
:103DF0008F7E86FD02C066E0962E5FE3F52EF822E8
:103E0000953619F4F0E4FF2A07C0963619F420E835
:103E1000F22A02C091109A94F7FE0BC03BE33915C9
:103E200020F427E04CE3842E0EC0892C839427E0F5
:103E30000AC047E0491528F427E0882437E0932E8C
:103E400002C0292D8824C50104969D878C87F50121
:103E50006081718182819381082DAE014F5F5F4F38
:103E60000E9468276C010981202F30E03F872E8750
:103E700000FF05C03E8533FD02C01DE209C0F1FE12
:103E800002C01BE205C0F2FC02C010E001C010E25B
:103E90008E859F858C709070892BC1F1112311F450
:103EA00083E001C084E0851510F055240AC0581A3B
:103EB000F3FC07C0B30180E290E00E949E285A9470
:103EC000C9F7112329F0B301812F90E00E949E28A9
:103ED0004E8543FF03C00CE810E00EC000E910E07F
:103EE0000BC0E114F10409F08052B30190E00E948C
:103EF0009E280F5F1F4F05C0EF2CFF2450E1E522E5
:103F0000FF24F8018491882361F717C1F7FE13C0DD
:103F10008C0CFE85F4FF04C08A81813309F48A94F5
:103F200018141CF0882483942DC028E0281550F51F
:103F300098E0892E27C0F6FC25C0892D90E08C15CD
:103F40009D054CF03CEFC3163FEFD30624F040E84C
:103F5000F42A01C09A94992049F0E2E0F0E0EC0FD5
:103F6000FD1FE90DF11D80818033A1F3F7FE0AC02A
:103F7000892C8394892D90E0C816D90614F09924D1
:103F800001C09C18F7FC03C025E030E009C01C14F8
:103F90001D041CF021E030E003C096012F5F3F4F6D
:103FA000112311F02F5F3F4F992029F0892D90E0C8
:103FB0000196280F391F852D90E02817390714F036
:103FC000552401C0521AAF2CBB24C50189709070D2
:103FD000892B39F008C0B30180E290E00E949E284E
:103FE0005A945520C1F7112329F0B301812F90E095
:103FF0000E949E28A3FE07C008C0B30180E390E0A2
:104000000E949E285A945520C1F7F7FE48C08601A9
:10401000D7FE02C000E010E076010894E11CF11C1C
:10402000E01AF10A81E090E08C0F9D1FE80EF91E66
:10403000160128183108892D90E0AA24BB24A81A5B
:10404000B90A9FEF0F3F190729F4B3018EE290E000
:104050000E949E28C016D10634F0201631061CF4AA
:10406000F701808101C080E3015010400894E11CF9
:10407000F11C0A151B052CF0B30190E00E949E284C
:10408000E0CF0C151D0541F49A81963320F4953349
:1040900019F4FE85F4FF81E3B30190E04CC08A81FE
:1040A000813309F00F7EB30190E00E949E28992091
:1040B000A1F0B3018EE290E00E949E2812E0E1E0C0
:1040C000F0E0EC0FFD1FE10FF11D1F5FB3018081D8
:1040D00090E00E949E289A9491F7A4FC03C085E684
:1040E00090E002C085E490E0B3010E949E28D7FCD6
:1040F00005C0C114D10441F404FF06C0D094C1949A
:10410000D108D3948DE201C08BE2B30190E00E940C
:104110009E2880E305C08F5F26EF3FEFC20ED31EBF
:104120003AE0C316D104BCF7B30190E00E949E2888
:10413000B301C601C0960E949E28AC84BD8455C1BF
:10414000933631F0933791F0933509F059C023C07D
:10415000F501808189837E010894E11CF11C22E035
:1041600030E0A20EB31E01E010E012C0F501E080C5
:10417000F180D6FC03C06FEF7FEF02C0692D70E0C5
:1041800022E030E0A20EB31EC7010E945B288C0122
:104190003FE7D32214C0F501E080F180D6FC03C0D4
:1041A0006FEF7FEF02C0692D70E022E030E0A20ED9
:1041B000B31EC7010E9440288C0130E8D32AD3FEE9
:1041C00007C01AC0B30180E290E00E949E285A9472
:1041D000852D90E008171907A8F30EC0F701D7FC4A
:1041E0008591D7FE81917F01B30190E00E949E28C6
:1041F00051105A94015010400115110579F7F5C07E
:10420000943611F0993689F5D7FE08C0F501E080A3
:10421000F1800281138124E030E00AC0F501808141
:1042200091817C010027F7FC0095102F22E030E0FF
:10423000A20EB31E3FE6D32217FF0AC010950095C9
:10424000F094E094E11CF11C011D111D40E8D42AFA
:104250002AE030E0AE014F5F5F4FC801B7010E9416
:104260000629F82E5A89F51A43C0953729F41D2DD1
:104270001F7E2AE030E01DC01D2D197F9F3661F0A2
:10428000903720F4983509F0B3C00FC0903739F05B
:10429000983709F0ADC004C028E030E00AC01061D2
:1042A00014FD146020E130E004C014FD166020E12C
:1042B00032E017FF08C0F50160817181828193812E
:1042C00044E050E008C0F50180819181BC0180E0AC
:1042D00090E042E050E0A40EB51EAE014F5F5F4F8C
:1042E0000E940629F82E5A89F51A8FE7D82ED12276
:1042F000D6FE0BC08EEFD822F91438F4D4FE07C0D6
:10430000D2FC05C09FEED92202C01F2D01C0192D7D
:10431000D4FE0DC0FE01EF0DF11D8081803319F434
:10432000E9EEDE2208C01F5FD2FE05C003C08D2D5E
:10433000867809F01F5F0D2DD3FC14C0D0FE0FC08E
:10434000151510F09F2C0BC09F2C950C911A152D54
:1043500006C0B30180E290E00E949E281F5F151501
:10436000C0F304C0151510F4511A01C0552404FF00
:1043700010C0B30180E390E00E949E2802FF1EC09F
:1043800001FD03C088E790E002C088E590E0B3013A
:104390000CC0802F867891F001FF02C08BE201C033
:1043A00080E2D7FC8DE2B30190E00E949E2806C017
:1043B000B30180E390E00E949E289A94F914C0F320
:1043C000FA94E1E0F0E0EC0FFD1FEF0DF11DB301F9
:1043D000808190E00E949E28FF2091F706C0B301E3
:1043E00080E290E00E949E285A945520C1F786CC26
:1043F000F30166817781CB016396E2E10C94A32CF3
:10440000A0E0B0E0E6E0F2E20C94872CDC012B01A6
:10441000FA019C91923008F439C1EB018881823015
:1044200008F433C1943069F4843009F02FC1119637
:104430009C9111978981981709F428C1A2E1B2E0F3
:1044400025C1843009F421C18230A9F4923009F0E9
:104450001DC19A01AD0188E0EA010990AE01E901B0
:1044600009929E018150C1F7E201898111969C91C8
:104470008923818308C1923009F407C112962D90D7
:104480003C901397EB018A819B811496AD90BD906F
:10449000CD90DC901797EC80FD800E811F819101FB
:1044A000281B390BB90137FF04C066277727621B29
:1044B000730B603271050CF061C0121613066CF5B7
:1044C00037014801062E04C0969487947794679428
:1044D0000A94D2F721E030E040E050E004C0220F1F
:1044E000331F441F551F6A95D2F72150304040407A
:1044F00050402E213F2140235123211531054105F4
:10450000510521F021E030E040E050E079018A01DE
:10451000E628F728082919293CC0232BD1F1260EBB
:10452000371E35014601062E04C096948794779471
:1045300067940A94D2F721E030E040E050E004C0F4
:10454000220F331F441F551F6A95D2F72150304068
:10455000404050402A213B214C215D21211531054D
:104560004105510521F021E030E040E050E05901E3
:104570006A01A628B728C828D9280BC08215930538
:104580002CF01C01AA24BB24650103C0EE24FF24E7
:10459000870111969C91D20111968C91981709F47C
:1045A00045C0992339F0A80197012A193B094C0904
:1045B0005D0906C0A60195012E193F09400B510B5C
:1045C00057FD08C0118233822282248335834683BB
:1045D00057831DC081E081833382228288279927F7
:1045E000DC01821B930BA40BB50B84839583A683FC
:1045F000B7830DC0220F331F441F551F24833583FB
:104600004683578382819381019793838283248198
:10461000358146815781DA01C9010197A109B109A4
:104620008F5F9F4FAF4FBF4328F30BC091833382FF
:104630002282EA0CFB1C0C1D1D1DE482F582068300
:10464000178383E08083248135814681578157FF1A
:104650001AC0C901AA2797FDA095BA2F8170907042
:10466000A070B0705695479537952795822B932B60
:10467000A42BB52B84839583A683B78382819381F2
:10468000019693838283DF0101C0D201CD01CDB7B2
:10469000DEB7E2E10C94A32CA0E2B0E0E2E5F3E2A5
:1046A0000C94932C69837A838B839C832D833E8324
:1046B0004F835887E9E0EE2EF12CEC0EFD1EB7017A
:1046C000CE0101960E9436268E010F5E1F4FB80163
:1046D000CE0105960E9436268A8991E089278A8B29
:1046E000AE01475E5F4FB801C7010E9400220E94E1
:1046F0006125A096E6E00C94AF2CA0E2B0E0E3E8E0
:10470000F3E20C94932C69837A838B839C832D83AF
:104710003E834F835887F9E0EF2EF12CEC0EFD1EFF
:10472000B701CE0101960E9436268E010F5E1F4F03
:10473000B801CE0105960E943626AE01475E5F4F56
:10474000B801C7010E9400220E946125A096E6E000
:104750000C94AF2CA8E1B0E0E0EBF3E20C948F2CCA
:1047600069837A838B839C832D833E834F83588711
:10477000B9E0EB2EF12CEC0EFD1EB701CE01019637
:104780000E9436268E010F5E1F4FB801CE0105969E
:104790000E9436262985223008F47CC039893230BF
:1047A00010F4B8017AC08A859A8989278A872430CB
:1047B00011F0223031F4231709F06CC062E172E08D
:1047C0006CC0343039F41D861E861F86188A1C86FC
:1047D0001B8604C0323021F484E08987B7015DC0B4
:1047E0002B853C858B899C89281B390B3C872B8723
:1047F000ED84FE840F851889AD88BE88CF88D88C5B
:10480000EA14FB040C051D0540F4EE0CFF1C001F10
:10481000111F215030403C872B8720E030E040E0E2
:1048200050E080E090E0A0E0B0E46FE170E0EA14D6
:10483000FB040C051D0540F0282B392B4A2B5B2B64
:10484000EA18FB080C091D09B695A7959795879559
:10485000EE0CFF1C001F111F6150704041F7DA0180
:10486000C9018F779070A070B07080349105A10558
:10487000B10561F427FD0AC0E114F1040105110539
:1048800029F0205C3F4F4F4F5F4F20782D873E87A8
:104890004F87588BBE01675F7F4FCB010E94612518
:1048A0006896EAE00C94AB2CA8E1B0E0EAE5F4E20B
:1048B0000C94932C69837A838B839C832D833E8312
:1048C0004F83588789E0E82EF12CEC0EFD1EB701CE
:1048D000CE0101960E9436268E010F5E1F4FB80151
:1048E000CE0105960E9436268985823040F089895E
:1048F000823028F0B801C7010E94AE2601C08FEFB8
:104900006896E6E00C94AF2CA8E1B0E0EAE8F4E2A7
:104910000C94932C69837A838B839C832D833E83B1
:104920004F83588789E0E82EF12CEC0EFD1EB7016D
:10493000CE0101960E9436268E010F5E1F4FB801F0
:10494000CE0105960E9436268985823040F08989FD
:10495000823028F0B801C7010E94AE2601C081E074
:104960006896E6E00C94AF2CA8E0B0E0EAEBF4E245
:104970000C94902C9B01AC0183E08983DA01C9017E
:104980008827B7FD83959927AA27BB27B82E21151D
:1049900031054105510519F482E089833AC0882325
:1049A000A9F0203080E0380780E0480780E8580709
:1049B00029F460E070E080E09FEC30C0EE24FF243A
:1049C0008701E21AF30A040B150B02C079018A0170
:1049D0008EE1C82ED12CDC82CB82ED82FE820F8349
:1049E0001887C801B7010E941225019718161906E9
:1049F00084F4082E04C0EE0CFF1C001F111F0A9443
:104A0000D2F7ED82FE820F831887C81AD90ADC829A
:104A1000CB82BA82CE0101960E9461252896E9E0F8
:104A20000C94AC2CEF92FF920F931F937B018C019F
:104A300080E0E81680E0F80681E0080780E01807CB
:104A400088F48FEFE816F1040105110531F028F024
:104A500088E090E0A0E0B0E017C080E090E0A0E047
:104A6000B0E012C080E0E81680E0F80680E00807B9
:104A700081E0180728F088E190E0A0E0B0E004C0F1
:104A800080E190E0A0E0B0E020E230E040E050E0E3
:104A9000281B390B4A0B5B0B04C016950795F7943E
:104AA000E7948A95D2F7F701E65EFD4F8081281BD7
:104AB000310941095109C9011F910F91FF90EF90F0
:104AC0000895DF92EF92FF920F931F93FC01E48011
:104AD000F58006811781D1808081823048F480E0A2
:104AE00090E0A0E1B0E0E82AF92A0A2B1B2BA5C030
:104AF000843009F49FC0823021F4EE24FF24870122
:104B000005C0E114F1040105110519F4E0E0F0E03D
:104B100096C0628173819FEF623879070CF05BC0A9
:104B200022E83FEF261B370B2A3131052CF020E01D
:104B300030E040E050E02AC0B801A701022E04C0D6
:104B400076956795579547950A94D2F781E090E05E
:104B5000A0E0B0E004C0880F991FAA1FBB1F2A95D0
:104B6000D2F70197A109B1098E219F21A023B1237A
:104B70000097A105B10521F081E090E0A0E0B0E050
:104B80009A01AB01282B392B4A2B5B2BDA01C90187
:104B90008F779070A070B07080349105A105B10539
:104BA00039F427FF09C0205C3F4F4F4F5F4F04C0CF
:104BB000215C3F4F4F4F5F4FE0E0F0E02030A0E03E
:104BC0003A07A0E04A07A0E45A0710F0E1E0F0E05D
:104BD00079018A0127C06038710564F5FB01E1584D
:104BE000FF4FD801C7018F779070A070B0708034EC
:104BF0009105A105B10539F4E7FE0DC080E490E010
:104C0000A0E0B0E004C08FE390E0A0E0B0E0E80EE8
:104C1000F91E0A1F1B1F17FF05C016950795F7946D
:104C2000E794319687E016950795F794E7948A956F
:104C3000D1F705C0EE24FF248701EFEFF0E06E2FDF
:104C4000679566276795902F9F77D794DD24D79433
:104C50008E2F8695492F462B582F5D29B701CA0103
:104C60001F910F91FF90EF90DF900895FC01DB0101
:104C7000408151812281622F6F7770E0221F2227AD
:104C8000221F9381892F880F822B282F30E0991FB4
:104C90009927991F11969C93119721153105A9F514
:104CA000411551056105710511F482E037C082E8B4
:104CB0009FEF13969C938E9312979A01AB0167E036
:104CC000220F331F441F551F6A95D1F783E08C9341
:104CD0000DC0220F331F441F551F12968D919C91BA
:104CE0001397019713969C938E931297203080E030
:104CF000380780E0480780E4580758F314962D934E
:104D00003D934D935C93179708952F3F310579F4A8
:104D1000411551056105710519F484E08C930895DE
:104D200064FF03C081E08C9312C01C9210C02F5707
:104D3000304013963C932E93129783E08C9387E038
:104D4000440F551F661F771F8A95D1F7706414961C
:104D50004D935D936D937C93179708951F93DC019A
:104D6000FB019C91923008F447C08081823008F4A6
:104D700043C0943051F411961C91843099F581818F
:104D8000682F70E0611B71093FC0843021F09230C0
:104D900031F48230B9F18181882389F12DC01196D7
:104DA0001C9111978230F1F081811817D9F4129675
:104DB0002D913C911397828193818217930794F0F0
:104DC00028173907BCF014968D919D910D90BC91D8
:104DD000A02D2481358146815781281739074A073C
:104DE0005B0718F4112341F00AC082179307A40748
:104DF000B50740F4112319F061E070E005C06FEFD2
:104E00007FEF02C060E070E0CB011F910895A0E049
:104E1000B0E0EDE0F7E20C948F2CEC01A880B980B3
:104E2000CA80DB80A114B104C104D10441F484E23E
:104E3000A82E89EDB82E8BE5C82E87E0D82EC601A6
:104E4000B5012DE133EF41E050E00E94E82C27EA64
:104E500031E440E050E00E94C92C7B018C01C60186
:104E6000B5012DE133EF41E050E00E94E82CCA018A
:104E7000B9012CEE34EF4FEF5FEF0E94C92C6E0D9D
:104E80007F1D801F911F97FF04C0615070408040BC
:104E90009048688379838A839B839B013F77C9010C
:104EA000CDB7DEB7EAE00C94AB2C0E94072708953B
:104EB0008AE193E00E9407270895A0E0B0E0809384
:104EC0001A0390931B03A0931C03B0931D03089532
:104ED000283008F027E03327DA01990F311D87FDCC
:104EE000916000966105710539F432602E5F3D9343
:104EF00030E32A95E1F708959F3F30F0803871053F
:104F0000610509F03C5F3C5F3D93913008F080689B
:104F1000911DDF93CF931F930F93FF92EF92192F61
:104F2000987F9695E92F96959695E90FFF27E25180
:104F3000FF4F99273327EE24FF24A701E7010590AF
:104F40000894079428F4360FE71EF81E491F511DD8
:104F5000660F771F881F991F0694A1F70590079485
:104F600028F4E70EF81E491F561FC11D770F881F32
:104F7000991F661F0694A1F70590079428F4F80E70
:104F8000491F561FC71FD11D880F991F661F771F06
:104F90000694A1F70590079420F4490F561FC71FE8
:104FA000D81F990F661F771F881F0694A9F7849151
:104FB0001095177041F0D695C79557954795F7947A
:104FC000E7941A95C1F7E4E9F0E06894159015911B
:104FD00035916591959105907FE27395E118F10AFD
:104FE000430B560BC90BD009C0F7E10CF11E431F50
:104FF000561FC91FD01D7EF4703311F48A95E6CF79
:10500000E894015030F0080F0AF40027021708F462
:10501000202F2395022F7A3328F079E37D932A9568
:10502000E9F710C07D932A9589F6069497956795C0
:10503000379517951794E118F10A430B560BC90BD6
:10504000D00998F023957E9173957A3308F070E338
:105050007C932013B8F77E9170617D9330F0839537
:1050600071E37D9370E32A95E1F71124EF90FF90AF
:105070000F911F91CF91DF91992787FD909508950A
:10508000FC010590615070400110D8F78095909513
:105090008E0F9F1F0895FB01DC0102C001900D924D
:1050A00041505040D8F70895FB01DC0101900D926A
:1050B0000020E1F70895FC0161507040019001105B
:1050C000D8F7809590958E0F9F1F0895A0E0B0E0CF
:1050D000ECE6F8E20C94912C7C01EB018A01690169
:1050E00009C0CE012196F6010995F70181937F0150
:1050F0000150104001151105A1F7CDB7DEB7E8E06A
:105100000C94AD2CA0E0B0E0E8E8F8E20C94912C0F
:10511000EC017B018A01690109C0F70161917F01FE
:10512000CE012196F6010995015010400115110597
:10513000A1F7CDB7DEB7E8E00C94AD2C0F931F9329
:10514000CF93DF938C01EB018B8181FF1BC082FF2A
:105150000DC02E813F818C819D812817390764F411
:10516000E881F9810193F983E88306C0E885F98530
:10517000802F0995892B31F48E819F8101969F8321
:105180008E8302C00FEF1FEFC801DF91CF911F91F7
:105190000F910895AEE0B0E0E0EDF8E20C94952CAC
:1051A0000D891E8986E08C831A8309838FEF9FE720
:1051B0009E838D83CE014996AC016F89788DCE0197
:1051C00001960E94641E2F813885020F131FF8017B
:1051D00010822E96E4E00C94B12CAEE0B0E0E3EF48
:1051E000F8E20C94972C85E08C838B899C899A83B8
:1051F0008983CE014796AC016D897E89CE010196E7
:105200000E94E82A2E96E2E00C94B32CFA01AA2719
:10521000283051F1203181F1E8946F936E7F6E5FF9
:105220007F4F8F4F9F4FAF4FB1E03ED0B4E03CD0A7
:10523000670F781F891F9A1FA11D680F791F8A1F8A
:10524000911DA11D6A0F711D811D911DA11D20D0F1
:1052500009F468943F912AE0269F11243019305DAB
:105260003193DEF6CF010895462F4770405D41939C
:10527000B3E00FD0C9F7F6CF462F4F70405D4A33E9
:1052800018F0495D31FD4052419302D0A9F7EACFB1
:10529000B4E0A6959795879577956795BA95C9F7E0
:1052A00000976105710508959B01AC010A2E0694D3
:1052B0005795479537952795BA95C9F7620F731F8C
:1052C000841F951FA01D0895FC0120FD08C023FD2B
:1052D00005C022FF02C07383628351834083089517
:1052E000EF92FF920F931F9344FF02C033E011C06F
:1052F00046FF02C034E00DC0DB01FC01AA0FBB1F5A
:10530000EE1FFF1F1094D1F76A0F7B1F8E1F9F1F88
:1053100031E0660F771F881F991F3150D1F77B014D
:105320008C01E20EF11C011D111DA8019701B701AE
:10533000CA011F910F91FF90EF9008950F931F9353
:10534000CF93DF938C01C8010E94042CEC0197FDE0
:1053500008C00E94BE2C892BB1F7B801CE010E9473
:10536000462CCE01DF91CF911F910F910895A0E0BF
:10537000B0E0EDEBF9E20C948F2CEC01C62E5A0153
:10538000122F0E94042CAC018B3219F08D3251F493
:105390001068CA9409F46DC0CE010E94042CAC01BF
:1053A00097FD67C06DEFD62ED1228D2D807301F54C
:1053B0004033F1F4CA9409F447C0CE010E94042C92
:1053C000AC0197FD41C082E0D82A483711F048353A
:1053D00059F480E4D82ACA94B9F1CE010E94042C71
:1053E000AC0199232CF430C0D6FC02C080E1D82A4D
:1053F000EE24FF248701242F2053283088F0D4FC8A
:1054000009C02A3068F0D6FE05C02F7D822F815159
:10541000863028F0BE01CA010E94462C12C02750D7
:105420004D2DC801B7010E9470297B018C0182E0DB
:10543000D82ACA9461F0CE010E94042CAC0197FFD7
:10544000DACFD1FC04C015C0EE24FF248701D7FEBB
:1054500008C010950095F094E094E11CF11C011D2A
:10546000111D2D2DB801A701C5010E94642981E0FD
:1054700001C080E0CDB7DEB7EAE00C94AB2CA0E22F
:10548000B0E0E5E4FAE20C948B2C6C01A62E8A01C4
:105490007901FE01319680E2DF011D928A95E9F7DC
:1054A00070E030E060E040E050E04F01A1E0B0E0AB
:1054B000F6018381F70183FD259183FF21917F010F
:1054C000222309F47EC02E3519F44115510569F1E6
:1054D000872F90E08417950744F42D3551F12D3234
:1054E00021F4332329F431E021C0332309F4622F5E
:1054F000322F832F869586958695F401E80FF11D4E
:10550000832F87703D0102C0660C771C8A95E2F7F5
:10551000208126292083361711F430E007C0361782
:1055200010F43F5FE6CF3150E4CF71E04F5F5F4F43
:10553000BFCF332319F08E8180628E83772359F099
:10554000FE0131969E012F5D3F4F808180958193B2
:10555000E217F307D1F7BB24B3944E010894811CE2
:10556000911CC6010E94042CAC0197FD22C08695B7
:1055700086958695F401E80FF11D808190E09A01EF
:105580002770307002C0959587952A95E2F780FDC7
:1055900005C0B601CA010E94462C0BC001151105B9
:1055A00019F0D8014D938D01AA94BB24AA20C9F605
:1055B00002C0BB2031F40115110529F0F801108259
:1055C00002C0EE24FF24C701A096EEE00C94A72CA5
:1055D000A0E0B0E0EEEEFAE20C948B2C5C016B01E3
:1055E0003A01FC01178216828824EAC0812F90E0DC
:1055F0000E94BE2C892B21F0C5010E949E29E0C08B
:10560000153249F4F601F3FC6591F3FE61916F01E7
:10561000653269F415E2C5010E94042C97FDDCC0D7
:10562000181709F4CDC0B5010E94462CDAC06A32C1
:1056300019F0162F00E006C0F3FC1591F3FE11914E
:105640006F0101E099240FC00260692D70E080E0D5
:1056500090E040E20E947029962EF601F3FC15912D
:10566000F3FE11916F01212F20532A3068F301FDC1
:1056700003C099249A9403C0992009F4B2C0183643
:1056800021F01C3699F4F6010BC0F601F3FC65918C
:10569000F3FE6191683619F06F01162F07C008609C
:1056A0000460F3FC1591F3FE11916F01112309F4CD
:1056B00098C0612F70E08EE891E00E94F92B892B51
:1056C00009F48FC0802F00FF03C0EE24FF2407C021
:1056D000F301E080F18022E030E0620E731E1E369E
:1056E00051F4F5014681578160E070E0202FC70139
:1056F0000E94642965C0133691F481FD02C099248B
:105700009394C5010E94042C97FD66C0E114F10436
:1057100019F0F70181937F019A9499F74FC01B35D7
:1057200059F49601A701692DC5010E943F2A6C0119
:10573000009709F043C03DC0C5010E949E2997FD16
:105740004BC01F3659F1103728F4143629F1193699
:1057500039F527C0133719F0153711F51DC0C501EC
:105760000E94042CEC0197FD11C00E94BE2C892BD5
:1057700029F0B501CE010E94462C08C0E114F104C5
:1057800019F0F701C1937F019A9449F7E114F104EC
:10579000A9F0F701108212C0006203C0006101C0CD
:1057A0000064202FA701692DC5010E94B729882315
:1057B00029F4F5018381807379F413C000FF839489
:1057C000F501F380F601F3FC1591F3FE11916F01E1
:1057D000112309F00BCF05C0882019F42FEF3FEFFC
:1057E00002C0282D30E0C901CDB7DEB7EEE00C9441
:1057F000A72CFC010590061621F00020D9F7C00166
:1058000008953197CF010895CF93DF93EC014B8139
:1058100040FF1AC046FF0AC04F7B4B838E819F8199
:1058200001969F838E838A81282F2BC042FF13C04D
:10583000E881F9818081282F332727FD30952115B4
:10584000310529F440624B832FEF3FEF1BC03196A7
:10585000F983E88311C0EA85FB85CE0109959C0197
:1058600097FF0AC09B812F5F3F4F11F080E201C07C
:1058700080E1892B8B83E8CF8E819F8101969F8366
:105880008E8330E0C901DF91CF9108959C01FB0127
:10589000838180FF11C086FD0FC09FEF2F3F390726
:1058A00059F0228380648F7D83838681978101975D
:1058B0009783868330E002C02FEF3FEFC901089540
:1058C000AA1BBB1B51E107C0AA1FBB1FA617B70726
:1058D00010F0A61BB70B881F991F5A95A9F7809542
:1058E0009095BC01CD01089597FB092E07260AD09B
:1058F00077FD04D0E5DF06D000201AF4709561959D
:105900007F4F0895F6F7909581959F4F08952F92B8
:105910003F924F925F926F927F928F929F92AF923F
:10592000BF92CF92DF92EF92FF920F931F93CF938C
:10593000DF93CDB7DEB7CA1BDB0B0FB6F894DEBF23
:105940000FBECDBF09942A88398848885F846E8449
:105950007D848C849B84AA84B984C884DF80EE8093
:10596000FD800C811B81AA81B981CE0FD11D0FB69C
:10597000F894DEBF0FBECDBFED010895911106C0B2
:10598000803219F089508550D0F7089599278827DB
:105990000895629FD001739FF001829FE00DF11D79
:1059A000649FE00DF11D929FF00D839FF00D749F99
:1059B000F00D659FF00D9927729FB00DE11DF91F45
:1059C000639FB00DE11DF91FBD01CF0111240895A2
:1059D00097FB092E05260ED057FD04D014D00AD00F
:1059E000001C38F450954095309521953F4F4F4F0E
:1059F0005F4F0895F6F790958095709561957F4F6C
:105A00008F4F9F4F0895A1E21A2EAA1BBB1BFD01C9
:105A10000DC0AA1FBB1FEE1FFF1FA217B307E4078D
:105A2000F50720F0A21BB30BE40BF50B661F771FE5
:105A3000881F991F1A9469F76095709580959095C5
:0E5A40009B01AC01BD01CF010895F894FFCF8A
:105A4E00FF5425312E31660D0A4825312E32660D52
:105A5E000A4C25312E31660D0A0025312E31660095
:105A6E00310030004C656E677468204572726F723B
:105A7E000D0A0025783A25783A25783A25783A2580
:105A8E00783A25783A25783A25780D0A00556E6BC6
:105A9E006E6F776E20436F6D6D616E640D0A004EF2
:105AAE006F20726573706F6E73650D0A005B256CE7
:105ABE00645D202000564C50206D6F646520287761
:105ACE00616B652064697361626C6564290D0A00FF
