:100000000C94CD000C94F5000C94F5000C94F500C4
:100010000C94F5000C94F5000C94F5000C94F5008C
:100020000C94F5000C94F5000C94F5000C94F5007C
:100030000C9418110C94F5000C94F5000C94F50038
:100040000C94F5000C94F5000C94F5000C94F5005C
:100050000C94341A0C94771A0C94F5000C94F50057
:100060000C94F5000C94F5000C94F5000C94F5003C
:100070000C94F5000C94F5000C94F5000C94F5002C
:100080000C94820E0C94F5000C94F5006E616E00D9
:10009000696E660000407A10F35A00A0724E18098B
:1000A0000010A5D4E80000E87648170000E40B54DF
:1000B000020000CA9A3B000000E1F50500008096AE
:1000C0009800000040420F000000A08601000000E0
:1000D000102700000000E80300000000640000009A
:1000E00000000A00000000000100000000002C7663
:1000F000D888DC674F0823DFC1DFAE59E1B1B7967E
:10010000E5E3E453C63AE651997696E8E6C28426DA
:10011000EB898C9B62ED407C6FFCEFBC9C9F40F2B6
:10012000BAA56FA5F490055A2AF75C936B6CF96732
:100130006DC11BFCE0E40D47FEF520E6B500D0EDF7
:10014000902E0300943577050080841E080000205F
:100150004E0A000000C80C333333330F986E1283FD
:100160001141EF8D2114893BE65516CFFEE6DB18D1
:10017000D1844B381BF77C1D901DA4BBE424203296
:1001800084725E228100C9F124ECA1E53D276364FD
:10019000696E6F70737578585B0011241FBECFEFC6
:1001A000D0E4DEBFCDBF14BE88E10FB6F8948093D3
:1001B0006000109260000FBE13E0A0E0B1E0EEEF2F
:1001C000F7E500E00BBF02C007900D92AC30B1071D
:1001D000D9F717E0ACE0B3E001C01D92A633B10738
:1001E000E1F70E947E150C94FD2B0C9400000895FD
:1001F0002EE535E030935B0520935A0593E090930C
:100200005E059AE39093610590ED90935F0590935E
:10021000600594E190935C05F901749690E89093E1
:100220007205138212821182109276051092770560
:100230001092780580937905245E3F4F30930F0329
:1002400020930E038CE180935D05C90148970895C2
:100250008EE595E090935B0580935A051092130309
:100260001092120323E020935E0520EF20935F0598
:1002700020ED20936005439690930F0380930E0327
:1002800023E120935C0520935D05409708952EE5BA
:1002900035E030935B0520935A05909313038093C8
:1002A00012032D5F3F4F30930F0320930E0393E013
:1002B00090935E0580EF80935F058DED80936005E0
:1002C00090935C0590935D0508959C01805B904F31
:1002D0000F97F0F480EF603B7807D0F080EF6F3B32
:1002E0007807B0F4E0910E03F0910F038BEF808359
:1002F000862F805B922F9295907F890F8183329613
:10030000F0930F03E0930E0380915C058E5F12C0A3
:10031000E0910E03F0910F0388EF808331832283F5
:10032000738364833596F0930F03E0930E038091FB
:100330005C058B5F80935C05E0910E03F0910F03E9
:10034000F0931103E0931003CB01820F931F91836D
:1003500080838217930718F08617970718F4019681
:10036000918380833296F0930F03E0930E03809184
:100370005C058E5F80935C0580935D050895809198
:100380000E0390910F03089520910E0330910F03F7
:10039000280F311D30930F0320930E0390915D05BC
:1003A000980F90935D0508957F928F929F92AF92E0
:1003B000BF92CF92DF92EF92FF920F931F93CF9352
:1003C000DF9370905C0580900E0390900F03A091D6
:1003D0005A05B0915B051396B0930F03A0930E03DB
:1003E000139710925C0511968C911197682F70E00D
:1003F00086FD10C087FD07C01796B0930F03A0932A
:100400000E0317970FC01696B0930F03A0930E0319
:10041000169708C087FD06C01496B0930F03A093EB
:100420000E03149765FF05C029E130E040E050E07D
:100430000DC0E0910E03F0910F038191282F30E061
:1004400040E050E0F0930F03E0930E0312968C917E
:10045000C82FD0E08091F0069091F10692605C0187
:10046000CC24DD24CE0180739070B4E095958795FF
:10047000BA95E1F7FC01EE0FFF1FE80FF91FEC5AE8
:10048000FA4F808191817C0100E010E08091F206BA
:100490009091F306A0E0B0E0E80EF91E0A1F1B1FC2
:1004A0008FEF9EEFA0E0B0E0E80EF91E0A1F1B1FC1
:1004B000EA0CFB1C0C1D1D1DE20EF31E041F151F74
:1004C00068717070672B49F480910E0390910F034F
:1004D000019690930F0380930E03CE018C70907061
:1004E0008430910509F45FC08530910524F4892B8F
:1004F00009F482C097C088309105D1F00C9709F0BB
:1005000091C0CE0183709070FC01EE0FFF1FE80FC9
:10051000F91FEC5AFA4F80819181A0E0B0E0815040
:100520009140AF4FBF4F8A0D9B1DAC1DBD1D36C006
:10053000E0910E03F0910F034081218147FD20C01F
:1005400030E0942F80E0282B392B442737FD40954D
:10055000542FCE0183709070FC01EE0FFF1FE80F47
:10056000F91FEC5AFA4F80819181A0E0B0E0280F8A
:10057000391F4A1F5B1FE20EF31E041F151F52C0D6
:10058000822F90E0A0E0B0E080509140AF4FBF4F8D
:1005900046954F70840F911DA11DB11DE80EF91EE7
:1005A0000A1F1B1F3FC0CE0183709070FC01EE0F2D
:1005B000FF1FE80FF91FEC5AFA4F80819181A0E0EC
:1005C000B0E0E80EF91E0A1F1B1FE0910E03F09128
:1005D0000F0340E0308120E08181D901A80FB11DD7
:1005E000CD01A0E0B0E0E80EF91E0A1F1B1F4E5F10
:1005F0003296483079F716C0E0910E03F0910F0360
:1006000040E0308120E08181B901680F711DCB018C
:10061000A0E0B0E0E80EF91E0A1F1B1F4E5F3296E5
:10062000403179F790920F0380920E0370925C052F
:1006300080915D0590E0871991099C01442737FD61
:100640004095542F2E0D3F1D401F511F08C0CA0159
:10065000AA27BB27820F931F9C0140E050E0DA01DC
:10066000C901807090700097A105B10581F7C9019B
:10067000DF91CF911F910F91FF90EF90DF90CF907E
:10068000BF90AF909F908F907F9008959C014150B4
:100690005040460F571FFB010EC0708160E0818102
:1006A000DB01A80FB11D2A0F3B1F2A173B0710F4CF
:1006B0002F5F3F4F3296E417F50778F3E417F507FD
:1006C00049F4908180E0280F391F2817390710F46A
:1006D0002F5F3F4FC9010895FC0180818F3FB9F51D
:1006E00080915C05282F30E02C5F3F4F80915D05A5
:1006F000A82FB0E04CE025C0FB01E25AFA4F9181EF
:10070000992329F180818330C1F4BF01605F7F4F5D
:1007100040E150E080E090E00E9446039C0180911F
:1007200059058823A1F4309358052093570581E09B
:1007300080935905809300010895990F990F990F9F
:10074000490FB901640F711D6A177B07ACF2089558
:100750000F931F930EE515E010935B0500935A0568
:1007600083E080935E058AE38093610588ED809342
:100770005F0588EC8093600584EA8093620582E0DF
:1007800080936305D8011696B0930F03A0930E03D0
:1007900086E080935C0585E88093640511961C9241
:1007A0001197109268051092690510926A051092CF
:1007B0006B0586E180935D05F8013E96F0930D038D
:1007C000E0930C0381E080936C0581838091F306B4
:1007D00082838091F20683831482158216821782A7
:1007E00013961C921E9212970E94D40120915C05D0
:1007F00040915D0550E030E0421B530B60915A057B
:1008000070915B05620F731F0E94460320915C0587
:10081000F801E20FF11D382F292F209530953383F1
:1008200022830E94EC1AA80160915D0580E090E0AF
:100830000E9496131F910F910895DF92EF92FF92FD
:100840000F931F93CF93DF93809100018F3F19F493
:100850000E94A80356C00E94D401C0911003D091F9
:1008600011032881398140E050E0D0905C0560910F
:100870005D05E62FF0E0ED19F10938967F010027BC
:10088000F7FC0095102F3897E20EF31E041F151F7A
:10089000A0E0B0E0E80EF91E0A1F1B1F08C0C80147
:1008A000AA27BB278E0D9F1D7C0100E010E0D80118
:1008B000C701807090700097A105B10581F7609124
:1008C0005A0570915B056D0D711DAF01C7010E9446
:1008D0004603382F292F2095309539832883232BE1
:1008E00021F48FEF9FEF998388830E94EC1A4EE5E5
:1008F00055E060915D0580911203909113030E9471
:100900009613DF91CF911F910F91FF90EF90DF90A1
:100910000895809100018F3F19F40E94A803089563
:100920000E94D40120915C0540915D0550E030E0CB
:10093000421B530B60915A0570915B05620F731F48
:100940000E94460320915C05E22FF0E0E25AFA4F44
:10095000382F292F2095309533832283232B21F4A0
:100960008FEF9FEF938382830E94EC1A4EE555E050
:1009700060915D0580E090E00E9496130895CF930A
:10098000DF93FC018EE595E090935B0580935A051B
:1009900023E020935E05109260052AE32093610511
:1009A000049690930F0380930E0388ED80935F0568
:1009B00086818295807F806C809360059481982BDE
:1009C000909360058581982B909360059285909314
:1009D0005C05E92FF0E0EF01C25ADA4F88E888831E
:1009E0001982DF01AE59BA4F11961C9211971296D7
:1009F0001C92129713961C921397662319F080E4A9
:100A00008C9301C01C92905E90935D05EA58FA4F5A
:100A1000F0930D03E0930C0382E0808381E08183F7
:100A20008091F30682838091F2068383148215827B
:100A3000168217821B821A820E94D40120915C05C3
:100A400040915D0550E030E0421B530B60915A0528
:100A500070915B05620F731F0E944603E0915C0575
:100A6000F0E0E25AFA4F382F292F20953095338342
:100A700022830E94EC1A4EE555E060915D0580E00E
:100A800090E00E949613DF91CF910895CF92DF926C
:100A9000EF92FF920F93DF93CF93CDB7DEB72B97F3
:100AA0000FB6F894DEBF0FBECDBF2EE535E0309314
:100AB0005B0520935A0510925C052D5F3F4F3093E4
:100AC0000F0320930E032350304080915E05833046
:100AD00009F0B1C1809160058C708C3009F0ABC118
:100AE00080915F05982F86FD08C087FD03C0295FB0
:100AF0003F4F07C02A5F3F4F04C087FD06C02C5FF1
:100B00003F4F30930F0320930E0395FF03C081E105
:100B10008C830AC0E0910E03F0910F0381918C83C6
:100B2000F0930F03E0930E0320910E0330910F0317
:100B30002A833B8380915F0590E0887190708830B4
:100B4000910561F0893091051CF4892B71F014C076
:100B50008031910529F0489779F405C081E001C002
:100B600080E4898309C08FEFFCCFF90181918983EB
:100B7000F0930F03E0930E0380916005282F2370FC
:100B80002D8390E09C01207C307074E03595279592
:100B90007A95E1F728878073907064E09595879542
:100BA0006A95E1F78F83E0910E03F0910F03FA87C6
:100BB000E987243051F0283019F0222341F00CC08D
:100BC000808187FD38C1329603C0389601C0709687
:100BD000F0930F03E0930E03E0910E038EE595E092
:100BE000E81BE0935C05EB878C818A3309F06CC0CD
:100BF000F0E0E25AFA4F80818038D1F562E47BE17F
:100C00008AE090E00E94430D10925C05E0915A0545
:100C1000F0915B058181887111F480E48483809177
:100C20005C05E0915A05F0915B05E80FF11D9D818F
:100C30009295907F906C92838F812885822B892B4F
:100C40008283EB85E0935C05F0E0E25AFA4F81E89D
:100C50008083828193810197938382830E94EC1A1F
:100C60004EE555E060915D0580E090E00E949613AE
:100C7000E0915C05F0E0E25AFA4F8081813839F466
:100C8000E0910E03F0910F0387810E94FD0CE0912B
:100C90005C05F0E0E25AFA4F8081863821F4CE01FB
:100CA00001960E946C03E0915C05F0E0E25AFA4F75
:100CB0008081873849F48F818D8388858E8361E0B8
:100CC000CE0101960E94BF048C81813109F0B3C02E
:100CD000E0900E03F0900F03F70180818B3F41F508
:100CE00097012F5F3F4F30930F0320930E038181B5
:100CF000482F42954F70C42EDD2460EB70EFC60E76
:100D0000D71E90E0BC016F70707060557F4054E05A
:100D1000880F991F5A95E1F7482B41832F5F3F4F6A
:100D200030930F0320930E0380915C058E5F21C0EA
:100D3000883F09F080C0D7011196F701D180119644
:100D4000CC901197C70103967381FC016181F70173
:100D5000718311966C93D382FC01C18285E090E08F
:100D6000E80EF91EF0920F03E0920E0380915C05ED
:100D70008B5F80935C05E0910E03F0910F03F0937D
:100D80001103E0931003CB018C0D9D1D9183808393
:100D90008C159D0518F08617970718F40196918316
:100DA0008083AF014E5F5F4F50930F0340930E035C
:100DB00080915C058E5F80935C0501E7081B2091A4
:100DC0005D05281B7E010894E11CF11CC6010E94F0
:100DD0007209382F882379F180915C058B871092F6
:100DE0005C05E0915A05F0915B059181892F88712E
:100DF00029F4EA81FB8180E4808303C0977E9061BF
:100E0000918380915C05E0915A05F0915B05E80FB4
:100E1000F11D9D819295907F906C92838F812885A2
:100E2000822B892B82838B8580935C05830F809333
:100E30005D050E941D042B960FB6F894DEBF0FBE11
:100E4000CDBFCF91DF910F91FF90EF90DF90CF90CA
:100E50000895FF920F931F938C01F62E0E94EC1AB7
:100E60002EE535E0025F1F4F4F2D50E0B801C9015C
:100E70000E942327F0925D050E9446051F910F9165
:100E8000FF90089580E89EEF909355058093540558
:100E900081E0809356050E94E91A089581E090E070
:100EA0009093F3018093F20108951F93109215031C
:100EB00080911603813019F40E94280107C08091A7
:100EC00017038F5F809317030E94F8009C01D901DC
:100ED000E3EAF1E080E101900D928150E1F7809129
:100EE00016038130C1F460EB70EF81EB90EF0E944C
:100EF0006501109118030E94BF0129EA33E0412FD8
:100F000050E0B9010E942327809118030E94C40178
:100F10000E941D040EC00E94300DA0E0B0E080933E
:100F2000190390931A03A0931B03B0931C030E9410
:100F300089041F9108956F927F928F929F92AF9232
:100F4000BF92CF92DF92EF92FF920F931F9386E1B1
:100F50000E94061788E00E94B516992787FD909594
:100F6000A92FB92FBC01CD010E948C2320E030E0D5
:100F70004AE754E40E94822220E030E04CE852E448
:100F80000E9455226093D3017093D4018093D501C0
:100F90009093D60188E00E94B516992787FD909519
:100FA000A92FB92FBC01CD010E948C2320E030E095
:100FB0004AE754E40E94822220E030E048EE51E407
:100FC0000E9455226093D7017093D8018093D90174
:100FD0009093DA0188E00E94B516992787FD9095D5
:100FE000A92FB92FBC01CD010E948C2320E030E055
:100FF0004AE754E40E94822220E030E047E853E4CC
:101000000E9455225B016C016093DB017093DC014F
:101010008093DD019093DE01E090D301F090D40144
:101020000091D5011091D60123E333E34CE852E45B
:10103000C801B7010E942C2318162CF483E393E314
:10104000ACE8B2E40EC02DEC3CEC4BE852E4C80135
:10105000B7010E945C23882364F48DEC9CECABE820
:10106000B2E48093D3019093D401A093D501B093BF
:10107000D601E090D701F090D8010091D9011091EC
:10108000DA0128E431EE48EE51E4C801B7010E94CC
:101090002C2318162CF488E491EEA8EEB1E40EC0CF
:1010A0002AE939E947EE51E4C801B7010E945C23FF
:1010B000882364F48AE999E9A7EEB1E48093D70123
:1010C0009093D801A093D901B093DA012DEC3CE0C4
:1010D00047E853E4C601B5010E942C2318162CF4EE
:1010E0008DEC9CE0A7E8B3E40EC023E333EF46E8C1
:1010F00053E4C601B5010E945C23882364F483E3B2
:1011000093EFA6E8B3E48093DB019093DC01A09316
:10111000DD01B093DE011092F4030E942801DC018E
:10112000E3ECF1E080E101900D928150E1F760EB9A
:1011300070EF81EB90EF0E946501E090DB01F09091
:10114000DC010091DD011091DE01A090D701B0908B
:10115000D801C090D901D090DA016090D30170908D
:10116000D4018090D5019090D6010E94BF011F93B9
:101170000F93FF92EF92DF92CF92BF92AF929F9226
:101180008F927F926F9221E031E03F932F939F9354
:101190008F930E94A2270E94C4010E941D048DB754
:1011A0009EB740960FB6F8949EBF0FBE8DBF1F919D
:1011B0000F91FF90EF90DF90CF90BF90AF909F90F6
:1011C0008F907F906F900895DF92EF92FF920F9330
:1011D0001F93FC01009789F480E090E0A1E0B0E06B
:1011E00080939F039093A003A093A103B093A203C5
:1011F00010929E0310929D036FC0E0909F03F090A9
:10120000A0030091A1031091A203DD24603411F02A
:10121000DD24D39420919D0330919E03D901A35ED8
:10122000BC4F962F03C081918D9391509923D9F78C
:10123000C901860F911D90939E0380939D03803872
:10124000910518F4DD2009F447C0D801C701805882
:101250009F4FAF4FBF4F80509F4FA140B04020F5F0
:101260004DE153E0C801B7010E949EFE20919D030D
:1012700030919E0340E050E080919F039091A00345
:10128000A091A103B091A203820F931FA41FB51FC9
:1012900080939F039093A003A093A103B093A20314
:1012A00010929E0310929D03DD20B1F080919F0368
:1012B0009091A003A091A103B091A2038093DD05BA
:1012C0009093DE05A093DF05B093E00560E07EEF2C
:1012D00084E690E00E94430D1F910F91FF90EF90E4
:1012E000DF9008953F924F925F926F927F928F921C
:1012F0009F92AF92BF92CF92DF92EF92FF920F93A5
:101300001F93DF93CF93CDB7DEB7A8970FB6F894AE
:10131000DEBF0FBECDBF7A01722E40EF603B740777
:1013200009F0FDC0570100E04E010894811C911C9A
:1013300091E4392E66246A948AE1482E81E0582E81
:10134000E2C0D5012C91213409F487C0223438F44D
:101350002A3009F4BFC02D3009F0C2C0BBC02C3404
:1013600069F1243521F0283409F0BAC04FC0F401E6
:10137000E00FF11D2083102F1F5F8091D30190910A
:10138000D401A091D501B091D601BF93AF939F93A3
:101390008F935F924F92C401810F911D9F938F9302
:1013A0000E94A227012F080F6501EDB7FEB73896FE
:1013B0000FB6F894FEBF0FBEEDBFA0C0F401E00F62
:1013C000F11D2083102F1F5F8091DB019091DC01C4
:1013D000A091DD01B091DE01BF93AF939F938F93F6
:1013E0005F924F92C401810F911D9F938F930E9432
:1013F000A227012F080F65014DB75EB7485F5F4F09
:101400000FB6F8945EBF0FBE4DBF78C0F401E00F79
:10141000F11D2083102F1F5F8091D7019091D8017B
:10142000A091D901B091DA01BF93AF939F938F93AD
:101430005F924F92C401810F911D9F938F930E94E1
:10144000A227012F080F65018DB79EB708960FB62A
:10145000F8949EBF0FBE8DBF51C065010894C11C9A
:10146000D11CD50111968C918D3011F08A3061F428
:10147000F401E00FF11D3082902F9F5FF401E90F1E
:10148000F11D8091DF0137C07A94813329F4809374
:10149000DF0140E251E006C0803349F48093DF0170
:1014A00042E251E061E084EC0E94091A27C0F40195
:1014B000E00FF11D6082902F9F5FF401E90FF11D95
:1014C00020839F5FF401E90FF11DD6018C91808389
:1014D0000D5F14C0F401E00FF11D20830F5F0DC0FC
:1014E000F401E00FF11D6082902F9F5FF401E90F7E
:1014F000F11DD5018C9180830E5F65017A945601B0
:101500000894A11CB11C772009F01BCF402F50E09C
:10151000BE016F5F7F4FC7010E94232755C2B0EF06
:10152000613B7B07B9F42BED33E0472D50E0B70169
:10153000C9010E942327709215030E94300DA0E07C
:10154000B0E08093A3039093A403A093A503B0936A
:10155000A60339C2E0EF623B7E0709F03BC1D70129
:101560008C91873409F4E8C0883450F4833409F44A
:101570001AC1843409F453C0823409F024C1A6C0CE
:10158000833539F0873709F415C1883409F01BC158
:101590000DC1B7E2B21708F054C001ED11E01F937E
:1015A0000F93025010401F930F93025010401F934F
:1015B0000F93025010401F930F93025010401F933F
:1015C0000F93025010401F930F93025010401F932F
:1015D0000F93025010401F930F9383E391E09F936A
:1015E0008F930894E11CF11CFF92EF920894E1089C
:1015F000F1080E94C527F8014DB75EB74C5E5F4FFA
:101600000FB6F8945EBF0FBE4DBF9181808181837C
:101610009083329651E0E33DF507B9F7F7C0D70163
:1016200011968C91833751F4A3EAB1E0E3ECF1E039
:1016300080E101900D928150E1F7E8C0B7E2B21766
:1016400018F064E271E0BAC101EB11E01F930F934F
:10165000025010401F930F93025010401F930F939E
:10166000025010401F930F93025010401F930F938E
:10167000025010401F930F93025010401F930F937E
:10168000025010401F930F9383E391E09F938F9339
:101690000894E11CF11CFF92EF920894E108F10814
:1016A0000E94C527F8014DB75EB74C5E5F4F0FB67D
:1016B000F8945EBF0FBE4DBF91818081818390837E
:1016C000329651E0E33BF507B9F7A0C0D701119678
:1016D0008C91803571F1833509F075C0422F4250ED
:1016E0004093180329EA33E0C701029650E0BC0199
:1016F000C9010E942327F701E70DF11D22913196C0
:101700002A3099F4329780818D3079F090911803C6
:10171000E92FF0E0DF01A855BC4F8DE08C93E75531
:10172000FC4F20839F5F9093180381E08093160302
:101730006DC0109216036AC080911503882331F49E
:101740006FE571E0C7010E942C2700C18091A303BF
:101750009091A403A091A503B091A603BF93AF936A
:101760009F938F938DE691E09F938F93FF92EF92DB
:101770000E94A227182F9701280F311D40911503B1
:101780008BED93E050E0BC01C9010E94232700913A
:101790001503010FEDB7FEB738960FB6F894FEBFEC
:1017A0000FBEEDBF11C11092150330C081E08093D0
:1017B00014032CC01092FD0665E771E0C7010E947A
:1017C0002C2707E001C16DE471E0C7010E942C27BE
:1017D00001E1FAC0F0EF633B7F07F1F4F70190E01D
:1017E00004C09F5F31969C3019F080818A30C9F720
:1017F000F701E90FF11D1082D7010D900020E9F7E4
:10180000AE19A7016A2F82EC0E94091A6DE771E0F8
:10181000C7010E942C27BEC040EF643B740711F43F
:10182000022FD2C06534710509F0C6C0D7018C9172
:10183000882309F0C8C011968C91823009F088C0C5
:1018400097012E5F3F4FD90101C0DF01FD0181915A
:101850008823D9F780818F3609F0B5C0818183361E
:1018600009F0B1C08281843709F0ADC0838185362B
:1018700009F0A9C08481843709F0A5C08581882337
:1018800009F0A1C0FD01379617968C91823609F0B8
:101890009AC081818C3609F096C082818B3609F01E
:1018A00092C01381133709F08EC07481793609F024
:1018B0008AC065816A3709F086C05681553609F0BD
:1018C00082C08781882309F07EC04085463309F0B5
:1018D0007AC09185943309F076C08285882309F017
:1018E00072C0F701108286E0818382E68283F9016B
:1018F00031968CE6D90111968C93DF0111968BE617
:101900008183FD01319611961C93DF01119671833D
:10191000FD01319611966C93DF0111965183FD0103
:10192000319611961C92DF011196418311969C937A
:10193000119712961C9260E080E090E00E94E4080B
:1019400081E090E09093A8038093A7030DE03CC052
:101950008330C9F5F7012381928180E0AC01420F09
:10196000511D8091A7039091A80348175907A1F42E
:1019700084E081838091A7039091A80301969093BE
:10198000A8038093A7035CEF750E672DC70104962B
:101990000E94E40804E018C04817590728F484E0BE
:1019A000D70111968C93F6CF85E0F70181831282DF
:1019B0001382148205E008C062E871E0C7010E944A
:1019C0002C270EE001C000E0802FA8960FB6F894F7
:1019D000DEBF0FBECDBFCF91DF911F910F91FF9062
:1019E000EF90DF90CF90BF90AF909F908F907F90BF
:1019F0006F905F904F903F9008950E94300DA0E04F
:101A0000B0E08093A3039093A403A093A503B093A5
:101A1000A6032091190330911A0340911B035091A2
:101A20001C03821B930BA40BB50BBF93AF939F9327
:101A30008F9381E991E09F938F938BED93E09F9338
:101A40008F930E94A227809315030E948C1C8DB750
:101A50009EB708960FB6F8949EBF0FBE8DBF08952F
:101A6000DF93CF930F92CDB7DEB78FB78983F8940A
:101A7000209138043091390489818FBFC9010F90BA
:101A8000CF91DF910895DF93CF930F92CDB7DEB75B
:101A9000AC01009719F4FB01099530C08FB7898319
:101AA000F894A7EFB3E0E0E08D919C911197892B1A
:101AB00009F52E2F30E0F901EE0FFF1FEE0FFF1F8B
:101AC000E20FF31FE950FC4FCA014115510511F413
:101AD00081E090E091838083F901EE0FFF1FEE0F0C
:101AE000FF1FE20FF31FE950FC4F74836383909153
:101AF000F50334C0EF5F1596EA30B1F690E03DC0D3
:101B000091E0E9EFF3E041E08081891709F440E0DA
:101B1000359684E0EB32F807B9F780912B048917EA
:101B200009F440E080913004891709F440E0809185
:101B30003504891799F0442389F09093F503F9014E
:101B4000EE0FFF1FEE0FFF1FE20FF31FE950FC4FD8
:101B500092838091F603882321F00DC09F5F89F660
:101B6000CFCF109295001092940082E08093710084
:101B700081E08093F60389818FBF892F0F90CF91E9
:101B8000DF910895DF93CF930F92CDB7DEB7AC010D
:101B9000009719F4FB01099516C0809129049091D2
:101BA0002A04892B11F4E0E011C080912E04909159
:101BB0002F04892B11F4E1E009C080913304909146
:101BC0003404892B11F090E050C0E2E02E2F30E079
:101BD000F901EE0FFF1FEE0FFF1FE20FF31FE75D8E
:101BE000FB4F51834083748363839091F5039F5F20
:101BF00009F491E0E9EFF3E041E08081891709F40D
:101C000040E0359684E0EB32F807B9F780912B0479
:101C1000891709F440E080913004891709F440E005
:101C200080913504891719F3442309F39093F50340
:101C3000F901EE0FFF1FEE0FFF1FE20FF31FE75D2D
:101C4000FB4F92838FB78983F8948091F6038823A2
:101C500051F4109295001092940082E080937100EC
:101C600081E08093F60389818FBF892F0F90CF91F8
:101C7000DF910895982FE9EFF3E020E030E08081D4
:101C8000891769F4F901EE0FFF1FEE0FFF1FE20F36
:101C9000F31FE950FC4F11821082128208952F5FCA
:101CA0003F4F35962A30310551F780912B04891723
:101CB00019F480E090E00DC080913004891719F488
:101CC00081E090E006C080913504891771F482E0CC
:101CD00090E0FC01EE0FFF1FEE0FFF1FE80FF91F52
:101CE000E75DFB4F1182108212820895E1E9F0E076
:101CF00080818A60808388EE93E09093990080933E
:101D0000980008951F920F920FB60F920BB60F9284
:101D10001124DF92EF92FF920F931F932F933F9323
:101D20004F935F936F937F938F939F93AF93BF93E3
:101D3000EF93FF93DF93CF9300D00F92CDB7DEB731
:101D400080913804909139040196909339048093DE
:101D500038048091E0019091E10101979093E101B5
:101D60008093E001892B49F007EF13E066E1D62E5E
:101D70007E010894E11CF11C27C088EE93E090934B
:101D8000E1018093E00109E214E056E1D52E7E01E5
:101D90000894E11CF11CF80180819181009769F0A1
:101DA000019791838083892B41F4D9828381948127
:101DB0009B838A83C7010E94B4130B5F1F4FF4E01B
:101DC00008331F0741F7D0CFF80180819181009738
:101DD00069F0019791838083892B41F4D9828381B3
:101DE00094819B838A83C7010E94B4130B5F1F4FAA
:101DF000F4E009321F0741F70F900F900F90CF9139
:101E0000DF91FF91EF91BF91AF919F918F917F9162
:101E10006F915F914F913F912F911F910F91FF9083
:101E2000EF90DF900F900BBE0F900FBE0F901F90A2
:101E300018959C01F999FECF32BD21BDF89A80B565
:101E400008959C01F999FECF1FBA32BD21BD60BD36
:101E50000FB6F894FA9AF99A0FBE089584B1806A81
:101E600084B92F9A249A2C9A80E58CBD81E08DBD8F
:101E70000895239A219A84B1806A84B92F9A249A6A
:101E80002C9A80E58CBD81E08DBDEFE6F0E080818D
:101E90008062808383E480938100B59A0895DF9304
:101EA000CF930F92CDB7DEB780689FB79983F89430
:101EB0002C988EBD0DB407FEFDCF8EB58EBD0DB432
:101EC00007FEFDCF8EB52C9A99819FBF0F90CF91C1
:101ED000DF910895DF93CF930F92CDB7DEB7982FA0
:101EE000906C8FB78983F8942C989EBD0DB407FE33
:101EF000FDCF8EB56EBD0DB407FEFDCF8EB52C9A0D
:101F000089818FBF9F73923059F46F71663011F0E1
:101F1000663121F481E08093340702C010923407C7
:101F20000F90CF91DF910895FF920F931F93062F8B
:101F3000F42E0E944F0F082310E002C0159507955C
:101F4000FA94E2F7802F1F910F91FF900895DF928E
:101F5000EF92FF920F931F93D82EF62EE42E022FAE
:101F60000E944F0F6F2D6095682310E002C0000F94
:101F7000111FEA94E2F7F0226F298D2D0E946A0F5B
:101F80001F910F91FF90EF90DF900895DF93CF9313
:101F90000F92CDB7DEB78FB78983F8942C9880E283
:101FA0008EBD0DB407FEFDCF8EB58EBD0DB407FE00
:101FB000FDCF9EB5892F83508D37A8F49093E1050E
:101FC0009EBD0DB407FEFDCFE2EEF5E08EB51EBC62
:101FD00081930DB407FEFDCF9150C1F78EB580936C
:101FE00061062C9A07C02C9A1092E10510926106A6
:101FF0001092620689818FBF0F90CF91DF91089573
:10200000DF93CF930F92CDB7DEB7FC016F778FB719
:102010008983F8942B9A2B982C9880E68EBD0DB46A
:1020200007FEFDCF8EB56EBD0DB407FEFDCF8EB59C
:1020300081918EBD61500DB407FEFDCF8EB5662334
:10204000B9F72C9A89818FBF0F90CF91DF910895B6
:10205000DF93CF930F92CDB7DEB7982FFA018FB7EA
:102060008983F8942C981EBC0DB407FEFDCF8EB565
:102070009EBD0DB407FEFDCF8EB51EBC0DB407FE90
:10208000FDCF8EB58083615011F03196F6CF2C9A3A
:1020900089818FBF0F90CF91DF910895DF93CF9308
:1020A0000F92CDB7DEB7982FFA018FB78983F894D6
:1020B0002C9880E48EBD0DB407FEFDCF8EB59EBD7D
:1020C0000DB407FEFDCF8EB581918EBD0DB407FE18
:1020D000FDCF8EB56150C1F72C9A89818FBF0F90CB
:1020E000CF91DF9108950895DF93CF930F92CDB7ED
:1020F000DEB7E62FBA012FB72983F89421E23FE03B
:102100004E2F50E00E945A2789818FBF0F90CF91A8
:10211000DF910895DF93CF930F92CDB7DEB7FC0127
:10212000CA012FB72983F89429E13FE0462F50E0F8
:10213000BF010E943E2789818FBF0F90CF91DF9111
:102140000895DF92EF92FF920F931F93DF93CF9347
:1021500000D0CDB7DEB780913A04882311F011E0AA
:102160005CC081E080933A04D0906600F89461E00E
:102170000E943916E090B100F0908100009180003B
:102180001092B100109281001092800020E030E0A7
:1021900063E056E04FEF6093B100509381001092DE
:1021A000B200109285001092840046BB47BBB89BDA
:1021B000FECF80918400909185009A83898310924C
:1021C00081001092B10089819A818A5F934020F446
:1021D0008091660081500AC089819A81865094401E
:1021E00010F411E00CC0809166008F5F8093660050
:1021F0002F5F3F4F83E0283E380769F610E060E02C
:1022000081E00E943916E092B100F09281000093C3
:102210008000112311F4D0926600812F0F900F904F
:10222000CF91DF911F910F91FF90EF90DF90089574
:102230001F920F920FB60F920BB60F9211240F93AD
:102240001F932F933F934F935F936F937F938F933E
:102250009F93AF93BF93EF93FF938FE00E944F0F35
:10226000082F182F83FF02C00E94991714FF02C085
:102270000E94981412FF10C02C9880E28EBD0DB4FD
:1022800007FEFDCF8EB51EBC0DB407FEFDCF8EB58B
:102290002C9A0E94DA150AC007FF08C08EE00E943F
:1022A0004F0F8F77682F8EE00E946A0FFF91EF919A
:1022B000BF91AF919F918F917F916F915F914F915E
:1022C0003F912F911F910F910F900BBE0F900FBE5A
:1022D0000F901F9018958093F9060E947816089524
:1022E0001F93182F8FEF9FEF9093F1068093F006C6
:1022F0009093F3068093F2061092ED069093F50604
:102300008093F4069093F7068093F6061092F806F1
:102310001092FC0681E08093FD060E943318109312
:10232000F9061F3F19F0812F0E94781681E00E9464
:10233000EE1688E00E9406170E949E1521E042E0FA
:1023400064E087E10E94A70F86E10E94061745EE30
:1023500056E068E080E090E00E948A1080E00E94F1
:102360000C168FEF9FEF0E94F4158FEF9FEF0E94E6
:10237000001622E044E060EF8CE20E94A70F85EE99
:1023800096E00E94E4150E94EC111F9108950895B3
:1023900080E090E0089580E008958FEF9FEF08952A
:1023A00080E0089580E008950895089580E090E029
:1023B000089580E090E0089580E090E0089580E046
:1023C00090E0089508950895089580E090E00895BC
:1023D000089580E090E00895089508950895FC011F
:1023E00085858F778587089580E090E0089580E067
:1023F00090E0089521E0880F991FFC0133E0EE0F73
:10240000FF1F3A95E1F7E81BF90BE45CFB4F808175
:10241000882331F081859285009719F02F5FEBCFEB
:1024200020E0822F089580913B040E943A0E809113
:10243000ED0691E089270E94CA1C0895CF93DF938F
:10244000EC01862F0E946B1183E698EC9093650651
:10245000809364068091EF06809366068F5F809379
:10246000EF068091F0069091F106909368068093B4
:102470006706D0936A06C0936906ABE6B6E0E5EE60
:10248000F6E088E001900D928150E1F781E08093C1
:102490007306D0937506C093740683E08093760626
:1024A00064E676E083E10E94721763E172E188EEF0
:1024B00093E00E94430D80933B04DF91CF910895F8
:1024C0000895DF93CF9300D0CDB7DEB70F900F9074
:1024D000CF91DF91089508950895DF93CF93CDB7FD
:1024E000DEB760970FB6F894DEBF0FBECDBF81E6B2
:1024F00098E89A8389838091EF068B838F5F80931E
:10250000EF068091F0069091F1069D838C83809177
:10251000F2069091F306998788879D878C87809132
:102520003C0490913D049B878A8780913E048E876E
:102530000E948E158F870E949115888B8091F406DA
:102540009091F5069F838E83BE016F5F7F4F80E180
:102550000E94721760960FB6F894DEBF0FBECDBF13
:10256000CF91DF910895282F8091F2069091F30684
:102570006817790789F08091ED06882369F07093D8
:102580003D0460933C0420933E0410923F040E945B
:102590006D1281E08093FC06089564E676E08091F8
:1025A00063060E9472170895EF92FF920F931F9394
:1025B000CF93DF93EC01062F7A01122F2091F206C0
:1025C0003091F3068217930709F46CC08FEFCF3F69
:1025D000D80709F467C08091ED06882309F462C02A
:1025E00081E698E890936506809364068091EF06F3
:1025F000809366068F5F8093EF068091F00690913E
:10260000F106909368068093670630936C062093DA
:102610006B06D0936E06C0936D06309370062093C0
:102620006F06CE010E948D14163029F4D0936A06ED
:10263000C093690608C08091F4069091F5069093C6
:102640006A06809369061093710690E009C0E92F2D
:10265000F0E0EC59F94FD7018D917D0186879F5F9E
:102660009017A8F32091690630916A068091F206CE
:102670009091F30628173907A9F02F5F3F4F91F08B
:10268000025F009363061650123018F087E090E066
:1026900002C080E090E06DEC72E10E94430D81E0A9
:1026A0008093FC06DF91CF911F910F91FF90EF90E7
:1026B00008958091EF0590E08F77907083309105B9
:1026C00031F18430910534F48130910549F002975D
:1026D00061F516C08530910509F1069731F503C003
:1026E0000E940E1C08951092FD0626E042EF56E06F
:1026F00062E08091F4069091F5060E94D41208954C
:102700008091ED059091EE050E94AC1C089580919A
:10271000ED059091EE050E94931C08956091E105EE
:10272000605182EE95E00E942907089525E00E94FD
:10273000D412089521E00E94D4120895DC010D9076
:102740000020E9F7A81B27E0AC016A2F80E090E0A9
:102750000E94D41208959091FE068091FF0620E019
:10276000981321E0822F08950F931F93182F092F9C
:102770008091FE062091FF0690E001966AE070E0ED
:102780000E944C2B30E082179307D9F04091FE064F
:10279000842F90E0FC01EE0FFF1FE80FF91FE050BF
:1027A000F94F212F302FC901DC0183E00D900192F8
:1027B0008150E1F7842F8F5F8A3008F080E08093AA
:1027C000FE061F910F910895DF93CF930F92CDB71F
:1027D000DEB78091FF068983998189818F5F898324
:1027E00089818A3008F0198289818093FF0623E06D
:1027F000929F900111242050394FC9010F90CF9121
:10280000DF9108950F931F93DF93CF930F92CDB76E
:10281000DEB703E011E06FC08091FF0689838981F4
:10282000809FF0011124E050F94F89818F5F8983E7
:1028300089818A3008F0198289818093FF0680811E
:10284000833109F450C0843150F4813109F451C00E
:10285000823108F04BC0803109F04DC014C0863180
:1028600069F0883111F1843109F045C08091ED069D
:10287000882309F040C00E94ED143DC00180F28120
:10288000E02D099538C08091ED068823A1F12091B3
:10289000EB053091EC058091F2069091F306281734
:1028A000390749F50E94591326C08091E20590919D
:1028B000E30583569C48F9F41093ED068091EF05EB
:1028C0009091F0059093F5068093F4068091F205BF
:1028D0009091F3059093F3068093F2060E94F4150D
:1028E0000E94131208C00E94451B05C00E94051DCE
:1028F00002C00E942C1D9091FE068091FF06981741
:1029000009F08ACF0F90CF91DF911F910F91089519
:102910000895089508950895089580E00895809198
:10292000400408958093E20108958091E2010895A2
:10293000089508951F9310E0809123078F3FE1F0E1
:1029400011E080911F07909120079093F1068093EA
:10295000F00620912107309122073093F50620934D
:10296000F4060E940016809123070E946B1180914B
:1029700027078F5F8093F806812F0E94F91B1F9114
:102980000895209161068091E3058295869586954C
:10299000837080931E078091E5059091E6059093E2
:1029A000200780931F078091E7059091E805909399
:1029B0002207809321078091EC058093270780915F
:1029C000F90681508093230710922407209328074B
:1029D0000E948E158093290708951F9340916106E8
:1029E00080914004882359F12091250730912607D2
:1029F0008091E9059091EA05909326078093250739
:102A00008091260787FF05C030932607209325076E
:102A100016C080912807841780F0841781F4909164
:102A200027078091EC05891740F0981741F4109121
:102A300029070E948E15181710F40E94C1141F91C7
:102A400008959091F9069F3FA9F481E08093400496
:102A500086E1EEE1F7E0DF011D928A95E9F79093B8
:102A600023078BE08093F9068091E201803811F012
:102A70008093F9064091F9064B3148F4242F30E059
:102A80008091E20190E001962817390741F41092F5
:102A900040048FEF8093F9060E949A140895842FC2
:102AA0000E946B1183E098E0909365068093640622
:102AB0008091EE06809366068F5F8093EE068FEF1F
:102AC0009FEF909368068093670690936A068093C1
:102AD000690687E080936B0664E676E088E00E94F2
:102AE00072178091F9068F5F8093F90661E275E1B4
:102AF00084E190E00E94430D089508950E947310B0
:102B000080E090E00E9467180E94760E0E94EA1C06
:102B100078940E944C1B0E940214FACF80914204C8
:102B2000089580916106089529982B988DE090E092
:102B30000197F1F7299A089508950895089540E0BE
:102B40006FE181E00E94940F089540E06FE181E021
:102B50000E94940F282F8151823058F0223049F082
:102B6000213039F080E090E02E3129F481E090E0CE
:102B7000089581E090E00895CF93DF93EC0140E069
:102B80006FE181E00E94940F863021F0813011F0D6
:102B900084E407C040E06FE186E00E94940F8883E0
:102BA00080E4DF91CF91089540E06FE188E00E94DA
:102BB000940F089540E06FE186E00E94940F8093A7
:102BC00042041092FC0608951F93CF93DF93EC010B
:102BD00014E26991812F0E946A0F1F5F1C32C9F7AE
:102BE000DF91CF911F9108951F93192F682F80E2D5
:102BF0000E946A0F612F81E20E946A0F1F9108955F
:102C00001F93192F682F82E20E946A0F612F83E2BF
:102C10000E946A0F1F910895282F43E068E08EE21A
:102C20000E94A70F08952B988DE090E00197F1F78F
:102C300023E040E06FE182E00E94A70F83E090E094
:102C40000197F1F708951B9B02C080E408950E944C
:102C500013168BE490E00197F1F740E06FE181E01B
:102C60000E94940F883011F083E408952B9A80E439
:102C700008951F93162F663010F082E411C0882348
:102C800011F421E001C020E043E068E083E00E940D
:102C9000A70F212F40E067E083E00E94A70F80E4A8
:102CA0001F9108951B9902C080E408952B9881EE2E
:102CB00096E00197F1F760E081E00E94391640E06C
:102CC0006FE181E00E94940F883071F383E40895EE
:102CD000282F803110F082E408951B9B02C084E409
:102CE000089540E06FE085E00E94A70F80E408951A
:102CF0001F93182F8B50803110F082E428C01B9B4B
:102D000002C084E424C040E06FE188E00E94940F98
:102D10008117E1F0212F40E06FE188E00E94A70FCA
:102D200040E06FE181E00E94940F863011F089301D
:102D300021F48DE291E00197F1F740E06FE188E046
:102D40000E94940F811711F083E401C080E41F9169
:102D5000089580914104882329F48CE10E944F0F4B
:102D6000809341048091410408950F931F93DF9352
:102D7000CF9300D0CDB7DEB7082F198240E06FE1C6
:102D800081E00E94940F182F0E94A916833021F031
:102D90000E94A9168730C9F4163019F4069510E080
:102DA00010C0163191F4FACF45E060E686E00E944B
:102DB000940F8A8389819A81880F880F892B898350
:102DC0001F5F101788F3898102C00E9430260F9080
:102DD0000F90CF91DF911F910F9108951F93182F9E
:102DE0000E94A916823031F4212F47E060E885E087
:102DF0000E94A70F0E94A916833031F4212F45E0CD
:102E000060E284E00E94A70F1F9108950F931F9323
:102E1000182F883051F0863041F0893031F08631FA
:102E200021F0893111F082E45AC01B9B02C084E476
:102E300056C00E94A5158823E1F70E94A91682308A
:102E400039F40E948F14882319F0163109F416E022
:102E500040E06FE181E00E94940F082F181709F4F9
:102E60003DC0183019F40E9413162FC0193159F4BF
:102E70008930E1F029E040E06FE182E00E94A70F95
:102E8000063181F40CC0163189F4893079F029E0DB
:102E900040E06FE182E00E94A70F093119F483E05E
:102EA00090E002C089E691E00197F1F7212F40E020
:102EB0006FE182E00E94A70F083019F489E691E0E3
:102EC00002C083E090E00197F1F740E06FE181E01C
:102ED0000E94940F811711F083E401C080E41F91D8
:102EE0000F9108951F93CF93DF93182FEB0187FF66
:102EF00002C082E41AC00E94A5158823E1F789E187
:102F00000E94061740E06FE181E00E94940F893132
:102F1000B1F78D819E819093FB068093FA061E5F28
:102F2000612FCE010E94001080E4DF91CF911F91AC
:102F30000895DF93CF9300D000D00F92CDB7DEB7C6
:102F400040E06FE181E00E94940F8A838A818131A1
:102F500051F08A81863039F08A81813021F08A816E
:102F6000863109F046C00E94C60F9091E30580E0CB
:102F70002091E205AC01420F511D9A018091E705B5
:102F80008F3F41F48091E8058F3F21F4842F807FAB
:102F900009F061C01B821D821C8258E8213635076A
:102FA000B1F088E82236380720F420503048E1F4A8
:102FB00008C058E82336350761F023563C48A1F491
:102FC0000FC00E948F14882379F084E10CC080E147
:102FD0000AC08091EB05823019F08B3B29F402C0C6
:102FE00088E101C089E18B83CE0103960E94B4136E
:102FF00032C08A81823049F08A81823131F08A81FF
:10300000893119F08A81893031F51092FC061B82D2
:103010001D821C8245E060EE82E00E94940F89834D
:103020008981833051F0843018F4823050F403C029
:10303000853039F404C081E103C083E101C082E13D
:103040008B838B81882321F0CE0103960E94B413D9
:1030500086E10E9406170F900F900F900F900F902F
:10306000CF91DF910895FF920F931F93F82E0DEFEC
:1030700013E0C8010197F1F70E94390F29982B98A6
:103080008DE090E00197F1F7299A23E040E06FE1AD
:1030900082E00E94A70FC8010197F1F76CE08EE073
:1030A0000E946A0F27E040E06FE089E00E94A70FCE
:1030B000FF2011F00E94A11080E41F910F91FF905A
:1030C00008950895089580E090E00895089510927D
:1030D000C7042091C7042093C60410924504209190
:1030E00045042093440428E92093C10026E020935E
:1030F000C2001092C5002CE02093C40090934905B3
:103100008093480508951092C1000895382F80914A
:103110004B058823D9F57894909144049F5F97FFDD
:1031200005C090E003C0222319F00EC020914A058B
:10313000809145049817B9F3E0914404F0E0EC5B0A
:10314000FB4F3283909344048091C10085FD1EC0E3
:103150008091C00085FFFCCF90914504E92FF0E0FD
:10316000EC5BFB4F228180914404981711F42FEF00
:1031700006C0E92FEF5FE7FDE0E0E0934504209310
:10318000C6008091C10080628093C1000895CF93F2
:10319000DF93EC0103C00E94861821968881882362
:1031A000D1F7DF91CF9108958091C6049091C70423
:1031B000282F30E0291B310937FF02C020583F4F2C
:1031C000822F08958091C6049091C704282F30E083
:1031D000291B310937FF02C020583F4F822F089525
:1031E0008091440490914504282F30E0291B310937
:1031F00037FF02C020583F4F822F08959091450419
:10320000E92FF0E0EC5BFB4F22818091440498179A
:1032100011F42FEF06C0E92FEF5FE7FDE0E0E09348
:103220004504822F08958091C6049091C704282FE9
:1032300030E0291B310937FF02C020583F4F2223BD
:1032400091F39091C704E92FF0E0EA53FB4F2281FC
:103250008091C604981711F42FEF06C0E92FEF5F95
:10326000E7FDE0E0E093C704822F0895DF92EF923C
:10327000FF920F931F93CF93DF93EC01D42E00E0C6
:10328000E62EFF240894E108F1088091C60490918D
:10329000C704282F30E0291B310937FF02C020580E
:1032A0003F4F222391F39091C704E92FF0E0EA53B6
:1032B000FB4F12818091C604981711F41FEF06C0CE
:1032C000E92FEF5FE7FDE0E0E093C704802F90E097
:1032D0008E159F0524F01D3011F01830B1F6DD2059
:1032E00019F0812F0E948618183061F01D3089F482
:1032F0001882802FDF91CF911F910F91FF90EF9057
:10330000DF900895002309F4C0CF0150188221975F
:10331000BCCF19930F5FB9CF90E080914B05882304
:1033200009F491E090934B05089508958091C604A7
:103330009091C704282F30E0291B310937FF02C0C4
:1033400020583F4F222309F455C08091C604909124
:10335000C704282F30E0291B310937FF02C020584D
:103360003F4F222391F39091C704E92FF0E0EA53F5
:10337000FB4F22818091C604981711F42FEF06C0ED
:10338000E92FEF5FE7FDE0E0E093C7048091EF01F4
:103390008533E1F0863328F4833341F08433A1F59B
:1033A00009C08633C9F0873379F526C0213089F406
:1033B00084E30FC0822F2B3008F08AE08093E30172
:1033C00085E38093EF011092430414C02093E4013D
:1033D00086E38093EF010EC0909143048091E30156
:1033E000981750F4E92FF0E0ED51FE4F22839F5FD4
:1033F0009093430480E0089583E38093EF0180E09D
:10340000243031F481E0089583E38093EF0180E07C
:103410000895EF92FF920F931F93CF93DF93082F9E
:10342000162F7A0181E00E948618812F0E9486184B
:10343000802F0E94861800E0C12FD0E006C0EE0D5C
:10344000FF1D80810E9486180F5FE02FF0E0EC17CF
:10345000FD07ACF384E00E948618DF91CF911F91A5
:103460000F91FF90EF9008951F920F920FB60F9259
:103470000BB60F9211242F933F934F935F936F934B
:103480007F938F939F93AF93BF93EF93FF9320917D
:10349000C6009091C6049F5F97FD90E08091C7049D
:1034A000981741F0E091C604F0E0EA53FB4F228305
:1034B0009093C60410924A05E0914805F0914905A1
:1034C000309711F0822F0995FF91EF91BF91AF9145
:1034D0009F918F917F916F915F914F913F912F912C
:1034E0000F900BBE0F900FBE0F901F9018951F925C
:1034F0000F920FB60F920BB60F9211242F938F934A
:103500009F93EF93FF939091440480914504981703
:10351000B1F090914504E92FF0E0EC5BFB4F228184
:1035200080914404981711F42FEF06C0E92FEF5F44
:10353000E7FDE0E0E09345042093C60005C08091DC
:10354000C1008F7D8093C100FF91EF919F918F917A
:103550002F910F900BBE0F900FBE0F901F901895DC
:103560000895089581E08093FD06089580914D05AA
:10357000882359F581E080934D052091F001309129
:10358000F10121343105B8F42115310569F066E007
:103590007BE184E690E0AC01249FC001259F900D63
:1035A000349F900D112404C066E07BE188E893E12C
:1035B0000E94430D0895C9016AE070E00E94382B13
:1035C000CB0166E07BE10E94C20D08950E94B61A0D
:1035D00008950E94B61A08950E94300D08951F9311
:1035E000DF93CF930F92CDB7DEB711E01983AE0111
:1035F0004F5F5F4F61E080E090E00E949613109370
:103600004C050F90CF91DF911F9108950E94EF1A02
:1036100010924D0520914E0530914F052F5F3F4F81
:1036200030934F0520934E058091F2019091F30164
:103630002817390761F4232B51F06BE977E087E015
:1036400090E00E94430D10924F0510924E050E948B
:10365000B61A08958091FD06882329F40E94B61AAF
:103660000E94EF1A089510924C058091F0019091FC
:10367000F101009711F482E390E00E94F7000E94AC
:10368000061B0895089508950895089508950895CE
:103690000895089508950895CF93DF9380911403BA
:1036A0008823A9F080915105882399F480915205CF
:1036B000882329F00E943A0E1092520504C01092FD
:1036C00014030E94550781E08093510502C01092B7
:1036D00051050E949619882309F476C08091E4016F
:1036E000833829F1843830F4813851F0823809F078
:1036F0006BC00CC0843861F1853809F065C03BC0EF
:1037000060E070E082E00E94B3125EC080915005DC
:103710008F5F8093500581500E94F800DC01E3EB3D
:10372000F1E080E101900D928150E1F721C080919C
:1037300050058F5F8093500581500E94F800DC0196
:10374000E3ECF1E080E101900D928150E1F710C0CF
:10375000809150058F5F8093500581500E94F80042
:10376000DC01E3EAF1E080E101900D928150E1F7A4
:103770000E94890429C00E942801DC01E3EAF1E0EB
:1037800080E101900D928150E1F760EB70EF81EBE9
:1037900090EF0E946501809150058F5F80935005E6
:1037A000815080FD03C0C4EFD1E002C0C7EFD1E07B
:1037B0000E94BF01FC01888199819183808382E00E
:1037C0000E94C4010E941D04DF91CF91089560E022
:1037D0008FE20E946A0F60E070E082E00E94B31204
:1037E00067EE7BE184EF91E00E94430D80935205E8
:1037F0000895882329F063E87CE18AE090E004C022
:1038000062EE7CE188EE93E00E94430D089562E44D
:103810007BE18AE090E00E94430D08958091EF05DE
:10382000813031F462E47BE18AE090E00E94430D54
:10383000089562E47BE189E190E00E94430D0895E0
:10384000EF92FF920F931F93DF93CF93CDB7DEB725
:1038500028970FB6F894DEBF0FBECDBF8E010F5F65
:103860001F4FA80168E080E090E00E948A10780174
:103870009E01275F3F4FF80180818F3FB9F40F5FB2
:103880001F4F02171307B9F72AC088E00E94B51628
:10389000F70181937F01E017F107B9F7AE014F5FA0
:1038A0005F4F68E080E090E00E9474108E010F5F2F
:1038B0001F4FA80162E080E190E00E948A10898198
:1038C0009A818F5F9F4F91F484E190E09A8389837E
:1038D000A80162E080E190E00E94741007C080E0DF
:1038E0000E94331886E00E940617CFCF28960FB6A5
:1038F000F894DEBF0FBECDBFCF91DF911F910F9126
:10390000FF90EF9008956091230780912107909197
:1039100022070E941E12089540E050E060E081EC12
:103920000E94091A0895DF93CF9300D0CDB7DEB778
:103930009A838983AE014F5F5F4F62E081EC0E9402
:10394000091A62E47BE18AE090E00E94430D0F9047
:103950000F90CF91DF910895DF93CF9300D0CDB733
:10396000DEB79A83898362E47BE181E090E00E9484
:10397000430DAE014F5F5F4F62E081EC0E94091A78
:1039800069817A8183E00E94B3120F900F90CF91EA
:10399000DF910895882379F462E47BE18AE090E086
:1039A0000E94430D40E050E060E083EC0E94091A61
:1039B0000E94A803089562EE7CE188EE93E00E94E5
:1039C000430D08958FEF0E9470110E9421150E94EF
:1039D0004E07089562E47BE189E190E00E94430D87
:1039E0000E94201C0E94E21C0E94420708954AEF98
:1039F00051E064E080E090E00E949A1367EF7CE180
:103A000088EE93E00E94430D08950E94B11A0E942F
:103A10008F14882301F54091FA065091FB062091FE
:103A2000F4063091F506809153058F5F809353051E
:103A3000883088F04217530771F41092ED0688E041
:103A40000E94B5169AE0899FC001112462EE7CE1C4
:103A5000C2960E94430D08952091FA063091FB060C
:103A60008091F4069091F5062817390711F4109209
:103A700053050E94B01A0895A3E1B0E0E2E4FDE12D
:103A80000C945F2B3C01798B688B5A01FC011782E7
:103A90001682838181FD03C06FEF7FEF84C37AE0DC
:103AA000472E9E012F5F3F4F3B8B2A8BF3012381D3
:103AB000E889F98923FD859123FF8191F98BE88BB2
:103AC000882309F46DC3853251F4E889F98923FD0F
:103AD000859123FF8191F98BE88B853229F4B3011D
:103AE00090E00E947627E2CF982FDD245524992478
:103AF000FFE1FD15D0F09B3269F09C3228F4903242
:103B000059F0933291F40EC09D3249F0903369F42C
:103B100031E029C042E0D42A54E0D52A28C088E008
:103B2000D82A25C090E1D92A22C0D7FC2BC0892FE2
:103B300080538A3070F4D6FE05C0949C902C1124DA
:103B4000980E15C0549C502C1124580EE0E2DE2A29
:103B50000EC09E3229F4D6FC23C3F0E4DF2A07C04E
:103B60009C3619F430E8D32A02C0983659F4E88913
:103B7000F98923FD959123FF9191F98BE88B992386
:103B800009F0B6CF892F8554833020F48D2D8061C4
:103B9000905E07C0892F8556833008F0A9C18D2D0E
:103BA0008F7E86FD02C066E0962E5FE3F52EF8223A
:103BB000953619F4F0E4FF2A07C0963619F420E888
:103BC000F22A02C091109A94F7FE0BC03BE339151C
:103BD00020F427E04CE3842E0EC0892C839427E048
:103BE0000AC047E0491528F427E0882437E0932EDF
:103BF00002C0292D8824C50104969D878C87F50174
:103C00006081718182819381082DAE014F5F5F4F8A
:103C10000E9440266C010981202F30E03F872E87CB
:103C200000FF05C03E8533FD02C01DE209C0F1FE64
:103C300002C01BE205C0F2FC02C010E001C010E2AD
:103C40008E859F858C709070892BC1F1112311F4A2
:103C500083E001C084E0851510F055240AC0581A8D
:103C6000F3FC07C0B30180E290E00E9476275A94EB
:103C7000C9F7112329F0B301812F90E00E94762724
:103C80004E8543FF03C00CE810E00EC000E910E0D1
:103C90000BC0E114F10409F08052B30190E00E94DE
:103CA00076270F5F1F4F05C0EF2CFF2450E1E52260
:103CB000FF24F8018491882361F717C1F7FE13C030
:103CC0008C0CFE85F4FF04C08A81813309F48A9448
:103CD00018141CF0882483942DC028E0281550F572
:103CE00098E0892E27C0F6FC25C0892D90E08C1520
:103CF0009D054CF03CEFC3163FEFD30624F040E89F
:103D0000F42A01C09A94992049F0E2E0F0E0EC0F27
:103D1000FD1FE90DF11D80818033A1F3F7FE0AC07C
:103D2000892C8394892D90E0C816D90614F0992423
:103D300001C09C18F7FC03C025E030E009C01C144A
:103D40001D041CF021E030E003C096012F5F3F4FBF
:103D5000112311F02F5F3F4F992029F0892D90E01A
:103D60000196280F391F852D90E02817390714F088
:103D7000552401C0521AAF2CBB24C5018970907024
:103D8000892B39F008C0B30180E290E00E947627C9
:103D90005A945520C1F7112329F0B301812F90E0E7
:103DA0000E947627A3FE07C008C0B30180E390E01D
:103DB0000E9476275A945520C1F7F7FE48C0860125
:103DC000D7FE02C000E010E076010894E11CF11C6F
:103DD000E01AF10A81E090E08C0F9D1FE80EF91EB9
:103DE000160128183108892D90E0AA24BB24A81AAE
:103DF000B90A9FEF0F3F190729F4B3018EE290E053
:103E00000E947627C016D10634F0201631061CF425
:103E1000F701808101C080E3015010400894E11C4B
:103E2000F11C0A151B052CF0B30190E00E947627C7
:103E3000E0CF0C151D0541F49A81963320F495339B
:103E400019F4FE85F4FF81E3B30190E04CC08A8150
:103E5000813309F00F7EB30190E00E94762799200C
:103E6000A1F0B3018EE290E00E94762712E0E1E03B
:103E7000F0E0EC0FFD1FE10FF11D1F5FB30180812A
:103E800090E00E9476279A9491F7A4FC03C085E6FF
:103E900090E002C085E490E0B3010E947627D7FC51
:103EA00005C0C114D10441F404FF06C0D094C194EC
:103EB000D108D3948DE201C08BE2B30190E00E945F
:103EC000762780E305C08F5F26EF3FEFC20ED31E3B
:103ED0003AE0C316D104BCF7B30190E00E94762704
:103EE000B301C601C0960E947627AC84BD8455C13B
:103EF000933631F0933791F0933509F059C023C0D0
:103F0000F501808189837E010894E11CF11C22E087
:103F100030E0A20EB31E01E010E012C0F501E08017
:103F2000F180D6FC03C06FEF7FEF02C0692D70E017
:103F300022E030E0A20EB31EC7010E9433278C019D
:103F40003FE7D32214C0F501E080F180D6FC03C026
:103F50006FEF7FEF02C0692D70E022E030E0A20E2B
:103F6000B31EC7010E9418278C0130E8D32AD3FE64
:103F700007C01AC0B30180E290E00E9476275A94ED
:103F8000852D90E008171907A8F30EC0F701D7FC9C
:103F90008591D7FE81917F01B30190E00E94762741
:103FA00051105A94015010400115110579F7F5C0D0
:103FB000943611F0993689F5D7FE08C0F501E080F6
:103FC000F1800281138124E030E00AC0F501808194
:103FD00091817C010027F7FC0095102F22E030E052
:103FE000A20EB31E3FE6D32217FF0AC0109500951C
:103FF000F094E094E11CF11C011D111D40E8D42A4D
:104000002AE030E0AE014F5F5F4FC801B7010E9468
:10401000DE27F82E5A89F51A43C0953729F41D2D4D
:104020001F7E2AE030E01DC01D2D197F9F3661F0F4
:10403000903720F4983509F0B3C00FC0903739F0AD
:10404000983709F0ADC004C028E030E00AC0106124
:1040500014FD146020E130E004C014FD166020E17E
:1040600032E017FF08C0F501608171818281938180
:1040700044E050E008C0F50180819181BC0180E0FE
:1040800090E042E050E0A40EB51EAE014F5F5F4FDE
:104090000E94DE27F82E5A89F51A8FE7D82ED122F2
:1040A000D6FE0BC08EEFD822F91438F4D4FE07C028
:1040B000D2FC05C09FEED92202C01F2D01C0192DD0
:1040C000D4FE0DC0FE01EF0DF11D8081803319F487
:1040D000E9EEDE2208C01F5FD2FE05C003C08D2DB1
:1040E000867809F01F5F0D2DD3FC14C0D0FE0FC0E1
:1040F000151510F09F2C0BC09F2C950C911A152DA7
:1041000006C0B30180E290E00E9476271F5F15157C
:10411000C0F304C0151510F4511A01C0552404FF52
:1041200010C0B30180E390E00E94762702FF1EC01A
:1041300001FD03C088E790E002C088E590E0B3018C
:104140000CC0802F867891F001FF02C08BE201C085
:1041500080E2D7FC8DE2B30190E00E94762706C092
:10416000B30180E390E00E9476279A94F914C0F39B
:10417000FA94E1E0F0E0EC0FFD1FEF0DF11DB3014B
:10418000808190E00E947627FF2091F706C0B3015E
:1041900080E290E00E9476275A945520C1F786CCA1
:1041A000F30166817781CB016396E2E10C947B2B6E
:1041B000A0E0B0E0EEEDF0E20C945F2BDC012B010F
:1041C000FA019C91923008F439C1EB018881823068
:1041D00008F433C1943069F4843009F02FC111968A
:1041E0009C9111978981981709F428C1AFEFB1E02C
:1041F00025C1843009F421C18230A9F4923009F03C
:104200001DC19A01AD0188E0EA010990AE01E90102
:1042100009929E018150C1F7E201898111969C911A
:104220008923818308C1923009F407C112962D9029
:104230003C901397EB018A819B811496AD90BD90C1
:10424000CD90DC901797EC80FD800E811F8191014D
:10425000281B390BB90137FF04C066277727621B7B
:10426000730B603271050CF061C0121613066CF509
:1042700037014801062E04C096948794779467947A
:104280000A94D2F721E030E040E050E004C0220F71
:10429000331F441F551F6A95D2F7215030404040CC
:1042A00050402E213F214023512321153105410546
:1042B000510521F021E030E040E050E079018A0131
:1042C000E628F728082919293CC0232BD1F1260E0E
:1042D000371E35014601062E04C0969487947794C4
:1042E00067940A94D2F721E030E040E050E004C047
:1042F000220F331F441F551F6A95D2F721503040BB
:10430000404050402A213B214C215D21211531059F
:104310004105510521F021E030E040E050E0590135
:104320006A01A628B728C828D9280BC0821593058A
:104330002CF01C01AA24BB24650103C0EE24FF2439
:10434000870111969C91D20111968C91981709F4CE
:1043500045C0992339F0A80197012A193B094C0956
:104360005D0906C0A60195012E193F09400B510BAE
:1043700057FD08C01182338222822483358346830D
:1043800057831DC081E08183338222828827992749
:10439000DC01821B930BA40BB50B84839583A6834E
:1043A000B7830DC0220F331F441F551F248335834D
:1043B00046835783828193810197938382832481EB
:1043C000358146815781DA01C9010197A109B109F7
:1043D0008F5F9F4FAF4FBF4328F30BC09183338252
:1043E0002282EA0CFB1C0C1D1D1DE482F582068353
:1043F000178383E08083248135814681578157FF6D
:104400001AC0C901AA2797FDA095BA2F8170907094
:10441000A070B0705695479537952795822B932BB2
:10442000A42BB52B84839583A683B7838281938144
:10443000019693838283DF0101C0D201CD01CDB704
:10444000DEB7E2E10C947B2BA0E2B0E0EAE2F2E21C
:104450000C946B2B69837A838B839C832D833E839F
:104460004F835887E9E0EE2EF12CEC0EFD1EB701CC
:10447000CE0101960E940E258E010F5E1F4FB801DE
:10448000CE0105960E940E258A8991E089278A8BA4
:10449000AE01475E5F4FB801C7010E94D8200E945D
:1044A0003924A096E6E00C94872BA0E2B0E0EBE57F
:1044B000F2E20C946B2B69837A838B839C832D832C
:1044C0003E834F835887F9E0EF2EF12CEC0EFD1E52
:1044D000B701CE0101960E940E258E010F5E1F4F7F
:1044E000B801CE0105960E940E25AE01475E5F4FD2
:1044F000B801C7010E94D8200E943924A096E6E0A6
:104500000C94872BA8E1B0E0E8E8F2E20C94672B6A
:1045100069837A838B839C832D833E834F83588763
:10452000B9E0EB2EF12CEC0EFD1EB701CE01019689
:104530000E940E258E010F5E1F4FB801CE01059619
:104540000E940E252985223008F47CC0398932303A
:1045500010F4B8017AC08A859A8989278A8724301D
:1045600011F0223031F4231709F06CC06FEF71E0C5
:104570006CC0343039F41D861E861F86188A1C864E
:104580001B8604C0323021F484E08987B7015DC006
:104590002B853C858B899C89281B390B3C872B8775
:1045A000ED84FE840F851889AD88BE88CF88D88CAD
:1045B000EA14FB040C051D0540F4EE0CFF1C001F63
:1045C000111F215030403C872B8720E030E040E035
:1045D00050E080E090E0A0E0B0E46FE170E0EA1429
:1045E000FB040C051D0540F0282B392B4A2B5B2BB7
:1045F000EA18FB080C091D09B695A79597958795AC
:10460000EE0CFF1C001F111F6150704041F7DA01D2
:10461000C9018F779070A070B07080349105A105AA
:10462000B10561F427FD0AC0E114F104010511058B
:1046300029F0205C3F4F4F4F5F4F20782D873E87FA
:104640004F87588BBE01675F7F4FCB010E94392493
:104650006896EAE00C94832BA8E1B0E0E2E3F3E291
:104660000C946B2B69837A838B839C832D833E838D
:104670004F83588789E0E82EF12CEC0EFD1EB70120
:10468000CE0101960E940E258E010F5E1F4FB801CC
:10469000CE0105960E940E258985823040F08989D9
:1046A000823028F0B801C7010E94862501C08FEF33
:1046B0006896E6E00C94872BA8E1B0E0E2E6F3E22E
:1046C0000C946B2B69837A838B839C832D833E832D
:1046D0004F83588789E0E82EF12CEC0EFD1EB701C0
:1046E000CE0101960E940E258E010F5E1F4FB8016C
:1046F000CE0105960E940E258985823040F0898979
:10470000823028F0B801C7010E94862501C081E0EF
:104710006896E6E00C94872BA8E0B0E0E2E9F3E2CB
:104720000C94682B9B01AC0183E08983DA01C901F9
:104730008827B7FD83959927AA27BB27B82E21156F
:1047400031054105510519F482E089833AC0882377
:10475000A9F0203080E0380780E0480780E858075B
:1047600029F460E070E080E09FEC30C0EE24FF248C
:104770008701E21AF30A040B150B02C079018A01C2
:104780008EE1C82ED12CDC82CB82ED82FE820F839B
:104790001887C801B7010E94EA2301971816190665
:1047A00084F4082E04C0EE0CFF1C001F111F0A9495
:1047B000D2F7ED82FE820F831887C81AD90ADC82ED
:1047C000CB82BA82CE0101960E9439242896E9E074
:1047D0000C94842BEF92FF920F931F937B018C011B
:1047E00080E0E81680E0F80681E0080780E018071E
:1047F00088F48FEFE816F1040105110531F028F077
:1048000088E090E0A0E0B0E017C080E090E0A0E099
:10481000B0E012C080E0E81680E0F80680E008070B
:1048200081E0180728F088E190E0A0E0B0E004C043
:1048300080E190E0A0E0B0E020E230E040E050E035
:10484000281B390B4A0B5B0B04C016950795F79490
:10485000E7948A95D2F7F701E95FFD4F8081281B25
:10486000310941095109C9011F910F91FF90EF9042
:104870000895DF92EF92FF920F931F93FC01E48063
:10488000F58006811781D1808081823048F480E0F4
:1048900090E0A0E1B0E0E82AF92A0A2B1B2BA5C082
:1048A000843009F49FC0823021F4EE24FF24870174
:1048B00005C0E114F1040105110519F4E0E0F0E090
:1048C00096C0628173819FEF623879070CF05BC0FC
:1048D00022E83FEF261B370B2A3131052CF020E070
:1048E00030E040E050E02AC0B801A701022E04C029
:1048F00076956795579547950A94D2F781E090E0B1
:10490000A0E0B0E004C0880F991FAA1FBB1F2A9522
:10491000D2F70197A109B1098E219F21A023B123CC
:104920000097A105B10521F081E090E0A0E0B0E0A2
:104930009A01AB01282B392B4A2B5B2BDA01C901D9
:104940008F779070A070B07080349105A105B1058B
:1049500039F427FF09C0205C3F4F4F4F5F4F04C021
:10496000215C3F4F4F4F5F4FE0E0F0E02030A0E090
:104970003A07A0E04A07A0E45A0710F0E1E0F0E0AF
:1049800079018A0127C06038710564F5FB01E1589F
:10499000FF4FD801C7018F779070A070B07080343E
:1049A0009105A105B10539F4E7FE0DC080E490E062
:1049B000A0E0B0E004C08FE390E0A0E0B0E0E80E3B
:1049C000F91E0A1F1B1F17FF05C016950795F794C0
:1049D000E794319687E016950795F794E7948A95C2
:1049E000D1F705C0EE24FF248701EFEFF0E06E2F32
:1049F000679566276795902F9F77D794DD24D79486
:104A00008E2F8695492F462B582F5D29B701CA0155
:104A10001F910F91FF90EF90DF900895FC01DB0153
:104A2000408151812281622F6F7770E0221F2227FF
:104A3000221F9381892F880F822B282F30E0991F06
:104A40009927991F11969C93119721153105A9F566
:104A5000411551056105710511F482E037C082E806
:104A60009FEF13969C938E9312979A01AB0167E088
:104A7000220F331F441F551F6A95D1F783E08C9393
:104A80000DC0220F331F441F551F12968D919C910C
:104A90001397019713969C938E931297203080E082
:104AA000380780E0480780E4580758F314962D93A0
:104AB0003D934D935C93179708952F3F310579F4FB
:104AC000411551056105710519F484E08C93089531
:104AD00064FF03C081E08C9312C01C9210C02F575A
:104AE000304013963C932E93129783E08C9387E08B
:104AF000440F551F661F771F8A95D1F7706414966F
:104B00004D935D936D937C93179708951F93DC01EC
:104B1000FB019C91923008F447C08081823008F4F8
:104B200043C0943051F411961C91843099F58181E1
:104B3000682F70E0611B71093FC0843021F0923012
:104B400031F48230B9F18181882389F12DC0119629
:104B50001C9111978230F1F081811817D9F41296C7
:104B60002D913C911397828193818217930794F042
:104B700028173907BCF014968D919D910D90BC912A
:104B8000A02D2481358146815781281739074A078E
:104B90005B0718F4112341F00AC082179307A4079A
:104BA000B50740F4112319F061E070E005C06FEF24
:104BB0007FEF02C060E070E0CB011F910895A0E09C
:104BC000B0E0E5EEF5E20C94672BEC01A880B9802B
:104BD000CA80DB80A114B104C104D10441F484E291
:104BE000A82E89EDB82E8BE5C82E87E0D82EC601F9
:104BF000B5012DE133EF41E050E00E94C02B27EAE0
:104C000031E440E050E00E94A12B7B018C01C60101
:104C1000B5012DE133EF41E050E00E94C02BCA0105
:104C2000B9012CEE34EF4FEF5FEF0E94A12B6E0D18
:104C30007F1D801F911F97FF04C06150704080400E
:104C40009048688379838A839B839B013F77C9015E
:104C5000CDB7DEB7EAE00C94832B0E94DF250895E0
:104C600087E093E00E94DF250895A0E0B0E0809304
:104C7000070390930803A0930903B0930A030895D0
:104C8000283008F027E03327DA01990F311D87FD1E
:104C9000916000966105710539F432602E5F3D9395
:104CA00030E32A95E1F708959F3F30F08038710591
:104CB000610509F03C5F3C5F3D93913008F08068EE
:104CC000911DDF93CF931F930F93FF92EF92192FB4
:104CD000987F9695E92F96959695E90FFF27E251D3
:104CE000FF4F99273327EE24FF24A701E701059002
:104CF0000894079428F4360FE71EF81E491F511D2B
:104D0000660F771F881F991F0694A1F705900794D7
:104D100028F4E70EF81E491F561FC11D770F881F84
:104D2000991F661F0694A1F70590079428F4F80EC2
:104D3000491F561FC71FD11D880F991F661F771F58
:104D40000694A1F70590079420F4490F561FC71F3A
:104D5000D81F990F661F771F881F0694A9F78491A3
:104D60001095177041F0D695C79557954795F794CC
:104D7000E7941A95C1F7E4E9F0E06894159015916D
:104D800035916591959105907FE27395E118F10A4F
:104D9000430B560BC90BD009C0F7E10CF11E431FA2
:104DA000561FC91FD01D7EF4703311F48A95E6CFCB
:104DB000E894015030F0080F0AF40027021708F4B5
:104DC000202F2395022F7A3328F079E37D932A95BB
:104DD000E9F710C07D932A9589F606949795679513
:104DE000379517951794E118F10A430B560BC90B29
:104DF000D00998F023957E9173957A3308F070E38B
:104E00007C932013B8F77E9170617D9330F0839589
:104E100071E37D9370E32A95E1F71124EF90FF9001
:104E20000F911F91CF91DF91992787FD909508955C
:104E3000FC010590615070400110D8F78095909565
:104E40008E0F9F1F0895FB01DC0102C001900D929F
:104E500041505040D8F70895FB01DC0101900D92BC
:104E60000020E1F70895FC016150704001900110AD
:104E7000D8F7809590958E0F9F1F0895A0E0B0E021
:104E8000E4E4F7E20C94692B7C01EB018A016901EF
:104E900009C0CE012196F6010995F70181937F01A2
:104EA0000150104001151105A1F7CDB7DEB7E8E0BC
:104EB0000C94852BA0E0B0E0E0E6F7E20C94692BBF
:104EC000EC017B018A01690109C0F70161917F0151
:104ED000CE012196F60109950150104001151105EA
:104EE000A1F7CDB7DEB7E8E00C94852B0F931F93A5
:104EF000CF93DF938C01EB018B8181FF1BC082FF7D
:104F00000DC02E813F818C819D812817390764F463
:104F1000E881F9810193F983E88306C0E885F98582
:104F2000802F0995892B31F48E819F8101969F8373
:104F30008E8302C00FEF1FEFC801DF91CF911F9149
:104F40000F910895AEE0B0E0E8EAF7E20C946D2B23
:104F50000D891E8986E08C831A8309838FEF9FE772
:104F60009E838D83CE014996AC016F89788DCE01E9
:104F700001960E943C1D2F813885020F131FF801F6
:104F800010822E96E4E00C94892BAEE0B0E0EBECBE
:104F9000F7E20C946F2B85E08C838B899C899A8334
:104FA0008983CE014796AC016D897E89CE01019639
:104FB0000E94C0292E96E2E00C948B2BFA01AA27BE
:104FC000283051F1203181F1E8946F936E7F6E5F4C
:104FD0007F4F8F4F9F4FAF4FB1E03ED0B4E03CD0FA
:104FE000670F781F891F9A1FA11D680F791F8A1FDD
:104FF000911DA11D6A0F711D811D911DA11D20D044
:1050000009F468943F912AE0269F11243019305DFD
:105010003193DEF6CF010895462F4770405D4193EE
:10502000B3E00FD0C9F7F6CF462F4F70405D4A333B
:1050300018F0495D31FD4052419302D0A9F7EACF03
:10504000B4E0A6959795879577956795BA95C9F732
:1050500000976105710508959B01AC010A2E069425
:105060005795479537952795BA95C9F7620F731FDE
:10507000841F951FA01D0895FC0120FD08C023FD7D
:1050800005C022FF02C07383628351834083089569
:10509000EF92FF920F931F9344FF02C033E011C0C1
:1050A00046FF02C034E00DC0DB01FC01AA0FBB1FAC
:1050B000EE1FFF1F1094D1F76A0F7B1F8E1F9F1FDB
:1050C00031E0660F771F881F991F3150D1F77B01A0
:1050D0008C01E20EF11C011D111DA8019701B70101
:1050E000CA011F910F91FF90EF9008950F931F93A6
:1050F000CF93DF938C01C8010E94DC2AEC0197FD5D
:1051000008C00E94962B892BB1F7B801CE010E94EE
:105110001E2BCE01DF91CF911F910F910895A0E03A
:10512000B0E0E5E9F8E20C94672BEC01C62E5A01D9
:10513000122F0E94DC2AAC018B3219F08D3251F40F
:105140001068CA9409F46DC0CE010E94DC2AAC013B
:1051500097FD67C06DEFD62ED1228D2D807301F59E
:105160004033F1F4CA9409F447C0CE010E94DC2A0E
:10517000AC0197FD41C082E0D82A483711F048358C
:1051800059F480E4D82ACA94B9F1CE010E94DC2AED
:10519000AC0199232CF430C0D6FC02C080E1D82A9F
:1051A000EE24FF248701242F2053283088F0D4FCDC
:1051B00009C02A3068F0D6FE05C02F7D822F8151AC
:1051C000863028F0BE01CA010E941E2B12C0275053
:1051D0004D2DC801B7010E9448287B018C0182E057
:1051E000D82ACA9461F0CE010E94DC2AAC0197FF54
:1051F000DACFD1FC04C015C0EE24FF248701D7FE0E
:1052000008C010950095F094E094E11CF11C011D7C
:10521000111D2D2DB801A701C5010E943C2881E078
:1052200001C080E0CDB7DEB7EAE00C94832BA0E2AA
:10523000B0E0EDE1F9E20C94632B6C01A62E8A013B
:105240007901FE01319680E2DF011D928A95E9F72E
:1052500070E030E060E040E050E04F01A1E0B0E0FD
:10526000F6018381F70183FD259183FF21917F0161
:10527000222309F47EC02E3519F44115510569F138
:10528000872F90E08417950744F42D3551F12D3286
:1052900021F4332329F431E021C0332309F4622FB0
:1052A000322F832F869586958695F401E80FF11DA0
:1052B000832F87703D0102C0660C771C8A95E2F748
:1052C000208126292083361711F430E007C03617D5
:1052D00010F43F5FE6CF3150E4CF71E04F5F5F4F96
:1052E000BFCF332319F08E8180628E83772359F0EC
:1052F000FE0131969E012F5D3F4F80818095819305
:10530000E217F307D1F7BB24B3944E010894811C34
:10531000911CC6010E94DC2AAC0197FD22C0869533
:1053200086958695F401E80FF11D808190E09A0141
:105330002770307002C0959587952A95E2F780FD19
:1053400005C0B601CA010E941E2B0BC00115110534
:1053500019F0D8014D938D01AA94BB24AA20C9F657
:1053600002C0BB2031F40115110529F0F8011082AB
:1053700002C0EE24FF24C701A096EEE00C947F2B20
:10538000A0E0B0E0E6ECF9E20C94632B5C016B0169
:105390003A01FC01178216828824EAC0812F90E02E
:1053A0000E94962B892B21F0C5010E947628E0C02F
:1053B000153249F4F601F3FC6591F3FE61916F013A
:1053C000653269F415E2C5010E94DC2A97FDDCC054
:1053D000181709F4CDC0B5010E941E2BDAC06A323D
:1053E00019F0162F00E006C0F3FC1591F3FE1191A1
:1053F0006F0101E099240FC00260692D70E080E028
:1054000090E040E20E944828962EF601F3FC1591A8
:10541000F3FE11916F01212F20532A3068F301FD13
:1054200003C099249A9403C0992009F4B2C0183695
:1054300021F01C3699F4F6010BC0F601F3FC6591DE
:10544000F3FE6191683619F06F01162F07C00860EE
:105450000460F3FC1591F3FE11916F01112309F41F
:1054600098C0612F70E08EE891E00E94D12A892BCC
:1054700009F48FC0802F00FF03C0EE24FF2407C073
:10548000F301E080F18022E030E0620E731E1E36F0
:1054900051F4F5014681578160E070E0202FC7018B
:1054A0000E943C2865C0133691F481FD02C0992406
:1054B0009394C5010E94DC2A97FD66C0E114F104B3
:1054C00019F0F70181937F019A9499F74FC01B352A
:1054D00059F49601A701692DC5010E9417296C0195
:1054E000009709F043C03DC0C5010E94762897FD92
:1054F0004BC01F3659F1103728F4143629F11936EC
:1055000039F527C0133719F0153711F51DC0C5013E
:105510000E94DC2AEC0197FD11C00E94962B892B7A
:1055200029F0B501CE010E941E2B08C0E114F10440
:1055300019F0F701C1937F019A9449F7E114F1043E
:10554000A9F0F701108212C0006203C0006101C01F
:105550000064202FA701692DC5010E948F28882390
:1055600029F4F5018381807379F413C000FF8394DB
:10557000F501F380F601F3FC1591F3FE11916F0133
:10558000112309F00BCF05C0882019F42FEF3FEF4E
:1055900002C0282D30E0C901CDB7DEB7EEE00C9493
:1055A0007F2BFC010590061621F00020D9F7C001E1
:1055B00008953197CF010895CF93DF93EC014B818C
:1055C00040FF1AC046FF0AC04F7B4B838E819F81EC
:1055D00001969F838E838A81282F2BC042FF13C0A0
:1055E000E881F9818081282F332727FD3095211507
:1055F000310529F440624B832FEF3FEF1BC03196FA
:10560000F983E88311C0EA85FB85CE0109959C01E9
:1056100097FF0AC09B812F5F3F4F11F080E201C0CE
:1056200080E1892B8B83E8CF8E819F8101969F83B8
:105630008E8330E0C901DF91CF9108959C01FB0179
:10564000838180FF11C086FD0FC09FEF2F3F390778
:1056500059F0228380648F7D8383868197810197AF
:105660009783868330E002C02FEF3FEFC901089592
:10567000AA1BBB1B51E107C0AA1FBB1FA617B70778
:1056800010F0A61BB70B881F991F5A95A9F7809594
:105690009095BC01CD01089597FB092E07260AD0ED
:1056A00077FD04D0E5DF06D000201AF470956195EF
:1056B0007F4F0895F6F7909581959F4F08952F920B
:1056C0003F924F925F926F927F928F929F92AF9292
:1056D000BF92CF92DF92EF92FF920F931F93CF93DF
:1056E000DF93CDB7DEB7CA1BDB0B0FB6F894DEBF76
:1056F0000FBECDBF09942A88398848885F846E849C
:105700007D848C849B84AA84B984C884DF80EE80E5
:10571000FD800C811B81AA81B981CE0FD11D0FB6EE
:10572000F894DEBF0FBECDBFED010895911106C004
:10573000803219F089508550D0F70895992788272D
:105740000895629FD001739FF001829FE00DF11DCB
:10575000649FE00DF11D929FF00D839FF00D749FEB
:10576000F00D659FF00D9927729FB00DE11DF91F97
:10577000639FB00DE11DF91FBD01CF0111240895F4
:1057800097FB092E05260ED057FD04D014D00AD061
:10579000001C38F450954095309521953F4F4F4F60
:1057A0005F4F0895F6F790958095709561957F4FBE
:1057B0008F4F9F4F0895A1E21A2EAA1BBB1BFD011C
:1057C0000DC0AA1FBB1FEE1FFF1FA217B307E407E0
:1057D000F50720F0A21BB30BE40BF50B661F771F38
:1057E000881F991F1A9469F7609570958095909518
:0E57F0009B01AC01BD01CF010895F894FFCFDD
:1057FE00FF5425312E31660D0A4825312E32660DA5
:10580E000A4C25312E31660D0A0025312E316600E7
:10581E00310030004C656E677468204572726F728D
:10582E000D0A0025783A25783A25783A25783A25D2
:10583E00783A25783A25783A25780D0A00556E6B18
:10584E006E6F776E20436F6D6D616E640D0A004E44
:10585E006F20726573706F6E73650D0A005B256C39
:10586E00645D2020006177616B650D0A004F4B0D62
:10587E000A00556E6B6E6F776E20706F72740D0A24
:10588E000050696E6720746F6F6B20256C64206DFD
:10589E00530A002001497801E10000021C23FFFE9B
:1058AE002BBD6C20014860B0060000000000000017
:1058BE00000068200105C01000000B000000000071
:1058CE0000114D6666B241000018410000C841301B
:1058DE00E80380000000000000000000000000331C
:1058EE0014000F00413000413100656E6464000009
:1058FE000000000000000000010202030303030485
:10590E000404040404040405050505050505050540
:10591E000505050505050506060606060606060620
:10592E000606060606060606060606060606060609
:10593E0006060606060606070707070707070707F0
:10594E0007070707070707070707070707070707D9
:10595E0007070707070707070707070707070707C9
:10596E0007070707070707070707070707070707B9
:10597E0007070707070707080808080808080808A0
:10598E000808080808080808080808080808080889
:10599E000808080808080808080808080808080879
:1059AE000808080808080808080808080808080869
:1059BE000808080808080808080808080808080859
:1059CE000808080808080808080808080808080849
:1059DE000808080808080808080808080808080839
:1059EE000808080808080808080808080808080829
:0C59FE0008080808080808010000000064
:020000021000EC
:10FC00002F923F924F925F926F927F928F929F922C
:10FC1000AF92BF92CF92DF92EF92FF920F931F931A
:10FC2000DF93CF9300D000D0CDB7DEB7F8948091AA
:10FC3000DD059091DE05A091DF05B091E005898397
:10FC40009A83AB83BC83612C712C91E0892E912C1B
:10FC500071E065E04FC0F999FECF93E0F101409269
:10FC60005B0090935700E89507B600FCFDCFA1E13B
:10FC7000A0935700E89507B606FCFDCF6401530139
:10FC8000EE24FF248701CBBEF501279137914791E0
:10FC90005691D801C701820D931DA41DB51D090100
:10FCA000FC01A0935B0070935700E895112482E05B
:10FCB00090E0A0E0B0E0A80EB91ECA1EDB1EE80E60
:10FCC000F91E0A1F1B1F90E8E916F1040105110532
