:100000000C94E7010C9404020C94DA0A0C94040298
:100010000C9404020C9404020C9404020C943E0B05
:100020000C9404020C9404020C9404020C94040238
:100030000C9404020C949D020C9404020C9404028F
:100040000C9404020C9404020C9404020C94040218
:100050000C9404020C9404020C9476080C94040290
:100060000C9404023F065B4F666D7D077F6F777CC3
:10007000395E7971004053332944494E2E000030D7
:10008000280000100800024002C593C08094199413
:1000900098918815981599848095999598000000F5
:1000A000000000000002020000538E9589A4B805EC
:1000B00011A4B01519150905999189202080915135
:1000C000050111C3818385859195098595950D0657
:1000D000142420819141038187420642204412006A
:1000E000000000000000000000040080000080000C
:1000F0001000010100020020004000000800040080
:100100002000021000000000000000E351D1635203
:1001100062E2CDC34FCFD2ADEDF2A8A3B260E061F1
:10012000E19283888DC80444D050E884C457414B81
:10013000452D2D2D009B0395038F03880382037BA0
:100140000373036C0364035C0353034B03420339DF
:10015000032F0326031C0312030703FD02F202E729
:1001600002DC02D002C502B902AD02A102950289E9
:10017000027C027002630257024A023E02320225EA
:100180000219020C020002F401E801DC01D001C4F2
:1001900001B801AD01A20196018C01810176016CCB
:1001A00001620158014E0144013B01320129012045
:1001B0000117010F010701FF00F700F000E900E15E
:1001C00000DB00D400CD00C700C100BB00AA03A71C
:1001D00003A403A1039E039B039803940391038D3F
:1001E000038A03860382037E037B03770372036E15
:1001F000036A03660361035D03580353034F034A15
:1002000003450340033B03360330032B032603203F
:10021000031B0315030F030A030403FE02F802F293
:1002200002EC02E602DF02D902D302CC02C602BF10
:1002300002B902B202AC02A5029E02970291028AA2
:100240000283027C0275026E02680261025A025346
:10025000024C0245023E0237023002290222021BF2
:100260000215020E0207020002F901F201EC01E59B
:1002700001DE01D801D101CB01C401BE01B701B13A
:1002800001AA01A4019E01980192018C01860180BE
:10029000017A0174016E01680163015D0158015228
:1002A000014D01470142013D01380133012E012971
:1002B0000124011F011A01150111010C010801039C
:1002C00001FF00FB00F600F200EE00EA00E600E2AB
:1002D00000DE00DB00D700D300CF00CC00C800C593
:1002E00000C200BE00BB0052554D20312E300050E0
:1002F000494E4700434F4F524400474F4F474C45EC
:1003000036004950534F36004E4F444536004C4559
:10031000442054474C005343414E494E47004153FB
:10032000534F4300E7020001000000000000EF020D
:100330000002060600000000F4020102050381002D
:10034000C309FA02010302048200C3090203010483
:1003500003058300C3090803010504028400C309DF
:100360000E03000601018500C30900000000000023
:10037000000000000000000000000000000000007D
:10038000000000000000000000000000000000006D
:10039000000000000000000000000000000000005D
:1003A000000000000000000000000000000000004D
:1003B000000000000000000000000000000000003D
:1003C00000000000000000000000000000001124F8
:1003D0001FBECFEFD8E0DEBFCDBF11E0A0E0B1E09F
:1003E000E6ECFAE102C005900D92A631B107D9F70B
:1003F00011E0A6E1B1E001C01D92AD3AB107E1F70D
:100400000E94070C0C94610D0C940000FC011182F9
:10041000818180830895DC019C919F5F903508F075
:1004200090E011968C911197981731F08C91FD0105
:10043000E80FF11D62839C930895DC0111968C9165
:100440001197FD01E80FF11D92818F5F803508F053
:1004500080E011968C93892F089510923901809134
:10046000390180933A010895FC019081818120E057
:10047000981321E0822F08958A3010F0895C089546
:10048000805D0895FB0190E390838F708A3010F0B7
:10049000895C01C0805D8183089520E43BE44CE4E5
:1004A00050E00BC0211531054105510511F49FEFB6
:1004B00017C0215030404040504090913901809108
:1004C0003A01981779F380913A01E82FF0E0E75C60
:1004D000FE4F92818F5F803508F080E080933A0173
:1004E000892F0895E4E6F0E080818D7F808310926B
:1004F00039018091390180933A018CE090E090932A
:10050000C5008093C40082E08093C00086E08093A1
:10051000C20088E98093C10008951092C100E4E60A
:10052000F0E08081826080830895982F8091C000E0
:1005300085FFFCCF9093C60008951F920F920FB6CF
:100540000F9211242F938F939F93EF93FF932091FA
:10055000C600909139019F5F903508F090E080913E
:100560003A01981741F0E0913901F0E0E75CFE4F65
:10057000228390933901FF91EF919F918F912F9159
:100580000F900FBE0F901F901895982F8091C0006C
:1005900085FFFCCF81E08093C6008091C00085FF7D
:1005A000FCCF6093C6008091C00085FFFCCF909384
:1005B000C600FA0190E009C020818091C00085FF4B
:1005C000FCCF2093C6009F5F31969617A9F78091C4
:1005D000C00085FFFCCF84E08093C6000895909111
:1005E000390180913A01981709F45BC020E43BE49B
:1005F0004CE450E00BC0211531054105510511F4C3
:100600002FEF17C0215030404040504090913901A9
:1006100080913A01981779F380913A01E82FF0E040
:10062000E75CFE4F22818F5F803508F080E0809389
:100630003A0180919701823001F1833028F48823B8
:1006400041F08130B9F50DC08330E9F0843091F587
:100650002AC0213019F42093970123C010929701EA
:1006600020C0822F2B3008F08AE080938B0182E03B
:10067000809397011092160114C020938C0183E09F
:10068000809397010EC09091160180918B0198176D
:1006900050F4E92FF0E0E557FE4F22839F5F9093DF
:1006A000160180E008951092970180E0243029F42B
:1006B00081E008951092970180E00895DF93CF9331
:1006C000CDB7DEB764970FB6F894DEBF0FBECDBFCF
:1006D000982FDE011196E0E0F1E088E001900D92A4
:1006E0008150E1F7FE0139968CE0DF011D928A9579
:1006F000E9F7BE016C5F7F4F892F0E947709CE0119
:1007000001960E94470964960FB6F894DEBF0FBEAB
:10071000CDBFCF91DF910895DF93CF93CDB7DEB7F3
:100720002D970FB6F894DEBF0FBECDBF882399F486
:100730009091390180913A01981769F447C12115C8
:1007400031054105510511F49FEF1CC02150304087
:100750004040504004C020E43BE44CE450E0909121
:10076000390180913A01981751F380913A01E82FAD
:10077000F0E0E75CFE4F92818F5F803508F080E00B
:1007800080933A0199838981813011F081E0EDC035
:100790000E94DF0820E43BE44CE450E00BC021154C
:1007A00031054105510511F49FEF17C0215030402C
:1007B000404050409091390180913A01981779F367
:1007C00080913A01E82FF0E0E75CFE4F92818F5F65
:1007D000803508F080E080933A01998389818F3FCA
:1007E00011F482E0C2C0898187FF2CC020E43BE481
:1007F0004CE450E00BC0211531054105510511F4C1
:100800009FEF17C021503040404050409091390137
:1008100080913A01981779F380913A01E82FF0E03E
:10082000E75CFE4F92818F5F803508F080E0809317
:100830003A0199838981843009F4C6C083E00E941B
:100840005E03C2C089818A838A818B3008F0BEC072
:1008500020E43BE44CE450E00BC021153105410598
:10086000510511F49FEF17C02150304040405040D7
:100870009091390180913A01981779F380913A016A
:10088000E82FF0E0E75CFE4F92818F5F803508F043
:1008900080E080933A01998389818F3F11F485E04C
:1008A00064C089818B8360E070E0DE0114962BC008
:1008B000211531054105510511F49FEF17C0215055
:1008C0003040404050409091390180913A01981752
:1008D00079F380913A01E82FF0E0E75CFE4F9281D6
:1008E0008F5F803508F080E080933A019983898199
:1008F0008F3F11F4862F39C08981FD01E60FF71F64
:1009000080836F5F7F4F8A8190E06817790728F0B6
:1009100020E43BE44CE450E010C020E43BE44CE431
:1009200050E0D1CF211531054105510511F49FEF5C
:1009300017C0215030404040504090913901809183
:100940003A01981779F380913A01E82FF0E0E75CDB
:10095000FE4F92818F5F803508F080E080933A01EE
:1009600099838981843021F087E00E945E032EC044
:100970008B81813CD1F0823C09F1803C29F58C814E
:1009800080939E01813011F463E00BC0823011F43A
:1009900062E007C0833011F461E003C0843019F4D1
:1009A00060E00E94E50810929C0181E50E94EA0542
:1009B0000E94FA0A81E50E94000606C0CE01049654
:1009C0000E9447090E94FA0A0E94E2082D960FB67B
:1009D000F894DEBF0FBECDBFCF91DF910895E4E65E
:1009E000F0E090819E7F9083206820937A00482BCE
:1009F00040937C0060937B0081E08093170110920C
:100A0000180180E090E00895EAE7F0E080818F77B8
:100A10008083E4E6F0E0808181608083109217019A
:100A200010921801089580911701882319F42FEF6F
:100A30003FEF0AC081E08093180180917A008064C2
:100A400080937A0020E030E0C9010895982F8091CA
:100A50001801882399F080917A0086FD0FC01092CA
:100A6000180180917C009295990F907E892B80933C
:100A70007C00209178003091790002C02FEF3FEF89
:100A8000C90108950E94130580E00E9426052FEFFA
:100A90008F3F9207C9F3629902C080E10895803ABE
:100AA000910514F481E0089521E08038920714F450
:100AB00088E0089522E08038920714F484E00895D5
:100AC0008058934014F080E0089582E008950E94D9
:100AD000420590913701882329F4903249F410920D
:100AE00037010895903211F480E008958093370122
:100AF00008950E946705811181E008950E9479059B
:100B00008823E1F38091370190E2909337010895B3
:100B10000E9404050895EEE7F0E080818260808302
:100B20006A98729A8198899827E040E460E081E0B1
:100B30000E94EF0408958091E40084FFFCCF81E9D6
:100B40008093E4008091E40084FFFCCF1092E400E5
:100B5000809164008061809364000895482F6AE06A
:100B60000E942E0D282F30E084E0220F331F8A953B
:100B7000E1F7842F0E942E0D892F822B089560E0CB
:100B800070E021C0FA018491E82FF0E0EF71F0707D
:100B9000E451FF4F208182958695877090E0032E67
:100BA00002C0880F991F0A94E2F780958223808300
:100BB0004F5F5F4FF0E04D375F0721F76E5F7F4F6C
:100BC0006830710521F0362F46E750E0DBCF80E03A
:100BD00090E00895382FE82FEF71E43180F4F0E0D1
:100BE000E451FF4F208132953695377081E090E0D7
:100BF00002C0880F991F3A95E2F7282B20830895A9
:100C0000382FE82FEF71E43188F4F0E0E451FF4F22
:100C1000208132953695377081E090E002C0880FD0
:100C2000991F3A95E2F780958223808308950F9368
:100C30001F93CF93DF939C01CB01820F931F839768
:100C400024F062E270E0621B730BD901A55FBE4F16
:100C5000A901620F731FC1E0D0E018C0FD018491AB
:100C6000E82FEF71E43178F4F0E0E451FF4F208198
:100C70008295869587708E0102C0000F111F8A959C
:100C8000E2F7202B20834F5F5F4F119646175707DF
:100C90002CF3DF91CF911F910F9108950F931F9324
:100CA000CF93DF939C01CB01820F931F839724F096
:100CB00062E270E0621B730BD901A55FBE4FA90110
:100CC000C1E0D0E01AC0FD018491E82FEF71E4315A
:100CD00088F4F0E0E451FF4F20818295869587707B
:100CE0008E0102C0000F111F8A95E2F7C80180959E
:100CF000822380834F5F5F4F1196461757071CF37F
:100D0000DF91CF911F910F910895809164008F7EA4
:100D1000809364008FEF8093E50087E08093E60086
:100D20008EE68093E70088EC8093E40062E270E056
:100D300080E090E00E944E0680E290E024E09595ED
:100D400087952A95E1F7009711F481E090E0909360
:100D5000350180933401909333018093320180E018
:100D600090E00895CF93DF93660F771FA6E7B0E07A
:100D700040E050E0C82FD0E0CE01042E02C095958F
:100D800087950A94E2F780FF16C0FD018491E82F51
:100D9000F0E0EF71F070E451FF4F2081829586956D
:100DA000877090E0062E02C0880F991F0A94E2F720
:100DB000282B208316C0FD018491E82FF0E0EF710D
:100DC000F070E451FF4F208182958695877090E006
:100DD000062E02C0880F991F0A94E2F7809582239D
:100DE00080834F5F5F4F11964730510509F0C4CFA4
:100DF000DF91CF910895AF92BF92CF92DF92EF92A1
:100E0000FF920F931F93CF93DF937C01C62ED42EB6
:100E1000C0E0D0E000E010E04FE0A42EB12CF501DE
:100E2000002E02C0EE0FFF1F0A94E2F7EE21FF2111
:100E3000002E02C0F695E7950A94E2F7EC59FF4FB1
:100E4000E491BE018E2F0E94B2062196C430D105D6
:100E5000C1F10C5F1F4FC701002E02C09695879508
:100E60000A94E2F7892BD9F6BE01CC2089F02196AD
:100E7000DD2019F0E5E7F0E002C0E4E6F0E084915F
:100E80000E94B206DD20C9F48091F400806803C09E
:100E90008091F4008F778093F4000FC0DD2019F06B
:100EA000E4E7F0E002C0E4E6F0E08E010F5F1F4FE0
:100EB0008491BE010E94B206E801C430D10574F3EA
:100EC0000BC0CC2021F08091F400806803C0809199
:100ED000F4008F778093F40080E090E0DF91CF9171
:100EE0001F910F91FF90EF90DF90CF90BF90AF9048
:100EF0000895462F28ED813F920714F481EF98ED75
:100F0000FC0187E2E031F80714F0EFE0F7E2DF01DF
:100F1000F7FF04C0AA27BB27AE1BBF0B8A2F6AE0CE
:100F20000E942E0D282F30E054E0220F331F5A95D7
:100F3000E1F76F2F661F6627661F96EF899F802D4A
:100F400011248A0F822B90E00E94FB060895462F01
:100F500060E00E94FB0608950F931F93CF93DF93E9
:100F6000982F9B01683071050CF05EC08A52813564
:100F700020F0903209F058C00BC0913608F09F7DE8
:100F8000903231F0892F8A52863308F04DC001C06B
:100F900080E0E82FF0E0EE0FFF1FE358FF4F859150
:100FA0009591A591B491EC01822F81508695A82F3F
:100FB000B0E0A451BF4F68E070E440E050E0890128
:100FC00001701070FD01E40FF51FCE018F70382FF6
:100FD000962F9F7024E0D695C7952A95E1F784E077
:100FE000769567958A95E1F70115110519F0292F76
:100FF000206F06C03295307F292F2295207F2F60E9
:1010000090818081832B9223892B808380819081A2
:101010002823232B292320834B5F5F4F4431510525
:1010200089F620E030E002C02FEF3FEFC901DF91E9
:10103000CF911F910F910895EF92FF920F931F93FD
:10104000CF93DF937C018B01C1E0D0E005C0BE01EE
:1010500080E20E94AC072196C017D107C4F3E801D3
:101060000EC0F7018081882319F4BE0180E204C01C
:101070000894E11CF11CBE010E94AC072196C83007
:10108000D1057CF380E090E0DF91CF911F910F912B
:10109000FF90EF9008950F931F9300911B01109103
:1010A0001C01F801E35EFE4F80830F5F1F4F10931A
:1010B0001C0100931B01F801E35EFE4F108280913A
:1010C000190190911A0161E070E0835E9E4F0E94C9
:1010D0001C0810923101083011051CF081E080934A
:1010E000310180E090E01F910F9108951F920F92BF
:1010F0000FB60F9211242F933F934F935F936F93EB
:101100007F938F939F93AF93BF93EF93FF938091C0
:101110003101882309F442C080913201909133015A
:1011200001979093330180933201892BB9F5209177
:10113000190130911A01F901E35EFE4F8081882385
:1011400039F410921A011092190187E090E007C05B
:101150008091140190911501009731F001979093BF
:1011600015018093140106C02F5F3F4F30931A0181
:10117000209319016091140170911501809119015A
:1011800090911A01835E9E4F0E941C088091340149
:10119000909135019093330180933201FF91EF914B
:1011A000BF91AF919F918F917F916F915F914F917F
:1011B0003F912F910F900FBE0F901F901895279A77
:1011C0002F98089527982F9A0895E4E6F0E0E80F05
:1011D000F11DE49170E08E2F0E94B20608950F93E6
:1011E0001F938C01BC018DE191E00E940E0DC8019E
:1011F0000E94150D8C0190931C0180931B0110928D
:101200001A011092190161E070E08DE191E00E94F5
:101210001C0810923101083011051CF081E0809308
:10122000310180E090E01F910F910895CF92DF92FD
:10123000EF92FF920F931F93D82EC92E5DE1E52EFA
:1012400051E0F52E482F592FC7010E941E0D0D2D7C
:101250001C2D10931C0100931B0110921A01109277
:10126000190161E070E0C7010E941C081092310171
:10127000083011051CF081E08093310180E090E09E
:101280001F910F91FF90EF90DF90CF9008950F93F3
:101290001F93182F092F682F792F8DE191E00E945D
:1012A000270DE12FF02FDF010D900020E9F78D01D0
:1012B000015010400E1B1F0B10931C0100931B01CB
:1012C00010921A011092190161E070E08DE191E035
:1012D0000E941C0810923101083011051CF081E0B9
:1012E0008093310180E090E01F910F910895282FA5
:1012F000FB016AE00E942E0D905D9183822F0E9477
:101300002E0D805D808308959C01FB0197FD02C036
:1013100040E004C0309521953F4F41E01082319765
:1013200080919D01DF011197882311F483E401C0AE
:1013300086E4808380E28C93FD013197211531058D
:1013400019F480E3808317C0C9016AE070E00E944D
:101350003A0D805D80833197C9016AE070E00E9498
:101360003A0D9B016115710579F7442319F08DE25F
:10137000808331973196CF01089510929801089596
:1013800010929A01089540E050E060E00E94C5028A
:101390000895DF93CF93CDB7DEB72A970FB6F894B1
:1013A000DEBF0FBECDBF0E94DF0880919D010E946D
:1013B0005F0BBE01655F7F4F0E948409DC010D90C9
:1013C0000020E9F71197A81BB90BAC016A2F80E840
:1013D0000E94C5020E94E2082A960FB6F894DEBF6A
:1013E0000FBECDBFCF91DF910895FC01808188238E
:1013F00019F010929A0103C081E080939A010E9433
:10140000C90908951092990180E50E94000680EDB7
:101410000E94000682EE0E9400060E94BF05089509
:10142000CF93DF9380919D010E945F0BEC0180912F
:101430009D01882329F480E50E94000680ED04C008
:1014400080ED0E94000680E50E94EA0505B607FED1
:1014500004C082EE0E94000603C082EE0E94EA05EC
:1014600061E0CE010E947907DF91CF910895FC01E0
:101470008081882319F010929D0103C081E0809340
:101480009D0181E0809399010E94100A08951F93A5
:10149000FC011FB7F8948081882371F085B78068BC
:1014A00085BF85B7806885BF0E944D0BF999FECF37
:1014B00012BC11BC8FEF0BC085B78F7785BF85B786
:1014C0008F7785BFF999FECF12BC11BC81E080BD3A
:1014D0000FB6F894FA9AF99A0FBE1FBF1F9108959C
:1014E000DF93CF930F92CDB7DEB7F999FECF12BC41
:1014F00011BCF89A80B59E012F5F3F4F8F3F19F4C2
:1015000081E0898301C01982C9010E94470A0F90B6
:10151000CF91DF910895DF93CF9300D0CDB7DEB7A1
:101520009A8389830E94E208809164008C60809392
:1015300064000E949B050E9488050E94BF0A0E94C9
:1015400085068DE291E00E94EF0883EE0E94EA0595
:101550000E948B050E94E40A0E9442058823E1F75D
:101560000E947905882311F00E947E05CE01019624
:101570000E94EF080F900F90CF91DF91089588E1BE
:101580000FB6F89480936000109260000FBE83B78E
:10159000817F846083BFEC9AEBE6F0E08081846019
:1015A000808383B7816083BF889583B78E7F83BF35
:1015B000EC9808951F920F920FB60F9211240F907E
:1015C0000FBE0F901F90189502C00E944D0290917F
:1015D000390180913A019817C1F788E70E94950276
:1015E0009091390180913A019817B9F381E00E94F6
:1015F0008C030895DF93CF930F92CDB7DEB70E948F
:10160000DF086F9A779A259A90E01D9A198203C095
:1016100089818F5F898389818F3FD1F79F5F94365E
:10162000A1F790E01D9A198203C089818F5F898399
:101630008981803AD0F39F5F9436A1F72D987798EF
:101640000E94E2080F90CF91DF9108958DE0809382
:10165000810082E49FE09093890080938800089540
:10166000109285001092840082E080936F000895AC
:10167000EFE6F0E080818D7F808308951F920F92C6
:101680000FB60F9211248F9381E080939F018F9169
:101690000F900FBE0F901F901895EEE7F0E080813D
:1016A00080618083869A8E9884988C9881E080935C
:1016B000360180E090E008951092360108951F935E
:1016C000CF93DF93182F80913601882309F43FC010
:1016D0008E9A27E040E460E084E00E94EF040E94DC
:1016E000130580E00E942605EC018FEFCF3FD8075D
:1016F000C1F30E9404050E948B058E981123B1F45A
:1017000045E351E020E030E0FA01859194918C1797
:101710009D074CF02F5F3F4F4E5F5F4F2C343105DC
:1017200099F72FEF3FEF2F50304013C04DEC51E0B1
:1017300020E030E0FA01859194918C179D074CF0E0
:101740002F5F3F4F4E5F5F4F2D38310599F72FEFD9
:101750003FEFC901DF91CF911F9108959AE0899FD2
:10176000F0011124EC5DFC4FA0EAB1E084918D936F
:10177000319681E0AA3AB807C9F70895DF93CF936D
:101780000F92CDB7DEB78FB78983F894E1E6F0E02A
:1017900080E8808381E0808389818FBF0F90CF9123
:1017A000DF9108952091A0013091A10182E0273EB0
:1017B0003807B9F480913801882311F4C90109C0B0
:1017C0008091AA01882319F486E193E002C08EE19A
:1017D00093E00E94EF088091380191E0892780937F
:1017E000380108958091A0019091A1018250934009
:1017F00011F40E94020A8091A0019091A101845FDE
:10180000924021F40E94BD090E94BF0508950F93E4
:101810001F93DF93CF930F92CDB7DEB78FB7898336
:10182000F89480E88093610081E080936100898171
:101830008FBF0E9485060E948B050E9472020E9443
:10184000700A0E944D0B0E94260B789483EE0E9432
:10185000EA058DEE0E94EA0524E233E0A0EAB1E059
:10186000F90184918D932F5F3F4FF1E0AA3ABF07B2
:10187000B9F78091A0019091A1010E94EF080E9408
:10188000300B01E01AE078940E94EF02882369F19E
:1018900080918C01823C51F0833C18F4813C29F505
:1018A0000DC0833CA1F0843C01F516C06DE871E0E9
:1018B00080918B0190E00E9416090BC081E50E9487
:1018C000EA050E94FA0A81E50E9400060EC0009314
:1018D000AA010E94FA0A09C080918D01813319F48E
:1018E0000E94DF0802C00E94E20880919F018823C5
:1018F00021F010929F010E94D20B0E94790588234B
:1019000011F20E947E05843089F1853030F48130F7
:1019100059F0823009F07FC018C0883009F437C010
:10192000803109F078C04AC08091A401819FF00104
:101930001124EC5DFC4FA0EAB1E084918D933196C7
:1019400081E0AA3AB807C9F760C08091A501819FDC
:10195000F0011124EC5DFC4FA0EAB1E084918D937D
:10196000319681E0AA3AB807C9F74FC08091A20129
:10197000819FF0011124EC5DFC4FA0EAB1E084915D
:101980008D93319681E0AA3AB807C9F73EC080919D
:10199000A8019091A901892B89F48091A301819FCD
:1019A000F0011124EC5DFC4FA0EAB1E084918D932D
:1019B000319681E0AA3AB807C9F727C0E091A8019B
:1019C000F091A901309739F18091A6019091A7017A
:1019D00009958091A6019091A701892B31F0809102
:1019E000A0019091A1010E94EF088091A301819F25
:1019F000F0011124EC5DFC4FA0EAB1E084918D93DD
:101A0000319681E0AA3AB807C9F78091A001909178
:101A1000A1010E94EF080E94F20B35CFFB01DC010F
:101A200005900D920020E1F70895FC01059000203B
:101A3000E9F7809590958E0F9F1F0895FB01DC01BB
:101A400002C001900D9241505040D8F70895FB011B
:101A5000DC0101900D920020E1F70895991B79E0D7
:101A600004C0991F961708F0961B881F7A95C9F72E
:101A70008095089597FB092E07260AD077FD04D09C
:101A80000CD006D000201AF4709561957F4F089510
:101A9000F6F7909581959F4F0895AA1BBB1B51E1C6
:101AA00007C0AA1FBB1FA617B70710F0A61BB70BCE
:101AB000881F991F5A95A9F780959095BC01CD0173
:061AC0000895F894FFCF29
:101AC600544F2020202020000000000000000000CD
:061AD60000000000010009
:00000001FF
