:100000000C94CD000C94F5000C94F5000C94F500C4
:100010000C94F5000C94F5000C94F5000C94F5008C
:100020000C94F5000C94F5000C94F5000C94F5007C
:100030000C941E110C94F5000C94F5000C94F50032
:100040000C94F5000C94F5000C94F5000C94F5005C
:100050000C94811D0C94C41D0C94F5000C94F500B7
:100060000C94F5000C94F5000C94F5000C94F5003C
:100070000C94F5000C94F5000C94F5000C94F5002C
:100080000C94760E0C94F5000C94F5006E616E00E5
:10009000696E660000407A10F35A00A0724E18098B
:1000A0000010A5D4E80000E87648170000E40B54DF
:1000B000020000CA9A3B000000E1F50500008096AE
:1000C0009800000040420F000000A08601000000E0
:1000D000102700000000E80300000000640000009A
:1000E00000000A00000000000100000000002C7663
:1000F000D888DC674F0823DFC1DFAE59E1B1B7967E
:10010000E5E3E453C63AE651997696E8E6C28426DA
:10011000EB898C9B62ED407C6FFCEFBC9C9F40F2B6
:10012000BAA56FA5F490055A2AF75C936B6CF96732
:100130006DC11BFCE0E40D47FEF520E6B500D0EDF7
:10014000902E0300943577050080841E080000205F
:100150004E0A000000C80C333333330F986E1283FD
:100160001141EF8D2114893BE65516CFFEE6DB18D1
:10017000D1844B381BF77C1D901DA4BBE424203296
:1001800084725E228100C9F124ECA1E53D276364FD
:10019000696E6F70737578585B0011241FBECFEFC6
:1001A000D0E4DEBFCDBF14BE88E10FB6F8948093D3
:1001B0006000109260000FBE13E0A0E0B1E0E2EA40
:1001C000FEE500E00BBF02C007900D92AC30B10716
:1001D000D9F717E0ACE0B3E001C01D92AE3CB10727
:1001E000E1F70E94BA180C944F2F0C940000089568
:1001F00026EF35E03093F3052093F20593E09093DA
:10020000F6059AE39093F90590ED9093F705909396
:10021000F80594E19093F405F901749690E89093B1
:100220000A0613821282118210920E0610920F0695
:100230001092100680931106245E3F4F30930F03F7
:1002400020930E038CE18093F505C901489708952A
:1002500086EF95E09093F3058093F20510921303D7
:100260001092120323E02093F60520EF2093F70568
:1002700020ED2093F805439690930F0380930E038F
:1002800023E12093F4052093F5054097089526EF88
:1002900035E03093F3052093F20590931303809398
:1002A00012032D5F3F4F30930F0320930E0393E013
:1002B0009093F60580EF8093F7058DED8093F80518
:1002C0009093F4059093F50508959C01805B904F01
:1002D0000F97F0F480EF603B7807D0F080EF6F3B32
:1002E0007807B0F4E0910E03F0910F038BEF808359
:1002F000862F805B922F9295907F890F8183329613
:10030000F0930F03E0930E038091F4058E5F12C00B
:10031000E0910E03F0910F0388EF808331832283F5
:10032000738364833596F0930F03E0930E038091FB
:10033000F4058B5F8093F405E0910E03F0910F03B9
:10034000F0931103E0931003CB01820F931F91836D
:1003500080838217930718F08617970718F4019681
:10036000918380833296F0930F03E0930E03809184
:10037000F4058E5F8093F4058093F50508958091D0
:100380000E0390910F03089520910E0330910F03F7
:10039000280F311D30930F0320930E039091F50524
:1003A000980F9093F50508957F928F929F92AF9248
:1003B000BF92CF92DF92EF92FF920F931F93CF9352
:1003C000DF937090F40580900E0390900F03A0913E
:1003D000F205B091F3051396B0930F03A0930E03AB
:1003E00013971092F40511968C911197682F70E075
:1003F00086FD10C087FD07C01796B0930F03A0932A
:100400000E0317970FC01696B0930F03A0930E0319
:10041000169708C087FD06C01496B0930F03A093EB
:100420000E03149765FF05C029E130E040E050E07D
:100430000DC0E0910E03F0910F038191282F30E061
:1004400040E050E0F0930F03E0930E0312968C917E
:10045000C82FD0E0809184079091850792605C015D
:10046000CC24DD24CE0180739070B4E095958795FF
:10047000BA95E1F7FC01EE0FFF1FE80FF91FE451F9
:10048000FA4F808191817C0100E010E08091860725
:1004900090918707A0E0B0E0E80EF91E0A1F1B1F2D
:1004A0008FEF9EEFA0E0B0E0E80EF91E0A1F1B1FC1
:1004B000EA0CFB1C0C1D1D1DE20EF31E041F151F74
:1004C00068717070672B49F480910E0390910F034F
:1004D000019690930F0380930E03CE018C70907061
:1004E0008430910509F45FC08530910524F4892B8F
:1004F00009F482C097C088309105D1F00C9709F0BB
:1005000091C0CE0183709070FC01EE0FFF1FE80FC9
:10051000F91FE451FA4F80819181A0E0B0E0815051
:100520009140AF4FBF4F8A0D9B1DAC1DBD1D36C006
:10053000E0910E03F0910F034081218147FD20C01F
:1005400030E0942F80E0282B392B442737FD40954D
:10055000542FCE0183709070FC01EE0FFF1FE80F47
:10056000F91FE451FA4F80819181A0E0B0E0280F9B
:10057000391F4A1F5B1FE20EF31E041F151F52C0D6
:10058000822F90E0A0E0B0E080509140AF4FBF4F8D
:1005900046954F70840F911DA11DB11DE80EF91EE7
:1005A0000A1F1B1F3FC0CE0183709070FC01EE0F2D
:1005B000FF1FE80FF91FE451FA4F80819181A0E0FD
:1005C000B0E0E80EF91E0A1F1B1FE0910E03F09128
:1005D0000F0340E0308120E08181D901A80FB11DD7
:1005E000CD01A0E0B0E0E80EF91E0A1F1B1F4E5F10
:1005F0003296483079F716C0E0910E03F0910F0360
:1006000040E0308120E08181B901680F711DCB018C
:10061000A0E0B0E0E80EF91E0A1F1B1F4E5F3296E5
:10062000403179F790920F0380920E037092F40597
:100630008091F50590E0871991099C01442737FDC9
:100640004095542F2E0D3F1D401F511F08C0CA0159
:10065000AA27BB27820F931F9C0140E050E0DA01DC
:10066000C901807090700097A105B10581F7C9019B
:10067000DF91CF911F910F91FF90EF90DF90CF907E
:10068000BF90AF909F908F907F9008959C014150B4
:100690005040460F571FFB010EC0708160E0818102
:1006A000DB01A80FB11D2A0F3B1F2A173B0710F4CF
:1006B0002F5F3F4F3296E417F50778F3E417F507FD
:1006C00049F4908180E0280F391F2817390710F46A
:1006D0002F5F3F4FC9010895FC0180818F3FB9F51D
:1006E0008091F405282F30E02C5F3F4F8091F50575
:1006F000A82FB0E04CE025C0FB01EA50FA4F9181F1
:10070000992329F180818330C1F4BF01605F7F4F5D
:1007100040E150E080E090E00E9446039C0180911F
:10072000F1058823A1F43093F0052093EF0581E0D3
:100730008093F105809300010895990F990F990F07
:10074000490FB901640F711D6A177B07ACF2089558
:100750000F931F9306EF15E01093F3050093F20536
:1007600083E08093F6058AE38093F90588ED809312
:10077000F70588EC8093F80584EA8093FA0582E017
:100780008093FB05D8011696B0930F03A0930E0338
:1007900086E08093F40585E88093FC0511961C9211
:1007A0001197109200061092010610920206109204
:1007B000030686E18093F505F8013E96F0930D035C
:1007C000E0930C0381E08093040681838091870786
:1007D0008283809186078383148215821682178212
:1007E00013961C921E9212970E94D4012091F40538
:1007F0004091F50550E030E0421B530B6091F2054B
:100800007091F305620F731F0E9446032091F40557
:10081000F801E20FF11D382F292F209530953383F1
:1008200022830E943C1EA8016091F50580E090E0C3
:100830000E9479141F910F910895DF92EF92FF9219
:100840000F931F93CF93DF93809100018F3F19F493
:100850000E94A80356C00E94D401C0911003D091F9
:1008600011032881398140E050E0D090F405609177
:10087000F505E62FF0E0ED19F10938967F01002724
:10088000F7FC0095102F3897E20EF31E041F151F7A
:10089000A0E0B0E0E80EF91E0A1F1B1F08C0C80147
:1008A000AA27BB278E0D9F1D7C0100E010E0D80118
:1008B000C701807090700097A105B10581F7609124
:1008C000F2057091F3056D0D711DAF01C7010E9416
:1008D0004603382F292F2095309539832883232BE1
:1008E00021F48FEF9FEF998388830E943C1E46EF8F
:1008F00055E06091F50580911203909113030E94D9
:100900007914DF91CF911F910F91FF90EF90DF90BD
:100910000895809100018F3F19F40E94A803089563
:100920000E94D4012091F4054091F50550E030E09B
:10093000421B530B6091F2057091F305620F731F18
:100940000E9446032091F405E22FF0E0EA50FA4FAE
:10095000382F292F2095309533832283232B21F4A0
:100960008FEF9FEF938382830E943C1E46EF55E0FA
:100970006091F50580E090E00E9479140895CF938E
:10098000DF93FC0186EF95E09093F3058093F205E9
:1009900023E02093F6051092F8052AE32093F90549
:1009A000049690930F0380930E0388ED8093F705D0
:1009B00086818295807F806C8093F8059481982B46
:1009C0009093F8058581982B9093F80592859093E4
:1009D000F405E92FF0E0EF01CA50DA4F88E8888388
:1009E0001982DF01A650BA4F11961C9211971296E8
:1009F0001C92129713961C921397662319F080E4A9
:100A00008C9301C01C92905E9093F505E25FF94FC4
:100A1000F0930D03E0930C0382E0808381E08183F7
:100A20008091870782838091860783831482158251
:100A3000168217821B821A820E94D4012091F4052B
:100A40004091F50550E030E0421B530B6091F205F8
:100A50007091F305620F731F0E944603E091F40545
:100A6000F0E0EA50FA4F382F292F20953095338344
:100A700022830E943C1E46EF55E06091F50580E020
:100A800090E00E947914DF91CF910895CF92DF9288
:100A9000EF92FF920F93DF93CF93CDB7DEB72B97F3
:100AA0000FB6F894DEBF0FBECDBF26EF35E0309312
:100AB000F3052093F2051092F4052D5F3F4F30931C
:100AC0000F0320930E03235030408091F6058330AE
:100AD00009F0B1C18091F8058C708C3009F0ABC180
:100AE0008091F705982F86FD08C087FD03C0295F18
:100AF0003F4F07C02A5F3F4F04C087FD06C02C5FF1
:100B00003F4F30930F0320930E0395FF03C081E105
:100B10008C830AC0E0910E03F0910F0381918C83C6
:100B2000F0930F03E0930E0320910E0330910F0317
:100B30002A833B838091F70590E08871907088301C
:100B4000910561F0893091051CF4892B71F014C076
:100B50008031910529F0489779F405C081E001C002
:100B600080E4898309C08FEFFCCFF90181918983EB
:100B7000F0930F03E0930E038091F805282F237064
:100B80002D8390E09C01207C307074E03595279592
:100B90007A95E1F728878073907064E09595879542
:100BA0006A95E1F78F83E0910E03F0910F03FA87C6
:100BB000E987243051F0283019F0222341F00CC08D
:100BC000808187FD38C1329603C0389601C0709687
:100BD000F0930F03E0930E03E0910E0386EF95E090
:100BE000E81BE093F405EB878C818A3309F06CC035
:100BF000F0E0EA50FA4F80818038D1F56AE77EE173
:100C00008AE090E00E94430D1092F405E091F20515
:100C1000F091F3058181887111F480E484838091DF
:100C2000F405E091F205F091F305E80FF11D9D81C7
:100C30009295907F906C92838F812885822B892B4F
:100C40008283EB85E093F405F0E0EA50FA4F81E807
:100C50008083828193810197938382830E943C1ECB
:100C600046EF55E06091F50580E090E00E94791430
:100C7000E091F405F0E0EA50FA4F8081813839F4D0
:100C8000E0910E03F0910F0387810E94FD0CE0912B
:100C9000F405F0E0EA50FA4F8081863821F4CE0165
:100CA00001960E946C03E091F405F0E0EA50FA4FDF
:100CB0008081873849F48F818D8388858E8361E0B8
:100CC000CE0101960E94BF048C81813109F0B3C02E
:100CD000E0900E03F0900F03F70180818B3F41F508
:100CE00097012F5F3F4F30930F0320930E038181B5
:100CF000482F42954F70C42EDD2460EB70EFC60E76
:100D0000D71E90E0BC016F70707060557F4054E05A
:100D1000880F991F5A95E1F7482B41832F5F3F4F6A
:100D200030930F0320930E038091F4058E5F21C052
:100D3000883F09F080C0D7011196F701D180119644
:100D4000CC901197C70103967381FC016181F70173
:100D5000718311966C93D382FC01C18285E090E08F
:100D6000E80EF91EF0920F03E0920E038091F40555
:100D70008B5F8093F405E0910E03F0910F03F093E5
:100D80001103E0931003CB018C0D9D1D9183808393
:100D90008C159D0518F08617970718F40196918316
:100DA0008083AF014E5F5F4F50930F0340930E035C
:100DB0008091F4058E5F8093F40501E7081B209174
:100DC000F505281B7E010894E11CF11CC6010E9458
:100DD0007209382F882379F18091F4058B8710925E
:100DE000F405E091F205F091F3059181892F887166
:100DF00029F4EA81FB8180E4808303C0977E9061BF
:100E000091838091F405E091F205F091F305E80FEC
:100E1000F11D9D819295907F906C92838F812885A2
:100E2000822B892B82838B858093F405830F80939B
:100E3000F5050E941D042B960FB6F894DEBF0FBE79
:100E4000CDBFCF91DF910F91FF90EF90DF90CF90CA
:100E50000895FF920F931F938C01F62E0E943C1E63
:100E600026EF35E0025F1F4F4F2D50E0B801C9015A
:100E70000E94752AF092F5050E9446051F910F9178
:100E8000FF90089580E89EEF9093ED058093EC0528
:100E900081E08093EE050E94391E089581E090E084
:100EA0009093F3018093F20108951F93109215031C
:100EB00080911603813019F40E94280107C08091A7
:100EC00017038F5F809317030E94F8009C01D901DC
:100ED000E3EAF1E080E101900D928150E1F7809129
:100EE00016038130C1F460EB70EF81EB90EF0E944C
:100EF0006501109118030E94BF0129EA33E0412FD8
:100F000050E0B9010E94752A809118030E94C40123
:100F10000E941D040EC00E94300DA0E0B0E080933E
:100F2000190390931A03A0931B03B0931C030E9410
:100F300089041F9108956F927F928F929F92AF9232
:100F4000BF92CF92DF92EF92FF920F931F9386E1B1
:100F50000E94421A88E00E94F119992787FD909516
:100F6000A92FB92FBC01CD010E94DE2620E030E080
:100F70004AE754E40E94D42520E030E04CE852E4F3
:100F80000E94A7256093D3017093D4018093D5016B
:100F90009093D60188E00E94F119992787FD9095DA
:100FA000A92FB92FBC01CD010E94DE2620E030E040
:100FB0004AE754E40E94D42520E030E048EE51E4B2
:100FC0000E94A7256093D7017093D8018093D9011F
:100FD0009093DA0188E00E94F119992787FD909596
:100FE000A92FB92FBC01CD010E94DE2620E030E000
:100FF0004AE754E40E94D42520E030E047E853E477
:101000000E94A7255B016C016093DB017093DC01FA
:101010008093DD019093DE01E090D301F090D40144
:101020000091D5011091D60123E333E34CE852E45B
:10103000C801B7010E947E2618162CF483E393E3BF
:10104000ACE8B2E40EC02DEC3CEC4BE852E4C80135
:10105000B7010E94AE26882364F48DEC9CECABE8CB
:10106000B2E48093D3019093D401A093D501B093BF
:10107000D601E090D701F090D8010091D9011091EC
:10108000DA0128E431EE48EE51E4C801B7010E94CC
:101090007E2618162CF488E491EEA8EEB1E40EC07A
:1010A0002AE939E947EE51E4C801B7010E94AE26AA
:1010B000882364F48AE999E9A7EEB1E48093D70123
:1010C0009093D801A093D901B093DA012DEC3CE0C4
:1010D00047E853E4C601B5010E947E2618162CF499
:1010E0008DEC9CE0A7E8B3E40EC023E333EF46E8C1
:1010F00053E4C601B5010E94AE26882364F483E35D
:1011000093EFA6E8B3E48093DB019093DC01A09316
:10111000DD01B093DE011092F4030E942801DC018E
:10112000E3ECF1E080E101900D928150E1F760EB9A
:1011300070EF81EB90EF0E946501E090DB01F09091
:10114000DC010091DD011091DE01A090D701B0908B
:10115000D801C090D901D090DA016090D30170908D
:10116000D4018090D5019090D6010E94BF011F93B9
:101170000F93FF92EF92DF92CF92BF92AF929F9226
:101180008F927F926F9221E031E03F932F939F9354
:101190008F930E94F42A0E94C4010E941D048DB7FF
:1011A0009EB740960FB6F8949EBF0FBE8DBF1F919D
:1011B0000F91FF90EF90DF90CF90BF90AF909F90F6
:1011C0008F907F906F900895DF92EF92FF920F9330
:1011D0001F93FC01009789F480E090E0A1E0B0E06B
:1011E00080939F039093A003A093A103B093A203C5
:1011F00010929E0310929D036FC0E0909F03F090A9
:10120000A0030091A1031091A203DD24603411F02A
:10121000DD24D39420919D0330919E03D901A35ED8
:10122000BC4F962F03C081918D9391509923D9F78C
:10123000C901860F911D90939E0380939D03803872
:10124000910518F4DD2009F447C0D801C701805882
:101250009F4FAF4FBF4F80509F4FA140B04020F5F0
:101260004DE153E0C801B7010E949EFE20919D030D
:1012700030919E0340E050E080919F039091A00345
:10128000A091A103B091A203820F931FA41FB51FC9
:1012900080939F039093A003A093A103B093A20314
:1012A00010929E0310929D03DD20B1F080919F0368
:1012B0009091A003A091A103B091A2038093C907CC
:1012C0009093CA07A093CB07B093CC0760E07EEF62
:1012D00084E690E00E94430D1F910F91FF90EF90E4
:1012E000DF9008953F924F925F926F927F928F921C
:1012F0009F92AF92BF92CF92DF92EF92FF920F93A5
:101300001F93DF93CF93CDB7DEB7A8970FB6F894AE
:10131000DEBF0FBECDBF7A01722E40EF603B740777
:1013200009F0FDC0570100E04E010894811C911C9A
:1013300091E4392E66246A948AE1482E81E0582E81
:10134000E2C0D5012C91213409F487C0223438F44D
:101350002A3009F4BFC02D3009F0C2C0BBC02C3404
:1013600069F1243521F0283409F0BAC04FC0F401E6
:10137000E00FF11D2083102F1F5F8091D30190910A
:10138000D401A091D501B091D601BF93AF939F93A3
:101390008F935F924F92C401810F911D9F938F9302
:1013A0000E94F42A012F080F6501EDB7FEB73896A9
:1013B0000FB6F894FEBF0FBEEDBFA0C0F401E00F62
:1013C000F11D2083102F1F5F8091DB019091DC01C4
:1013D000A091DD01B091DE01BF93AF939F938F93F6
:1013E0005F924F92C401810F911D9F938F930E9432
:1013F000F42A012F080F65014DB75EB7485F5F4FB4
:101400000FB6F8945EBF0FBE4DBF78C0F401E00F79
:10141000F11D2083102F1F5F8091D7019091D8017B
:10142000A091D901B091DA01BF93AF939F938F93AD
:101430005F924F92C401810F911D9F938F930E94E1
:10144000F42A012F080F65018DB79EB708960FB6D5
:10145000F8949EBF0FBE8DBF51C065010894C11C9A
:10146000D11CD50111968C918D3011F08A3061F428
:10147000F401E00FF11D3082902F9F5FF401E90F1E
:10148000F11D8091DF0137C07A94813329F4809374
:10149000DF0140E251E006C0803349F48093DF0170
:1014A00042E251E061E084EC0E94561D27C0F40145
:1014B000E00FF11D6082902F9F5FF401E90FF11D95
:1014C00020839F5FF401E90FF11DD6018C91808389
:1014D0000D5F14C0F401E00FF11D20830F5F0DC0FC
:1014E000F401E00FF11D6082902F9F5FF401E90F7E
:1014F000F11DD5018C9180830E5F65017A945601B0
:101500000894A11CB11C772009F01BCF402F50E09C
:10151000BE016F5F7F4FC7010E94752A55C2B0EFB1
:10152000613B7B07B9F42BED33E0472D50E0B70169
:10153000C9010E94752A709215030E94300DA0E027
:10154000B0E08093A3039093A403A093A503B0936A
:10155000A60339C2E0EF623B7E0709F03BC1D70129
:101560008C91873409F4E8C0883450F4833409F44A
:101570001AC1843409F453C0823409F024C1A6C0CE
:10158000833539F0873709F415C1883409F01BC158
:101590000DC1B7E2B21708F054C001ED11E01F937E
:1015A0000F93025010401F930F93025010401F934F
:1015B0000F93025010401F930F93025010401F933F
:1015C0000F93025010401F930F93025010401F932F
:1015D0000F93025010401F930F9383E391E09F936A
:1015E0008F930894E11CF11CFF92EF920894E1089C
:1015F000F1080E94172BF8014DB75EB74C5E5F4FA4
:101600000FB6F8945EBF0FBE4DBF9181808181837C
:101610009083329651E0E33DF507B9F7F7C0D70163
:1016200011968C91833751F4A3EAB1E0E3ECF1E039
:1016300080E101900D928150E1F7E8C0B7E2B21766
:1016400018F064E271E0BAC101EB11E01F930F934F
:10165000025010401F930F93025010401F930F939E
:10166000025010401F930F93025010401F930F938E
:10167000025010401F930F93025010401F930F937E
:10168000025010401F930F9383E391E09F938F9339
:101690000894E11CF11CFF92EF920894E108F10814
:1016A0000E94172BF8014DB75EB74C5E5F4F0FB627
:1016B000F8945EBF0FBE4DBF91818081818390837E
:1016C000329651E0E33BF507B9F7A0C0D701119678
:1016D0008C91803571F1833509F075C0422F4250ED
:1016E0004093180329EA33E0C701029650E0BC0199
:1016F000C9010E94752AF701E70DF11D229131966B
:101700002A3099F4329780818D3079F090911803C6
:10171000E92FF0E0DF01A855BC4F8DE08C93E75531
:10172000FC4F20839F5F9093180381E08093160302
:101730006DC0109216036AC080911503882331F49E
:101740006FE571E0C7010E947E2A00C18091A3036A
:101750009091A403A091A503B091A603BF93AF936A
:101760009F938F938DE691E09F938F93FF92EF92DB
:101770000E94F42A182F9701280F311D409115035C
:101780008BED93E050E0BC01C9010E94752A0091E5
:101790001503010FEDB7FEB738960FB6F894FEBFEC
:1017A0000FBEEDBF11C11092150330C081E08093D0
:1017B00014032CC01092910765E771E0C7010E94E5
:1017C0007E2A07E001C16DE471E0C7010E947E2A14
:1017D00001E1FAC0F0EF633B7F07F1F4F70190E01D
:1017E00004C09F5F31969C3019F080818A30C9F720
:1017F000F701E90FF11D1082D7010D900020E9F7E4
:10180000AE19A7016A2F82EC0E94561D6DE771E0A8
:10181000C7010E947E2ABEC040EF643B740711F4EA
:10182000022FD2C06534710509F0C6C0D7018C9172
:10183000882309F0C8C011968C91823009F088C0C5
:1018400097012E5F3F4FD90101C0DF01FD0181915A
:101850008823D9F780818F3609F0B5C0818183361E
:1018600009F0B1C08281843709F0ADC0838185362B
:1018700009F0A9C08481843709F0A5C08581882337
:1018800009F0A1C0FD01379617968C91823609F0B8
:101890009AC081818C3609F096C082818B3609F01E
:1018A00092C01381133709F08EC07481793609F024
:1018B0008AC065816A3709F086C05681553609F0BD
:1018C00082C08781882309F07EC04085463309F0B5
:1018D0007AC09185943309F076C08285882309F017
:1018E00072C0F701108286E0818382E68283F9016B
:1018F00031968CE6D90111968C93DF0111968BE617
:101900008183FD01319611961C93DF01119671833D
:10191000FD01319611966C93DF0111965183FD0103
:10192000319611961C92DF011196418311969C937A
:10193000119712961C9260E080E090E00E94E4080B
:1019400081E090E09093A8038093A7030DE03CC052
:101950008330C9F5F7012381928180E0AC01420F09
:10196000511D8091A7039091A80348175907A1F42E
:1019700084E081838091A7039091A80301969093BE
:10198000A8038093A7035CEF750E672DC70104962B
:101990000E94E40804E018C04817590728F484E0BE
:1019A000D70111968C93F6CF85E0F70181831282DF
:1019B0001382148205E008C062E871E0C7010E944A
:1019C0007E2A0EE001C000E0802FA8960FB6F894A2
:1019D000DEBF0FBECDBFCF91DF911F910F91FF9062
:1019E000EF90DF90CF90BF90AF909F908F907F90BF
:1019F0006F905F904F903F9008950E94300DA0E04F
:101A0000B0E08093A3039093A403A093A503B093A5
:101A1000A6032091190330911A0340911B035091A2
:101A20001C03821B930BA40BB50BBF93AF939F9327
:101A30008F9381E991E09F938F938BED93E09F9338
:101A40008F930E94F42A809315030E94C41F8DB7C0
:101A50009EB708960FB6F8949EBF0FBE8DBF08952F
:101A6000DF93CF930F92CDB7DEB78FB78983F8940A
:101A7000209138043091390489818FBFC9010F90BA
:101A8000CF91DF910895DF93CF930F92CDB7DEB75B
:101A9000AC01009719F4FB01099530C08FB7898319
:101AA000F894A7EFB3E0E0E08D919C911197892B1A
:101AB00009F52E2F30E0F901EE0FFF1FEE0FFF1F8B
:101AC000E20FF31FE950FC4FCA014115510511F413
:101AD00081E090E091838083F901EE0FFF1FEE0F0C
:101AE000FF1FE20FF31FE950FC4F74836383909153
:101AF000F50334C0EF5F1596EA30B1F690E03DC0D3
:101B000091E0E9EFF3E041E08081891709F440E0DA
:101B1000359684E0EB32F807B9F780912B048917EA
:101B200009F440E080913004891709F440E0809185
:101B30003504891799F0442389F09093F503F9014E
:101B4000EE0FFF1FEE0FFF1FE20FF31FE950FC4FD8
:101B500092838091F603882321F00DC09F5F89F660
:101B6000CFCF109295001092940082E08093710084
:101B700081E08093F60389818FBF892F0F90CF91E9
:101B8000DF910895DF93CF930F92CDB7DEB7AC010D
:101B9000009719F4FB01099516C0809129049091D2
:101BA0002A04892B11F4E0E011C080912E04909159
:101BB0002F04892B11F4E1E009C080913304909146
:101BC0003404892B11F090E050C0E2E02E2F30E079
:101BD000F901EE0FFF1FEE0FFF1FE20FF31FE75D8E
:101BE000FB4F51834083748363839091F5039F5F20
:101BF00009F491E0E9EFF3E041E08081891709F40D
:101C000040E0359684E0EB32F807B9F780912B0479
:101C1000891709F440E080913004891709F440E005
:101C200080913504891719F3442309F39093F50340
:101C3000F901EE0FFF1FEE0FFF1FE20FF31FE75D2D
:101C4000FB4F92838FB78983F8948091F6038823A2
:101C500051F4109295001092940082E080937100EC
:101C600081E08093F60389818FBF892F0F90CF91F8
:101C7000DF910895982FE9EFF3E020E030E08081D4
:101C8000891769F4F901EE0FFF1FEE0FFF1FE20F36
:101C9000F31FE950FC4F11821082128208952F5FCA
:101CA0003F4F35962A30310551F780912B04891723
:101CB00019F480E090E00DC080913004891719F488
:101CC00081E090E006C080913504891771F482E0CC
:101CD00090E0FC01EE0FFF1FEE0FFF1FE80FF91F52
:101CE000E75DFB4F11821082128208951F920F92BE
:101CF0000FB60F920BB60F921124DF92EF92FF9264
:101D00000F931F932F933F934F935F936F937F9303
:101D10008F939F93AF93BF93EF93FF93DF93CF93F3
:101D200000D00F92CDB7DEB780913804909139047E
:101D3000019690933904809338048091E00190914A
:101D4000E10101979093E1018093E001892B49F033
:101D500007EF13E066E1D62E7E010894E11CF11C2A
:101D600027C088EE93E09093E1018093E00109E2BF
:101D700014E056E1D52E7E010894E11CF11CF80117
:101D800080819181009769F0019791838083892BED
:101D900041F4D982838194819B838A83C7010E9405
:101DA000AA140B5F1F4FF4E008331F0741F7D0CF91
:101DB000F80180819181009769F001979183808378
:101DC000892B41F4D982838194819B838A83C701C3
:101DD0000E94AA140B5F1F4FF4E009321F0741F75E
:101DE0000F900F900F90CF91DF91FF91EF91BF91E6
:101DF000AF919F918F917F916F915F914F913F91A3
:101E00002F911F910F91FF90EF90DF900F900BBEDD
:101E10000F900FBE0F901F901895E1E9F0E08081C0
:101E20008A60808388EE93E0909399008093980075
:101E300080919400909195000E94872908959C01BB
:101E4000F999FECF32BD21BDF89A80B508959C0165
:101E5000F999FECF1FBA32BD21BD60BD0FB6F8940F
:101E6000FA9AF99A0FBE089584B1806A84B92F9ABC
:101E7000249A2C9A80E58CBD81E08DBD0895239A2B
:101E8000219A84B1806A84B92F9A249A2C9A80E589
:101E90008CBD81E08DBDEFE6F0E0808180628083C3
:101EA00083E480938100B59A0895DF93CF930F92D6
:101EB000CDB7DEB780689FB79983F8942C988EBD14
:101EC0000DB407FEFDCF8EB58EBD0DB407FEFDCF60
:101ED0008EB52C9A99819FBF0F90CF91DF91089575
:101EE000DF93CF930F92CDB7DEB7982F906C8FB75B
:101EF0008983F8942C989EBD0DB407FEFDCF8EB556
:101F00006EBD0DB407FEFDCF8EB52C9A89818FBFB3
:101F10009F73923059F46F71663011F0663121F47D
:101F200081E08093C80702C01092C8070F90CF913C
:101F3000DF910895FF920F931F93062FF42E0E94B6
:101F4000550F082310E002C015950795FA94E2F7A3
:101F5000802F1F910F91FF900895DF92EF92FF92D3
:101F60000F931F93D82EF62EE42E022F0E94550FAA
:101F70006F2D6095682310E002C0000F111FEA94D6
:101F8000E2F7F0226F298D2D0E94700F1F910F91A3
:101F9000FF90EF90DF900895DF93CF930F92CDB72E
:101FA000DEB78FB78983F8942C9880E28EBD0DB48C
:101FB00007FEFDCF8EB58EBD0DB407FEFDCF9EB5DD
:101FC000892F83508D37A8F4909375069EBD0DB46C
:101FD00007FEFDCFE6E7F6E08EB51EBC81930DB49B
:101FE00007FEFDCF9150C1F78EB58093F5062C9A70
:101FF00007C02C9A109275061092F5061092F606FC
:1020000089818FBF0F90CF91DF910895DF93CF9398
:102010000F92CDB7DEB7FC016F778FB78983F89445
:102020002B9A2B982C9880E68EBD0DB407FEFDCF21
:102030008EB56EBD0DB407FEFDCF8EB581918EBD00
:1020400061500DB407FEFDCF8EB56623B9F72C9A0B
:1020500089818FBF0F90CF91DF910895DF93CF9348
:102060000F92CDB7DEB7982FFA018FB78983F89416
:102070002C981EBC0DB407FEFDCF8EB59EBD0DB4D1
:1020800007FEFDCF8EB51EBC0DB407FEFDCF8EB58D
:102090008083615011F03196F6CF2C9A89818FBFE1
:1020A0000F90CF91DF910895DF93CF930F92CDB72B
:1020B000DEB7982FFA018FB78983F8942C9880E4C3
:1020C0008EBD0DB407FEFDCF8EB59EBD0DB407FECF
:1020D000FDCF8EB581918EBD0DB407FEFDCF8EB5BF
:1020E0006150C1F72C9A89818FBF0F90CF91DF91FA
:1020F00008950895DF93CF930F92CDB7DEB7E62F03
:10210000BA012FB72983F89427E23FE04E2F50E021
:102110000E94AC2A89818FBF0F90CF91DF910895E3
:10212000DF93CF930F92CDB7DEB7FC01CA012FB773
:102130002983F8942FE13FE0462F50E0BF010E9431
:10214000902A89818FBF0F90CF91DF910895DF9200
:10215000EF92FF920F931F93DF93CF9300D0CDB7F1
:10216000DEB780913A04882311F011E05CC081E071
:1021700080933A04D0906600F89461E00E9475194B
:10218000E090B100F0908100009180001092B100C9
:10219000109281001092800020E030E063E056E071
:1021A0004FEF6093B100509381001092B2001092F3
:1021B00085001092840046BB47BBB89BFECF809140
:1021C0008400909185009A838983109281001092F7
:1021D000B10089819A818A5F934020F480916600E2
:1021E00081500AC089819A818650944010F411E090
:1021F0000CC0809166008F5F809366002F5F3F4F19
:1022000083E0283E380769F610E060E081E00E9434
:102210007519E092B100F0928100009380001123C3
:1022200011F4D0926600812F0F900F90CF91DF9123
:102230001F910F91FF90EF90DF9008951F920F92E2
:102240000FB60F920BB60F9211240F931F932F937B
:102250003F934F935F936F937F938F939F93AF932E
:10226000BF93EF93FF938FE00E94550F082F182F15
:1022700083FF02C00E94D51A14FF02C00E94D41727
:1022800012FF10C02C9880E28EBD0DB407FEFDCF6A
:102290008EB51EBC0DB407FEFDCF8EB52C9A0E94E4
:1022A00016190AC007FF08C08EE00E94550F8F77ED
:1022B000682F8EE00E94700FFF91EF91BF91AF9158
:1022C0009F918F917F916F915F914F913F912F914E
:1022D0001F910F910F900BBE0F900FBE0F901F908C
:1022E000189580938D070E94B41908951F93182F95
:1022F0008FEF9FEF909385078093840790938707D4
:1023000080938607109281079093890780938807AE
:1023100090938B0780938A0710928C0710929007F6
:1023200081E0809391070E94801B10938D071F3FCF
:1023300019F0812F0E94B41981E00E942A1A88E0C6
:102340000E94421A0E94DA1821E042E064E087E12C
:102350000E94AD0F86E10E94421A49E757E068E00B
:1023600080E090E00E94901080E00E9448198FEF7A
:102370009FEF0E9430198FEF9FEF0E943C1922E0DF
:1023800044E060EF8CE20E94AD0F89E797E00E9485
:1023900020190E941C121F910895089580E090E07A
:1023A000089580E008958FEF9FEF08959C010097B6
:1023B00071F0EEE3F4E0808191818217930711F4CC
:1023C00081E00895339684E0E43DF807A1F780E0CA
:1023D000089580E00895AC01EEE3F4E020E030E001
:1023E000808191818417950751F4F901EE0FFF1F49
:1023F000E20FF31FE25CFB4F1182108208952F5F02
:102400003F4F33962233310559F7089580E090E02D
:10241000089580E090E0089580E090E0089580E0E5
:1024200090E0089508950895089580E090E008955B
:10243000089580E090E00895089508950895FC01BE
:1024400085858F778587089510923D0410923C040E
:10245000EEE3F4E020E030E00EC080819181A9013C
:102460004F5F5F4F3396892B29F030933D042093C3
:102470003C040AC09A012233310578F330933D04BD
:1024800020933C0420E030E0C901089520913C04F1
:1024900030913D04F901EE0FFF1FE20FF31FE25CE4
:1024A000FB4F0EC080819181A9014F5F5F4F339632
:1024B000892B29F030933D0420933C040AC09A01F3
:1024C0002233310578F330933D0420933C0420E01F
:1024D00030E0C901089521E0880F991FFC0133E025
:1024E000EE0FFF1F3A95E1F7E81BF90BE45CFB4F99
:1024F0008081882331F081859285009719F02F5FC4
:10250000EBCF20E0822F0895AC01AEE3B4E0FD01F3
:1025100020E030E0808191818417950759F4F9011A
:10252000EE0FFF1FE20FF31FE05CFB4F80818C7FFB
:10253000808308952F5F3F4F33962233310551F743
:1025400020E030E08D919C911197892BA1F4F90145
:10255000EE0FFF1FE20FF31FDF01A25CBB4F4D9395
:102560005C93E05CFB4F80818C7F8083822F90E0C6
:102570000E943F1F08952F5F3F4F1396223331056E
:1025800009F7089580913B040E943A0E80918107DB
:1025900091E089270E9402200895CF93DF93EC01F8
:1025A000862F0E94711183E698EC9093F906809330
:1025B000F806809183078093FA068F5F80938307E4
:1025C00080918407909185079093FC068093FB0689
:1025D000D093FE06C093FD06AFEFB6E0E9E7F7E063
:1025E00088E001900D928150E1F781E08093070728
:1025F000D0930907C093080782E080930A0768EF29
:1026000076E083E10E94AE1A62EC72E188EE93E01C
:102610000E94430D80933B04DF91CF91089580E0A9
:1026200090E89093F9068093F80680918207809352
:10263000FA068F5F809382078091840790918507C7
:102640009093FC068093FB06809186079091870704
:102650009093FE068093FD068FEF90E09093000725
:102660008093FF0686E08093010780918C0780931A
:10267000020768EF76E08BE00E94AE1A0895089595
:102680000895DF93CF93CDB7DEB760970FB6F89478
:10269000DEBF0FBECDBF81E698E89A838983809123
:1026A00083078B838F5F809383078091840790914A
:1026B00085079D838C8380918607909187079987F2
:1026C00088879D878C878091D4049091D5049B87BF
:1026D0008A878091D6048E870E94CA188F870E94AD
:1026E000CD18888B80918807909189079F838E836E
:1026F000BE016F5F7F4F80E10E94AE1A60960FB6F9
:10270000F894DEBF0FBECDBFCF91DF910895282F83
:1027100080918607909187076817790789F08091E3
:102720008107882369F07093D5046093D4042093C3
:10273000D6041092D7040E94411381E08093900741
:10274000089568EF76E08091F7060E94AE1A08952A
:102750008091830690E08F7790708330910571F1BE
:102760008430910534F48130910561F00297D9F5F8
:102770001EC08530910581F18530910534F10697B1
:1027800091F503C00E94461F089540918406209150
:102790007D0630917E0680918807909189072817E1
:1027A000390709F5842F90E00E941D120895809149
:1027B0008106909182060E94E41F0895809181060F
:1027C000909182060E94CB1F08958091840690917B
:1027D00085060E94EB11089560917506605186E7A9
:1027E00096E00E9429070895EF92FF920F931F939E
:1027F000CF93DF93EC01062F7A01122F20918607E9
:10280000309187078217930709F46CC08FEFCF3F91
:10281000D80709F467C080918107882309F462C052
:1028200081E698E89093F9068093F80680918307F3
:102830008093FA068F5F809383078091840790913D
:1028400085079093FC068093FB0630930007209346
:10285000FF06D0930207C09301073093040720932B
:102860000307CE010E94B715163029F4D093FE0657
:10287000C093FD0608C080918807909189079093C6
:10288000FE068093FD061093050790E009C0E92F2E
:10289000F0E0E850F94FD7018D917D0186879F5F69
:1028A0009017A8F32091FD063091FE0680918607CF
:1028B0009091870728173907A9F02F5F3F4F91F0B4
:1028C000025F0093F7061650123018F087E090E090
:1028D00002C080E090E061EA73E10E94430D81E074
:1028E00080939007DF91CF911F910F91FF90EF9010
:1028F000089525E00E94F4130895DF93CF9300D04C
:10290000CDB7DEB77A83698326E0AE014F5F5F4FB4
:1029100062E00E94F4130F900F90CF91DF91089521
:1029200021E00E94F4130895DC010D900020E9F7E6
:10293000A81B27E0AC016A2F80E090E00E94F4130E
:102940000895909192078091930720E0981321E0D9
:10295000822F08950F931F93182F092F80919207AC
:102960002091930790E001966AE070E00E949E2E0D
:1029700030E082179307D9F040919207842F90E0BE
:10298000FC01EE0FFF1FE80FF91FEC56F84F212F47
:10299000302FC901DC0183E00D9001928150E1F7F5
:1029A000842F8F5F8A3008F080E0809392071F9118
:1029B0000F910895DF93CF930F92CDB7DEB780913B
:1029C00093078983998189818F5F898389818A307F
:1029D00008F0198289818093930723E0929F9001E8
:1029E00011242C56384FC9010F90CF91DF910895D3
:1029F0000F931F93DF93CF930F92CDB7DEB703E012
:102A000011E0A7C08091930789838981809FF0019D
:102A10001124EC56F84F89818F5F898389818A3030
:102A200008F019828981809393078081843119F19C
:102A3000853180F4813109F48AC0823120F48031FB
:102A400009F087C025C0823109F47EC0833109F0C6
:102A500080C077C0873109F441C0883130F48531B6
:102A600089F1863109F075C00EC08831F1F18931E4
:102A700009F06FC05FC080918107882309F069C0A9
:102A80000E94291866C00180F281E02D099561C07D
:102A900080918107882309F45CC086E796E00E9454
:102AA0001F1220917F0630918006809186079091B9
:102AB00087072817390719F40E94A8134AC00E94F3
:102AC000B91547C080918107882309F442C06FE09F
:102AD00073E181E090E00E94430D3BC0809181074B
:102AE0008823B9F10E94301634C080917606909107
:102AF000770683569C48B9F410938107809183062A
:102B00009091840690938907809388078091860628
:102B10009091870690938707809386070E943019CB
:102B20000E94C21216C080918107882391F00E94F2
:102B300037170FC080918107882359F00E94E4164F
:102B400008C00E947D1E05C00E943D2002C00E9458
:102B50007E209091920780919307981709F052CFA9
:102B60000F90CF91DF911F910F910895089580E00C
:102B70000895A7EFB6E0E5E7F6E082E801900D9250
:102B80008150E1F76AE77EE18AE090E00E94430D20
:102B900080910107909102070E94D611882319F1B4
:102BA000809183078093FA068F5F8093830720913B
:102BB0000107309102073093FE062093FD068091B5
:102BC000860790918707909300078093FF062F5FF9
:102BD0003F4F09F444C08091F70668EF76E08250D9
:102BE0000E94AE1A0895209188073091890780913C
:102BF000FF06909100078217930781F48091830765
:102C00008093FA068F5F8093830780918A07909163
:102C10008B079093FE068093FD060BC0809183077F
:102C20008093FA068F5F809383073093FE0620938C
:102C3000FD06809186079091870790930007809307
:102C4000FF068091FD069091FE068F5F9F4F39F041
:102C50008091F70668EF76E082500E94AE1A0895E0
:102C6000DF93CF93CDB7DEB765970FB6F894DEBF8D
:102C70000FBECDBF80917706883C09F043C083E644
:102C800098E89A838983809183078B838F5F8093F1
:102C9000830780918407909185079D838C83809121
:102CA0008807909189079F838E83809186079091F2
:102CB00087079987888781E08A8780918606909127
:102CC00087069C878B8780917D068D8780917E0605
:102CD0008E8780917F068F8780918006888B809178
:102CE0008106898B809182068A8B809183068B8BEB
:102CF000809184068C8B809188068D8BBE016F5FDE
:102D00007F4F56C083E698E89093F8068093F706C5
:102D1000809183078093F9068F5F8093830780916A
:102D20008407909185079093FB068093FA06809123
:102D30008807909189079093FD068093FC06809107
:102D40008607909187079093FF068093FE0681E0A7
:102D500080930007809180069091810690930207EE
:102D600080930107809182068093030780918306F8
:102D700080930407809184068093050780918506DF
:102D800080930607809186068093070780918706C7
:102D900080930807809188068093090780918906AF
:102DA00080930A0780918A0680930B0767EF76E08D
:102DB00085E10E94AE1A65960FB6F894DEBF0FBE8D
:102DC000CDBFCF91DF91089590917506A7EFB6E042
:102DD000E5E7F6E082E801900D928150E1F78091FD
:102DE0008107882309F442C0292F2C502695E1E061
:102DF000F0E0E21BF109EE0FFF1FF095E195FF4FA8
:102E0000EE5FF84F8081918190938B0780938A07C2
:102E1000223060F183E698E89093F9068093F806F3
:102E2000809183078093FA068F5F809383072150F8
:102E3000822F90E0FC01EE0FFF1FEE5FF84F208124
:102E400031813093FE062093FD0620918607309154
:102E50008707309300072093FF062BEB2093010791
:102E6000059668EF76E0880F0E94AE1A08950F93DA
:102E70001F93CF93DF9380918107882309F486C045
:102E80002091800630918106809186079091870776
:102E900007EF16E02817390709F049C083E69CE8D8
:102EA0009093F8068093F706809183078093F90644
:102EB0008F5F80938307809184079091850790931B
:102EC000FB068093FA06809182068093FC0680912F
:102ED00083068093FD06809184068093FE06809190
:102EE00085068093FF068091860680930007809177
:102EF000870680930107809188068093020780915E
:102F0000890680930307309305072093040782E026
:102F10008093060780918A0690918B06909308070C
:102F2000809307070E948412B80182E12DC0E80156
:102F30002196D801E5E7F6E082E801900D928150F4
:102F4000E1F7809183078A838F5F80938307809165
:102F50008A0790918B079E838D838091860790913D
:102F6000870798878F8380910207909103070E94BB
:102F7000D611882331F080910207909103079E8338
:102F80008D8368EF76E086E10E94AE1ADF91CF91E3
:102F90001F910F9108958091D80408958093E201C4
:102FA00008958091E2010895089508951F9310E017
:102FB0008091B7078F3FE1F011E08091B3079091C6
:102FC000B40790938507809384072091B5073091CB
:102FD000B60730938907209388070E943C19809197
:102FE000B7070E9471118091BB078F5F80938C0798
:102FF000812F0E94311F1F9108952091F506809125
:10300000770682958695869583708093B207809126
:10301000790690917A069093B4078093B3078091D4
:103020007B0690917C069093B6078093B5078091BC
:1030300080068093BB0780918D0781508093B707EE
:103040001092B8072093BC070E94CA188093BD074E
:1030500008951F934091F5068091D804882359F173
:103060002091B9073091BA0780917D0690917E0634
:103070009093BA078093B9078091BA0787FF05C07C
:103080003093BA072093B90716C08091BC07841704
:1030900080F0841781F49091BB0780918006891796
:1030A00040F0981741F41091BD070E94CA181817F4
:1030B00010F40E94FD171F91089590918D079F3F76
:1030C000A9F481E08093D80486E1E2EBF7E0DF0128
:1030D0001D928A95E9F79093B7078BE080938D074F
:1030E0008091E201803811F080938D0740918D0727
:1030F0004B3148F4242F30E08091E20190E00196BA
:103100002817390741F41092D8048FEF80938D0768
:103110000E94D6170895842F0E94711183E098E0D1
:103120009093F9068093F806809182078093FA06BF
:103130008F5F809382078FEF9FEF9093FC068093C1
:10314000FB069093FE068093FD0687E08093FF06C2
:1031500068EF76E088E00E94AE1A80918D078F5F5D
:1031600080938D076DE578E184E190E00E94430D46
:10317000089508950E94791080E090E00E94B41BA9
:103180000E940D0F0E94222078940E94841E0E94AB
:10319000F814FACF8091DA0408958091F506089525
:1031A00029982B988DE090E00197F1F7299A0895DE
:1031B00008950895089540E06FE181E00E949A0F1C
:1031C000089540E06FE181E00E949A0F282F81511D
:1031D000823058F0223049F0213039F080E090E020
:1031E0002E3129F481E090E0089581E090E0089587
:1031F000CF93DF93EC0140E06FE181E00E949A0FF2
:10320000863021F0813011F084E407C040E06FE1A6
:1032100086E00E949A0F888380E4DF91CF91089521
:1032200040E06FE188E00E949A0F089540E06FE16E
:1032300086E00E949A0F8093DA0410929007089516
:103240001F93CF93DF93EC0114E26991812F0E94C9
:10325000700F1F5F1C32C9F7DF91CF911F91089546
:103260001F93192F682F80E20E94700F612F81E257
:103270000E94700F1F9108951F93192F682F82E2EB
:103280000E94700F612F83E20E94700F1F910895BA
:10329000282F43E068E08EE20E94AD0F08952B983E
:1032A0008DE090E00197F1F723E040E06FE182E0EC
:1032B0000E94AD0F83E090E00197F1F708951B9B0A
:1032C00002C080E408950E944F198BE490E00197BA
:1032D000F1F740E06FE181E00E949A0F883011F031
:1032E00083E408952B9A80E408951F93162F663087
:1032F00010F082E411C0882311F421E001C020E025
:1033000043E068E083E00E94AD0F212F40E067E0DA
:1033100083E00E94AD0F80E41F9108951B9902C0C5
:1033200080E408952B9881EE96E00197F1F760E034
:1033300081E00E94751940E06FE181E00E949A0FE0
:10334000883071F383E40895282F803110F082E4EF
:1033500008951B9B02C084E4089540E06FE085E07F
:103360000E94AD0F80E408951F93182F8B50803179
:1033700010F082E428C01B9B02C084E424C040E01B
:103380006FE188E00E949A0F8117E1F0212F40E061
:103390006FE188E00E94AD0F40E06FE181E00E94A4
:1033A0009A0F863011F0893021F48DE291E0019777
:1033B000F1F740E06FE188E00E949A0F811711F069
:1033C00083E401C080E41F9108958091D90488238B
:1033D00029F48CE10E94550F8093D9048091D9047F
:1033E00008950F931F93DF93CF9300D0CDB7DEB72F
:1033F000082F198240E06FE181E00E949A0F182F98
:103400000E94E519833021F00E94E5198730C9F444
:10341000163019F4069510E010C0163191F4FACF69
:1034200045E060E686E00E949A0F8A8389819A814E
:10343000880F880F892B89831F5F101788F3898174
:1034400002C00E9482290F900F90CF91DF911F91AF
:103450000F9108951F93182F0E94E519823031F4BF
:10346000212F47E060E885E00E94AD0F0E94E5193A
:10347000833031F4212F45E060E284E00E94AD0FFB
:103480001F9108950F931F93182F883051F08630A5
:1034900041F0893031F0863121F0893111F082E438
:1034A0005AC01B9B02C084E456C00E94E1188823C6
:1034B000E1F70E94E519823039F40E94CB17882386
:1034C00019F0163109F416E040E06FE181E00E9446
:1034D0009A0F082F181709F43DC0183019F40E94EC
:1034E0004F192FC0193159F48930E1F029E040E03B
:1034F0006FE182E00E94AD0F063181F40CC01631FD
:1035000089F4893079F029E040E06FE182E00E949F
:10351000AD0F093119F483E090E002C089E691E033
:103520000197F1F7212F40E06FE182E00E94AD0F9B
:10353000083019F489E691E002C083E090E0019739
:10354000F1F740E06FE181E00E949A0F811711F0DE
:1035500083E401C080E41F910F9108951F93CF93DE
:10356000DF93182FEB0187FF02C082E41AC00E948C
:10357000E1188823E1F789E10E94421A40E06FE1F7
:1035800081E00E949A0F8931B1F78D819E819093DD
:103590008F0780938E071E5F612FCE010E94061059
:1035A00080E4DF91CF911F910895DF93CF9300D0F6
:1035B00000D00F92CDB7DEB740E06FE181E00E940E
:1035C0009A0F8A838A81813151F08A81863039F05D
:1035D0008A81813021F08A81863109F057C00E94AA
:1035E000CC0F9091770680E020917606AC01420FD7
:1035F000511D9A0180917B068F3F41F480917C069A
:103600008F3F21F4842F807F09F072C01B821D82BE
:103610001C8258E82136350721F188E82236380720
:1036200040F448E02330340781F02050304849F519
:1036300012C08CE82336380701F148EC23363407F2
:10364000D1F023563848E9F40EC0809181078823D1
:10365000C1F085E115C00E94CB17882391F084E169
:103660000FC080E10DC080917F06823031F08B3B2E
:1036700031F0813031F487E103C088E101C089E194
:103680008B83CE0103960E94AA1432C08A818230B5
:1036900049F08A81823131F08A81893119F08A8139
:1036A000893031F5109290071B821D821C8245E003
:1036B00060EE82E00E949A0F89838981833051F005
:1036C000843018F4823050F403C0853039F404C0DB
:1036D00081E103C083E101C082E18B838B81882378
:1036E00021F0CE0103960E94AA1486E10E94421A9C
:1036F0000F900F900F900F900F90CF91DF91089542
:10370000FF920F931F93F82E0DEF13E0C80101975E
:10371000F1F70E943F0F29982B988DE090E00197D8
:10372000F1F7299A23E040E06FE182E00E94AD0FBB
:10373000C8010197F1F76CE08EE00E94700F27E05E
:1037400040E06FE089E00E94AD0FFF2011F00E9481
:10375000A71080E41F910F91FF9008950895089598
:1037600080E090E00895089510925F0520915F0534
:1037700020935E051092DD042091DD042093DC048B
:1037800028E92093C10026E02093C2001092C500D2
:103790002CE02093C4009093E1058093E005089508
:1037A0001092C1000895382F8091E3058823D9F540
:1037B00078949091DC049F5F97FF05C090E003C070
:1037C000222319F00EC02091E2058091DD049817A4
:1037D000B9F3E091DC04F0E0E452FB4F32839093C4
:1037E000DC048091C10085FD1EC08091C00085FF72
:1037F000FCCF9091DD04E92FF0E0E452FB4F2281F1
:103800008091DC04981711F42FEF06C0E92FEF5FC9
:10381000E7FDE0E0E093DD042093C6008091C10065
:1038200080628093C1000895CF93DF93EC0103C0C1
:103830000E94D31B219688818823D1F7DF91CF91F5
:10384000089580915E0590915F05282F30E0291B37
:10385000310937FF02C020583F4F822F08958091D1
:103860005E0590915F05282F30E0291B310937FF55
:1038700002C020583F4F822F08958091DC04909120
:10388000DD04282F30E0291B310937FF02C0205802
:103890003F4F822F08959091DD04E92FF0E0E4522C
:1038A000FB4F22818091DC04981711F42FEF06C0A2
:1038B000E92FEF5FE7FDE0E0E093DD04822F08955C
:1038C00080915E0590915F05282F30E0291B31091A
:1038D00037FF02C020583F4F222391F390915F059C
:1038E000E92FF0E0E25AFA4F228180915E059817A5
:1038F00011F42FEF06C0E92FEF5FE7FDE0E0E09362
:103900005F05822F0895DF92EF92FF920F931F932E
:10391000CF93DF93EC01D42E00E0E62EFF24089431
:10392000E108F10880915E0590915F05282F30E055
:10393000291B310937FF02C020583F4F222391F342
:1039400090915F05E92FF0E0E25AFA4F12818091E1
:103950005E05981711F41FEF06C0E92FEF5FE7FD32
:10396000E0E0E0935F05802F90E08E159F0524F046
:103970001D3011F01830B1F6DD2019F0812F0E94B2
:10398000D31B183061F01D3089F41882802FDF912D
:10399000CF911F910F91FF90EF90DF90089500233A
:1039A00009F4C0CF015018822197BCCF19930F5F43
:1039B000B9CF90E08091E305882309F491E09093DA
:1039C000E3050895089580915E0590915F05282F85
:1039D00030E0291B310937FF02C020583F4F222316
:1039E00009F455C080915E0590915F05282F30E065
:1039F000291B310937FF02C020583F4F222391F382
:103A000090915F05E92FF0E0E25AFA4F2281809110
:103A10005E05981711F42FEF06C0E92FEF5FE7FD61
:103A2000E0E0E0935F058091EF018533E1F08633BC
:103A300028F4833341F08433A1F509C08633C9F0FB
:103A4000873379F526C0213089F484E30FC0822FB3
:103A50002B3008F08AE08093E30185E38093EF0147
:103A60001092DB0414C02093E40186E38093EF01FD
:103A70000EC09091DB048091E301981750F4E92F78
:103A8000F0E0ED51FE4F22839F5F9093DB0480E0D6
:103A9000089583E38093EF0180E0243031F481E0E6
:103AA000089583E38093EF0180E00895EF92FF9201
:103AB0000F931F93CF93DF93082F162F7A0181E086
:103AC0000E94D31B812F0E94D31B802F0E94D31BE7
:103AD00000E0C12FD0E006C0EE0DFF1D80810E94E6
:103AE000D31B0F5FE02FF0E0EC17FD07ACF384E091
:103AF0000E94D31BDF91CF911F910F91FF90EF9008
:103B000008951F920F920FB60F920BB60F921124C9
:103B10002F933F934F935F936F937F938F939F93D5
:103B2000AF93BF93EF93FF932091C60090915E05F2
:103B30009F5F97FD90E080915F05981741F0E091BD
:103B40005E05F0E0E25AFA4F228390935E051092F0
:103B5000E205E091E005F091E105309711F0822F48
:103B60000995FF91EF91BF91AF919F918F917F91B7
:103B70006F915F914F913F912F910F900BBE0F90DE
:103B80000FBE0F901F9018951F920F920FB60F92B5
:103B90000BB60F9211242F938F939F93EF93FF9364
:103BA0009091DC048091DD049817B1F09091DD04D0
:103BB000E92FF0E0E452FB4F22818091DC0498175A
:103BC00011F42FEF06C0E92FEF5FE7FDE0E0E0938F
:103BD000DD042093C60005C08091C1008F7D8093D5
:103BE000C100FF91EF919F918F912F910F900BBE8C
:103BF0000F900FBE0F901F9018950895089581E0C3
:103C00008093910708958091E405882359F581E018
:103C10008093E4052091F0013091F10121343105C8
:103C2000B8F42115310569F066E57EE184E690E09F
:103C3000AC01249FC001259F900D349F900D11244D
:103C400004C066E57EE188E893E10E94430D089593
:103C5000C9016AE070E00E948A2ECB0166E57EE130
:103C60000E94C20D08950E94031E08950E94031E23
:103C700008950E94031E08950E94300D08951F9319
:103C8000DF93CF930F92CDB7DEB711E01983AE016A
:103C90004F5F5F4F61E080E090E00E9479141093E5
:103CA000E5050F90CF91DF911F9108950E943F1E6F
:103CB0001092E4052091E6053091E7052F5F3F4F14
:103CC0003093E7052093E6058091F2019091F3018E
:103CD0002817390761F4232B51F06BE977E087E06F
:103CE00090E00E94430D1092E7051092E6050E94B5
:103CF000031E089508950895089508950895089558
:103D00000895089508950895CF93DF938091140343
:103D10008823A9F08091E905882399F48091EA0528
:103D2000882329F00E943A0E1092EA0504C01092EE
:103D300014030E94550781E08093E90502C01092A8
:103D4000E9050E94E31C882309F476C08091E40110
:103D5000833829F1843830F4813851F0823809F001
:103D60006BC00CC0843861F1853809F065C03BC078
:103D700060E070E082E00E9487135EC08091E805F9
:103D80008F5F8093E80581500E94F800DC01E3EB2F
:103D9000F1E080E101900D928150E1F721C0809126
:103DA000E8058F5F8093E80581500E94F800DC01F0
:103DB000E3ECF1E080E101900D928150E1F710C059
:103DC0008091E8058F5F8093E80581500E94F8009C
:103DD000DC01E3EAF1E080E101900D928150E1F72E
:103DE0000E94890429C00E942801DC01E3EAF1E075
:103DF00080E101900D928150E1F760EB70EF81EB73
:103E000090EF0E9465018091E8058F5F8093E8053F
:103E1000815080FD03C0C4EFD1E002C0C7EFD1E004
:103E20000E94BF01FC01888199819183808382E097
:103E30000E94C4010E941D04DF91CF91089560E0AB
:103E40008FE20E94700F60E070E082E00E948713B2
:103E50006FE17FE184EF91E00E94430D8093EA05DA
:103E60000895882329F06BEB7FE18AE090E004C09D
:103E70006AE170E288EE93E00E94430D08956AE7DC
:103E80007EE18AE090E00E94430D089580918306D0
:103E9000813031F46AE77EE18AE090E00E94430DD0
:103EA00008956AE77EE189E190E00E94430D08955C
:103EB000EF92FF920F931F93DF93CF93CDB7DEB7AF
:103EC00028970FB6F894DEBF0FBECDBF8E010F5FEF
:103ED0001F4FA80168E080E090E00E9490107801F8
:103EE0009E01275F3F4FF80180818F3FB9F40F5F3C
:103EF0001F4F02171307B9F72AC088E00E94F11973
:103F0000F70181937F01E017F107B9F7AE014F5F29
:103F10005F4F68E080E090E00E947A108E010F5FB2
:103F20001F4FA80162E080E190E00E94901089811B
:103F30009A818F5F9F4F91F484E190E09A83898307
:103F4000A80162E080E190E00E947A1007C080E062
:103F50000E94801B86E00E94421ACFCF28960FB69F
:103F6000F894DEBF0FBECDBFCF91DF911F910F91AF
:103F7000FF90EF9008956091B7078091B5079091F9
:103F8000B6070E94CD12089540E050E060E081EC59
:103F90000E94561D0895DF93CF9300D0CDB7DEB7B2
:103FA0009A838983AE014F5F5F4F62E081EC0E948C
:103FB000561D6AE77EE18AE090E00E94430D0F9073
:103FC0000F90CF91DF910895DF93CF9300D0CDB7BD
:103FD000DEB79A8389836AE77EE181E090E00E9400
:103FE000430DAE014F5F5F4F62E081EC0E94561DB2
:103FF00069817A8183E00E9487130F900F90CF919F
:10400000DF910895882379F46AE77EE18AE090E001
:104010000E94430D40E050E060E083EC0E94561D9A
:104020000E94A80308956AE170E288EE93E00E947E
:10403000430D08958FEF0E9476110E945D180E9433
:104040004E0708956AE77EE189E190E00E94430D02
:104050000E94581F0E941A200E94420708954AEFAA
:1040600051E064E080E090E00E9490146FE270E222
:1040700088EE93E00E94430D08951F930E94FE1D59
:104080000E94CB178823C1F58091880790918907FA
:1040900010E020918E0730918F072817390739F4E7
:1040A00011E040E050E060E0C9010E94901480916E
:1040B000EB058F5F8093EB058830F0F0112371F0F2
:1040C0001092810788E00E94F1199AE0899FC0014F
:1040D00011246AE170E2C2960E94430D80918E071E
:1040E00090918F070E94D611882331F080918E071E
:1040F00090918F070E94EB111F91089520918E07D8
:1041000030918F0780918807909189072817390788
:1041100011F41092EB050E94FD1D0895A3E1B0E09B
:10412000E4E9F0E20C94B12E3C01798B688B5A01E2
:10413000FC0117821682838181FD03C06FEF7FEF40
:1041400084C37AE0472E9E012F5F3F4F3B8B2A8B23
:10415000F3012381E889F98923FD859123FF81916A
:10416000F98BE88B882309F46DC3853251F4E88913
:10417000F98923FD859123FF8191F98BE88B8532A5
:1041800029F4B30190E00E94C82AE2CF982FDD24E1
:1041900055249924FFE1FD15D0F09B3269F09C3243
:1041A00028F4903259F0933291F40EC09D3249F0C8
:1041B000903369F431E029C042E0D42A54E0D52A92
:1041C00028C088E0D82A25C090E1D92A22C0D7FC8F
:1041D0002BC0892F80538A3070F4D6FE05C0949C82
:1041E000902C1124980E15C0549C502C1124580E5C
:1041F000E0E2DE2A0EC09E3229F4D6FC23C3F0E4AE
:10420000DF2A07C09C3619F430E8D32A02C098365A
:1042100059F4E889F98923FD959123FF9191F98B50
:10422000E88B992309F0B6CF892F8554833020F489
:104230008D2D8061905E07C0892F8556833008F0F0
:10424000A9C18D2D8F7E86FD02C066E0962E5FE3AC
:10425000F52EF822953619F4F0E4FF2A07C09636B9
:1042600019F420E8F22A02C091109A94F7FE0BC0CC
:104270003BE3391520F427E04CE3842E0EC0892C53
:10428000839427E00AC047E0491528F427E08824F2
:1042900037E0932E02C0292D8824C50104969D87FE
:1042A0008C87F5016081718182819381082DAE0137
:1042B0004F5F5F4F0E9492296C010981202F30E0EF
:1042C0003F872E8700FF05C03E8533FD02C01DE2FB
:1042D00009C0F1FE02C01BE205C0F2FC02C010E002
:1042E00001C010E28E859F858C709070892BC1F182
:1042F000112311F483E001C084E0851510F05524EA
:104300000AC0581AF3FC07C0B30180E290E00E9493
:10431000C82A5A94C9F7112329F0B301812F90E0DC
:104320000E94C82A4E8543FF03C00CE810E00EC06F
:1043300000E910E00BC0E114F10409F08052B30170
:1043400090E00E94C82A0F5F1F4F05C0EF2CFF248A
:1043500050E1E522FF24F8018491882361F717C119
:10436000F7FE13C08C0CFE85F4FF04C08A818133F4
:1043700009F48A9418141CF0882483942DC028E032
:10438000281550F598E0892E27C0F6FC25C0892D08
:1043900090E08C159D054CF03CEFC3163FEFD30623
:1043A00024F040E8F42A01C09A94992049F0E2E010
:1043B000F0E0EC0FFD1FE90DF11D80818033A1F3CA
:1043C000F7FE0AC0892C8394892D90E0C816D9067F
:1043D00014F0992401C09C18F7FC03C025E030E0DC
:1043E00009C01C141D041CF021E030E003C096013C
:1043F0002F5F3F4F112311F02F5F3F4F992029F07E
:10440000892D90E00196280F391F852D90E02817FF
:10441000390714F0552401C0521AAF2CBB24C50132
:1044200089709070892B39F008C0B30180E290E068
:104430000E94C82A5A945520C1F7112329F0B301CC
:10444000812F90E00E94C82AA3FE07C008C0B301D4
:1044500080E390E00E94C82A5A945520C1F7F7FEE5
:1044600048C08601D7FE02C000E010E07601089443
:10447000E11CF11CE01AF10A81E090E08C0F9D1F15
:10448000E80EF91E160128183108892D90E0AA249B
:10449000BB24A81AB90A9FEF0F3F190729F4B301EB
:1044A0008EE290E00E94C82AC016D10634F0201691
:1044B00031061CF4F701808101C080E301501040F7
:1044C0000894E11CF11C0A151B052CF0B30190E0C7
:1044D0000E94C82AE0CF0C151D0541F49A8196333D
:1044E00020F4953319F4FE85F4FF81E3B30190E0E5
:1044F0004CC08A81813309F00F7EB30190E00E94A5
:10450000C82A9920A1F0B3018EE290E00E94C82A47
:1045100012E0E1E0F0E0EC0FFD1FE10FF11D1F5F85
:10452000B301808190E00E94C82A9A9491F7A4FC7C
:1045300003C085E690E002C085E490E0B3010E94EC
:10454000C82AD7FC05C0C114D10441F404FF06C039
:10455000D094C194D108D3948DE201C08BE2B30111
:1045600090E00E94C82A80E305C08F5F26EF3FEFEE
:10457000C20ED31E3AE0C316D104BCF7B30190E0DB
:104580000E94C82AB301C601C0960E94C82AAC8402
:10459000BD8455C1933631F0933791F0933509F0CE
:1045A00059C023C0F501808189837E010894E11CF4
:1045B000F11C22E030E0A20EB31E01E010E012C0B8
:1045C000F501E080F180D6FC03C06FEF7FEF02C001
:1045D000692D70E022E030E0A20EB31EC7010E94F8
:1045E000852A8C013FE7D32214C0F501E080F180D9
:1045F000D6FC03C06FEF7FEF02C0692D70E022E0B0
:1046000030E0A20EB31EC7010E946A2A8C0130E876
:10461000D32AD3FE07C01AC0B30180E290E00E9403
:10462000C82A5A94852D90E008171907A8F30EC0E0
:10463000F701D7FC8591D7FE81917F01B30190E00E
:104640000E94C82A51105A940150104001151105BA
:1046500079F7F5C0943611F0993689F5D7FE08C080
:10466000F501E080F1800281138124E030E00AC08E
:10467000F501808191817C010027F7FC0095102FC6
:1046800022E030E0A20EB31E3FE6D32217FF0AC09D
:1046900010950095F094E094E11CF11C011D111D92
:1046A00040E8D42A2AE030E0AE014F5F5F4FC801F6
:1046B000B7010E94302BF82E5A89F51A43C095375E
:1046C00029F41D2D1F7E2AE030E01DC01D2D197F0D
:1046D0009F3661F0903720F4983509F0B3C00FC0D1
:1046E000903739F0983709F0ADC004C028E030E0C9
:1046F0000AC0106114FD146020E130E004C014FD14
:10470000166020E132E017FF08C0F5016081718179
:104710008281938144E050E008C0F501808191815D
:10472000BC0180E090E042E050E0A40EB51EAE0176
:104730004F5F5F4F0E94302BF82E5A89F51A8FE792
:10474000D82ED122D6FE0BC08EEFD822F91438F421
:10475000D4FE07C0D2FC05C09FEED92202C01F2D97
:1047600001C0192DD4FE0DC0FE01EF0DF11D808199
:10477000803319F4E9EEDE2208C01F5FD2FE05C0C7
:1047800003C08D2D867809F01F5F0D2DD3FC14C05A
:10479000D0FE0FC0151510F09F2C0BC09F2C950C50
:1047A000911A152D06C0B30180E290E00E94C82A3C
:1047B0001F5F1515C0F304C0151510F4511A01C080
:1047C000552404FF10C0B30180E390E00E94C82A82
:1047D00002FF1EC001FD03C088E790E002C088E52B
:1047E00090E0B3010CC0802F867891F001FF02C0E9
:1047F0008BE201C080E2D7FC8DE2B30190E00E9421
:10480000C82A06C0B30180E390E00E94C82A9A94A7
:10481000F914C0F3FA94E1E0F0E0EC0FFD1FEF0DA6
:10482000F11DB301808190E00E94C82AFF2091F71A
:1048300006C0B30180E290E00E94C82A5A94552035
:10484000C1F786CCF30166817781CB016396E2E103
:104850000C94CD2EA0E0B0E0E0E3F4E20C94B12E95
:10486000DC012B01FA019C91923008F439C1EB0173
:104870008881823008F433C1943069F4843009F0BF
:104880002FC111969C9111978981981709F428C11D
:10489000AFEFB1E025C1843009F421C18230A9F421
:1048A000923009F01DC19A01AD0188E0EA0109903A
:1048B000AE01E90109929E018150C1F7E2018981AF
:1048C00011969C918923818308C1923009F407C114
:1048D00012962D903C901397EB018A819B81149640
:1048E000AD90BD90CD90DC901797EC80FD800E814F
:1048F0001F819101281B390BB90137FF04C06627BE
:104900007727621B730B603271050CF061C01216C1
:1049100013066CF537014801062E04C0969487945F
:10492000779467940A94D2F721E030E040E050E0B9
:1049300004C0220F331F441F551F6A95D2F7215020
:104940003040404050402E213F214023512321152B
:1049500031054105510521F021E030E040E050E013
:1049600079018A01E628F728082919293CC0232B58
:10497000D1F1260E371E35014601062E04C096944D
:104980008794779467940A94D2F721E030E040E06E
:1049900050E004C0220F331F441F551F6A95D2F701
:1049A00021503040404050402A213B214C215D2184
:1049B000211531054105510521F021E030E040E0AD
:1049C00050E059016A01A628B728C828D9280BC089
:1049D000821593052CF01C01AA24BB24650103C099
:1049E000EE24FF24870111969C91D20111968C919F
:1049F000981709F445C0992339F0A80197012A199D
:104A00003B094C095D0906C0A60195012E193F0915
:104A1000400B510B57FD08C0118233822282248340
:104A20003583468357831DC081E081833382228290
:104A300088279927DC01821B930BA40BB50B848379
:104A40009583A683B7830DC0220F331F441F551FC4
:104A5000248335834683578382819381019793838F
:104A600082832481358146815781DA01C90101970A
:104A7000A109B1098F5F9F4FAF4FBF4328F30BC010
:104A8000918333822282EA0CFB1C0C1D1D1DE482E3
:104A9000F5820683178383E08083248135814681F4
:104AA000578157FF1AC0C901AA2797FDA095BA2FB1
:104AB00081709070A070B070569547953795279586
:104AC000822B932BA42BB52B84839583A683B7834A
:104AD00082819381019693838283DF0101C0D20199
:104AE000CD01CDB7DEB7E2E10C94CD2EA0E2B0E06F
:104AF000ECE7F5E20C94BD2E69837A838B839C836B
:104B00002D833E834F835887E9E0EE2EF12CEC0E87
:104B1000FD1EB701CE0101960E9460288E010F5E36
:104B20001F4FB801CE0105960E9460288A8991E046
:104B300089278A8BAE01475E5F4FB801C7010E948B
:104B40002A240E948B27A096E6E00C94D92EA0E29E
:104B5000B0E0EDEAF5E20C94BD2E69837A838B8395
:104B60009C832D833E834F835887F9E0EF2EF12CF1
:104B7000EC0EFD1EB701CE0101960E9460288E0149
:104B80000F5E1F4FB801CE0105960E946028AE014E
:104B9000475E5F4FB801C7010E942A240E948B27FD
:104BA000A096E6E00C94D92EA8E1B0E0EAEDF5E29B
:104BB0000C94B92E69837A838B839C832D833E83E7
:104BC0004F835887B9E0EB2EF12CEC0EFD1EB70198
:104BD000CE0101960E9460288E010F5E1F4FB80122
:104BE000CE0105960E9460282985223008F47CC0F9
:104BF0003989323010F4B8017AC08A859A898927B8
:104C00008A87243011F0223031F4231709F06CC068
:104C10006FEF71E06CC0343039F41D861E861F863C
:104C2000188A1C861B8604C0323021F484E08987F0
:104C3000B7015DC02B853C858B899C89281B390B6E
:104C40003C872B87ED84FE840F851889AD88BE884C
:104C5000CF88D88CEA14FB040C051D0540F4EE0C3B
:104C6000FF1C001F111F215030403C872B8720E084
:104C700030E040E050E080E090E0A0E0B0E46FE1A0
:104C800070E0EA14FB040C051D0540F0282B392BBD
:104C90004A2B5B2BEA18FB080C091D09B695A79552
:104CA00097958795EE0CFF1C001F111F61507040F7
:104CB00041F7DA01C9018F779070A070B07080342D
:104CC0009105A105B10561F427FD0AC0E114F104C5
:104CD0000105110529F0205C3F4F4F4F5F4F2078B1
:104CE0002D873E874F87588BBE01675F7F4FCB0173
:104CF0000E948B276896EAE00C94D52EA8E1B0E0DC
:104D0000E4E8F6E20C94BD2E69837A838B839C835E
:104D10002D833E834F83588789E0E82EF12CEC0EDB
:104D2000FD1EB701CE0101960E9460288E010F5E24
:104D30001F4FB801CE0105960E94602889858230F8
:104D400040F08989823028F0B801C7010E94D82834
:104D500001C08FEF6896E6E00C94D92EA8E1B0E090
:104D6000E4EBF6E20C94BD2E69837A838B839C83FB
:104D70002D833E834F83588789E0E82EF12CEC0E7B
:104D8000FD1EB701CE0101960E9460288E010F5EC4
:104D90001F4FB801CE0105960E9460288985823098
:104DA00040F08989823028F0B801C7010E94D828D4
:104DB00001C081E06896E6E00C94D92EA8E0B0E04E
:104DC000E4EEF6E20C94BA2E9B01AC0183E08983F9
:104DD000DA01C9018827B7FD83959927AA27BB2740
:104DE000B82E211531054105510519F482E089835A
:104DF0003AC08823A9F0203080E0380780E04807D7
:104E000080E8580729F460E070E080E09FEC30C053
:104E1000EE24FF248701E21AF30A040B150B02C0EB
:104E200079018A018EE1C82ED12CDC82CB82ED8201
:104E3000FE820F831887C801B7010E943C270197A3
:104E40001816190684F4082E04C0EE0CFF1C001F6F
:104E5000111F0A94D2F7ED82FE820F831887C81AB9
:104E6000D90ADC82CB82BA82CE0101960E948B27BE
:104E70002896E9E00C94D62EEF92FF920F931F93A1
:104E80007B018C0180E0E81680E0F80681E00807ED
:104E900080E0180788F48FEFE816F104010511058A
:104EA00031F028F088E090E0A0E0B0E017C080E0AA
:104EB00090E0A0E0B0E012C080E0E81680E0F806E4
:104EC00080E0080781E0180728F088E190E0A0E082
:104ED000B0E004C080E190E0A0E0B0E020E230E08B
:104EE00040E050E0281B390B4A0B5B0B04C01695C1
:104EF0000795F794E7948A95D2F7F701E95FFD4F9C
:104F00008081281B310941095109C9011F910F9165
:104F1000FF90EF900895DF92EF92FF920F931F930F
:104F2000FC01E480F58006811781D1808081823088
:104F300048F480E090E0A0E1B0E0E82AF92A0A2BEA
:104F40001B2BA5C0843009F49FC0823021F4EE24CD
:104F5000FF24870105C0E114F1040105110519F4CE
:104F6000E0E0F0E096C0628173819FEF62387907DC
:104F70000CF05BC022E83FEF261B370B2A313105CE
:104F80002CF020E030E040E050E02AC0B801A7015A
:104F9000022E04C076956795579547950A94D2F7E7
:104FA00081E090E0A0E0B0E004C0880F991FAA1F44
:104FB000BB1F2A95D2F70197A109B1098E219F2124
:104FC000A023B1230097A105B10521F081E090E075
:104FD000A0E0B0E09A01AB01282B392B4A2B5B2BC8
:104FE000DA01C9018F779070A070B070803491059C
:104FF000A105B10539F427FF09C0205C3F4F4F4F91
:105000005F4F04C0215C3F4F4F4F5F4FE0E0F0E047
:105010002030A0E03A07A0E04A07A0E45A0710F0C9
:10502000E1E0F0E079018A0127C06038710564F59C
:10503000FB01E158FF4FD801C7018F779070A07036
:10504000B07080349105A105B10539F4E7FE0DC0BB
:1050500080E490E0A0E0B0E004C08FE390E0A0E046
:10506000B0E0E80EF91E0A1F1B1F17FF05C01695BA
:105070000795F794E794319687E016950795F7948E
:10508000E7948A95D1F705C0EE24FF248701EFEF5E
:10509000F0E06E2F679566276795902F9F77D794DE
:1050A000DD24D7948E2F8695492F462B582F5D29C6
:1050B000B701CA011F910F91FF90EF90DF90089503
:1050C000FC01DB01408151812281622F6F7770E00A
:1050D000221F2227221F9381892F880F822B282F9E
:1050E00030E0991F9927991F11969C9311972115CC
:1050F0003105A9F5411551056105710511F482E0ED
:1051000037C082E89FEF13969C938E9312979A0173
:10511000AB0167E0220F331F441F551F6A95D1F77B
:1051200083E08C930DC0220F331F441F551F12962E
:105130008D919C911397019713969C938E93129740
:10514000203080E0380780E0480780E4580758F3B3
:1051500014962D933D934D935C93179708952F3F8D
:10516000310579F4411551056105710519F484E0A3
:105170008C93089564FF03C081E08C9312C01C924D
:1051800010C02F57304013963C932E93129783E014
:105190008C9387E0440F551F661F771F8A95D1F7C0
:1051A000706414964D935D936D937C931797089557
:1051B0001F93DC01FB019C91923008F447C0808171
:1051C000823008F443C0943051F411961C9184301D
:1051D00099F58181682F70E0611B71093FC08430AF
:1051E00021F0923031F48230B9F18181882389F144
:1051F0002DC011961C9111978230F1F08181181702
:10520000D9F412962D913C91139782819381821744
:10521000930794F028173907BCF014968D919D914F
:105220000D90BC91A02D248135814681578128178E
:1052300039074A075B0718F4112341F00AC08217A7
:105240009307A407B50740F4112319F061E070E05B
:1052500005C06FEF7FEF02C060E070E0CB011F91EF
:105260000895A0E0B0E0E7E3F9E20C94B92EEC0178
:10527000A880B980CA80DB80A114B104C104D10424
:1052800041F484E2A82E89EDB82E8BE5C82E87E084
:10529000D82EC601B5012DE133EF41E050E00E9468
:1052A000122F27EA31E440E050E00E94F32E7B0108
:1052B0008C01C601B5012DE133EF41E050E00E94C1
:1052C000122FCA01B9012CEE34EF4FEF5FEF0E94AD
:1052D000F32E6E0D7F1D801F911F97FF04C061503C
:1052E000704080409048688379838A839B839B01C8
:1052F0003F77C901CDB7DEB7EAE00C94D52E0E9406
:105300003129089587E093E00E9431290895A0E0B3
:10531000B0E08093070390930803A0930903B09330
:105320000A030895283008F027E03327DA01990F9F
:10533000311D87FD916000966105710539F4326079
:105340002E5F3D9330E32A95E1F708959F3F30F0BB
:1053500080387105610509F03C5F3C5F3D939130F9
:1053600008F08068911DDF93CF931F930F93FF92F6
:10537000EF92192F987F9695E92F96959695E90FBC
:10538000FF27E251FF4F99273327EE24FF24A7017F
:10539000E70105900894079428F4360FE71EF81EDD
:1053A000491F511D660F771F881F991F0694A1F78B
:1053B0000590079428F4E70EF81E491F561FC11DDB
:1053C000770F881F991F661F0694A1F70590079411
:1053D00028F4F80E491F561FC71FD11D880F991FAB
:1053E000661F771F0694A1F70590079420F4490FD4
:1053F000561FC71FD81F990F661F771F881F069457
:10540000A9F784911095177041F0D695C7955795D7
:105410004795F794E7941A95C1F7E4E9F0E06894AA
:105420001590159135916591959105907FE2739551
:10543000E118F10A430B560BC90BD009C0F7E10C78
:10544000F11E431F561FC91FD01D7EF4703311F487
:105450008A95E6CFE894015030F0080F0AF400274F
:10546000021708F4202F2395022F7A3328F079E3CE
:105470007D932A95E9F710C07D932A9589F60694C5
:1054800097956795379517951794E118F10A430B8F
:10549000560BC90BD00998F023957E9173957A33FA
:1054A00008F070E37C932013B8F77E9170617D93D0
:1054B00030F0839571E37D9370E32A95E1F7112431
:1054C000EF90FF900F911F91CF91DF91992787FD6A
:1054D00090950895FC010590615070400110D8F737
:1054E000809590958E0F9F1F0895FB01DC0102C0EF
:1054F00001900D9241505040D8F70895FB01DC0116
:1055000001900D920020E1F70895FC016150704078
:1055100001900110D8F7809590958E0F9F1F0895E8
:10552000A0E0B0E0E6E9FAE20C94BB2E7C01EB01CE
:105530008A01690109C0CE012196F6010995F7019A
:1055400081937F010150104001151105A1F7CDB7DE
:10555000DEB7E8E00C94D72EA0E0B0E0E2EBFAE290
:105560000C94BB2EEC017B018A01690109C0F70193
:1055700061917F01CE012196F601099501501040FD
:1055800001151105A1F7CDB7DEB7E8E00C94D72ED1
:105590000F931F93CF93DF938C01EB018B8181FFDE
:1055A0001BC082FF0DC02E813F818C819D812817F9
:1055B000390764F4E881F9810193F983E88306C02F
:1055C000E885F985802F0995892B31F48E819F819B
:1055D00001969F838E8302C00FEF1FEFC801DF91FA
:1055E000CF911F910F910895AEE0B0E0EAEFFAE29B
:1055F0000C94BF2E0D891E8986E08C831A83098343
:105600008FEF9FE79E838D83CE014996AC016F8912
:10561000788DCE0101960E948E202F813885020F51
:10562000131FF80110822E96E4E00C94DB2EAEE0FE
:10563000B0E0EDE1FBE20C94C12E85E08C838B8918
:105640009C899A838983CE014796AC016D897E89B6
:10565000CE0101960E94122D2E96E2E00C94DD2ED2
:10566000FA01AA27283051F1203181F1E8946F9393
:105670006E7F6E5F7F4F8F4F9F4FAF4FB1E03ED039
:10568000B4E03CD0670F781F891F9A1FA11D680FD7
:10569000791F8A1F911DA11D6A0F711D811D911D0A
:1056A000A11D20D009F468943F912AE0269F11247F
:1056B0003019305D3193DEF6CF010895462F4770E3
:1056C000405D4193B3E00FD0C9F7F6CF462F4F703E
:1056D000405D4A3318F0495D31FD4052419302D09C
:1056E000A9F7EACFB4E0A695979587957795679542
:1056F000BA95C9F700976105710508959B01AC0142
:105700000A2E06945795479537952795BA95C9F768
:10571000620F731F841F951FA01D0895FC0120FDBB
:1057200008C023FD05C022FF02C07383628351833A
:1057300040830895EF92FF920F931F9344FF02C09E
:1057400033E011C046FF02C034E00DC0DB01FC01B4
:10575000AA0FBB1FEE1FFF1F1094D1F76A0F7B1F0C
:105760008E1F9F1F31E0660F771F881F991F3150D2
:10577000D1F77B018C01E20EF11C011D111DA80166
:105780009701B701CA011F910F91FF90EF90089503
:105790000F931F93CF93DF938C01C8010E942E2E8D
:1057A000EC0197FD08C00E94E82E892BB1F7B801E3
:1057B000CE010E94702ECE01DF91CF911F910F91EB
:1057C0000895A0E0B0E0E7EEFBE20C94B92EEC0106
:1057D000C62E5A01122F0E942E2EAC018B3219F0C8
:1057E0008D3251F41068CA9409F46DC0CE010E9444
:1057F0002E2EAC0197FD67C06DEFD62ED1228D2DD8
:10580000807301F54033F1F4CA9409F447C0CE0126
:105810000E942E2EAC0197FD41C082E0D82A483765
:1058200011F0483559F480E4D82ACA94B9F1CE0170
:105830000E942E2EAC0199232CF430C0D6FC02C05D
:1058400080E1D82AEE24FF248701242F205328301A
:1058500088F0D4FC09C02A3068F0D6FE05C02F7D40
:10586000822F8151863028F0BE01CA010E94702E1D
:1058700012C027504D2DC801B7010E949A2B7B0101
:105880008C0182E0D82ACA9461F0CE010E942E2EAB
:10589000AC0197FFDACFD1FC04C015C0EE24FF2481
:1058A0008701D7FE08C010950095F094E094E11CA4
:1058B000F11C011D111D2D2DB801A701C5010E946C
:1058C0008E2B81E001C080E0CDB7DEB7EAE00C941A
:1058D000D52EA0E2B0E0EFE6FCE20C94B52E6C0110
:1058E000A62E8A017901FE01319680E2DF011D9228
:1058F0008A95E9F770E030E060E040E050E04F0169
:10590000A1E0B0E0F6018381F70183FD259183FFDB
:1059100021917F01222309F47EC02E3519F441150F
:10592000510569F1872F90E08417950744F42D35D0
:1059300051F12D3221F4332329F431E021C03323F6
:1059400009F4622F322F832F869586958695F40170
:10595000E80FF11D832F87703D0102C0660C771C94
:105960008A95E2F7208126292083361711F430E04A
:1059700007C0361710F43F5FE6CF3150E4CF71E037
:105980004F5F5F4FBFCF332319F08E8180628E83CC
:10599000772359F0FE0131969E012F5D3F4F8081A4
:1059A00080958193E217F307D1F7BB24B3944E019E
:1059B0000894811C911CC6010E942E2EAC0197FDFB
:1059C00022C0869586958695F401E80FF11D8081A9
:1059D00090E09A012770307002C0959587952A95BE
:1059E000E2F780FD05C0B601CA010E94702E0BC00F
:1059F0000115110519F0D8014D938D01AA94BB240E
:105A0000AA20C9F602C0BB2031F40115110529F006
:105A1000F801108202C0EE24FF24C701A096EEE038
:105A20000C94D12EA0E0B0E0E8E1FDE20C94B52E9C
:105A30005C016B013A01FC01178216828824EAC0DE
:105A4000812F90E00E94E82E892B21F0C5010E9451
:105A5000C82BE0C0153249F4F601F3FC6591F3FE62
:105A600061916F01653269F415E2C5010E942E2E25
:105A700097FDDCC0181709F4CDC0B5010E94702E47
:105A8000DAC06A3219F0162F00E006C0F3FC159157
:105A9000F3FE11916F0101E099240FC00260692D9E
:105AA00070E080E090E040E20E949A2B962EF60192
:105AB000F3FC1591F3FE11916F01212F20532A3031
:105AC00068F301FD03C099249A9403C0992009F456
:105AD000B2C0183621F01C3699F4F6010BC0F6015D
