:100000000C9496000C94BE000C94BE000C94BE00A0
:100010000C94BE000C94BE000C94BE000C94BE0068
:100020000C94BE000C94BE000C94D4180C94BE002A
:100030000C94BE000C94BE000C94BE000C94BE0048
:100040000C9471180C94BE000C94BE000C94BE006D
:100050000C94BE000C94BE000C94BE000C94BE0028
:100060000C94BE000C9495100C945C100C94BE0083
:100070000C94BE000C94BE000C94BE000C94BE0008
:100080000C94C9150C94BE000C94BE000C94BE00D8
:100090000C94BE000C94BE0012010002020000404D
:1000A000EB031820001000000001090243000201C8
:1000B0000080320904000001020201000524001042
:1000C000010524010301042402060524060001079A
:1000D0000583032000FF09040100020A0000000755
:1000E000058102200000070502022000000C0341E8
:1000F0000054004D0045004C0022034100560052C0
:1001000000200055005300420020004300440043FB
:10011000002000440045004D004F000C0331002E2C
:100120000030002E003000040309040011241FBE1B
:10013000CFEFD0E2DEBFCDBF14BE88E10FB6F8949A
:1001400080936000109260000FBE19E0A0E0B1E063
:10015000EAE6F2E500E00BBF02C007900D92A23183
:10016000B107D9F713E1A2E1B9E001C01D92A736AA
:10017000B107E1F70E94DA0C0C9433290C940000CB
:100180008093D2120E942D0E08951F93182F8FEF87
:100190009FEF9093CA128093C9129093CC128093D0
:1001A000CB121092C6129093CE128093CD129093E0
:1001B000D0128093CF121092D1121092D51281E0FA
:1001C0008093D6120E94E90F1093D2121F3F19F0AC
:1001D000812F0E942D0E81E00E94A30E88E00E94D4
:1001E000BB0E0E94070D21E042E064E087E10E941F
:1001F000001786E10E94BB0E4EEB52E168E080E002
:1002000090E00E94E31781E00E94A40D8FEF9FEF22
:100210000E948C0D8FEF9FEF0E94980D22E044E02A
:1002200060EF8CE20E9400178EEB92E10E947C0D41
:100230000E94AB031F91089508950895EF92FF92D5
:100240000F931F93CF93DF93E82EEB018A0181E098
:1002500080931609F880B981AA817B816C813D81E8
:100260002E819F81E5E2F9E041E050E080818F1529
:10027000A9F481818B1791F482818A1779F48381A3
:10028000871761F48481861749F48581831731F4D7
:100290008681821719F487818917A1F04F5F5F4F1C
:1002A0003E964436510511F7E4E2F9E041E050E0B2
:1002B0008081882351F04F5F5F4F3E964436510551
:1002C000B9F735C04436510590F5CA01880F991F1A
:1002D000BC0123E0660F771F2A95E1F7681B790BB5
:1002E0009B012A5E364FF901E1928881D90111966E
:1002F0008C931197898181838A8182838B81838307
:100300008C8184838D8185838E8186838F81878391
:100310001A961C930E9319971C961C921E921B976B
:10032000DB01AD5DB64F8C918E7F8C9302C04FEF99
:100330005FEFCA01DF91CF911F910F91FF90EF9076
:100340000895DC01E4E2F9E021E030E080818823D7
:1003500071F191818C91981751F5928111968C9140
:100360001197981721F5938112968C9112979817EF
:10037000F1F4948113968C9113979817C1F4958199
:1003800014968C911497981791F4968115968C91E8
:100390001597981761F4978116968C911697981770
:1003A00031F4908517968C911797981741F02F5F2D
:1003B0003F4F3E962436310549F62FEF3FEFC901F6
:1003C000089584369105B0F4880F991FFC0143E02D
:1003D000EE0FFF1F4A95E1F7E81BF90BEA5EF64FB7
:1003E0008081882339F020E081859285892B19F45A
:1003F00021E001C020E0822F08958436910510F09D
:1004000080E00895880F991FFC0163E0EE0FFF1F45
:100410006A95E1F7E81BF90BED5DF64F8081869553
:10042000817009F081E0089508958436910588F47B
:10043000880F991FFC01A3E0EE0FFF1FAA95E1F7BB
:10044000E81BF90BEA5EF64F1082128611861486BD
:10045000138608958436910518F020E030E00EC030
:10046000880F991FFC0123E0EE0FFF1F2A95E1F78B
:10047000E81BF90BEA5EF64F21853285C901089524
:100480009C018436910538F5C901880F991FFC013C
:1004900063E0EE0FFF1F6A95E1F7E81BF90BEA5ED8
:1004A000F64F80818823B9F02436310520F4818508
:1004B0009285892B91F0C901880F991FFC0143E0B7
:1004C000EE0FFF1F4A95E1F7E81BF90BEA5EF64FC6
:1004D00021853285D9CF20E030E0C9010895AC01F3
:1004E000E4E2F9E021E030E08081882329F0818591
:1004F00092858417950741F02F5F3F4F3E96243633
:10050000310591F720E030E0C90108959C0184365F
:10051000910560F5880F991FFC0143E0EE0FFF1F66
:100520004A95E1F7E81BF90BEA5EF64F41855285E3
:100530002F5F3F4FC901880F991FFC01A3E0EE0F09
:10054000FF1FAA95E1F7E81BF90BEA5EF64F0BC017
:100550008081882329F0818592858417950741F051
:100560002F5F3F4F3E962436310591F720E030E073
:10057000C90108958436910518F020E030E00EC0DE
:10058000880F991FFC0163E0EE0FFF1F6A95E1F7EA
:10059000E81BF90BEA5EF64F23853485C9010895FF
:1005A0008436910570F4880F991FFC01A3E0EE0FCB
:1005B000FF1FAA95E1F7E81BF90BEA5EF64F748777
:1005C000638708958436910518F020E030E00CC070
:1005D000880F991F9C0143E0220F331F4A95E1F7D2
:1005E000281B390B2A5E364FC901089584369105C0
:1005F000D8F4880F991FFC0163E0EE0FFF1F6A9586
:10060000E1F7E81BF90BDF01AA5EB64F8C91882356
:1006100059F019968D919C911A97892B29F4ED5DCB
:10062000F64F80818E7F8083089580E090E008956A
:1006300080E090E0089521E0880F991FFC01A3E07D
:10064000EE0FFF1FAA95E1F7E81BF90BEA5EF64FE4
:100650008081882331F081859285009719F02F5F82
:10066000EBCF20E0822F0895BC0184369105D0F4B1
:10067000880F991F9C0143E0220F331F4A95E1F731
:10068000281B390BF901EA5EF64F818592850097A8
:1006900039F4F901ED5DF64F808181608083089522
:1006A0000E94600A0895EF92FF920F931F93CF93D9
:1006B000DF937C01DC011B960D911C911C97043685
:1006C000110508F041C0C801880F991F9C01E3E0A3
:1006D000220F331FEA95E1F7281B390BF901EA5E77
:1006E000F64F8081882381F181859285892B61F580
:1006F000F901ED5DF64F90E01D968C9187FD91E03C
:10070000990F80818D7F892B8083C801880F991F65
:10071000EC0163E0CC0FDD1F6A95E1F7C81BD90B34
:10072000CD5DD64F888180FF08C060E070E0C801D1
:100730000E94600A88818E7F8883C8010E94910888
:10074000F70185858F778587DF91CF911F910F9175
:10075000FF90EF90089588E795E0E6E1F9E0DF018A
:100760009C011D9221503040E1F7089590931309A8
:1007700080931209709315096093140968EC73E073
:1007800080EA90E00E94961481E08093D51208954B
:1007900080911209909113090E948D11882319F4F8
:1007A00080E090E002C085E090E068EA75E00E9499
:1007B00096140895DF93CF930F92CDB7DEB79C01C7
:1007C000AB018436910508F05AC0880F991FFC01CF
:1007D000A3E0EE0FFF1FAA95E1F7E81BF90BEA5E15
:1007E000F64F8081882331F480E091E00E9411115E
:1007F00080E046C0232B09F442C0218532852115B3
:100800003105E9F181E089836115710519F4A0E0F2
:10081000B0E002C0DB011A96C901880F991FFC01E4
:1008200063E0EE0FFF1F6A95E1F7E81BF90BEA5E44
:10083000F64F8081882321F189818F5F89838185AB
:100840009285892B41F44115510519F0FA0136833F
:100850002583898115C0109711F02D933D93C9010F
:10086000880F991FFC0123E0EE0FFF1F2A95E1F787
:10087000E81BF90BEA5EF64F21853285CDCF81E08A
:100880000F90CF91DF9108953F924F925F926F92B8
:100890007F928F929F92AF92BF92CF92DF92EF9210
:1008A000FF920F931F93DF93CF93CDB7DEB7E697F9
:1008B0000FB6F894DEBF0FBECDBF80916801909156
:1008C0006901A0916A01B0916B0189839A83AB831E
:1008D000BC8385E191E00E94111154E2652E59E03C
:1008E000752E41E0442E512CF3013080332009F461
:1008F0005FC081809280A380B480C580D680E7806D
:10090000F084BF92AF929F928F9200E29401A50172
:10091000B601C7010E94752459016A01DF92CF9286
:10092000BF92AF92F301838594859F938F938185C6
:1009300092859F938F9381859285880F991FFC01E3
:1009400023E0EE0FFF1F2A95E1F7E81BF90BEA5EA3
:10095000F64F8081E1E0F0E0EC0FFD1FE80FF11DA4
:10096000808190E09F938F935F924F92E1E0F0E05F
:10097000EC0FFD1FE30DF11D808190E09F938F939D
:1009800085E291E09F938F93E5E0F0E0EC0FFD1F8F
:10099000FF93EF930E94CB25CE0105960E94111183
:1009A0008DB79EB746960FB6F8949EBF0FBE8DBF0B
:1009B000EEE0F0E06E0E7F1E0894411C511CFEE834
:1009C0006F16FEE07F0609F08FCF87E491E00E946A
:1009D000111100E010E0DD242E010894411C511C8F
:1009E00098E5692E91E0792E85E0A82EB12CAC0E09
:1009F000BD1E01C087011F930F93C801880F991F67
:100A0000FC01A3E0EE0FFF1FAA95E1F7E81BF90B2D
:100A1000EA5EF64F8081F201E80FF11D808190E0DF
:100A20009F938F937F926F92BF92AF920E94CB253C
:100A3000C5010E941111E4E2F9E021E030E08DB738
:100A40009EB708960FB6F8949EBF0FBE8DBF8081EB
:100A5000882329F0818592858017910739F02F5FCF
:100A60003F4F3E962436310591F703C0D394890158
:100A7000C2CF0436110588F5C801880F991FFC0103
:100A800063E0EE0FFF1F6A95E1F7E81BF90BEA5EE2
:100A9000F64F2185328578010894E11CF11CC701CD
:100AA000880F991FFC0143E0EE0FFF1F4A95E1F705
:100AB000E81BF90BEA5EF64F0CC08081882329F011
:100AC000818592858217930729F10894E11CF11C16
:100AD0003E9694E6E916F10481F7C801880F991F44
:100AE000FC0113E0EE0FFF1F1A95E1F7E81BF90B6D
:100AF000EA5EF64F018512850115110549F410C013
:100B000080E691E00E9411111F5F1D15C8F372CF9E
:100B1000DA94AFCF85E691E00E94111110E0F5CF95
:100B2000E6960FB6F894DEBF0FBECDBFCF91DF9132
:100B30001F910F91FF90EF90DF90CF90BF90AF90FB
:100B40009F908F907F906F905F904F903F9008950F
:100B5000EF92FF920F931F93DF93CF93CDB7DEB742
:100B600060970FB6F894DEBF0FBECDBF8DE691E063
:100B70000E94111180911409909115099F938F93F0
:100B80008FE7E82E81E0F82EFF92EF9207ED12E159
:100B90001F930F930E94CB25C8010E94111182E878
:100BA00091E00E94111180911209909113099F9375
:100BB0008F93FF92EF921F930F930E94CB25C80152
:100BC0000E9411116091C8126F5F6093C81261504A
:100BD000A091C912B091CA12409112095091130903
:100BE0008DB79EB70C960FB6F8949EBF0FBE8DBF03
:100BF0004436510540F59A01C901880F991FFC013F
:100C000013E0EE0FFF1F1A95E1F7E81BF90BEA5E00
:100C1000F64F80818823B9F02436310520F4818590
:100C20009285892B91F0C901880F991FFC0173E00F
:100C3000EE0FFF1F7A95E1F7E81BF90BEA5EF64F1E
:100C400021853285D9CF20E030E080911409909140
:100C5000150921153105C9F0988B8F8784E08E879F
:100C60001D861C865B874A87198618863F832E83DC
:100C7000BD83AC836B8381E698E89A838983BE0148
:100C80006F5F7F4F80E10E94270F60960FB6F89448
:100C9000DEBF0FBECDBFCF91DF911F910F91FF90AF
:100CA000EF9008956DE372E186E10E94270F0895A9
:100CB0000F931F93CF93DF939091BC1180E020910D
:100CC000BB11820F911D28E88336920709F0E3C01B
:100CD000E4E2F9E061E070E08081882341F19181F4
:100CE0008091C711981719F592818091C8119817B2
:100CF000F1F493818091C9119817C9F4948180917E
:100D0000CA119817A1F495818091CB11981779F4A5
:100D100096818091CC11981751F497818091CD11D3
:100D2000981729F490858091CE11981739F06F5F4C
:100D30007F4F3E966436710579F635C0CB01880F3A
:100D4000991FFC0123E0EE0FFF1F2A95E1F7E81B36
:100D5000F90BEA5EF64F8081882329F1CB01880FD9
:100D6000991FFC0113E0EE0FFF1F1A95E1F7E81B36
:100D7000F90BEA5EF64F218532852115310549F4DC
:100D80006436710580F410821286118614861386EB
:100D90000AC08091C5119091C6118217930719F06E
:100DA000C9010E94B6038091C5119091C6110E949D
:100DB0008D11182F4091C5115091C61167EC71E14A
:100DC0008091CF110E941E01EC01909352128093EA
:100DD000511283E698E890933E1280933D128091E1
:100DE000C81280933F128F5F8093C8128091C912FE
:100DF0009091CA1290934112809340128091C21137
:100E00009091C31190934312809342128091CB1220
:100E10009091CC12909345128093441282E080937B
:100E200046128091C5119091C611909348128093FB
:100E300047128091C711809349128091C811809305
:100E40004A128091C91180934B128091CA118093EC
:100E50004C128091CB1180934D128091CC118093D4
:100E60004E128091CD1180934F128091CE118093BC
:100E70005012112319F480E090E002C085E090E068
:100E800062E576E00E94961481E08093D512CE014F
:100E90000E94961EB7C08356984C19F0C0E0D0E06F
:100EA000B1C0E4E2F9E061E070E08081882341F1C3
:100EB0009091C2112091C3113091C4114091C5117C
:100EC0005091C611A091C711B091C8111091C911CC
:100ED00081818917A9F48281821791F48381831714
:100EE00079F48481841761F48581851749F48681BA
:100EF0008A1731F487818B1719F48085811739F0AF
:100F00006F5F7F4F3E966436710579F629C0CB013D
:100F1000880F991FFC01A3E0EE0FFF1FAA95E1F7D0
:100F2000E81BF90BEA5EF64F818592850097B1F4D4
:100F300064367105A8F4CB01880F991FFC0153E0BA
:100F4000EE0FFF1F5A95E1F7E81BF90BEA5EF64F2B
:100F50001082128611861486138602C00E94B60380
:100F60008091CD1140E050E062EC71E10E941E01E1
:100F7000EC0183E69CE890933E1280933D128091B1
:100F8000C81280933F128F5F8093C8128091C9125C
:100F90009091CA1290934112809340128091C21195
:100FA0009091C3112091C4113091C5114091C61187
:100FB0005091C7116091C8117091C911809342126C
:100FC000909343122093441230934512409346125B
:100FD0005093471260934812709349128091CB123C
:100FE0009091CC1290934B1280934A1282E080939E
:100FF0004C12D0934E12C0934D126DE372E182E118
:101000000E94270F80E991E00E941111DF93CF9396
:1010100083EA91E09F938F9307ED12E11F930F9363
:101020000E94CB25C8010E94111186EA91E00E941E
:101030001111CE0121E04DB75EB74A5F5F4F0FB689
:10104000F8945EBF0FBE4DBF880F991FFC0133E0BF
:10105000EE0FFF1F3A95E1F7E81BF90BEA5EF64F3A
:101060008081882331F081859285009719F02F5F68
:10107000EBCF20E0822F90E09F938F9383EA91E063
:101080009F938F9307ED12E11F930F930E94CB253F
:10109000C8010E94111185E691E00E941111CE0154
:1010A0000E94611E8DB79EB706960FB6F8949EBF3C
:1010B0000FBE8DBFDF91CF911F910F91089580E0FA
:1010C00090E890933E1280933D128091C7128093D6
:1010D0003F128F5F8093C7128091C9129091CA12FC
:1010E00090934112809340128091CB129091CC1238
:1010F00090934312809342128FEF90E490934512A5
:101100008093441286E0809346128091D11280939E
:1011100047126DE372E18BE00E94270F0895089556
:101120000895CF92DF92EF92FF920F931F93CF9388
:10113000DF937C01C2E9DEE000E010E083E8C82E26
:10114000D12C2881222391F089819A818E159F05C7
:1011500069F40C9DB0010D9D700D1C9D700D112446
:101160006B56714F822F0E94270F18820F5F1F4FFF
:10117000CD57DF4F0330110521F7DF91CF911F913C
:101180000F91FF90EF90DF90CF9008956DE372E1A3
:1011900080913C120E94270F08959F92AF92BF92B8
:1011A000CF92DF92EF92FF920F931F93CF93DF9333
:1011B0007C01962EC72ED42EC2E9DEE020E000E0AE
:1011C00010E093E8A92EB12C88818823D9F422233A
:1011D000B9F48FEA91E00E941111D882FA82E98273
:1011E0000A9D90010B9D300D1A9D300D11242B5638
:1011F000314F4D2D50E0692D7C2DC9010E94732582
:1012000021E006C089819A818E159F0509F4188214
:101210000F5F1F4FCD57DF4F03301105A9F6DF9148
:10122000CF911F910F91FF90EF90DF90CF90BF90E3
:10123000AF909F900895282F8091CB129091CC125F
:1012400068177907E9F08091C6128823C9F0709376
:101250008F0E60938E0E2093900E1092910ECB0104
:101260000E948D11882319F480E090E002C085E08F
:1012700090E061E479E00E94961481E08093D512B9
:1012800008951F93DF93CF93CDB7DEB760970FB666
:10129000F894DEBF0FBECDBF81E698E89A838983BC
:1012A0008091C8128B838F5F8093C8128091C9127E
:1012B0009091CA129D838C838091CB129091CC1215
:1012C000998788879D878C8780918E0E90918F0E4D
:1012D0009B878A878091900E8E870E94F70C8F875C
:1012E0000E94FA0C888B80918E0E90918F0E0E9436
:1012F0004002182F8E831F8290E00E94E101882314
:1013000079F0812F90E00E94FD01882349F040E1AF
:10131000BE016F5F7F4F812F90E00E94CD0806C015
:10132000BE016F5F7F4F80E10E94270F60960FB66E
:10133000F894DEBF0FBECDBFCF91DF911F9108950E
:101340008091C81190E08F7790708230910541F0C4
:101350008330910561F0019781F40E94682008951F
:101360008091C6119091C7110E94A51E0895809189
:10137000C6119091C7110E941D240895BF92CF926B
:10138000DF92EF92FF920F931F93CF93DF938C0125
:10139000F62E6A01E22E2091CB123091CC128217E8
:1013A000930709F483C08FEF0F3F180709F47EC03D
:1013B0008091C612882309F479C081E698E8909359
:1013C0003E1280933D128091C81280933F128F5F2E
:1013D0008093C8128091C9129091CA1290934112C1
:1013E0008093401230934512209344121093471279
:1013F000009346123093491220934812C8010E946C
:101400008D11B82EC8010E942A02EC01502F412FE5
:1014100006C0CE010E942A025C2F4D2FEC012097BE
:10142000C1F75093421240934312E0924A1290E067
:1014300009C0E92FF0E0E35CFD4ED6018D916D010E
:1014400086879F5F9F15A8F3209142123091431227
:101450008091CB129091CC122817390739F12F5F68
:101460003F4F21F18EE0F80EF0923C12C8010E942D
:10147000E101882369F0C8010E94FD01882341F041
:1014800040913C126DE372E1C8010E94CD080BC08F
:10149000BB2019F487E090E002C085E090E066ECA4
:1014A00078E00E94961481E08093D512DF91CF916D
:1014B0001F910F91FF90EF90DF90CF90BF90089514
:1014C000DF93CF9300D0CDB7DEB77A83698326E070
:1014D000AE014F5F5F4F62E00E94BE090F900F9018
:1014E000CF91DF91089521E00E94BE090895909167
:1014F000FF128091001320E0981321E0822F0895BD
:101500000F931F93182F092F8091FF122091001322
:1015100090E001966AE070E00E948D2830E082172A
:101520009307D9F04091FF12842F90E0FC01EE0F59
:10153000FF1FE80FF91FEF5FFC4E212F302FC9016D
:10154000DC0183E00D9001928150E1F7842F8F5FE1
:101550008A3008F080E08093FF121F910F91089568
:10156000DF93CF930F92CDB7DEB7809100138983BD
:10157000998189818F5F898389818A3008F01982F6
:1015800089818093001323E0929F900111242F5FA3
:101590003C4EC9010F90CF91DF9108951F93DF93C7
:1015A000CF930F92CDB7DEB713E05CC080910013EC
:1015B00089838981819FF0011124EF5FFC4E89812D
:1015C0008F5F898389818A3008F0198289818093AD
:1015D000001380818331F1F1843140F4813109F4C9
:1015E0003FC08231D0F58031E9F515C0853161F118
:1015F000853128F0863151F08731A1F528C08091DE
:10160000C612882379F50E94470B2CC00180F28115
:10161000E02D099527C08091C612882319F18BEB24
:1016200091E10E9453032091C4113091C511809122
:10163000CB129091CC122817390719F40E94A009F7
:1016400011C00E94E8110EC00E945F080BC00E94EA
:10165000580608C00E941A2405C00E945F1E02C0DE
:101660000E945E1E9091FF1280910013981709F05E
:101670009DCF0F90CF91DF911F91089580911B1006
:1016800008958093BF0108958091BF0108958091CE
:101690001B10882369F0E0911C10F0E0EE0FFF1F93
:1016A000E45EFF4E838194818C509E4F94838383AC
:1016B000089587E00E94A816E0911C10F0E0EE0F5C
:1016C000FF1FE45EFF4E23813481280F311D3483D8
:1016D000238360E087E00E94C3160895CF92DF92D3
:1016E000EF92FF920F931F93DF93CF93CDB7DEB7A7
:1016F000EDB6FEB680911C108A3108F44DC0DDB6FF
:10170000CEB610921B108EE00E94A8168F7E682F16
:101710008EE00E94C31625E330E1F9010FEF1FEFC1
:10172000808191818017910708F48C01329680E1C5
:10173000E535F807A9F7EDB7FEB77A970FB6F89435
:10174000FEBF0FBEEDBFADB7BEB711964BE060E078
:10175000F901808191818017910729F4FD01E60F3D
:10176000F11D40836F5F4F5F2E5F3F4F4B3181F71D
:10177000662349F080911E100E946D28A90FB11DAB
:101780008C910E946D1E8D2D9C2D9C010FB6F8949E
:101790003EBF0FBE2DBF30C08F5F80931C100E94D4
:1017A0002D0E83E098E090933E1280933D1280913D
:1017B000C71280933F128F5F8093C7128FEF9FEF06
:1017C000909341128093401290934312809342125F
:1017D00087E0809344126DE372E188E00E94270F56
:1017E00060E087E00E94C3166EE67BE084E190E053
:1017F0000E94961480931D100FB6F894FEBE0FBE83
:10180000EDBECF91DF911F910F91FF90EF90DF9090
:10181000CF900895EFE1F0E11192119280E1E5356A
:10182000F807D1F78AE080931C1010921D108FEFFB
:101830000E94C50086E00E94BB0E88E00E946A0EEE
:1018400080931E108BE00E942D0E8EE00E94A81641
:101850008061682F8EE00E94C31681E080931B1088
:101860000E946E0B08951F9310E0809124138F3F08
:10187000E1F011E080912013909121139093CA120E
:101880008093C91220912213309123133093CE12EA
:101890002093CD120E94980D809124130E94C000C5
:1018A000809128138F5F8093D112812F0E94631E35
:1018B0001F9108959091D2129F3FA9F481E08093E7
:1018C0001B1086E1EFE1F3E1DF011D928A95E9F754
:1018D000909324138BE08093D2128091BF018038C3
:1018E00011F08093D2124091D2124B3148F4242F40
:1018F00030E08091BF0190E001962817390741F44C
:1019000010921B108FEF8093D2120E94330C089517
:10191000842F0E94C00083E098E090933E12809351
:101920003D128091C71280933F128F5F8093C71240
:101930008FEF9FEF90934112809340129093431248
:101940008093421287E0809344126DE372E188E055
:101950000E94270F8091D2128F5F8093D2126AE586
:101960007CE084E190E00E9496140895EF92FF924B
:101970000F931F9388E00E946A0EF82EEE2488E0F1
:101980000E946A0E082F10E00E291F29C8010E942C
:10199000980D1093CA120093C91280E090E00E9443
:1019A0008C0D1092CC121092CB121F910F91FF90C0
:1019B000EF9008950E94CC1780E880936100109208
:1019C000610080E090E00E947B110E9460160E94FE
:1019D000BE190E94CC190E94FF1F78940E9400211A
:1019E0000E94CE0A0E94BB190E94ED19F6CF809189
:1019F0005610089580913A1208952D982C988DE0F4
:101A000090E00197F1F72D9A0895089508950895AB
:101A100040E06FE181E00E94ED16089540E06FE143
:101A200081E00E94ED16282F8151823058F022303B
:101A300049F0213039F080E090E02E3129F481E046
:101A400090E0089581E090E00895CF93DF93EC015A
:101A500040E06FE181E00E94ED16863021F0813098
:101A600011F084E407C040E06FE186E00E94ED16CB
:101A7000888380E4DF91CF91089540E067E083E0C0
:101A80000E94ED16089545E060E281E10E94ED16A6
:101A9000882311F08BE408958AE4089544E060E11E
:101AA00081E10E94ED16089540E06FE081E10E941F
:101AB000ED16089540E06FE089E00E94ED1608956C
:101AC00045E060E688E00E94ED16089540E06FE092
:101AD00085E00E94ED16089540E06FE188E00E94E5
:101AE000ED16089540E06FE186E00E94ED168093C8
:101AF00056101092D51208951F93CF93DF93EC01E7
:101B000014E26991812F0E94C3161F5F1C32C9F72E
:101B1000DF91CF911F9108951F93192F682F80E2B5
:101B20000E94C316612F81E20E94C3161F9108957F
:101B30001F93192F682F82E20E94C316612F83E240
:101B40000E94C3161F910895282F43E068E08EE29B
:101B50000E94001708952C988DE090E00197F1F70E
:101B600023E040E06FE182E00E94001783E090E014
:101B70000197F1F708951C9B02C080E408950E942C
:101B8000AB0D8BE490E00197F1F740E06FE181E06D
:101B90000E94ED16883011F083E408952C9A80E4B9
:101BA00008951F93162F663010F082E411C0882329
:101BB00011F421E001C020E043E068E083E00E94EE
:101BC0000017212F40E067E083E00E94001780E4C7
:101BD0001F9108951C9902C080E408952C9881EE0D
:101BE00096E00197F1F760E081E00E94D10D40E0BE
:101BF0006FE181E00E94ED16883071F383E408956F
:101C00001F93162F603110F082E415C01C9B02C098
:101C100084E411C0882311F021E001C020E044E0F9
:101C200060E181E10E940017212F40E06FE081E137
:101C30000E94001780E41F910895282F803110F032
:101C400082E408951C9B02C084E4089540E06FE0A4
:101C500085E00E94001780E408951F93182F8B5091
:101C6000803110F082E428C01C9B02C084E424C0B0
:101C700040E06FE188E00E94ED168117E1F0212F2E
:101C800040E06FE188E00E94001740E06FE181E0F2
:101C90000E94ED16863011F0893021F48DE291E03A
:101CA0000197F1F740E06FE188E00E94ED1681179F
:101CB00011F083E401C080E41F91089580915510D4
:101CC000882329F48CE10E94A816809355108091F6
:101CD000551008950F931F93DF93CF9300D0CDB786
:101CE000DEB7082F198240E06FE181E00E94ED1617
:101CF000182F0E945E0E833021F00E945E0E873006
:101D0000C9F4163019F4069510E010C0163191F49C
:101D1000FACF45E060E686E00E94ED168A8389816D
:101D20009A81880F880F892B89831F5F101788F38A
:101D3000898102C00E9445250F900F90CF91DF91BD
:101D40001F910F9108951F93182F0E945E0E8230ED
:101D500031F4212F47E060E885E00E9400170E94DF
:101D60005E0E833031F4212F45E060E284E00E9472
:101D700000171F9108950F931F93182F883051F06B
:101D8000863041F0893031F0863121F0893111F00F
:101D900082E45AC01C9B02C084E456C00E940E0D0F
:101DA0008823E1F70E945E0E823039F40E943E0BD8
:101DB000882319F0163109F416E040E06FE181E064
:101DC0000E94ED16082F181709F43DC0183019F4B9
:101DD0000E94AB0D2FC0193159F48930E1F029E090
:101DE00040E06FE182E00E940017063181F40CC0F0
:101DF000163189F4893079F029E040E06FE182E022
:101E00000E940017093119F483E090E002C089E6CE
:101E100091E00197F1F7212F40E06FE182E00E940D
:101E20000017083019F489E691E002C083E090E0E1
:101E30000197F1F740E06FE181E00E94ED16811714
:101E400011F083E401C080E41F910F9108951F9366
:101E5000CF93DF93182FEB0187FF02C082E41AC0F3
:101E60000E940E0D8823E1F789E10E94BB0E40E03D
:101E70006FE181E00E94ED168931B1F78D819E817D
:101E80009093D4128093D3121E5F612FCE010E94D3
:101E9000591780E4DF91CF911F910895DF93CF937D
:101EA00000D000D00F92CDB7DEB740E06FE181E007
:101EB0000E94ED168A838A81813151F08A818630B1
:101EC00039F08A81813021F08A81863109F047C05A
:101ED0000E941F179091BC1180E02091BB11AC01B2
:101EE000420F511D9A018091C0118F3F41F48091A2
:101EF000C1118F3F21F4842F807F09F062C01B82C3
:101F00001D821C8258E821363507E1F088E8223628
:101F1000380740F448E02330340761F0205030485F
:101F2000C9F40AC088E82336380771F02356384CC4
:101F300089F40EC085E10DC00E943E0B882351F04C
:101F400084E107C080E105C08091C411813011F4A3
:101F500087E18B83CE0103960E94800A32C08A817A
:101F6000823049F08A81823131F08A81893119F0D9
:101F70008A81893031F51092D5121B821D821C8214
:101F800045E060EE82E00E94ED168983898183300E
:101F900051F0843018F4823050F403C0853039F4A5
:101FA00004C081E103C083E101C082E18B838B81A6
:101FB000882321F0CE0103960E94800A86E10E94C8
:101FC000BB0E0F900F900F900F900F90CF91DF915D
:101FD00008950F931F930DEF13E0C8010197F1F7D8
:101FE0000E9492162D982C988DE090E00197F1F7C1
:101FF0002D9A23E040E06FE182E00E940017C801C3
:102000000197F1F76CE08EE00E94C31627E040E0F4
:102010006FE089E00E94001780E41F910F910895FE
:1020200008958091D9109091DA10282F30E0291B63
:10203000310937FF02C020583F4F822F0895809109
:10204000D9109091DA10282F30E0291B310937FF81
:1020500002C020583F4F822F0895809157109091D1
:102060005810282F30E0291B310937FF02C02058B3
:102070003F4F822F089590915810E92FF0E0E95AD0
:10208000FF4E228180915710981711F42FEF06C050
:10209000E92FEF5FE7FDE0E0E0935810822F08950D
:1020A00090E080915E11882309F491E090935E1195
:1020B000089580E0089508951F920F920FB60F9231
:1020C0000BB60F9211242F938F939F93EF93FF934F
:1020D00090915710809158109817B1F09091581026
:1020E000E92FF0E0E95AFF4E2281809157109817AE
:1020F00011F42FEF06C0E92FEF5FE7FDE0E0E0937A
:1021000058102093CE0005C08091C9008F7D809328
:10211000C900FF91EF919F918F912F910F900BBE6E
:102120000F900FBE0F901F9018951F920F920FB631
:102130000F920BB60F9211242F933F934F935F93FF
:102140006F937F938F939F93AF93BF93EF93FF937F
:102150002091CE009091D9109F5F97FD90E08091E3
:10216000DA10981741F0E091D910F0E0E752FF4EF5
:1021700022839093D91010925D11E0915B11F09140
:102180005C11309711F0822F0995FF91EF91BF916B
:10219000AF919F918F917F916F915F914F913F91FF
:1021A0002F910F900BBE0F900FBE0F901F901895A0
:1021B000282F9091D9109F5F97FD90E08091DA10C1
:1021C000981741F0E091D910F0E0E752FF4E2283DA
:1021D0009093D91010925D1108950F931F93082FBB
:1021E00080915E118823D1F47894109157101F5F6D
:1021F00017FF08C010E006C080915D11882371F4BC
:102200000E94ED19809158101817B1F3E091571002
:10221000F0E0E95AFF4E0283109357101F910F917F
:102220000895CF93DF93EC0103C00E94ED10219637
:1022300088818823D1F7DF91CF91089502C00E9451
:10224000ED198091D9109091DA10282F30E0291BD8
:10225000310937FF02C020583F4F222381F390916C
:10226000DA10E92FF0E0E752FF4E22818091D91079
:10227000981711F42FEF06C0E92FEF5FE7FDE0E0BC
:10228000E093DA10822F0895DF92EF92FF920F937E
:102290001F93CF93DF93EC01D42E00E0E62EFF24B2
:1022A0000894E108F1080E941E11182F802F90E079
:1022B0008E159F0524F01D3011F01830A1F7DD2098
:1022C00019F0812F0E94ED10183061F01D3081F45B
:1022D0001882802FDF91CF911F910F91FF90EF9087
:1022E000DF9008950023F9F2015018822197DBCF87
:1022F00019930F5FD8CF1092DA108091DA10809383
:10230000D9101092581080915810809357100E9445
:10231000521A0895089508950895FF920F931F93F8
:10232000DF93CF93CDB7DEB7C258D0400FB6F89445
:10233000DEBF0FBECDBF8E010D5F1F4FB8010E94E3
:10234000DA03F82E82E08F1578F583E698E89C830F
:102350008B838091C812F80182838F5F8093C812AB
:102360008091C9129091CA12948383831086178238
:102370008BEB8187858196819A83898389819A8174
:102380000E94BA02F801628573858617970761F08B
:1023900089819A810E94D002FF0CB8018F2D8A5F3B
:1023A0000E94270F81E001C080E0CE57DF4F0FB6BB
:1023B000F894DEBF0FBECDBFCF91DF911F910F917B
:1023C000FF9008956DE372E18FE70E94270F089553
:1023D000ACE3B2E1EAEBF1E182E801900D928150C9
:1023E000E1F75F9A67E57EE18AE090E00E9496144B
:1023F00080914612909147120E94E101209146126D
:10240000309147128823D9F18091C81280933F12EE
:102410008F5F8093C81230934312209342128091B1
:10242000CB129091CC12909345128093441280EC81
:1024300091E00E94111180914612909147120E94E2
:10244000FD01882361F040913C1242506DE372E13E
:1024500080914612909147120E94CD080895809174
:102460004212909143128F5F9F4F09F43EC08091BA
:102470003C126DE372E182500E94270F0895809113
:10248000C81280933F128F5F8093C812C9010E94C7
:102490004002909343128093421210924512109280
:1024A000441286ED91E00E941111809146129091A4
:1024B00047120E948D11882351F062EE71E185E090
:1024C00090E00E94961481E08093D5120895809147
:1024D0004212909143128F5F9F4F39F080913C12CE
:1024E0006DE372E182500E94270F08958DE493E11D
:1024F00008950895089580916011089508955F9852
:102500001092611108955F9880916111882371F094
:1025100010926111809162110E948D156EE772E137
:1025200082E390E00E9496148093621108955F9870
:10253000809161118823B1F11092611180914B1348
:1025400090914C13892B71F18091D612882351F10F
:10255000809162110E948D1520914B1330914C1384
:1025600042E02B38340788F46EE772E184E690E0AD
:10257000AC01249FC001259F900D349F900D112424
:102580000E949614809362110895C90105966AE02D
:1025900070E00E947928CB016EE772E10E94151568
:1025A0008093621108950F931F93DF93CF93CDB75C
:1025B000DEB72A970FB6F894DEBF0FBECDBF8E01EF
:1025C0000F5F1F4F9AE0F80111929A95E9F799E091
:1025D00099838A8346E050E0CE0103960E947C25D1
:1025E000A8016AE080913813909139130E94730A10
:1025F0008EEE91E00E9411112A960FB6F894DEBF7C
:102600000FBECDBFCF91DF911F910F9108950F9312
:102610001F93DF93CF93CDB7DEB72C970FB6F89407
:10262000DEBF0FBECDBF80915F118130D9F0813008
:1026300020F0823009F05BC03CC088E092E00E944C
:1026400011118AE393E10E9411118EE292E00E943F
:10265000111180915F118F5F80935F1181E08093F2
:1026600060114AC00E941110882309F445C041E05E
:102670006AE08E010F5F1F4FC8010E944411B8012C
:1026800080E00E94D31280915F118F5F80935F1171
:1026900080913713823081F581E392E00E9411111D
:1026A0008AE393E10E9411118EE292E00E941111DF
:1026B00023C0809137138230B1F40E941110882317
:1026C000D9F041E06AE08E010F5F1F4FC8010E9400
:1026D000441180915F118F5F80935F11B80181E099
:1026E0000E94D31209C083E080935F1105C010924D
:1026F000601110925F1106C067E073E182E390E021
:102700000E9496142C960FB6F894DEBF0FBECDBF74
:10271000CF91DF911F910F910895CF92DF92EF92A9
:10272000FF920F931F93DF93CF93CDB7DEB72A9716
:102730000FB6F894DEBF0FBECDBF6C01FC018081E7
:10274000843021F0863009F06EC063C087E592E0E6
:102750000E941111F601818192819F938F938EE6E1
:1027600092E09F938F9387EDE82E82E1F82EFF92FF
:10277000EF920E94CB25C7010E94111181E792E0E0
:102780000E94111183E090E0C80ED91E46E050E08F
:10279000B6018E010F5F1F4FC8010E947C251F826A
:1027A000C8010E94111180E20E94ED10C601069638
:1027B0000E94111185E792E00E9411110E94F70C0E
:1027C00090E09F938F930DE712E01F930F93FF927A
:1027D000EF920E94CB25C7010E94111180E892E080
:1027E0000E9411110E94FA0C90E09F938F931F9307
:1027F0000F93FF92EF920E94CB25C7010E94111107
:10280000EDB7FEB772960FB6F894FEBF0FBEEDBFE0
:102810000AC0A6E3B3E1F60189E001900D92815070
:10282000E1F70E9407132A960FB6F894DEBF0FBE99
:10283000CDBFCF91DF911F910F91FF90EF90DF906F
:10284000CF9008950F931F93DF93CF93CDB7DEB74B
:1028500029970FB6F894DEBF0FBECDBF8C0182E082
:10286000898348E050E0CE0102960E947C25AE01AB
:102870004F5F5F4F69E0C8010E94730A29960FB647
:10288000F894DEBF0FBECDBFCF91DF911F910F91A6
:102890000895DF93CF930F92CDB7DEB727E029835A
:1028A000AE014F5F5F4F63E00E94730A0F90CF91BC
:1028B000DF910895DF93CF930F92CDB7DEB725E078
:1028C000298310923613AE014F5F5F4F63E00E9481
:1028D000730A0F90CF91DF910895DF93CF9300D0CB
:1028E0000F92CDB7DEB723E029837B836A83AE01E5
:1028F0004F5F5F4F63E00E94730A0F900F900F903D
:10290000CF91DF910895DF93CF930F92CDB7DEB7CC
:102910008FB78983F8942091A6113091A7118981EE
:102920008FBFC9010F90CF91DF910895DF93CF93AF
:102930000F92CDB7DEB7AC01009719F4FB010995F2
:1029400030C08FB78983F894A5E6B1E1E0E08D91BE
:102950009C911197892B09F52E2F30E0F901EE0F8C
:10296000FF1FEE0FFF1FE20FF31FEB59FE4ECA01D0
:102970004115510511F481E090E091838083F901C4
:10298000EE0FFF1FEE0FFF1FE20FF31FEB59FE4E7E
:10299000748363839091631134C0EF5F1596EA30BE
:1029A000B1F690E03DC091E0E7E6F1E141E08081E1
:1029B000891709F440E0359681E1E939F807B9F75C
:1029C00080919911891709F440E080919E1189172F
:1029D00009F440E08091A311891799F0442389F00C
:1029E00090936311F901EE0FFF1FEE0FFF1FE20F2F
:1029F000F31FEB59FE4E928380916411882321F0DE
:102A00000DC09F5F89F6CFCF109295001092940071
:102A100082E08093710081E08093641189818FBF8F
:102A2000892F0F90CF91DF910895DF93CF930F926D
:102A3000CDB7DEB7AC01009719F4FB01099516C0BC
:102A40008091971190919811892B11F4E0E011C0B9
:102A500080919C1190919D11892B11F4E1E009C0A6
:102A60008091A1119091A211892B11F090E050C09A
:102A7000E2E02E2F30E0F901EE0FFF1FEE0FFF1FF7
:102A8000E20FF31FE956FE4E518340837483638344
:102A9000909163119F5F09F491E0E7E6F1E141E075
:102AA0008081891709F440E0359681E1E939F8071A
:102AB000B9F780919911891709F440E080919E112E
:102AC000891709F440E08091A311891719F3442371
:102AD00009F390936311F901EE0FFF1FEE0FFF1F33
:102AE000E20FF31FE956FE4E92838FB78983F89465
:102AF00080916411882351F41092950010929400F3
:102B000082E08093710081E08093641189818FBF9E
:102B1000892F0F90CF91DF910895982FE7E6F1E18B
:102B200020E030E08081891769F4F901EE0FFF1F82
:102B3000EE0FFF1FE20FF31FEB59FE4E11821082C2
:102B4000128208952F5F3F4F35962A30310551F795
:102B500080919911891719F480E090E00DC080915F
:102B60009E11891719F481E090E006C08091A311AD
:102B7000891771F482E090E0FC01EE0FFF1FEE0F69
:102B8000FF1FE80FF91FE956FE4E118210821282D4
:102B900008951F920F920FB60F920BB60F92112449
:102BA000DF92EF92FF920F931F932F933F934F93D8
:102BB0005F936F937F938F939F93AF93BF93EF93A5
:102BC000FF93DF93CF9300D00F92CDB7DEB7809104
:102BD000A6119091A71101969093A7118093A61129
:102BE0008091C7029091C80201979093C802809388
:102BF000C702892B49F005E611E166E1D62E7E0178
:102C00000894E11CF11C27C088EE93E09093C80261
:102C10008093C70207E911E156E1D52E7E010894A1
:102C2000E11CF11CF80180819181009769F0019706
:102C300091838083892B41F4D982838194819B8302
:102C40008A83C7010E94800A0B5F1F4FF1E1063A99
:102C50001F0741F7D0CFF80180819181009769F07B
:102C6000019791838083892B41F4D9828381948158
:102C70009B838A83C7010E94800A0B5F1F4FF1E18B
:102C800007391F0741F70F900F900F90CF91DF91F9
:102C9000FF91EF91BF91AF919F918F917F916F9134
:102CA0005F914F913F912F911F910F91FF90EF9066
:102CB000DF900F900BBE0F900FBE0F901F901895D6
:102CC000E1E9F0E080818A60808388EE93E0909370
:102CD00099008093980080919400909195000E94B3
:102CE0004A2508959C01F999FECF32BD21BDF89A7D
:102CF00080B508959C01F999FECF1FBA32BD21BD60
:102D000060BD0FB6F894FA9AF99A0FBE089584B18F
:102D1000866084B9299A209A289A80E58CBD81E042
:102D20008DBD0895249A259A84B1866084B9299A24
:102D3000209A289A80E58CBD81E08DBDEFE6F0E019
:102D400080818062808383E480938100B59A0895B6
:102D5000DF93CF930F92CDB7DEB780689FB799838B
:102D6000F89428988EBD0DB407FEFDCF8EB58EBDAC
:102D70000DB407FEFDCF8EB5289A99819FBF0F90A5
:102D8000CF91DF910895DF93CF930F92CDB7DEB748
:102D9000982F906C8FB78983F89428989EBD0DB4B6
:102DA00007FEFDCF8EB56EBD0DB407FEFDCF8EB50F
:102DB000289A89818FBF9F73923059F46F71663062
:102DC00011F0663121F481E08093351302C0109236
:102DD00035130F90CF91DF910895FF920F931F93BA
:102DE000062FF42E0E94A816082310E002C01595A5
:102DF0000795FA94E2F7802F1F910F91FF900895A5
:102E0000DF92EF92FF920F931F93D82EF62EE42EAF
:102E1000022F0E94A8166F2D6095682310E002C053
:102E2000000F111FEA94E2F7F0226F298D2D0E9406
:102E3000C3161F910F91FF90EF90DF900895DF93DD
:102E4000CF930F92CDB7DEB78FB78983F8942898C8
:102E500080E28EBD0DB407FEFDCF8EB58EBD0DB4E4
:102E600007FEFDCF9EB5892F83508D37A8F4909330
:102E7000BA119EBD0DB407FEFDCFEBEBF1E18EB5AF
:102E80001EBC81930DB407FEFDCF9150C1F78EB5E6
:102E900080933A12289A07C0289A1092BA11109279
:102EA0003A1210923B1289818FBF0F90CF91DF9120
:102EB0000895DF93CF930F92CDB7DEB7FC016F7704
:102EC0008FB78983F8942C9A2C98289880E68EBD29
:102ED0000DB407FEFDCF8EB56EBD0DB407FEFDCF60
:102EE0008EB581918EBD61500DB407FEFDCF8EB5BC
:102EF0006623B9F7289A89818FBF0F90CF91DF9110
:102F00000895DF93CF930F92CDB7DEB7982FFA01D4
:102F10008FB78983F89428981EBC0DB407FEFDCFA7
:102F20008EB59EBD0DB407FEFDCF8EB51EBC0DB493
:102F300007FEFDCF8EB58083615011F03196F6CF3C
:102F4000289A89818FBF0F90CF91DF910895DF93E9
:102F5000CF930F92CDB7DEB7982FFA018FB7898341
:102F6000F894289880E48EBD0DB407FEFDCF8EB591
:102F70009EBD0DB407FEFDCF8EB581918EBD0DB403
:102F800007FEFDCF8EB56150C1F7289A89818FBFAA
:102F90000F90CF91DF9108950895DF93CF930F9213
:102FA000CDB7DEB7E62FBA012FB72983F8942AE709
:102FB00036E14E2F50E00E94A72589818FBF0F90E8
:102FC000CF91DF910895DF93CF930F92CDB7DEB706
:102FD000FC01CA012FB72983F89422E736E1462F76
:102FE00050E0BF010E948B2589818FBF0F90CF9148
:102FF000DF910895DF92EF92FF920F931F93DF937B
:10300000CF9300D0CDB7DEB78091A811882311F0FF
:1030100011E05CC081E08093A811D0906600F89424
:1030200061E00E94D10DE090B100F090810000912C
:1030300080001092B100109281001092800020E078
:1030400030E063E056E04FEF6093B10050938100B1
:103050001092B200109285001092840046BB47BBCC
:10306000B89BFECF80918400909185009A838983DC
:10307000109281001092B10089819A818A5F9340F9
:1030800020F48091660081500AC089819A8186501F
:10309000944010F411E00CC0809166008F5F809323
:1030A00066002F5F3F4F83E0283E380769F610E047
:1030B00060E081E00E94D10DE092B100F0928100C9
:1030C00000938000112311F4D0926600812F0F909D
:1030D0000F90CF91DF911F910F91FF90EF90DF90B4
:1030E00008951F920F920FB60F920BB60F921124F4
:1030F0000F931F932F933F934F935F936F937F9300
:103100008F939F93AF93BF93EF93FF938FE00E94B2
:10311000A816082F182F83FF02C00E944E0F14FF1D
:1031200002C00E94590B12FF10C0289880E28EBD89
:103130000DB407FEFDCF8EB51EBC0DB407FEFDCF4E
:103140008EB5289A0E94720D0AC007FF08C08EE053
:103150000E94A8168F77682F8EE00E94C316FF91F9
:10316000EF91BF91AF919F918F917F916F915F91FF
:103170004F913F912F911F910F910F900BBE0F9088
:103180000FBE0F901F90189508950895789483B7F7
:10319000817F846083BF83B7816083BF889583B755
:1031A0008E7F83BF089508951F920F920FB60F92DE
:1031B0000BB60F9211242F933F934F935F936F930E
:1031C0007F938F939F93AF93BF93EF93FF938091E0
:1031D000DA0080FF31C08091D80080FF2DC08EEFD3
:1031E0008093DA008091D90080FF19C081E080933C
:1031F0005F138091A9119091AA1182609093AA11F6
:103200008093A9118091E20088608093E2000E947F
:10321000DF1A8091E0008E7F8093E0000DC0109255
:103220005F13109262138091A9119091AA1184608A
:103230009093AA118093A9118091E10082FF09C0A7
:103240008091E20082FF05C08BEF8093E1000E9435
:10325000DD198091E10080FF29C08091E20080FFAC
:1032600025C08EEF8093E1008091E2008061809321
:10327000E2008FEE8093E1008091D800806280931D
:10328000D8008091A9119091AA1180629093AA11FF
:103290008093A911789483B7817F846083BF83B7BB
:1032A000816083BF889583B78E7F83BF8091E10063
:1032B00084FF1AC08091E20084FF16C08091D8007C
:1032C0008F7D8093D8008FEE8093E1008091E200A3
:1032D0008F7E8093E2008091A9119091AA11806461
:1032E0009093AA118093A9118091E10085FF1AC0E3
:1032F0008091E20085FF16C08091E2008F7E80936E
:10330000E2008FED8093E1008091E2008F7D809359
:10331000E2008091A9119091AA1180689093AA115E
:103320008093A9118091E10083FF12C08091E20097
:1033300083FF0EC087EF8093E1000E94731B809192
:10334000A9119091AA1191609093AA118093A9114B
:10335000FF91EF91BF91AF919F918F917F916F916D
:103360005F914F913F912F910F900BBE0F900FBE29
:103370000F901F9018950E94FB1A0895E7EDF0E05A
:1033800080818160808380818F7B80838081806861
:1033900080830E94CE1A08958AB1806A8AB98DB15D
:1033A000806C8DB95F985E9A8EB1806C8EB9E2EEBA
:1033B000F0E0808184608083089580915B138F5F4B
:1033C00080935B1308955F9A88EC8093521308955D
:1033D0005D9888EC80935A1308950F931F93809102
:1033E0005213882321F081508093521301C05F98BB
:1033F00080915A13882321F0815080935A1301C081
:103400005D9A80915113882321F08150809351134C
:1034100001C0779A80915C13882321F081508093BA
:103420005C1301C0769A809162138823C1F1809168
:103430005B138233C0F080915D138823A1F010925A
:103440005B130E94C31A0FC00093E9000E94981AF0
:10345000882329F17798109351130E943B1090E034
:103460000E94A21A02C001E018EC0E942D108823CD
:1034700059F70E941F108F3790F40E94571A882323
:1034800049F40DC0769810935C130E94791A0E943B
:10349000D81001C018EC80915E13882399F71F9112
:1034A0000F91089510925D1310925E13089580910C
:1034B0005E138823C9F482E08093E9008091E800DC
:1034C00082FF12C08091F3008091F20080935E131E
:1034D000882351F48091E8008B7F8093E8008091ED
:1034E000E8008F778093E80080915E13811181E07E
:1034F000089582E08093E90080915E13882319F497
:103500000E94571AFBCF9091F10080915E13815079
:1035100080935E13882351F48091E8008B7F809321
:10352000E8008091E8008F778093E800892F089564
:103530008091E80090E025E0969587952A95E1F73F
:1035400081700895282F81E08093E9008091E80040
:1035500085FFFCCF0CC081E08093E9008091E800FA
:103560008F778093E80010925D13822F0895209347
:10357000F10080915D138F5F80935D138091E8006F
:1035800085FFE9CFF2CF81E08093E900E8EEF0E03B
:1035900080818F77808310925D1308957894E8ED91
:1035A000F0E080818F768083808180698083808154
:1035B0008F7B8083808181608083789408958EE002
:1035C00089BD09B400FEFDCF8091D8008F7D809326
:1035D000D8008091E20081608093E2008091E20057
:1035E00088608093E2000E94731B8091E0008E7FD0
:1035F0008093E00008958091D90080FF09C08091F8
:103600005F13882329F481E080935F130E94DF1AFF
:103610008091A9119091AA1190FF10C08091A911D9
:103620009091AA119E7F9093AA118093A91181E095
:103630008093EA001092EA00109262131092E9005F
:103640008091E80083FF02C00E946E1C0895909153
:10365000EB0091609093EB008093EC008091ED0083
:103660008270862B8093ED008091ED0082608093C4
:10367000ED008091EE00881F8827881F08959091A3
:10368000F40080E090FD06C08F5F873011F09695C2
:10369000F9CF80E00895FB018093E90004C0819197
:1036A0008093F10041508091E80085FF02C04423DF
:1036B000B1F7842F0895FB018093E90004C0809145
:1036C000F100819341508091E80085FF02C04423BE
:1036D000B1F7842F08958093E900EBEEF0E080814C
:1036E0008062808308958091D8008F7B8093D8007A
:1036F0008091D90081FF21C01092E9008091EB00F8
:1037000080FD1BC01092E9008091EB0081608093E6
:10371000EB0082E08093EC008091ED00827080638A
:103720008093ED008091ED0082608093ED008091A8
:10373000EE00881F8827881F089580E0089580E0A4
:1037400008958091E800877F8093E800809153136B
:103750008093F100809154138093F1008091551370
:103760008093F100809156138093F100809157135C
:103770008093F100809158138093F1008091591348
:103780008093F1008091E8008E7F8093E800809123
:10379000E80080FFFCCF8091E80082FFFCCF8091A1
:1037A000E8008B7F8093E8008091E8008F7780931A
:1037B000E80008958091E800877F8093E800809179
:1037C000E80082FFFCCF8091F10080935313809139
:1037D000F100809354138091F100809355138091F0
:1037E000F100809356138091F100809357138091DC
:1037F000F100809358138091F100809359138091C8
:10380000E8008B7F8093E8008091E8008F778093B9
:10381000E8008091E8008E7F8093E8008091E800C6
:1038200080FFFCCF08958091F1008091F10061321A
:1038300031F0623259F0603229F080E008950E9440
:10384000A11B02C00E94DA1B81E008958091E8006C
:10385000877F8093E8008091E8008E7F8093E80066
:103860008091E80080FFFCCF81E008958091E8001E
:10387000877F8093E8008091E8008E7F8093E80046
:103880008091E80080FFFCCF0895FF920F931F9373
:1038900009EE10E083E0F801808360E281EC0E9491
:1038A000271B81E0F801808360E281E80E94271BEA
:1038B00082E0F82EF801F08264E280E80E94271B83
:1038C000EAEEF0E088E080831082F082108284E0EB
:1038D000808310821F910F91FF900895DF93CF9303
:1038E00000D0CDB7DEB79091F1009093B011609108
:1038F000F1006630F9F0673068F4613009F402C114
:10390000613008F46CC1633009F435C1653009F0E9
:10391000BAC1BEC0693009F4DCC06A3020F4683036
:1039200009F0B1C199C06A3009F495C16B3009F052
:10393000AAC198C1903809F08DC01092AB11609166
:10394000F1008091F100813019F0823089F406C0D5
:1039500082E18093631388E990E005C083E480935B
:1039600063138AEA90E0909365138093641305C013
:103970000E949F1B882309F48BC18091F1008091E4
:10398000F1008091F10089838091F1008A83809118
:10399000E800877F8093E80029813A818091631352
:1039A00090E08217930758F48F739070892B21F45D
:1039B00081E08093AB1105C01092AB1102C020933F
:1039C000631320916413309165134091631319C000
:1039D0008091E80080FFFCCFF90190E00AC0542FED
:1039E0005150903449F09F5F84918093F10031965B
:1039F000452F9F01442399F78091E8008E7F8093A3
:103A0000E800442359F08091E80082FFE1CF209341
:103A10006413309365134093631306C020936413BB
:103A200030936513109263138091E80082FD08C102
:103A30008091AB11813049F48091E80080FFFCCF88
:103A40008091E8008E7F8093E8008091E80082FFFB
:103A5000FCCFF6C066E002C19038C1F48091E80066
:103A6000877F8093E800809162138093F1008091BA
:103A7000E8008E7F8093E8008091E8008F77809344
:103A8000E8008091E80082FFFCCFDAC068E0E6C081
:103A90009923E9F49091E3008091F1008F77907879
:103AA000892B8093E3008091E800877F8093E80072
:103AB0008091E8008E7F8093E8008091E80080FF8D
:103AC000FCCF8091E30080688093E300EBC065E069
:103AD000C5C09923A9F49091F100923008F0D8C0A4
:103AE0008091E800877F8093E80090936213809133
:103AF000E8008E7F8093E800892F0E94451CD2C089
:103B000069E0ACC09330A8F5992309F4C1C09130A5
:103B100009F4BEC08091F1009091F100882309F072
:103B2000B7C0E091F100EF77E093E9008091EB00FE
:103B300080FF50C0EE23B1F08091EB008061809354
:103B4000EB0081E090E00E2E02C0880F991F0A94CE
:103B5000E2F78093EA001092EA008091EB0088601F
:103B60008093EB001092E900F0E0E455FE4E1082E5
:103B700028C061E073C0933080F5913009F488C0AB
:103B8000923009F08FC08091F1009091F10088236C
:103B900009F07EC0E091F100EF7709F479C0E0937D
:103BA000E9008091EB0080FF15C08091EB008062FE
:103BB0008093EB001092E900F0E0E455FE4E81E0C6
:103BC00080838091E800877F8093E8008091E800FF
:103BD0008E7F66C01092E9005BC063E03FC0892F12
:103BE00080588330B0F58091F1008091F100E09130
:103BF000F100913829F0923859F0903809F048C016
:103C00008091E800877F8093E8001092F1000DC05A
:103C10008091E800877F8093E800F0E0EF77F07014
:103C2000E455FE4E80818093F1001092F100809166
:103C3000E8008E7F8093E8008091E80082FFFCCF4F
:103C40008091E8008B7F8093E8008091E8008F7777
:103C500027C060E003C09138D9F06AE0892F0E9444
:103C6000131C20C09130F1F48091E800877F80938D
:103C7000E8008091E8008E7F8093E8008091E80062
:103C800080FFFCCF0FC0892F0E94131C882351F4A2
:103C90008091EB0080628093EB008091E800877F49
:103CA0008093E8000F900F90CF91DF9108955F9877
:103CB00008955F9808955F98089508950895089568
:103CC000089508950895089589EC92E00E941111D5
:103CD00088EF92E00E94111108950F931F93082F0F
:103CE0000E94C5000E94B60C8CE193E00E94111165
:103CF00010E01F930F938FE393E09F938F9307ED53
:103D000012E11F930F930E94CB25C8010E9411114D
:103D100081E08093C6128DB79EB706960FB6F894D1
:103D20009EBF0FBE8DBF1F910F9108955F9A67E5EB
:103D30007EE18AE090E00E94961408956EE97EE1AB
:103D400088EE93E00E9496140895EF92FF920F93ED
:103D50001F938C015F9A67E57EE181E090E00E940D
:103D6000961482E493E00E9411111F930F938FE346
:103D700093E09F938F9387EDE82E82E1F82EFF92D8
:103D8000EF920E94CB25C7010E941111B80183E078
:103D90000E941B098DB79EB706960FB6F8949EBF7A
:103DA0000FBE8DBF1F910F91FF90EF9008955F9A06
:103DB00067E57EE189E190E00E9496140895EF9214
:103DC000FF920F931F93882349F08093B71170934C
:103DD000B6116093B51181E08093B8118091B7114D
:103DE000882309F48CC08091B81190E00E94E2020F
:103DF000FC018081882311F490E068C08091B711A4
:103E0000813021F0823021F191E060C08CE593E0B7
:103E10000E9411118091B81190E09F938F938FE3CE
:103E200093E09F938F9307ED12E11F930F930E94EE
:103E3000CB25C8010E9411116091B81170E082E099
:103E40000E941B0991E02DB73EB72A5F3F4F39C052
:103E50008CE693E00E9411118091B81190E09F933D
:103E60008F939FE3E92E93E0F92EFF92EF9207EDF7
:103E700012E11F930F930E94CB25C8010E941111DC
:103E80008DE793E00E9411118091B5119091B611C8
:103E90009F938F93FF92EF921F930F930E94CB25D6
:103EA000C8010E9411116091B5117091B6118091F5
:103EB000B81190E00E946D1491E02DB73EB7245FD9
:103EC0003F4F0FB6F8943EBF0FBE2DBF8091B81183
:103ED0008F5F8093B811843660F4992319F481E0E0
:103EE00090E002C08AEF90E064E87FE10E949614BF
:103EF00006C01092B6111092B5111092B7111F9111
:103F00000F91FF90EF90089560E070E080E00E94D4
:103F1000DF1E089560E08FE20E94C31660E070E04B
:103F200082E00E941B096AE87FE184EF91E00E9431
:103F300096148093B9110895EF92FF920F931F93F7
:103F4000DF93CF93CDB7DEB728970FB6F894DEBFD7
:103F50000FBECDBF8E010F5F1F4FA80168E080E04C
:103F600090E00E94E31778019E01275F3F4FF80120
:103F700080818F3FB9F40F5F1F4F02171307B9F706
:103F80002AC088E00E946A0EF70181937F01E01742
:103F9000F107B9F7AE014F5F5F4F68E080E090E056
:103FA0000E94CD178E010F5F1F4FA80162E080E1D4
:103FB00090E00E94E31789819A818F5F9F4F91F46F
:103FC00084E190E09A838983A80162E080E190E037
:103FD0000E94CD1707C080E00E94E90F86E00E9492
:103FE000BB0ECFCF28960FB6F894DEBF0FBECDBF65
:103FF000CF91DF911F910F91FF90EF9008958AB1BB
:10400000806A8AB98DB1806C8DB90E94D71E0E94DA
:104010009C1F0E940A0C81E893E00E9411110895F0
:10402000EF92FF920F931F938FE893E00E9411117C
:1040300080912213909123139F938F9381EA93E0B1
:104040009F938F9307ED12E11F930F930E94CB254F
:10405000C8010E94111184EA93E00E94111180911D
:10406000241390E09F938F932FE3E22E23E0F22E10
:10407000FF92EF921F930F930E94CB25C8010E94DD
:1040800011118CEA93E00E9411118091281390E0A5
:104090009F938F93FF92EF921F930F930E94CB25D4
:1040A000C8010E94111160912413809122139091F4
:1040B00023130E941C018DB79EB742960FB6F89449
:1040C0009EBF0FBE8DBF1F910F91FF90EF9008957F
:1040D0008091C811813059F45F9A67E57EE18AE0EA
:1040E00090E00E94961489EC91E10E948D1308954E
:1040F0006F927F928F929F92AF92BF92CF92DF92F8
:10410000EF92FF920F931F93DF93CF93CDB7DEB75C
:10411000A8970FB6F894DEBF0FBECDBF86EB93E035
:104120000E94111163EEC62E68E0D62E53E4A52E30
:1041300056E0B52E4E010894811C911C45EC642E6E
:1041400043E0742EF60180810E94A816082F10E02B
:104150001F930F93BF92AF927F926F929F928F9215
:104160000E94CB25C4010E94111138E0E32EF12CEE
:104170002DB73EB7285F3F4F0FB6F8943EBF0FBE36
:104180002DBF8E2D8150F80102C0F595E7958A95D7
:10419000E2F7E0FD02C080E301C081E30E94ED1080
:1041A0000894E108F108E114F10459F783ED93E074
:1041B0000E9411110894C11CD11C20E130E0A20E14
:1041C000B31E3DE0C31639E0D30609F0BBCF83ED43
:1041D00093E00E941111A8960FB6F894DEBF0FBEAF
:1041E000CDBFCF91DF911F910F91FF90EF90DF90A6
:1041F000CF90BF90AF909F908F907F906F900895D9
:104200006F927F928F929F92AF92BF92CF92DF92E6
:10421000EF92FF920F931F93DF93CF93CDB7DEB74B
:10422000C656D0400FB6F894DEBF0FBECDBF109279
:10423000B4110E941110882309F4E6C20E947B1277
:10424000882309F0E1C28091D512882309F0DCC2ED
:104250000E941E11082F843111F41092B111809127
:10426000B111882301F17E010894E11CF11C10E0DA
:10427000F70100831F5F143659F00E941110089453
:10428000E11CF11C882321F00E941E11082FF0CFA1
:10429000AE014F5F5F4F612F8091B2119091B311CA
:1042A0000E94730AB1C283ED93E00E941111093696
:1042B00081F10A3698F4003509F471C2013538F4F9
:1042C000013409F473C2033409F098C212C20336F0
:1042D00009F4ABC1043609F091C215C0023709F4E4
:1042E000DEC1033738F40E3609F419C2003709F07D
:1042F00085C26CC1043751F0043708F47FC1073719
:1043000009F07CC230C20E94782078C20E94440426
:1043100075C28091CF129091D0129F938F9380910C
:10432000CD129091CE129F938F938091CB1290914A
:10433000CC129F938F9386ED93E09F938F933E01D2
:104340000894611C711C7F926F920E94CB25C3015F
:104350000E9411118091D21290E09F938F9382E07E
:1043600094E09F938F937F926F920E94CB25C3011D
:104370000E9411118EE094E00E9411118091C912E7
:104380009091CA129F938F9381EA93E09F938F93AA
:1043900007ED12E11F930F930E94CB25C8010E94E5
:1043A000111183ED93E00E9411118090BE12909044
:1043B000BF12A090C012B090C112C090C212D09093
:1043C000C312E090C412F090C512BF92AF929F92B8
:1043D0008F9200E29401A501B601C7010E947524E5
:1043E00059016A01DF92CF92BF92AF928AE194E0C5
:1043F0009F938F937F926F920E94CB252DB73EB7EC
:104400002E5D3F4F0FB6F8943EBF0FBE2DBFC301C8
:104410000E9411119091D1128091C612882319F433
:1044200020E334E002C026E334E0892F90E09F933C
:104430008F933F932F938BE394E09F938F938E0101
:104440000F5F1F4F1F930F930E94CB25C8010E943F
:10445000111188E00E946A0E90E09F938F9385E58A
:1044600094E09F938F931F930F930E94CB25C801D5
:104470000E9411110E945E0EEDB7FEB73E960FB678
:10448000F894FEBF0FBEEDBF833051F0873059F076
:10449000823019F406EE10E008C0082F10E005C0C5
:1044A00007EE10E002C004ED10E083E694E00E9405
:1044B00011118DE10E94A81690E09F938F931F9396
:1044C0000F938BE694E09F938F938E010F5F1F4FA6
:1044D0001F930F930E94CB25C8010E94111188E7FA
:1044E00094E09F938F938CE794E09F938F931F9317
:1044F0000F930E94CB25C8010E94111188E090E023
:104500009F938F9389E894E09F938F931F930F93CA
:104510000E94CB25C8010E94111120914B133091AC
:104520004C13C9016AE070E00E9479289F938F9331
:10453000C9016AE070E00E9479287F936F9388E94F
:1045400094E09F938F931F930F930E94CB25C801F4
:104550000E9411118EEA94E09F938F9384EB94E074
:104560009F938F931F930F930E94CB252DB73EB738
:104570002E5D3F4F0FB6F8943EBF0FBE2DBFC80152
:104580000E9411117EECE72E74E0F72EFF92EF925D
:1045900081ED94E09F938F931F930F930E94CB25FF
:1045A000C8010E941111FF92EF9280EE94E09F9358
:1045B0008F931F930F930E94CB258DB79EB70C96B8
:1045C0000FB6F8949EBF0FBE8DBF18C181EF94E067
:1045D0000E94111141E062E38E010F5F1F4FC8017D
:1045E0000E944411C8010E9455258093B2119093F6
:1045F000B311BC0182E00E941B0900C185E095E077
:104600000E94111141E062E38E010F5F1F4FC8014C
:104610000E944411C8010E9455259093B3118093C4
:10462000B21181E08093B111E9C08CE195E00E9464
:10463000111141E062E38E010F5F1F4FC8010E941C
:104640004411C8010E945525F82E8DE295E00E9484
:10465000111141E062E3C8010E9444118F2D0E94B4
:10466000C5000E94B60C8FE395E00E94111181E015
:104670008093C612C8010E9455259093B311809370
:10468000B211009709F4BAC00E94980D8091B2113E
:104690009091B3119093CA128093C912AFC08EE566
:1046A00095E00E94111141E062E38E010F5F1F4F00
:1046B000C8010E944411C8010E9455259093B3116E
:1046C0008093B21188E795E00E94111141E062E306
:1046D000C8010E944411C8010E9455258C010E9406
:1046E000CE0AB8018091B2119091B3110E946D145D
:1046F00085C089E995E00E94111141E062E38E01D5
:104700000F5F1F4FC8010E944411C8010E94552528
:104710008093B2119093B3110E945A146FC08BEA28
:1047200095E00E94111141E062E38E010F5F1F4F7F
:10473000C8010E944411C8010E9455259093B311ED
:104740008093B2118EEB95E00E94111141E062E37B
:10475000C8010E944411B8018091B2119091B31127
:104760000E9422144BC08CEC95E00E94111141E094
:1047700062E38E010F5F1F4FC8010E944411C80100
:104780000E9455259093B3118093B2110E94CE0AD6
:104790008091B2119091B3110E9434032FC08FED1C
:1047A00095E00E9411110E94501028C08EEF95E0F4
:1047B0000E94111141E062E3CE0101960E94441172
:1047C0008981803729F460E070E081E00E94DF1E7B
:1047D0008981823799F488E795E00E94111141E0C0
:1047E00062E38E010F5F1F4FC8010E944411C80190
:1047F0000E945525BC0182E00E94DF1E64E67EE136
:104800008AEF90E00E949614CA59DF4F0FB6F894D1
:10481000DEBF0FBECDBFCF91DF911F910F91FF90F3
:10482000EF90DF90CF90BF90AF909F908F907F9050
:104830006F9008950E9483120895EF92FF920F9354
:104840001F938C0180E296E00E9411111F930F9339
:1048500081EA93E09F938F9307ED12E11F930F93EB
:104860000E94CB25C8010E94111186E396E00E94A8
:1048700011110E94FA0C90E09F938F93EFE3EE2EBC
:10488000E3E0FE2EFF92EF921F930F930E94CB2541
:10489000C8010E9411118CE396E00E9411110E9440
:1048A000F70C90E09F938F93FF92EF921F930F93DB
:1048B0000E94CB25C8010E94111183ED93E00E9454
:1048C00011115F9A67E57EE18AE090E00E949614FC
:1048D0008DB79EB742960FB6F8949EBF0FBE8DBFA0
:1048E0001F910F91FF90EF900895EF92FF920F9319
:1048F000DF93CF93CDB7DEB760970FB6F894DEBFE6
:104900000FBECDBFA82F002309F461C07E0108941B
:10491000E11CF11C88E0F70111928A95E9F72983DF
:104920003A834B835C836D837E83AF83988780E279
:10493000801BE82FFF27E7FDF0954D815E816F8199
:104940007885181684F01D861E861F86188A88278B
:1049500099278E1B9F0B04C07695679557954795B1
:104960008A95D2F728C0202F332727FD3095DB0109
:10497000CA01022E04C0B695A795979587950A940B
:10498000D2F78D879E87AF87B88B04C0440F551F21
:10499000661F771FEA95D2F789819A81AB81BC8126
:1049A00004C0B695A795979587952A95D2F7482B79
:1049B000592B6A2B7B2B49875A876B877C872985E4
:1049C0003A854B855C856D857E85AF8598898A2F74
:1049D00060960FB6F894DEBF0FBECDBFCF91DF91CA
:1049E0000F91FF90EF900895A0E0B0E0EAEFF4E2BD
:1049F0000C94E228EC01A880B980CA80DB80A11465
:104A0000B104C104D10441F484E2A82E89EDB82E8A
:104A10008BE5C82E87E0D82EC601B5012DE133EF16
:104A200041E050E00E94BF2827EA31E440E050E036
:104A30000E94A0287B018C01C601B5012DE133EF56
:104A400041E050E00E94BF28CA01B9012CEE34EFCA
:104A50004FEF5FEF0E94A0286E0D7F1D801F911FFA
:104A600097FF04C06150704080409048688379830C
:104A70008A839B839B013F77C901CDB7DEB7EAE00C
:104A80000C94FE280E94F42408958DE099E00E9481
:104A9000F4240895A0E0B0E080930D0990930E09EE
:104AA000A0930F09B09310090895FC018827992756
:104AB000E89421912032E9F3293010F02E30C8F328
:104AC0002B3241F02D3239F4689404C00E94C32582
:104AD000820F911D219120532A30C0F31EF490952E
:104AE00081959F4F0895FB01DC0102C001900D925A
:104AF00041505040D8F70895FB01DC01415050402F
:104B000048F001900D920020C9F701C01D9241505C
:104B10005040E0F70895A0E0B0E0E1E9F5E20C9440
:104B2000E4287C01EB018A01690109C0CE012196CC
:104B3000F6010995F70181937F010150104001159D
:104B40001105A1F7CDB7DEB7E8E00C940029A0E08D
:104B5000B0E0EDEAF5E20C94E428EC017B018A0177
:104B6000690109C0F70161917F01CE012196F6012B
:104B700009950150104001151105A1F7CDB7DEB719
:104B8000E8E00C9400297AE0979F902D879F802D74
:104B9000910D11240895AEE0B0E0E1EDF5E20C9442
:104BA000E8280D891E8986E08C831A8309838FEF9C
:104BB0009FE79E838D83CE014996AC016F89788DE6
:104BC000CE0101960E94EE252F813885020F131F1A
:104BD000F80110822E96E4E00C940429ABE0B0E0DA
:104BE000E4EFF5E20C94DA283C012B015A01FC01B8
:104BF00017821682838181FD03C06FEF7FEFC8C1EA
:104C00009AE0892E1E010894211C311CF301238196
:104C1000F20123FD859123FF81912F01882309F45F
:104C2000B4C1853239F423FD859123FF81912F0191
:104C3000853229F4B30190E00E94E327E7CF982F53
:104C4000DD24CC249924FFE1FD15D0F09B3269F0DE
:104C50009C3228F4903259F0933291F40EC09D3278
:104C600049F0903369F441E024C052E0D52A84E051
:104C7000D82A28C098E0D92A25C0E0E1DE2A22C03F
:104C8000D7FC29C0892F80538A3070F4D6FE05C026
:104C9000989C902C1124980E15C0C89CC02C1124EF
:104CA000C80EF0E2DF2A0EC09E3229F4D6FC6DC198
:104CB00040E4D42A07C09C3619F450E8D52A02C033
:104CC000983649F4F20123FD959123FF91912F012C
:104CD000992309F0B8CF892F8554833018F080527A
:104CE000833038F444E050E0A40EB51E5FE35983EE
:104CF0000FC0933631F0933779F0933509F056C0F1
:104D000020C0F5018081898342E050E0A40EB51EE9
:104D1000710101E010E012C0F501E080F180D6FCE5
:104D200003C06FEF7FEF02C0692D70E042E050E0FA
:104D3000A40EB51EC7010E94D8278C015FE7D522BB
:104D400014C0F501E080F180D6FC03C06FEF7FEF67
:104D500002C0692D70E042E050E0A40EB51EC7010C
:104D60000E94CD278C0150E8D52AD3FE07C01AC077
:104D7000B30180E290E00E94E327CA948C2D90E07A
:104D800008171907A8F30EC0F701D7FC8591D7FEC5
:104D900081917F01B30190E00E94E327C110CA9482
:104DA000015010400115110579F7ECC0943611F04F
:104DB000993671F5D7FE08C0F501E080F1800281D7
:104DC000138144E050E00AC0F501808191817C01AB
:104DD0000027F7FC0095102F42E050E0A40EB51E0E
:104DE0005FE6D52217FF0AC010950095F094E09475
:104DF000E11CF11C011D111D80E8D82A2AE030E0D9
:104E0000A101C801B7010E940F28F82EF21840C076
:104E1000953729F41D2D1F7E2AE030E01DC01D2D81
:104E2000197F9F3661F0903720F4983509F0ADC0B6
:104E30000FC0903739F0983709F0A7C004C028E0B8
:104E400030E00AC0106114FD146020E130E004C0BD
:104E500014FD166020E132E017FF08C0F501608103
:104E600071818281938144E050E008C0F501808126
:104E70009181BC0180E090E042E050E0A40EB51EBC
:104E8000A1010E940F28F82EF2188FE7D82ED12208
:104E9000D6FE0BC05EEFD522F91438F4D4FE07C05D
:104EA000D2FC05C08FEED82202C01F2D01C0192DE3
:104EB000D4FE0DC0FE01EF0DF11D8081803319F489
:104EC00099EED92208C01F5FD2FE05C003C08D2D08
:104ED000867809F01F5F0D2DD3FC14C0D0FE0FC0E3
:104EE0001C1510F09F2C0BC09F2C9C0C911A1C2D94
:104EF00006C0B30180E290E00E94E3271F5F1C150B
:104F0000C0F304C01C1510F4C11A01C0CC2404FF66
:104F100010C0B30180E390E00E94E32702FF1EC0AF
:104F200001FD03C088E790E002C088E590E0B3018E
:104F30000CC0802F867891F001FF02C08BE201C087
:104F400080E2D7FC8DE2B30190E00E94E32706C027
:104F5000B30180E390E00E94E3279A94F914C0F330
:104F6000FA94F101EF0DF11DB301808190E00E94F0
:104F7000E327FF20A9F706C0B30180E290E00E947A
:104F8000E327CA94CC20C1F741CEF3016681778133
:104F9000CB012B96E2E10C94F628FC0105906150C0
:104FA00070400110D8F7809590958E0F9F1F08953F
:104FB000FC016150704001900110D8F780959095E8
:104FC0008E0F9F1F08950F931F93CF93DF938C0134
:104FD000EB018B8181FF1BC082FF0DC02E813F81C1
:104FE0008C819D812817390764F4E881F981019348
:104FF000F983E88306C0E885F985802F0995892B18
:1050000031F48E819F8101969F838E8302C00FEFC2
:105010001FEFC801DF91CF911F910F910895FA0101
:10502000AA27283051F1203181F1E8946F936E7FE7
:105030006E5F7F4F8F4F9F4FAF4FB1E03ED0B4E0D8
:105040003CD0670F781F891F9A1FA11D680F791F19
:105050008A1F911DA11D6A0F711D811D911DA11D2A
:1050600020D009F468943F912AE0269F112430193A
:10507000305D3193DEF6CF010895462F4770405DD5
:105080004193B3E00FD0C9F7F6CF462F4F70405D84
:105090004A3318F0495D31FD4052419302D0A9F7DF
:1050A000EACFB4E0A6959795879577956795BA95D9
:1050B000C9F700976105710508959B01AC010A2E9F
:1050C00006945795479537952795BA95C9F7620F76
:1050D000731F841F951FA01D0895991B79E004C0BC
:1050E000991F961708F0961B881F7A95C9F7809527
:1050F0000895AA1BBB1B51E107C0AA1FBB1FA6171F
:10510000B70710F0A61BB70B881F991F5A95A9F770
:1051100080959095BC01CD01089597FB092E072637
:105120000AD077FD04D0E5DF06D000201AF4709590
:1051300061957F4F0895F6F7909581959F4F08955B
:10514000629FD001739FF001829FE00DF11D649F6B
:10515000E00DF11D929FF00D839FF00D749FF00DF7
:10516000659FF00D9927729FB00DE11DF91F639F98
:10517000B00DE11DF91FBD01CF011124089597FB6A
:10518000092E05260ED057FD04D04BD00AD0001CA6
:1051900038F450954095309521953F4F4F4F5F4FD4
:1051A0000895F6F790958095709561957F4F8F4F94
:1051B0009F4F08952F923F924F925F926F927F92EE
:1051C0008F929F92AF92BF92CF92DF92EF92FF9217
:1051D0000F931F93CF93DF93CDB7DEB7CA1BDB0BC3
:1051E0000FB6F894DEBF0FBECDBF09942A88398868
:1051F00048885F846E847D848C849B84AA84B9846F
:10520000C884DF80EE80FD800C811B81AA81B9817A
:10521000CE0FD11D0FB6F894DEBF0FBECDBFED018E
:105220000895A1E21A2EAA1BBB1BFD010DC0AA1FE7
:10523000BB1FEE1FFF1FA217B307E407F50720F0FF
:10524000A21BB30BE40BF50B661F771F881F991F7A
:105250001A9469F760957095809590959B01AC01C3
:0A526000BD01CF010895F894FFCFBF
:10526A000D0A4261642064657374206E6F64652060
:10527A0028525029000D0A5461626C6520446174F9
:10528A00613A0D0A002563253032582025632530FE
:10529A00325820253032582030782530386C58253D
:1052AA0030386C580D0A000D0A4E6574776F726BB0
:1052BA0020547265650D0A00256325303258200096
:1052CA0020202020000D0A0043435245000D0A44C5
:1052DA00726F7070696E67206368696C642000255C
:1052EA0078002066726F6D20706172656E7420009E
:1052FA000D0A4173736F636961746564206E6F642C
:10530A0065200025640020486F7073203D20000D41
:10531A000A486F6C64696E67206672616D65008009
:10532A000D0A526F757465206461746120746F2070
:10533A006368696C64000D0A526F75746520646154
:10534A0074612066726F6D20436F6F7264000D0A7C
:10535A0053656E742063616C206461746120746F9C
:10536A002073656E736F72000D0A43616C206E6F55
:10537A0064652C20656E746572206170706C696555
:10538A00642072656164696E672041205B005D3A42
:10539A00000D0A43616C206E6F64652C20656E7483
:1053AA006572206170706C696564207265616469F8
:1053BA006E672042205B000D0A52656164696E6760
:1053CA002066726F6D206E6F6465203078002578D4
:1053DA0000203D20002C20525353493D00256400F3
:1053EA002C204C51493D0048E17EC19A99D940523E
:1053FA00B8B24148E10B42D7A33842666662423DE1
:10540A008A854200009A42AE47AF42D723C642334A
:10541A00B3DF4214AEFD4266A611437B142C43331C
:10542A00335B43142E2D44E8030D0A643D64756D05
:10543A007020743D7461626C6520693D696E666FA7
:10544A0020703D70696E6720733D73747265616D7B
:10545A0020633D6368616E000D0A723D7265616486
:10546A00696E67206E3D6E616D6520773D77616B71
:10547A006520503D70617573653A20000D0A5374BA
:10548A0061727475702C204920616D20636F6F7290
:10549A0064696E61746F72206F6E206368200025E4
:1054AA0064000D0A50696E672072657175657374C0
:1054BA002066726F6D206E6F646520000D0A506958
:1054CA006E67696E67206E6F646520000D0A496E0B
:1054DA0074657276616C206E6F64652000203D20D1
:1054EA00000D0A4E6F726D616C206D6F6465000D60
:1054FA000A4173736F63696174696E6720746F2000
:10550A0000257800206F6E20636820002C20686FC9
:10551A007073203D20000D0A0D0A5245472044555C
:10552A004D500D0A00252D313573202D202530329E
:10553A005820000D0A000D0A73686F7274203D200E
:10554A00253034580D0A706172656E74203D20252D
:10555A003034580D0A726F7574653D253034580D14
:10556A000A006368616E203D2025640D0A005041DF
:10557A004E204944203D203078006C6F6E67203DF4
:10558A002030782530386C582530386C580D0A0090
:10559A0066616C73650074727565006173736F631D
:1055AA00203D2025730D0A486F7073203D20253059
:1055BA0034580D0A0072616E64203D20253032583D
:1055CA000D0A00506172743D52460025752C205216
:1055DA0065763D25640D0A0059657300536C65654F
:1055EA0070203D2025730D0A0046726571203D200A
:1055FA0025644D487A0D0A00496E74657276616CAD
:10560A00203D2025642E25647365630D0A0033321C
:10561A004B487A00536C6565702074696D65642027
:10562A0062792025732074696D65720D0A004E6FC8
:10563A0000364C6F5750414E203D2025730D0A000D
:10564A0044656D6F206D6F6465203D2025730D0ADA
:10565A00000D0A456E7465722073686F727420615A
:10566A006464723A000D0A53747265616D206D6F3D
:10567A00646520746F20616464723A000D0A456E95
:10568A00746572206E6577206368616E000D0A4545
:10569A006E746572206E65772050414E4944000D44
:1056AA000A537461727475702C204920616D2063ED
:1056BA006F6F7264696E61746F722E0D0A000D0A43
:1056CA005265717565737420646174612066726FC6
:1056DA006D206E6F64653A000D0A5265706F7274C0
:1056EA002074696D6520283130306D5320696E74DD
:1056FA00657276616C73293A000D0A43616C2077F2
:10570A0068696368206E6F64653A000D0A4E616DC0
:10571A0065207768696368206E6F64653A000D0AD0
:10572A00456E746572206E616D653A000D0A5761A7
:10573A006B65207768696368206E6F64653A000D4F
:10574A000A5061757365642C207072657373202723
:10575A00502720746F20756E7061757365000D0A8D
:10576A00416C6C206E6F646573202D202872296548
:10577A006164696E672C2028702970696E673A0027
:10578A000D0A50696E6720726573706F6E736520BB
:10579A0066726F6D2000204C51493D0020525353D0
:1057AA00493D005452585F53544154555300000028
:1057BA000000005452585F53544154450000000001
:1057CA000000005452585F4354524C5F30000000AE
:1057DA000000005452585F4354524C5F310000009D
:1057EA000000005048595F54585F5057520000005B
:1057FA000000005048595F5253534900000000000E
:10580A000000005048595F45445F4C4556454C00DE
:10581A000000005048595F43435F43434100000082
:10582A000000004343415F544852455300000000C2
:10583A000000005452585F4354524C5F320000003B
:10584A000000004952515F4D41534B0000000000D7
:10585A000000004952515F5354415455530000000F
:10586A00000000565245475F4354524C0000000066
:10587A000000004241544D4F4E000000000000005D
:10588A00000000584F53435F4354524C000000003D
:10589A0000000052585F53594E00000000000000FB
:1058AA0000000052465F4354524C5F300000000033
:1058BA000000005841485F4354524C5F31000000D9
:1058CA0000000046544E5F4354524C000000000052
:1058DA0000000052465F4354524C5F310000000002
:1058EA00000000504C4C5F434600000000000000DE
:1058FA00000000504C4C5F4443550000000000007B
:10590A00000000504152545F4E554D000000000007
:10591A0000000056455253494F4E5F4E554D000008
:10592A000000004D414E5F49445F30000000000016
:10593A000000004D414E5F49445F31000000000005
:10594A0000000053484F52545F414444525F3000B4
:10595A0000000053484F52545F414444525F3100A3
:10596A0000000050414E5F49445F300000000000D3
:10597A0000000050414E5F49445F310000000000C2
:10598A00000000494545455F414444525F300000EC
:10599A00000000494545455F414444525F310000DB
:1059AA00000000494545455F414444525F320000CA
:1059BA00000000494545455F414444525F330000B9
:1059CA00000000494545455F414444525F340000A8
:1059DA00000000494545455F414444525F35000097
:1059EA00000000494545455F414444525F36000086
:1059FA00000000494545455F414444525F37000075
:105A0A000000005841485F4354524C5F3000000088
:105A1A0000000043534D415F534545445F30000049
:105A2A0000000043534D415F534545445F31000038
:105A3A0000000043534D415F424500000000000052
:105A4A000000000102030405060708090C0E0F10E6
:105A5A00111215161718161A1B1C1D1E1F2021229B
:105A6A00232425262728292A2B2C2D2E2F01000016
:025A7A0000002A
:00000001FF
